:020000040800F2
:10400000881D00209D41000855600008995F000848
:1040100051600008594E0008297200080000000095
:10402000000000000000000000000000AD65000876
:104030002154000800000000B1620008C1410008DE
:10404000B7410008B7410008B7410008B741000870
:10405000B7410008B7410008B7410008B741000860
:10406000B7410008B7410008B7410008B741000850
:10407000B7410008B7410008B7410008B741000840
:10408000B7410008B7410008B7410008B741000830
:10409000B7410008B7410008B7410008B741000820
:1040A000B741000849700008B7410008B74100084F
:1040B000B7410008B7410008B7410008B741000800
:1040C000B7410008B7410008B7410008B7410008F0
:1040D000B7410008AD700008B7410008B7410008BB
:1040E000B7410008B7410008B7410008B7410008D0
:1040F000B7410008B7410008B7410008B7410008C0
:10410000B7410008B7410008B7410008B7410008AF
:10411000B7410008B7410008B7410008B74100089F
:10412000B7410008B7410008B7410008B74100088F
:10413000B7410008B7410008B7410008B74100087F
:10414000000000000000000000000000000000006F
:10415000B7410008B7410008B7410008B74100085F
:10416000B7410008B7410008B7410008B74100084F
:10417000B7410008B7410008B7410008B74100083F
:10418000B7410008DFF810D000F06AFB00F06AF8D1
:1041900000480047D9C50008881D00200648804710
:1041A00006480047FEE7FEE7FEE7FEE7FEE7FEE71C
:1041B000FEE7FEE7FEE7FEE7656E000885410008C2
:1041C00030B410B50348804730BCAE4630BC02481E
:1041D00000477047F5CD0008BD6D00082DE9F0419E
:1041E0000024061B254671F1000605DA012400278C
:1041F000D0EB070067EB0101161E73F1000605DA2C
:104200000027D2EB0702012567EB030300F032FA27
:1042100086460E4617469C46AC4204D00025D0EB9D
:10422000050E65EB010624B10020D2EB000760EB20
:10423000030C704631463A466346BDE8F081D2B27F
:1042400001E000F8012B491EFBD270470022F6E77F
:1042500010B513460A4604461946FFF7F0FF2046FC
:1042600010BD00007CB50748009007480190054646
:10427000009C04E02046016808448047241DAC42AD
:10428000F8D17CBDF4F40008F8F400082DE9FE4FE5
:10429000804681EA0300C00F0C46009021F00041E7
:1042A00023F00045B8EB0200A94105D24046214663
:1042B00090461C460B46024623F00040104347D070
:1042C000270DC7F30A00C3F30A510290401A019068
:1042D00040286BDAC3F3130040F4801B0098924629
:1042E00020B10023D2EB030A63EB0B0B0198594674
:1042F000C0F14002504600F0EEF906460D46504629
:104300005946019A00F006FA10EB080061410024BA
:1043100087EA115284EAE7731A4340D0009A62B3E5
:10432000019A012A4FEA075215DC001B61EB0201DA
:104330004FF0004202EA0752CDE90042001C41F56D
:10434000801132462B4600F03DFA03B0BDE8F08FF5
:1043500040462146F9E7001B61EB0201001C41F5D4
:10436000801300185B412018A2F5001747EB0301EA
:1043700040EAD570B6196D4111E06D084FEA360676
:1043800045EAC0754FEA0752001B61EB0201001CB1
:1043900041F5801149084FEA300000195141324679
:1043A0002B4603B0BDE8F04F00F0FDB900980122A4
:1043B00040000023D0EB020263EBE073009821463B
:1043C0004FEAE074B8EB000061EB0401E9E783F029
:1043D00000435BE781F0004158E72DE9FE4F81EA99
:1043E000030404F0004421F0004100944FF0000B5E
:1043F00023F0004350EA01045ED052EA03045BD08C
:10440000C3F30A54C1F30A552C44A4F2F3340194C3
:10441000A0FB0254C1F3130141F48011C3F3130351
:1044200043F4801301FB024400FB034E840A970A05
:1044300044EA815447EA8357A4FB076802958D0A32
:1044400005FB07854FEA932C04FB0C542705029DBE
:104450004FEA065847EA1637B5EB08056EEB070C2E
:10446000870E920E47EA811742EA8312A7FB0201E8
:10447000B6EB0B0164EB00042B0D43EA0C335E1822
:1044800044EB1C50DA465146E7FB0201C5F3130426
:104490004FEA0B3343EA14534FEA0432019C43EAD8
:1044A0000603A4F10C040294009CCDE900B400F0D2
:1044B00089F903B0BDE8F08F00200146F9E72DE946
:1044C000F04D81EA030404F0004B21F0004514464E
:1044D0004FF0000A23F0004150EA050220D054EAD0
:1044E00001021DD0C5F30A570246C5F31303C1F3F9
:1044F0001300C1F30A5640F4801543F48013A7EB70
:104500000608101BD64608F2FD3873EB050002D3EF
:1045100008F1010801E092185B41B8F1000F03DADD
:1045200000200146BDE8F08D00204FF480110646C2
:1045300084460EE0171B73EB050705D3121B63EBD4
:10454000050306434CEA010C49084FEA3000921873
:104550005B4150EA0107EDD152EA030012D082EA32
:10456000040083EA0501084305D0101BAB4106D2C5
:104570000122002306E000224FF0004302E06FF02A
:10458000010253101AEB06004CEB085110EB0A0025
:1045900041EB0B01BDE8F04D00F005B90EB5C10FC0
:1045A00080EAE0700844CA07002140F233438DE8F6
:1045B0000E000A460B4600F005F903B000BD0EB52B
:1045C00040F2334102910021CDE900110A460B4629
:1045D00000F0F8F803B000BD70B5C1F30A5201F065
:1045E00000450024C1F3130140F2FF3341F4801170
:1045F0009A4201DA002070BD40F233439A42A2F29F
:10460000334203DC524200F075F800E090402C4346
:10461000F1D0404270BD00F0004230F000400AD0BE
:10462000C10D01F56071C0F3160042EA0151C208E4
:1046300040071143704700200146704701F00043D6
:1046400030B421F0004150EA010206D00A0DA2F573
:104650006072C1F31301002A02DC30BC00207047F5
:10466000440F44EAC104C100E01830BC00EBC25062
:1046700000F062B82DE9F05F0546002092469B46A7
:1046800088460646814640241BE028464146474668
:10469000224600F02FF853465A46C01A914110D3D3
:1046A00011461846224600F016F82D1A67EB01084D
:1046B0004F4622460120002100F00DF817EB0009BB
:1046C0004E41201EA4F10104DFDC484631462A4653
:1046D0004346BDE8F09F202A04DB203A00FA02F1AD
:1046E000002070479140C2F1200320FA03F31943E0
:1046F00090407047202A04DB203A21FA02F0002182
:10470000704721FA02F3D040C2F1200291400843E1
:1047100019467047202A06DBCB17203A41FA02F0EF
:1047200043EAE07306E041FA02F3D040C2F120020E
:1047300091400843194670470029A8BF7047401CA4
:10474000490008BF20F00100704710B4B0FA80FCA7
:1047500000FA0CF050EA010404BF10BC704749B1E4
:10476000CCF1200421FA04F411FA0CF118BF012154
:1047700021430843A3EB0C01CB1D4FEA00614FEA34
:10478000102042BF002010BC704700EBC350104403
:104790000029A4BF10BC7047401C490008BF20F08E
:1047A000010010BC704710B5141E73F1000408DA44
:1047B000401C41F1000192185B411A4301D120F0E5
:1047C000010010BD2DE9F04D92469B4611B1B1FAA2
:1047D00081F202E0B0FA80F220329046FFF77BFFD0
:1047E00004460F4640EA0A0041EA0B0153465A4686
:1047F000084313D0114653EA010019D0C8F1400212
:104800005046FFF777FF05460E465046594642464A
:10481000FFF761FF084305D0012004E02046394638
:10482000BDE8F08D0020054346EAE0762C4337438F
:104830000A986305E40AA0EB08000022FD0A44EA96
:1048400047540A3002D500200146E9E70105101956
:104850006941DDE9084500196941BDE8F04DA2E76D
:104860001CB509480090094801900546009C06E0E7
:10487000E06840F0010394E8070098471034AC4228
:10488000F6D3FFF783FC0000D4F40008F4F400082A
:1048900070B58C1810F8015B15F0070301D110F802
:1048A000013B2A1106D110F8012B03E010F8016B2F
:1048B00001F8016B5B1EF9D12B0705D40023521EB2
:1048C0000DD401F8013BFAE710F8013BCB1A921C1A
:1048D00003E013F8015B01F8015B521EF9D5A14218
:1048E000D8D3002070BD000080B584B0FFE741F24E
:1048F0000401C4F20101086820F0030008600868A0
:104900000860FFE741F20000C4F2010000904FF49C
:104910000071019107F0CEF90120029004F0FCFE35
:104920000098019907F0D0F9029804F0F5FE0020F4
:104930008DF80F00FFE79DF80F00312815DCFFE729
:1049400041F20000C4F201004FF4807107F07AFADE
:1049500008B9FFE709E0052004F0DEFEFFE79DF857
:104960000F0001308DF80F00E5E741F20000C4F2BE
:1049700001004FF4007107F09DF9012004F0CCFE16
:10498000FFE741F20401C4F20101086820F00300CE
:104990000860086840F003000860FFE704B080BDCD
:1049A00080B582B0ADF8060000208DF80500FFE765
:1049B0009DF8050003282DDCFFE7BDF806009DF8F3
:1049C000051006F0ABFB8DF804009DF8041040F2D2
:1049D0003010C2F20000405C8DF804009DF8050024
:1049E00038B9FFE79DF8040040F002008DF804009C
:1049F000FFE79DF80510082000EB41009DF804102A
:104A0000C0B200F053FDFFE79DF8050001308DF8BE
:104A10000500CDE702B080BD80B584B0ADF80E00D2
:104A200000208DF80D008DF80C008DF80B00BDF8FE
:104A30000E1045F62940C0F28F20A1FB00218DF811
:104A40000D10BDF80E20A2FB0010642100FB112008
:104A500049F69A11C1F69911A0FB01208DF80C00BE
:104A6000BDF80E00A0FB012101EB8101A0EB41008C
:104A70008DF80B009DF80D1040F23010C2F20000CE
:104A80000190405C40F00201222000F00FFD0198EF
:104A90009DF80C10415C242000F008FD01989DF861
:104AA0000B10415C262000F001FD04B080BD000029
:104AB00080B582B0ADF8060000208DF80500FFE754
:104AC0009DF80500022846DCFFE7BDF806009DF8CA
:104AD000051006F023FB8DF804009DF8041040F249
:104AE0003010C2F20000405C8DF804009DF8050013
:104AF00068B9FFE7BDF80600632807DCFFE79DF80B
:104B0000040040F002008DF80400FFE712E09DF879
:104B1000050001280DD1FFE7BDF80600642807DB7A
:104B2000FFE79DF8040040F002008DF80400FFE765
:104B3000FFE7FFE79DF805101C2000EB41009DF802
:104B40000410C0B200F0B2FCFFE79DF80500013090
:104B50008DF80500B4E702B080BD000080B584B0D8
:104B6000ADF80E0000208DF80D008DF80C008DF8CA
:104B70000B00BDF80E1045F62940C0F28F20A1FBB6
:104B800000218DF80D10BDF80E20A2FB001064214D
:104B900000FB112049F69A11C1F69911A0FB0120E2
:104BA0008DF80C00BDF80E00A0FB012101EB810186
:104BB000A0EB41008DF80B009DF80D1040F2301075
:104BC000C2F200000190405C40F00201162000F0AB
:104BD0006DFC01989DF80C10415C182000F066FCFB
:104BE00001989DF80B10415C1A2000F05FFC04B0A6
:104BF00080BD000080B582B0ADF8060000208DF8C1
:104C00000500FFE79DF80500022846DCFFE7BDF838
:104C100006009DF8051006F081FA8DF804009DF855
:104C2000041040F23010C2F20000405C8DF8040025
:104C30009DF8050068B9FFE7BDF80600632807DCAA
:104C4000FFE79DF8040040F002008DF80400FFE744
:104C500012E09DF8050001280DD1FFE7BDF8060020
:104C6000642807DBFFE79DF8040040F002008DF8A0
:104C70000400FFE7FFE7FFE79DF80510102000EBB9
:104C800041009DF80410C0B200F010FCFFE79DF851
:104C9000050001308DF80500B4E702B080BD0000CA
:104CA00080B582B0ADF8060000208DF80500FFE762
:104CB0009DF8050003282CDCFFE7BDF806009DF8F1
:104CC000051006F02BFA8DF804009DF8041040F250
:104CD0003010C2F20000405C8DF804009DF8050021
:104CE000012807D1FFE79DF8040040F002008DF88D
:104CF0000400FFE79DF8050040009DF80410C0B2D5
:104D000000F0D4FBFFE79DF8050001308DF80500A9
:104D1000CEE702B080BD000080B582B041F6B4009D
:104D2000C2F20000019040F22A31C2F200014FF4B9
:104D30008062009208F01EF9009A0198103040F24B
:104D40002A71C2F2000108F015F9019943F600003A
:104D5000C4F20100086202B080BD000080B582B0DC
:104D60000190019800790146009140B1FFE7009859
:104D7000012826D0FFE70098022851D06AE0019868
:104D8000C06880470198407950B9FFE70199012038
:104D9000087140F2E021C2F200010220087059E0DF
:104DA0000198407901280AD1FFE701990120087193
:104DB00040F2E021C2F200010F2008704AE0FFE754
:104DC00048E001988068804740F2E021C2F200018B
:104DD000087801380870000608BBFFE70199022037
:104DE00008710198407948B9FFE7019902200871DC
:104DF00040F2E021C2F2000108702BE001984079F6
:104E000001280AD1FFE701990220087140F2E02150
:104E1000C2F200010F2008701CE0FFE7FFE719E075
:104E20000198C068804740F2E021C2F20001087892
:104E300001380870000660B9FFE701990020087189
:104E4000019A0221517140F2E021C2F20001087082
:104E500000E0FFE702B080BDFFE7FEE780B582B06B
:104E600041F29470C2F2000090F890000146019166
:104E700040B1FFE70198012805D0FFE7019802281B
:104E800004D006E006E000F007F803E007F096FD26
:104E900000E0FFE702B080BD80B541F20000C4F23F
:104EA0000100802106F0CEFF012819D1FFE740F272
:104EB000E120C2F20000017801310170007806287B
:104EC0000DDBFFE740F2E121C2F200010020087093
:104ED00041F29471C2F2000181F89000FFE72AE0EC
:104EE00040F2E121C2F200010020087041F294700A
:104EF000C2F2000090F88600A0B1FFE741F2947082
:104F0000C2F20000022180F8901090F8860002287A
:104F100007D1FFE740F21001C2F20001FA20086059
:104F2000FFE707E041F29471C2F20001012081F82D
:104F30009000FFE7FFE780BD80B582B040F6843087
:104F4000C2F2000000780146019148B1FFE70198E4
:104F500001283FD0FFE70198032800F09D80B9E0C9
:104F600041F20000C4F20100802106F06BFF01460F
:104F700040F2E420C2F2000001700078B8B9FFE707
:104F800040F68431C2F200010120087041F6401061
:104F9000C2F20000006841F66801C2F20001086038
:104FA00041F28411C2F200010020087011E041F2C8
:104FB0009470C2F2000090F87600C00740B9FFE795
:104FC00041F29471C2F20001002081F89000FFE7E5
:104FD000FFE798E041F64010C2F20000006841F699
:104FE0006801C2F200010968401A142853D3FFE790
:104FF00005F0A6FE014640F2E220C2F20000018068
:10500000008841F29471C2F20001898E32398842DF
:105010002FDBFFE741F64010C2F20000006841F6C6
:105020006801C2F20001086041F29470C2F200000F
:1050300090F88600A0B1FFE741F29470C2F2000040
:10504000022180F8901090F88600022807D1FFE72F
:1050500040F21001C2F20001FA200860FFE707E009
:1050600041F29471C2F20001012081F89000FFE743
:1050700010E040F68431C2F200010320087041F6CE
:105080004010C2F20000006841F66801C2F200015F
:105090000860FFE7FFE736E041F64010C2F200008B
:1050A000006841F66801C2F200010968401A44F63E
:1050B000206188420DD3FFE740F68431C2F200013F
:1050C0000020087041F29471C2F2000181F8900052
:1050D000FFE718E040F68431C2F2000100200870BA
:1050E00041F64011C2F20001096841F66802C2F2BD
:1050F0000002116041F29471C2F2000181F8900047
:1051000081F87600FFE702B080BD000080B586B070
:1051100041F29470C2F2000090F86900C00778B3C1
:10512000FFE741F29470C2F2000090F88E0001286F
:1051300015D1FFE741F29470C2F20000012180F81E
:10514000951090F88F0048B9FFE740F60040C4F290
:1051500001004FF4007106F0B7FDFFE70FE041F2E8
:105160009471C2F20001002081F8950040F60040E1
:10517000C4F201004FF4007106F09CFDFFE707E068
:1051800041F29471C2F20001002081F89500FFE71E
:1051900040F2E820C2F20000007820BBFFE740F2B6
:1051A000E821C2F2000101200490087041F29471DC
:1051B000C2F20001002081F88F0040F60040C4F2E6
:1051C00001004FF4805106F07FFD049940F6000085
:1051D000C4F20100059006F077FD05984FF40061D8
:1051E00006F068FDF9E041F29470C2F2000090F818
:1051F0009500002840F0A580FFE740F60040C4F28B
:105200000100042106F01EFE00284ED1FFE740F207
:10521000E520C2F2000001780131017040F2E6227F
:10522000C2F2000200211170007806283CDBFFE783
:1052300040F2E521C2F200010020087041F29470B2
:10524000C2F20000012180F8931090F8931090F8BA
:105250009400884227D0FFE741F29471C2F2000126
:105260000120029081F89400002081F88E0081F8DE
:105270008F0040F60040C4F201004FF4805106F068
:1052800023FD029940F60000C4F20100039006F0ED
:105290001BFD4FF4FA7004F0F5F903984FF4006128
:1052A00006F012FDFFE7FFE74AE040F2E620C2F217
:1052B000000001780131017040F2E522C2F20002E3
:1052C000002111700078062839DBFFE740F2E62064
:1052D000C2F200000021017041F29470C2F200009D
:1052E00080F8931090F8931090F89400884225D09D
:1052F000FFE741F29471C2F20001002081F89400AE
:1053000081F88F0081F88E0040F60040C4F2010061
:105310004FF4805106F0D8FC40F60000C4F20100C2
:105320000190012106F0D0FC4FF47A7004F0AAF944
:1053300001984FF4006106F0BDFCFFE7FFE7FFE7CF
:105340004AE041F29470C2F2000090F89500012802
:1053500041D1FFE741F29470C2F20000808ED0B3D9
:10536000FFE741F29470C2F20000008900282ADCB5
:10537000FFE740F2E720C2F200000178013101703E
:10538000007815281EDBFFE740F2E721C2F200019A
:105390000020087041F29471C2F2000181F88F0080
:1053A00081F88E0040F60040C4F201004FF48051B5
:1053B00006F08AFC40F60000C4F20100012106F06C
:1053C00083FCFFE706E040F2E721C2F20001002083
:1053D0000870FFE7FFE7FFE7FFE706B080BD0000CA
:1053E00085B004908DED030ACDED020A8DED011A12
:1053F000CDED001A0398049908600298049948605A
:1054000001980499886004990020886104990862D1
:1054100000980499486300980499086305B07047A0
:105420007047000080B582B040F23010C2F2000038
:105430000190007C40F00201082000F037F801984C
:10544000007940F002010A2000F030F8019800785D
:1054500040F002010C2000F029F8019841780E205C
:1054600000F024F802B080BD80B582B040F2301068
:10547000C2F200000190407940F00201002000F0EB
:1054800015F80198407840F00201022000F00EF873
:105490000198007840F00201042000F007F801981C
:1054A0008178062000F002F802B080BD80B582B09D
:1054B0008DF807008DF806109DF806008DF80500A0
:1054C0009DF806008DF804009DF8050000F0F0003E
:1054D0008DF805009DF8040000018DF804009DF88A
:1054E00007009DF805109DF8042001F08DFD02B025
:1054F00080BD000080B586B004908DF80F100020AC
:105500008DF80E000498408E4FF6FE71884205DC3F
:10551000FFE70499488E01304886FFE79DF90F00A8
:10552000033001460291062834D80299DFE801F0E1
:105530002B32143204322400049800F0F5F8049958
:1055400081F83400049890F834100120012908BF34
:1055500009208DF80E001EE0049800F0E5F804998B
:1055600081F83400049890F834100220012908BF13
:105570000A208DF80E000EE003208DF80E0004982E
:1055800000F0FCF807E004208DF80E00049800F00D
:10559000F5F800E0FFE7049890F82700B0FA80F0F3
:1055A00040098DF80D00049890F82D10002001900E
:1055B00049B9FFE7049890F827000138B0FA80F065
:1055C00040090190FFE7019800F001008DF80C0000
:1055D000049991F8270081F82D00049890F8300084
:1055E00068B1FFE79DF80C0020B1FFE7049800F0D8
:1055F000C5F8FFE79DF80E008DF817008FE00498BE
:10560000408D012816DBFFE70499488D0138488555
:105610000498408D68B9FFE7049890F82C000128A1
:1056200007D1FFE705208DF80E00049800F0A6F8DA
:10563000FFE7FFE79DF80D0000283FD0FFE7049942
:10564000088D013008850499088D098B884219D18D
:10565000FFE70498408D01280EDBFFE7049890F8DF
:105660002C00012808D1FFE706208DF80E000499D0
:10567000012081F8300004E00499012081F82C0019
:10568000FFE7FFE70499088D498B884215DBFFE7A8
:105690000499C88D0130C8850498C28DC18BB2FBB6
:1056A000F1F000FB112038B9FFE704990020C8850C
:1056B00008208DF80E00FFE7FFE72BE09DF80C00B7
:1056C00038B3FFE70499088D098B88421DDBFFE79B
:1056D0000499088D498B88420FDAFFE7049890F807
:1056E0002C00012808D1FFE70498408D20B9FFE77E
:1056F0000499888B4885FFE706E007208DF80E00A7
:10570000049800F03BF8FFE7FFE7049900200885C4
:10571000FFE7FFE79DF80E008DF81700FFE79DF803
:10572000170006B080BD000082B000900099488E3E
:10573000098C884207DAFFE700990020488601209B
:105740008DF8070005E00099002048868DF80700D5
:10575000FFE79DF8070002B07047000080B582B0F7
:105760000190ADF802100198BDF8021006F06AFB36
:105770000138B0FA80F0400902B080BD81B00090DD
:1057800000990020088500994885009981F82C002F
:105790000099C885009981F8300001B07047000079
:1057A00080B582B0019000208DF80300019908684F
:1057B0008988FFF7D3FF40F2E921C2F200010870A7
:1057C000019988688989FFF7C9FF40F2EA21C2F28E
:1057D0000001087001990869898AFFF7BFFF014637
:1057E00040F2EB20C2F2000001700178019A82F8C9
:1057F00027100078019981F826000198807DA8BBC8
:10580000FFE740F2E920C2F200000078019991F828
:105810002410884229D0FFE740F2E920C2F20000BC
:10582000007888B9FFE740F2EA20C2F20000007871
:10583000012804D1FFE701208DF8030003E0FF20D9
:105840008DF80300FFE7FFE740F2E920C2F2000015
:105850000078019981F8240040F2EA20C2F20000A9
:105860000078019981F82500FFE7CBE040F2E920BC
:10587000C2F200000078019991F82410884200F0EB
:10588000C080FFE740F2E920C2F200000078012862
:1058900053D1FFE7019890F8250001280BD1FFE7CD
:1058A00040F2EA20C2F20000007820B9FFE70120B0
:1058B0008DF8030040E0019890F8250060B9FFE7FB
:1058C00040F2EA20C2F200000078012804D1FFE78C
:1058D000FF208DF803002EE0019890F8250040F29B
:1058E000EA21C2F20001097888420BD1FFE740F2B9
:1058F000EA20C2F20000007820B9FFE701208DF80D
:10590000030017E0019890F8250040F2EA21C2F266
:105910000001097888420CD1FFE740F2EA20C2F288
:1059200000000078012804D1FFE7FF208DF8030074
:10593000FFE7FFE7FFE7FFE752E0019890F8250057
:1059400001280BD1FFE740F2EA20C2F20000007804
:1059500020B9FFE7FF208DF8030040E0019890F8A0
:10596000250060B9FFE740F2EA20C2F200000078AB
:10597000012804D1FFE701208DF803002EE00198F3
:1059800090F8250040F2EA21C2F20001097888422D
:105990000BD1FFE740F2EA20C2F20000007820B904
:1059A000FFE7FF208DF8030017E0019890F825002D
:1059B00040F2EA21C2F20001097888420CD1FFE7E7
:1059C00040F2EA20C2F200000078012804D1FFE78B
:1059D00001208DF80300FFE7FFE7FFE7FFE7FFE7A0
:1059E00040F2E920C2F200000078019981F8240019
:1059F00040F2EA20C2F200000078019981F8250007
:105A0000FFE7FFE740F2EB20C2F200000078E8B9C0
:105A1000FFE79DF9030020B9FFE702208DF803009E
:105A200013E09DF90300012804D1FFE703208DF85E
:105A3000030009E09DF90300013020B9FFE7FD20D4
:105A40008DF80300FFE7FFE7FFE7FFE79DF903009D
:105A500002B080BD80B586B041F2C000C2F2000045
:105A600080690390FFE700F007FA04900498039917
:105A700088422CD2FFE7EFF3108005900598029042
:105A800072B641F2C000C2F2000080690190019834
:105A9000039988420ED1FFE7049841F2C001C2F297
:105AA00000018861086901300861BFF35F8F012040
:105AB000009002E000200090FFE7029810B9FFE795
:105AC00062B6FFE7009808B9FFE701E00CE0FFE7E6
:105AD000049A41F2C000C2F20000183003A901F09C
:105AE000D1FE0028BFD0FFE7049806B080BD0000BB
:105AF00080B58CB00A900991089207930720059011
:105B0000FFE70598002863D0FFE700F03BFA049018
:105B1000049800F03F0140F64040C2F2000000EB64
:105B20000110069004994FF4700000EA8130019052
:105B30000A9801990843099A4FF0805101EAD2016D
:105B40000843089A4FF0005101EA92010843079A6E
:105B50004FF0804101EA5201084340F00060039099
:105B600006980C30039900F02DFA03909DF80F0071
:105B70004007002827D5FFE7039880F000400390F6
:105B8000039800F000400290099820F0004002992C
:105B9000084306990860089820F0004002990843DD
:105BA00006994860079820F000400299084306993A
:105BB000886006980C30039901F00AFB00F0F8F9B0
:105BC00001200B9009E0FFE705980138059098E760
:105BD00000F0E4F900200B90FFE70B980CB080BDBB
:105BE00087B00590049103920498FE2804D8FFE73B
:105BF0000398FF2803D3FFE70020069036E000203B
:105C000002900190FFE7019803282CD8FFE7059840
:105C10000199C840C007F0B1FFE704980090FFE782
:105C200000980399884215D8FFE7009901F0070210
:105C3000012000FA02F3029800EBD10241F2400188
:105C4000C2F20001885C18438854FFE700980130D5
:105C50000090E5E7FFE7029820300290FFE7019807
:105C600001300190CFE701200690FFE7069807B0CA
:105C70007047000080B58AB00990089141F2C001D8
:105C8000C2F2000101910020087041F24000C2F20E
:105C900000008021FEF7DAFA4FF27C40C0F60000E7
:105CA000182102F053FC01460198ADF81A10006A61
:105CB00042F26B71CEF2A51188420FD0FFE741F29C
:105CC000C001C2F2000142F26B70CEF2A510086270
:105CD000BDF81A0048800120C8611CE041F2C000F4
:105CE000C2F200004088BDF81A1088420AD0FFE7CF
:105CF000BDF81A0041F2C001C2F200014880012043
:105D0000C86107E041F2C001C2F20001C869013078
:105D1000C861FFE7FFE741F2C000C2F20000C069BE
:105D2000012812D1FFE741F2C001C2F200010020B8
:105D3000487048608860C86040F64040C2F2000089
:105D40004FF48061FEF782FA20E000200290FFE726
:105D500002983F2819D8FFE7029940F64040C2F266
:105D6000000000EB011007900798C07B4007002857
:105D700006D5FFE70799C86820F04060C860FFE7D4
:105D8000FFE7029801300290E2E7FFE741F2C0002E
:105D9000C2F20000C069012817D1FFE700F074F8D3
:105DA0000490049820B1FFE700F06AF8059002E043
:105DB00000200590FFE7059841F2C001C2F2000102
:105DC000486100208861086103E000F05DF80490FC
:105DD000FFE7049838B3FFE709980021FE220092FC
:105DE000FFF7FEFE0F20EF221146FFF7F9FE009AA3
:105DF00004201146FFF7F4FEFFF72CFE03900399F1
:105E000041F2C000C2F200004369C2694FF600705F
:105E1000C0F20030FFF76CFE089818B1FFE700F001
:105E200005F8FFE7FFE704980AB080BD80B584B0AD
:105E300041F2C000C2F20000007818B1FFE7012073
:105E4000039015E041F2C001C2F20001012001906F
:105E50000870FFF7FFFD029002994FF60170C0F243
:105E6000003000231A46FFF743FE01980390FFE736
:105E7000039804B080BD000080B505F0BBFE80BD76
:105E800080B506F075FF80BD0120704780B540F2F7
:105E9000EC20C2F200000078C00780B9FFE740F2B2
:105EA000EC21C2F200010120087040F60000C4F2AB
:105EB0000000022140F6BF0207F0D2FAFFE740F2ED
:105EC0000000C2F20000016801390160006800288A
:105ED00057DCFFE740F20001C2F2000140F6B830A3
:105EE00008600A21084604F0C7FE014641F294709A
:105EF000C2F20000A0F85810B0F85800B0F5147FB6
:105F00000ADAFFE740F60000C4F20000022140F682
:105F1000BF0207F0A5FA33E041F29470C2F200002C
:105F2000B0F85800B0F5407F0ADAFFE740F600000D
:105F3000C4F20000022140F61F5207F091FA1EE061
:105F400041F29470C2F20000B0F85800B0F5547FEE
:105F50000ADAFFE740F60000C4F20000022141F235
:105F60007F1207F07DFA09E040F60000C4F200005D
:105F7000022141F2DF5207F073FAFFE7FFE7FFE784
:105F8000FFE780BD80B541F2C000C2F200000430DE
:105F900001F0A8FC80BD0000FFE7FEE780B541F2FC
:105FA000C000C2F200000C3001F09CFC80BD00007B
:105FB00080B541F2C000C2F20000083001F092FC4E
:105FC00080BD000089B00790069107980068059091
:105FD000FFE79DF817004007002803D5FFE70020E2
:105FE000089032E00698059901F00041084340F01E
:105FF00080600490FFE7079B049803900599DDF803
:106000000CC053E8000F084503D143E800C2002A42
:10601000F7D10090401AB0FA80F04009BFF35F8FCB
:106020000146019118B9FFE700980590FFE7019834
:1060300000F001008DF80B009DF80B00C007002850
:10604000C7D0FFE704980890FFE7089809B07047A9
:10605000FFE7FEE77047000088B0079006910592C1
:10606000079800F0070004900498C0F10700052885
:1060700003D3FFE70420019004E00498C0F1070077
:106080000190FFE70198039004980430062803D894
:10609000FFE70020009003E0049803380090FFE73A
:1060A0000098029006980399012202FA01F1013941
:1060B0000840029B984005999A40013A11400843D4
:1060C00008B0704788B0079006910592079800F0D5
:1060D000070004900498C0F10700052803D3FFE7E8
:1060E0000420019004E00498C0F107000190FFE74C
:1060F0000198039004980430062803D8FFE7002095
:10610000009003E0049803380090FFE700980290A5
:1061100006980399012202FA01F101390840029B15
:10612000984005999A40013A1140084308B07047D9
:1061300080B541F29470C2F2000090F88E00012800
:1061400003D1FFE700F0B6F8FFE780BD81B0009013
:106150000099002081F86B00009981F86C0000998B
:1061600081F86E00009981F86D00009981F86F0048
:10617000009981F87000009981F87C00009981F8FD
:106180007200009981F87100009981F876000099F9
:1061900081F87700009981F878000099A1F87A00D9
:1061A0000099C1F88000009A41F288319187009AE5
:1061B000A2F84410009AA2F84C10009AA2F85410C9
:1061C000009A4FF4E1711187009AA2F84010009AEA
:1061D000A2F84810009AA2F85010009A022182F802
:1061E0008810009A82F88910009A82F88A10009A22
:1061F00082F88B10009A4FF4FA711186009A42F2DD
:106200000F715186009B4FF47A729A86009AD1865C
:10621000009A9081009A1081009AD181009A518150
:106220000099886100990861009988620099086264
:10623000009A43F60041C4F21C61D161009A516199
:10624000009AD162009A51620099A1F85800009911
:1062500008660099C86500994866009981F88C0025
:10626000009981F88D00009981F88E00009981F8DD
:106270009000009AFF2182F89110009A82F886001F
:10628000009A82F88710009981F89200009981F8AD
:106290009300009981F89500009981F89600009983
:1062A00081F89800009981F8990001B070470000CA
:1062B0007047000080B582B041F29470C2F20000D5
:1062C0000021C16590F87800C00700283ED0FFE7A4
:1062D00041F29470C2F2000090F89000012835D18C
:1062E000FFE740F6E630C2F200000188013101808C
:1062F0000088962829DBFFE740F6E630C2F200006E
:106300000021018041F29470C2F2000080F8781000
:1063100040F6F832C2F200021160808E1E280CDBBB
:10632000FFE741F29471C2F200010191888E8989E0
:1063300001F09EFB0199086606E041F29471C2F2F9
:10634000000100200866FFE7FFE706E041F29471D4
:10635000C2F2000100200866FFE741F29473C2F226
:106360000003188E998EDA6D1B6E02F0A9FF02B041
:1063700080BD000080B540F20400C2F20000017848
:10638000013901700078002800F38880FFE740F2AF
:106390000401C2F200016420087041F29470C2F25C
:1063A0000000016A40F2F422C2F2000211600169A9
:1063B00040F2FC22C2F200021160816A40F2F02237
:1063C000C2F200021160816940F2F820C2F20000BE
:1063D000016090ED000AB5EE400AF1EE10FA07DA1E
:1063E000FFE740F2F821C2F2000100200860FFE759
:1063F00040F2FC20C2F2000090ED000AB5EE400A27
:10640000F1EE10FA07DAFFE740F2FC21C2F20001D8
:1064100000200860FFE740F2F020C2F2000090ED9B
:10642000000AB5EE400AF1EE10FA07DAFFE740F293
:10643000F021C2F2000100200860FFE740F2F420E2
:10644000C2F2000090ED000AB5EE400AF1EE10FA3B
:1064500007DAFFE740F2F421C2F2000100200860F1
:10646000FFE740F2F820C2F2000090ED000A40F28F
:10647000FC20C2F20000D0ED000A07F0D3FF40F28A
:10648000F020C2F2000090ED000A40F2F420C2F2C7
:106490000000D0ED000A07F0A1FCFFE780BD00007E
:1064A00080B582B001900198411C002007F09AFE4F
:1064B000019981F80101019890F80101162872D123
:1064C000FFE701984078D12808D1FFE70198807D47
:1064D000F02803D1FFE7012020B95FE00120002868
:1064E0005CD1FFE70199481C01F5017101221023DD
:1064F00001F0BAFF019800F50170042102F068F87C
:10650000009002F087F80198807C9DF80310884283
:1065100043D1FFE70198C07C9DF8021088423CD12E
:10652000FFE70198007D9DF80110884235D1FFE713
:106530000198407D9DF8001088422ED1FFE7019818
:106540008078012810D1FFE70198C07801280BD18D
:10655000FFE70198407938B9FFE741F28C71C2F248
:1065600000010020087017E001988078022810D1FF
:10657000FFE70198C07801280BD1FFE70198407927
:1065800038B9FFE741F28C71C2F2000101200870B6
:1065900001E000BFFFE7FFE7FFE7FFE70199002009
:1065A00081F80101FFE702B080BD000070470000E4
:1065B00080B584B0ADF80E0000208DF80B0041F2DC
:1065C0009470C2F2000090F86C00002800F0B881CE
:1065D000FFE741F29470C2F2000090F86C000138BD
:1065E00001460191032800F2A9810199DFE811F029
:1065F00004006E00D6003E0141F29470C2F2000029
:1066000090F8700000F00100012809D0FFE741F286
:106610009470C2F2000090F87400C007B8B3FFE7AE
:1066200000208DF80D00FFE79DF80D0003282DDCFC
:10663000FFE7BDF80E009DF80D1004F06FFD8DF81A
:106640000C009DF80C1040F23010C2F20000405CCB
:106650008DF80C009DF80D0038B9FFE79DF80C008F
:1066600040F002008DF80C00FFE79DF80D100820A7
:1066700000EB41009DF80C10C0B2FEF717FFFFE7DA
:106680009DF80D0001308DF80D00CDE71DE041F2C1
:106690009470C2F2000090F87000C007A0B9FFE744
:1066A00041F29470C2F2000090F87400C00758B92B
:1066B000FFE700208DF80C009DF80C0040F002016F
:1066C0000820FEF7F3FEFFE7FFE738E141F29470A0
:1066D000C2F2000090F8700000F00100012809D01B
:1066E000FFE741F29470C2F2000090F87400C00716
:1066F000B8B3FFE700208DF80D00FFE79DF80D000F
:1067000003282DDCFFE7BDF80E009DF80D1004F006
:1067100005FD8DF80C009DF80C1040F23010C2F20F
:106720000000405C8DF80C009DF80D0038B9FFE7C3
:106730009DF80C0040F002008DF80C00FFE79DF87A
:106740000D10082000EB41009DF80C10C0B2FEF7C0
:10675000ADFEFFE79DF80D0001308DF80D00CDE78F
:106760001BE041F29470C2F2000090F87000C00784
:1067700090B9FFE741F29470C2F2000090F8740003
:10678000C00748B9FFE700208DF80C009DF80C10F9
:106790000A20FEF78BFEFFE7FFE7D0E041F294709E
:1067A000C2F2000090F8700000F00100012809D04A
:1067B000FFE741F29470C2F2000090F87400C00745
:1067C000B8B3FFE700208DF80D00FFE79DF80D003E
:1067D00003282DDCFFE7BDF80E009DF80D1004F036
:1067E0009DFC8DF80C009DF80C1040F23010C2F2A8
:1067F0000000405C8DF80C009DF80D0038B9FFE7F3
:106800009DF80C0040F002008DF80C00FFE79DF8A9
:106810000D10082000EB41009DF80C10C0B2FEF7EF
:1068200045FEFFE79DF80D0001308DF80D00CDE726
:106830001BE041F29470C2F2000090F87000C007B3
:1068400090B9FFE741F29470C2F2000090F8740032
:10685000C00748B9FFE700208DF80C009DF80C1028
:106860000C20FEF723FEFFE7FFE768E041F294709B
:10687000C2F2000090F8700000F00100012809D079
:10688000FFE741F29470C2F2000090F87400C00774
:10689000B8B3FFE700208DF80D00FFE79DF80D006D
:1068A00003282DDCFFE7BDF80E009DF80D1004F065
:1068B00035FC8DF80C009DF80C1040F23010C2F23F
:1068C0000000405C8DF80C009DF80D0038B9FFE722
:1068D0009DF80C0040F002008DF80C00FFE79DF8D9
:1068E0000D10082000EB41009DF80C10C0B2FEF71F
:1068F000DDFDFFE79DF80D0001308DF80D00CDE7BF
:106900001BE041F29470C2F2000090F87000C007E2
:1069100090B9FFE741F29470C2F2000090F8740061
:10692000C00748B9FFE700208DF80C009DF80C1057
:106930000E20FEF7BBFDFFE7FFE700E0FFE73BE0CF
:1069400040F20031C2F20001002008708DF80D0005
:10695000FFE79DF80D0003282DDCFFE7BDF80E00D2
:106960009DF80D1004F0DAFB8DF80C009DF80C106A
:1069700040F23010C2F20000405C8DF80C009DF82F
:106980000D0038B9FFE79DF80C0040F002008DF8CB
:106990000C00FFE79DF80D10082000EB41009DF86A
:1069A0000C10C0B2FEF782FDFFE79DF80D0001302C
:1069B0008DF80D00CDE7FFE704B080BD80B584B051
:1069C000ADF80E0000208DF80A0041F29470C2F27A
:1069D000000090F86B00002800F0B281FFE741F260
:1069E0009470C2F2000090F86B00013801460191EA
:1069F000032800F2A3810199DFE811F00400690087
:106A0000D200390141F29470C2F2000090F86F0098
:106A100000F00100012809D0FFE741F29470C2F2B2
:106A2000000090F87300C007B0B3FFE700208DF8B6
:106A30000C00FFE79DF80C0003282CDCFFE7BDF8F5
:106A40000E009DF80C1004F069FB8DF80B009DF80A
:106A50000B1040F23010C2F20000405C8DF80B00C9
:106A60009DF80C00012807D1FFE79DF80B0040F0CE
:106A700002008DF80B00FFE79DF80C0040009DF828
:106A80000B10C0B2FEF712FDFFE79DF80C000130BD
:106A90008DF80C00CEE7FFE741F29470C2F20000DF
:106AA00090F86F00C00788B9FFE741F29470C2F216
:106AB000000090F87300C00740B9FFE700208DF890
:106AC0000B009DF80B10FEF7F1FCFFE737E141F2F8
:106AD0009470C2F2000090F86F0000F001000128ED
:106AE00009D0FFE741F29470C2F2000090F8730001
:106AF000C007B0B3FFE700208DF80C00FFE79DF85A
:106B00000C0003282CDCFFE7BDF80E009DF80C10EC
:106B100004F004FB8DF80B009DF80B1040F23010D0
:106B2000C2F20000405C8DF80B009DF80C000128BB
:106B300007D1FFE79DF80B0040F002008DF80B0035
:106B4000FFE79DF80C0040009DF80B10C0B2FEF767
:106B5000ADFCFFE79DF80C0001308DF80C00CEE78E
:106B60001DE041F29470C2F2000090F86F00C0077F
:106B7000A0B9FFE741F29470C2F2000090F87300F0
:106B8000C00758B9FFE700208DF80B009DF80B00F7
:106B900040F002010220FEF789FCFFE7FFE7CEE0AC
:106BA00041F29470C2F2000090F86F0000F0010012
:106BB000012809D0FFE741F29470C2F2000090F87A
:106BC0007300C007B0B3FFE700208DF80C00FFE7AB
:106BD0009DF80C0003282CDCFFE7BDF80E009DF8A3
:106BE0000C1004F09BFA8DF80B009DF80B1040F28E
:106BF0003010C2F20000405C8DF80B009DF80C00D4
:106C0000012807D1FFE79DF80B0040F002008DF846
:106C10000B00FFE79DF80C0040009DF80B10C0B280
:106C2000FEF744FCFFE79DF80C0001308DF80C00E6
:106C3000CEE71BE041F29470C2F2000090F86F00C2
:106C4000C00790B9FFE741F29470C2F2000090F8DB
:106C50007300C00748B9FFE700208DF80B009DF8CE
:106C60000B100420FEF722FCFFE7FFE767E041F28C
:106C70009470C2F2000090F86F0000F0010001284B
:106C800009D0FFE741F29470C2F2000090F873005F
:106C9000C007B0B3FFE700208DF80C00FFE79DF8B8
:106CA0000C0003282CDCFFE7BDF80E009DF80C104B
:106CB00004F034FA8DF80B009DF80B1040F2301000
:106CC000C2F20000405C8DF80B009DF80C0001281A
:106CD00007D1FFE79DF80B0040F002008DF80B0094
:106CE000FFE79DF80C0040009DF80B10C0B2FEF7C6
:106CF000DDFBFFE79DF80C0001308DF80C00CEE7BE
:106D00001BE041F29470C2F2000090F86F00C007DF
:106D100090B9FFE741F29470C2F2000090F873005E
:106D2000C00748B9FFE700208DF80B009DF80B1055
:106D30000620FEF7BBFBFFE7FFE700E0FFE73AE0D6
:106D400040F20131C2F20001002008708DF80D0000
:106D5000FFE79DF80D0003282CDCFFE7BDF80E00CF
:106D60009DF80D1004F0DAF98DF80B009DF80B106A
:106D700040F23010C2F20000405C8DF80B009DF82C
:106D80000D00012807D1FFE79DF80B0040F002003D
:106D90008DF80B00FFE79DF80D0040009DF80B10EB
:106DA000C0B2FEF783FBFFE79DF80D0001308DF8C0
:106DB0000D00CEE7FFE704B080BD000080B582B0D3
:106DC00002F062FE41F29470C2F2000090F86B0093
:106DD00088B9FFE741F29470C2F2000090F86C00AD
:106DE00048B9FFE741F29470C2F2000090F87600D3
:106DF000C00780B3FFE740F20600C2F2000001883E
:106E0000013901800088002824DCFFE740F20601F8
:106E1000C2F200016420088041F29471C2F20001C4
:106E2000019191F86F20012020EA020281F86F2081
:106E300091F8702020EA020281F8702091F8752004
:106E400020EA020281F8752091F87C20904381F8B5
:106E50007C00FFE7FFE700F08BF908F0ABF902B028
:106E600080BD00004EF68851CEF20001086840F463
:106E70007000086041F20001C4F20201086840F0AD
:106E800001000860FFE741F20000C4F20200006860
:106E9000C0F34000012801D0FFE7F4E741F204010C
:106EA000C4F20201086820F003000860FFE741F225
:106EB0000400C4F2020000688008800708B1FFE700
:106EC000F5E741F20001C4F2020108684FF6FF72D3
:106ED000CFF6F2621040086041F20401C4F20201F0
:106EE0000020086041F23001C4F20201086041F262
:106EF0000801C4F202014FF41F0008604EF6085169
:106F0000CEF200014FF000600860704780B582B09B
:106F1000002000908DF8070006F042FAE42006F009
:106F2000A5F9802006F0A2F9A02006F09FF99A208A
:106F300006F09CF9812006F099F9832006F096F975
:106F4000BF2006F093F9882006F090F906F04EFA7B
:106F50000A2002F097FB009A30231046114600F0F9
:106F600003F802B080BD000080B584B08DF80F003A
:106F70008DF80E108DF80D208DF80C30002001904A
:106F80008DF80B0006F00CFAE42006F06FF99DF87E
:106F90000F0006F06BF901988DF80B00FFE79DF8E4
:106FA0000B009DF80C1088420FDAFFE79DF80E00E9
:106FB00006F05CF99DF80D0006F058F9FFE79DF822
:106FC0000B0001308DF80B00E9E706F00FFA04B072
:106FD00080BD000080B582B08DF807008DF80610E6
:106FE00006F0DEF9E42006F041F99DF8070006F00E
:106FF0003DF99DF8060006F089F9FDF775FC06F0ED
:10700000F5F902B080BD000080B582B08DF80700B0
:107010008DF806108DF8052006F0C2F9E42006F080
:1070200025F99DF8070006F021F99DF8060006F005
:107030006DF99DF8050006F069F9FDF755FC06F0BD
:10704000D5F902B080BD000080B542F60040C4F220
:107050000100012106F088FA38B3FFE742F600404C
:10706000C4F20100012106F057FA41F64011C2F2C4
:10707000000108680130086041F63C10C2F20000CF
:10708000016801310160006864280DD3FFE741F613
:107090002410C2F200000068804741F63C11C2F2A1
:1070A000000100200860FFE7FFE780BD80B582B0E7
:1070B00043F60C00C4F2010000684009C007F0B1BB
:1070C000FFE743F60000C4F20100202106F050FF64
:1070D000A0B1FFE743F60000C4F2010006F00EFF86
:1070E000C1B241F6B400C2F20000009005F0ACFF5E
:1070F00000990420087301204873FFE7FFE743F677
:107100000C00C4F2010000688009C00768B3FFE703
:1071100043F60000C4F20100402106F029FF18B335
:10712000FFE743F60000C4F20100402106F00CFF27
:1071300041F6B400C2F2000010300DF1070105F075
:107140005FFF48B9FFE79DF8071043F60000C4F25F
:10715000010006F0DBFE06E041F6B401C2F20001D8
:1071600000204877FFE7FFE7FFE702B080BD00009F
:1071700041F6B400C2F20000407B012817D1FFE7BE
:1071800041F6B400C2F20000007B40B1FFE741F6D7
:10719000B401C2F20001087B0138087306E041F631
:1071A000B401C2F2000102204873FFE7FFE741F695
:1071B000B400C2F20000007F40B1FFE741F6B40125
:1071C000C2F20001087F01380877FFE7704700002E
:1071D00089B008900791079820F080600690089881
:1071E00001900699059105990291BFF35F8F0068A0
:1071F0000390FFE70399019BDDF808C053E8000FF7
:10720000084503D143E800C2002AF7D10090411A93
:10721000B1FA81F1490901290390EBD1FFE7009808
:10722000049009B070470000FFE7FEE781B08DF8D9
:1072300003009DF9030000280ED4FFE79DF9031019
:1072400001F01F02012090404A094EF20011CEF2D7
:10725000000141F82200FFE701B070474EF60C50E4
:10726000CEF200000068C0F3022070474EF60C50CA
:10727000CEF200000068C0F30220704782B08DF8A3
:10728000070000919DF9070000280AD4FFE7009845
:1072900000019DF907104EF20042CEF20002885420
:1072A0000BE0009800019DF8071001F00F014EF669
:1072B0001452CEF200028854FFE702B0704700007B
:1072C00082B08DF8070000919DF9070000280AD4CC
:1072D000FFE7009800019DF907104EF20042CEF240
:1072E000000288540BE0009800019DF8071001F09F
:1072F0000F014EF61452CEF200028854FFE702B09E
:107300007047000083B00290029800F007000090E0
:107310004EF60C51CEF200010868019001984FF62C
:10732000FF02104001900198009A40EA02200022DA
:10733000C0F2FA52104301900198086003B0704700
:10734000BFF34F8F4EF60C51CEF20001086800F4E7
:10735000E0600422C0F2FA5210430860BFF34F8F7E
:10736000FFE700BFFDE7000080B5012004F012FE3A
:1073700080BD00007047000082B00190009100982D
:1073800002780199486802F0010220F4807040EA16
:1073900002204860009842780199886802F0010252
:1073A00020F0020040EA420088600098827801994B
:1073B000886802F0010220F4006040EAC220886080
:1073C0000098C078421E0199C86A02F00F0220F4AA
:1073D000700040EA0250C86202B0704781B000906D
:1073E00000990020087000994870009988700099F1
:1073F0000120C87001B0704781B000900099886882
:1074000040F00800886001B07047000082B0009032
:1074100000988068C008C00720B1FFE701208DF800
:10742000070003E000208DF80700FFE79DF8070044
:1074300002B0704781B000900099886840F0040065
:10744000886001B07047000082B0009000988068AA
:107450008008C00720B1FFE701208DF8070003E096
:1074600000208DF80700FFE79DF8070002B0704785
:1074700081B08DF803009DF8032042F20441C4F26C
:107480000101086802F00F0220F4702040EA024077
:10749000086001B07047000082B001908DF80310C1
:1074A0009DF803200199886802F0010220F48070A1
:1074B00040EA0220886002B07047000082B001906C
:1074C0008DF803109DF803200199886862F300008D
:1074D000886002B07047000082B001908DF8031000
:1074E00000208DF80200019800689DF80310084202
:1074F00004D1FFE700208DF8020003E001208DF8A1
:107500000200FFE79DF8020002B0704783B00290CE
:107510008DF807108DF806208DF805309DF80700CE
:1075200009281CDCFFE70298006900909DF807001D
:1075300000EB4001072000FA01F100988843009019
:107540009DF805009DF8071001EB410100FA01F1DB
:107550000098084300900098029908611EE0029884
:10756000C06800909DF8070000EB4000A0F11E01EC
:10757000072000FA01F10098884300909DF805006B
:107580009DF8071001EB41011E3900FA01F1009846
:107590000843009000980299C860FFE79DF8060034
:1075A0000D281FDBFFE70298C06A00909DF80600D7
:1075B00000EB8000A0F141011F2000FA01F10098CA
:1075C000884300909DF807009DF8061001EB8101AB
:1075D000413900FA01F1009808430090009802999F
:1075E000C86242E09DF8060007281FDBFFE702980B
:1075F000006B00909DF8060000EB8000A0F12301D5
:107600001F2000FA01F10098884300909DF80700C0
:107610009DF8061001EB8101233900FA01F1009871
:10762000084300900098029908631DE00298406B9F
:1076300000909DF8060000EB8000411F1F2000FA1B
:1076400001F10098884300909DF807009DF806100E
:1076500001EB8101053900FA01F10098084300901F
:10766000009802994863FFE7FFE703B07047000006
:1076700081B000900098C06C80B201B070470000EB
:1076800082B001908DF803108DF802209DF8030060
:10769000082811DBFFE70199886840F000708860D6
:1076A0009DF8030000F007020199886820F460202B
:1076B00040EA4240886010E00199886820F000703C
:1076C00088609DF8030000F007020199886820F4A3
:1076D000602040EA42408860FFE79DF8022001995F
:1076E000886802F0010220F4801040EA02508860AD
:1076F00002B0704782B001908DF803109DF803200E
:107700000199486802F0010220F4006040EAC220BA
:10771000486002B07047000082B001908DF80310FD
:107720009DF803200199886802F0010220F480008E
:1077300040EA8250886002B07047000084B0039035
:107740008DF80B1041F27070ADF808000120ADF813
:10775000060041F29470C2F20000808E00909DF805
:107760000B00C007B0B1FFE70399009808440090F0
:107770000098BDF8081088420BD9FFE7BDF8080053
:10778000009041F29471C2F2000142F20F70C8867B
:10779000FFE718E00098BDF80610039A11448842EC
:1077A0000BD8FFE7BDF80600009041F29471C2F2D9
:1077B000000142F20F70C88604E003990098401A55
:1077C0000090FFE7FFE7009841F29471C2F20001D8
:1077D000888604B07047000084B003908DF80B10C9
:1077E00041F29470C2F2000090F8681001F00102BA
:1077F00040F6B831012A08BF4FF45271ADF80810B5
:107800000121ADF80610008E00909DF80B00C00716
:10781000B0B1FFE703990098084400900098BDF8C4
:10782000081088420BD9FFE7BDF80800009041F22C
:107830009471C2F2000142F20F704886FFE718E02F
:107840000098BDF80610039A114488420BD8FFE750
:10785000BDF80600009041F29471C2F2000142F2BC
:107860000F70488604E003990098401A0090FFE7E3
:10787000FFE7009841F29471C2F20001088604B05B
:107880007047000088B0079006910592079B069804
:107890000090059904910168DDF810C0BFF35F8F77
:1078A00053E8000F084503D143E800C2002AF7D18E
:1078B0000190401AB0FA80F04009BFF35F8F014693
:1078C000029120B9FFE7019800990860FFE702984C
:1078D00000F001008DF80F009DF80F0000F001008E
:1078E00008B0704787B00690069801900121059175
:1078F0000599029100680390FFE70399019B0298A4
:1079000001EB000C53E8000F084503D143E800C227
:10791000002AF7D10090411AB1FA81F149090129F1
:107920000390EAD1FFE700980490049807B07047ED
:1079300080B541F29470C2F2000090F88D0038B921
:10794000FFE740F22010C2F20000FDF707FA10E056
:1079500041F29470C2F2000090F88D00012807D126
:10796000FFE740F22010C2F20000C0688047FFE746
:10797000FFE741F29470C2F2000090F87600C00771
:1079800080B3FFE740F22930C2F2000001780131F4
:1079900001700078102824DBFFE740F22931C2F2A1
:1079A00000010020087040F22830C2F20000007888
:1079B00005280EDCFFE740F22831C2F2000108780A
:1079C0000130087040F22011C2F20001012048711C
:1079D00006E040F22011C2F2000102204871FFE7E8
:1079E000FFE70BE040F22931C2F2000100200870ED
:1079F00040F22831C2F200010870FFE741F29470B2
:107A0000C2F2000090F89800C0B1FFE740F20C000D
:107A1000C2F20000017801390170007868B9FFE70F
:107A200040F20C01C2F200012820087040F220113F
:107A3000C2F2000101204871FFE7FFE780BD0000AE
:107A400080B540F60000C4F201004FF4805104F00C
:107A500031F980BD80B540F60000C4F201004FF45A
:107A6000805104F031F980BD80B5FFF761FF80BD22
:107A700082B0ADF80600ADF80410BDF80600BDF800
:107A80000410401A0090009802B0704741F29470C0
:107A9000C2F20000008E40F6B831884208DCFFE7F1
:107AA00041F29470C2F20000008E002808DCFFE76B
:107AB00041F29471C2F200014FF4FA700886FFE7B8
:107AC00041F29470C2F20000808E41F270718842DF
:107AD00008DCFFE741F29470C2F20000808E0028BB
:107AE00008DCFFE741F29471C2F200014FF47A70B2
:107AF0008886FFE741F29470C2F20000008F40F6E2
:107B0000B831884208DCFFE741F29470C2F200000D
:107B1000008F002808DCFFE741F29471C2F20001F7
:107B20004FF4C8700887FFE741F29470C2F200007A
:107B3000808F41F27071884208DCFFE741F2947057
:107B4000C2F20000808F002808DCFFE741F2947148
:107B5000C2F200014FF47A708887FFE741F2947017
:107B6000C2F2000090F88800D0B1FFE741F29470B3
:107B7000C2F2000090F88800022811D0FFE741F21D
:107B80009470C2F2000090F88800012808D0FFE746
:107B900041F29471C2F20001022081F88800FFE7EF
:107BA00041F29470C2F20000B0F8400040F6B831E3
:107BB000884209DCFFE741F29470C2F20000B0F89D
:107BC0004000002809DCFFE741F29471C2F2000195
:107BD0004FF4C870A1F84000FFE741F29470C2F280
:107BE0000000B0F8440041F27071884209DCFFE700
:107BF00041F29470C2F20000B0F84400002809DCA1
:107C0000FFE741F29471C2F200014FF47A70A1F8DB
:107C10004400FFE741F29470C2F2000090F889003E
:107C2000D0B1FFE741F29470C2F2000090F88900F1
:107C3000022811D0FFE741F29470C2F2000090F8E0
:107C40008900012808D0FFE741F29471C2F20001D7
:107C5000022081F88900FFE741F29470C2F200002F
:107C6000B0F8480040F6B831884209DCFFE741F23D
:107C70009470C2F20000B0F84800002809DCFFE769
:107C800041F29471C2F200014FF4C870A1F84800AB
:107C9000FFE741F29470C2F20000B0F84C0041F2EC
:107CA0007071884209DCFFE741F29470C2F2000073
:107CB000B0F84C00002809DCFFE741F29471C2F2F1
:107CC00000014FF47A70A1F84C00FFE741F2947084
:107CD000C2F2000090F88A00D0B1FFE741F2947040
:107CE000C2F2000090F88A00022811D0FFE741F2AA
:107CF0009470C2F2000090F88A00012808D0FFE7D3
:107D000041F29471C2F20001022081F88A00FFE77B
:107D100041F29470C2F20000B0F8500040F6B83161
:107D2000884209DCFFE741F29470C2F20000B0F82B
:107D30005000002809DCFFE741F29471C2F2000113
:107D40004FF4C870A1F85000FFE741F29470C2F2FE
:107D50000000B0F8540041F27071884209DCFFE77E
:107D600041F29470C2F20000B0F85400002809DC1F
:107D7000FFE741F29471C2F200014FF47A70A1F86A
:107D80005400FFE741F29470C2F2000090F88B00BB
:107D9000D0B1FFE741F29470C2F2000090F88B007E
:107DA000022811D0FFE741F29470C2F2000090F86F
:107DB0008B00012808D0FFE741F29471C2F2000164
:107DC000022081F88B00FFE741F29470C2F20000BC
:107DD00090F88600D0B1FFE741F29470C2F2000043
:107DE00090F88600022811D0FFE741F29470C2F2A9
:107DF000000090F88600012808D0FFE741F2947156
:107E0000C2F20001002081F88600FFE741F2947081
:107E1000C2F2000090F86800C00798B1FFE741F295
:107E20009470C2F2000090F8680000F00100012890
:107E300008D0FFE741F29471C2F20001002081F8FE
:107E40006800FFE741F29470C2F2000090F8690008
:107E5000C00798B1FFE741F29470C2F2000090F8B9
:107E6000690000F00100012808D0FFE741F2947199
:107E7000C2F20001002081F86900FFE741F294702E
:107E8000C2F2000090F88C0088B1FFE741F29470D4
:107E9000C2F2000090F88C00012808D0FFE741F200
:107EA0009471C2F20001002081F88C00FFE741F2DA
:107EB0009470C2F2000090F88D00012810D0FFE706
:107EC00041F29470C2F2000090F88D0040B1FFE7DB
:107ED00041F29471C2F20001002081F88D00FFE7A9
:107EE0007047000080B541F29470C2F2000090F833
:107EF0008E0001280CD1FFE741F29470C2F200001D
:107F000090F8900018B9FFE7FDF716F8FFE711E0C9
:107F100041F29470C2F2000090F87600C00740B9B8
:107F2000FFE741F29471C2F20001002081F8900055
:107F3000FFE7FFE780BD000080B584B004F008FFD4
:107F40000391029004F0FAFF98B1FFE704F000FFFC
:107F50000391029004F012FF019008460199029BE0
:107F6000039AC9185041013140F100000291039079
:107F7000FFE70298039904B080BD000080B586B089
:107F8000002005908DF81300FFE79DF813000F28DF
:107F900012DCFFE79DF8131040F20830C2F2000037
:107FA00030F81110059808440590FFE79DF813007C
:107FB00001308DF81300E8E70598C0080390039995
:107FC00040F2C010C2F2000004F060FC029002987F
:107FD00041F2707141434120C0F20800A1FB002032
:107FE000091A00EB5100000B01900198022804D3FC
:107FF000FFE701980230019002E000200190FFE7C6
:10800000019841F27171884204D3FFE741F2707028
:108010000190FFE7BDF8040006B080BD80B582B0D6
:1080200000F0A6F941F29471C2F2000101910881B9
:10803000FFF7A4FF0199888100F006F802B080BD27
:1080400080B5FFF7EBFF80BD80B584B040F62C30E3
:10805000C2F200000168013901600068002800F3E5
:108060007681FFE740F62C31C2F2000164200860FF
:108070000F200A2102F000FEFCF790FA41EC100BF1
:1080800051EC100B9FEDB40B53EC102BFCF717FACF
:1080900041EC100B51EC100BFCF7D0FA014640F606
:1080A0003430C2F20000016090ED000AB5EE400AE3
:1080B000F1EE10FA19DBFFE740F63430C2F20000AF
:1080C0000068FCF7A8FA41EC100B9FEDA71B53ECDE
:1080D000112B51EC100BFCF7D9F841EC100B51ECC3
:1080E000100BFCF779FA039018E040F63430C2F236
:1080F00000000068FCF78FFA41EC100B9FED981B15
:1081000053EC112B51EC100BFCF7C0F841EC100BA9
:1081100051EC100BFCF760FA0390FFE7039800EEB8
:10812000100AB8EEC00A41F29470C2F2000080ED6D
:10813000080A40F20820C2F2000004F053FB07389E
:1081400000EE100AB8EE400A40F63030C2F20000ED
:1081500080ED000A90ED000AB5EE400AF1EE10FA4B
:1081600019DBFFE740F63030C2F200000068FCF790
:1081700052FA41EC100B9FED7C1B53EC112B51EC90
:10818000100BFCF783F841EC100B51EC100BFCF7D3
:1081900023FA029018E040F63030C2F20000006886
:1081A000FCF739FA41EC100B9FED6D1B53EC112BD2
:1081B00051EC100BFCF76AF841EC100B51EC100B72
:1081C000FCF70AFA0290FFE7029800EE100AB8EEF8
:1081D000C00A41F29470C2F2000080ED0A0A40F237
:1081E0005020C2F2000004F0FDFA013800EE100A3F
:1081F000B8EE400A40F63830C2F2000080ED000AC6
:1082000090ED000AB5EE400AF1EE10FA19DBFFE737
:1082100040F63830C2F200000068FCF7FCF941EC8F
:10822000100B9FED511B53EC112B51EC100BFCF775
:108230002DF841EC100B51EC100BFCF7CDF901902F
:1082400018E040F63830C2F200000068FCF7E3F9AD
:1082500041EC100B9FED421B53EC112B51EC100B1A
:10826000FCF714F841EC100B51EC100BFCF7B4F9CF
:108270000190FFE7019800EE100AB8EEC00A41F243
:108280009470C2F2000080ED060A09200A2102F073
:10829000F3FCFCF783F941EC100B51EC100B9FED54
:1082A0002E0B53EC102BFCF70AF941EC100B51ECA0
:1082B000100BFCF7C3F9014640F63C30C2F2000057
:1082C000016090ED000AB5EE400AF1EE10FA19DBFC
:1082D000FFE740F63C30C2F200000068FCF79BF973
:1082E00041EC100B9FED201B53EC112B51EC100BAC
:1082F000FBF7CCFF41EC100B51EC100BFCF76CF9C9
:10830000009018E040F63C30C2F200000068FCF734
:1083100082F941EC100B9FED121B53EC112B51EC29
:10832000100BFBF7B3FF41EC100B51EC100BFCF7FB
:1083300053F90090FFE7009800EE100AB8EEC00A6B
:1083400041F29470C2F2000080ED040AFFE704B02D
:1083500080BD00BF00BF00BFC976BE9F1A2F094075
:10836000000000000000E0BF000000000000E03F4F
:1083700080B584B000200390ADF80A0040F2982048
:10838000C2F2000004F02EFAFCF719F941EC100BD0
:108390009FED2F1B53EC112B51EC100BFCF78FF8BA
:1083A00041EC100B51EC100BFCF748F903909DEDDC
:1083B000030AB5EE400AF1EE10FA15DBFFE7039869
:1083C000FCF729F941EC100B9FED251B53EC112B09
:1083D00051EC100BFBF75AFF41EC100B51EC100B5A
:1083E000FCF7FAF8019014E00398FCF714F941EC5B
:1083F000100B9FED191B53EC112B51EC100BFBF7DD
:1084000045FF41EC100B51EC100BFCF7E5F8019027
:10841000FFE70198ADF80A00BDF80A0040F6B9314F
:10842000884205DBFFE740F6B830ADF80A00FFE709
:10843000BDF80A00002804DCFFE70020ADF80A00C0
:10844000FFE7BDF80A0004B080BD00BF00BF00BF59
:10845000D7A3703D0AD7F53F000000000000E0BF41
:10846000000000000000E03F8BB0099008910792E7
:108470000693099818B1FFE7089818B9FFE700209C
:108480000A905FE007980699884203D9FFE7002029
:108490000A9057E006980799401A0130059009980C
:1084A000079908440490002002900390FFE7039886
:1084B0000599B0EB910F11D2FFE70498006800BA5C
:1084C0000899029A531C029341F822000498043040
:1084D0000490FFE7039801300390E8E79DF814004B
:1084E000800760B3FFE700200190059901F00301C8
:1084F0008DF803108DF80200FFE79DF802009DF84B
:108500000310884213DAFFE704989DF80220805C8C
:108510001821A1EBC20100FA01F101980843019072
:10852000FFE79DF8020001308DF80200E5E70198B1
:108530000899029A531C029341F82200FFE702981F
:108540000A90FFE70A980BB07047000084B00390D0
:1085500002914FF6FF70ADF80600FFE7029890B366
:10856000FFE70398411C03910178BDF8060080EAFB
:108570000120ADF8060008200090FFE70098F0B158
:10858000FFE7BDF80600000400280DD5FFE7BDF8A1
:1085900006004000ADF80600BDF8060041F22101DA
:1085A0004840ADF8060005E0BDF806004000ADF813
:1085B0000600FFE7FFE7009801380090DEE7029829
:1085C00001380290CAE7BDF8060004B07047000009
:1085D00083B002900191002000900090FFE7009886
:1085E000019988420ED2FFE70298009950F82100C5
:1085F00043F20001C4F202010860FFE70098013075
:108600000090ECE743F20000C4F20200006803B0FF
:108610007047000043F20801C4F20201086840F00C
:10862000010008607047000081B00090009843F29C
:108630001001C4F20201086001B0704781B08DF8EA
:1086400003009DF8032043F20801C4F20201086808
:1086500002F0030220F0180040EAC200086001B0F6
:108660007047000081B00090009843F21401C4F2FA
:108670000201086001B0704781B08DF803009DF8D9
:10868000032043F20801C4F20201086802F0030269
:1086900020F0600040EA4210086001B0704700001E
:1086A00081B08DF803009DF8032043F20801C4F265
:1086B0000201086802F0010220F0800040EAC210C6
:1086C000086001B07047000081B08DF803009DF88C
:1086D000030000F0030241F20401C4F20201086841
:1086E00020F4404040EA823008609DF8032008688A
:1086F000920862F31C70086001B0704781B08DF879
:1087000003009DF8032041F20401C4F2020108684D
:1087100002F00F0220F0F00040EA0210086001B001
:108720007047000081B08DF803009DF8032041F2EE
:108730000401C4F20201086802F0070220F4E060BC
:1087400040EA0220086001B07047000081B08DF857
:1087500003009DF8032041F20401C4F202010868FD
:1087600002F0070220F4605040EAC220086001B025
:108770007047000081B08DF803009DF803000128C8
:1087800009D1FFE741F25401C4F20201086840F048
:108790003000086008E041F25401C4F202010868A8
:1087A00020F030000860FFE701B0704782B08DF81C
:1087B00007008DF806109DF8070001460091042877
:1087C00044D80099DFE801F0030E1D2C37009DF816
:1087D000062041F20001C4F20201086862F30000C1
:1087E000086034E09DF8062041F20001C4F2020165
:1087F000086802F0010220F4803040EA024008607C
:1088000025E09DF8062041F20001C4F2020108684B
:1088100002F0010220F0807040EA0260086016E079
:108820009DF8062041F22001C4F20201086862F3BB
:10883000000008600BE09DF8062041F22401C4F21C
:108840000201086862F30000086000E0FFE702B080
:108850007047000080B58AB009900020089007900A
:10886000069005900490039000F028FA8DF80B0014
:108870009DF80B000146019140B1FFE701980128E6
:1088800025D0FFE70198022828D07EE041F254006D
:10889000C4F202000068400AC00780B1FFE741F25D
:1088A0003000C4F202000068400EC00738B1FFE794
:1088B000099946F60040C0F2DC20086006E00999FC
:1088C00041F20020C0F27A000860FFE764E00999F5
:1088D00041F20020C0F27A0008605DE041F204003D
:1088E000C4F202000168C1F3004105910168C1F3BF
:1088F000834107910068C0F341700690069820B943
:10890000FFE707980F2807D1FFE70699079800EBC4
:1089100001100130079003E0079802300790FFE74D
:10892000059848B9FFE7079840F60011C0F23D01ED
:1089300048430999086027E041F20400C4F20200AC
:108940000068400CC007A8B1FFE741F25400C4F230
:1089500002000068C0F3013008900898811C41F2C1
:108960000020C0F27A00B0FBF1F007994843099962
:10897000086008E0079841F20021C0F27A014843FC
:1089800009990860FFE7FFE706E0099941F2002036
:10899000C0F27A000860FFE741F20400C4F202006E
:1089A0000168C1F303110491049A4FF2AC41C0F67F
:1089B0000001895C0391099A1168039BD9405160B9
:1089C0000168C1F302210491049A4FF29C41C0F660
:1089D0000001895C0391099A5168039BD940D160D9
:1089E0000168C1F3C2210491049A4FF2A441C0F678
:1089F0000001895C0391099A5168039BD9409160F9
:108A00000168C1F30071049104990068C0F38130DA
:108A100040EA8100049004994FF29440C0F60000AF
:108A2000405C039009998868039AB0FBF2F00861F2
:108A30000AB080BD82B0019000208DF80300BDF81F
:108A4000060041F20001C4F202014058019901F010
:108A50001F01C840C00720B9FFE700208DF80300C0
:108A600003E001208DF80300FFE79DF8030002B04A
:108A70007047000080B584B0002003908DF80B0093
:108A8000FFE71120FFF7D6FF0146002001290190E2
:108A900008D0FFE703990020B1F5405F38BF0120FF
:108AA0000190FFE70198C00720B1FFE7039801306C
:108AB0000390E6E71120FFF7BDFF012804D0FFE790
:108AC00000208DF80B0003E001208DF80B00FFE77C
:108AD0009DF80B0004B080BD82B001908DF80310AA
:108AE0009DF8030001280FD1FFE7019800F01F0255
:108AF000012101FA02F3010C41F20002C4F2020268
:108B00008858184388500EE0019800F01F02012198
:108B100001FA02F3010C41F20002C4F20202885889
:108B200098438850FFE702B07047000081B08DF88D
:108B300003008DF802108DF801209DF8030088B91C
:108B4000FFE741F20401C4F20201086820F480301A
:108B5000086041F23001C4F20201086840F0007080
:108B600008601FE041F20401C4F20201086840F409
:108B7000803008609DF80300012809D1FFE741F229
:108B80000401C4F20201086820F40030086008E023
:108B900041F20401C4F20201086840F400300860A8
:108BA000FFE7FFE79DF8020000F00F0241F2040129
:108BB000C4F20201086820F4701040EA82400860A4
:108BC0009DF8020000F03002086820F0C04040EA42
:108BD000426008609DF80120086820F0004040EAEB
:108BE000C270086001B0704741F20001C4F2020196
:108BF000086840F001000860FFE741F20000C4F29D
:108C000002000068C0F34000012801D0FFE7F4E74C
:108C100041F20401C4F20201086820F00300086078
:108C2000FFE741F20400C4F20200006880088007F8
:108C300008B1FFE7F5E741F20001C4F2020108685C
:108C40004FF6FF72CFF6F2621040086041F2040165
:108C5000C4F202010020086041F23001C4F20201B6
:108C6000086041F20801C4F202014FF41F000860DD
:108C70007047000081B08DF803009DF8032041F299
:108C80000401C4F20201086862F30100086000BF39
:108C900000BF00BF00BF00BF00BF00BF00BF00BFDC
:108CA00000BF00BF00BF00BF00BF00BF00BF00BFCC
:108CB00000BF00BF00BF01B07047000041F20400D8
:108CC000C4F202000068C0F38100704780B582B032
:108CD00040F25400C2F200000078014601910928D8
:108CE00053D80199DFE801F0050A0F141A1F24294F
:108CF0002F5001210846FEF721FD47E00A200121FF
:108D0000FEF71CFD42E064200121FEF717FD3DE067
:108D10004FF47A700121FEF711FD37E001200021A8
:108D2000FEF70CFD32E00A200021FEF707FD2DE0E2
:108D300064200021FEF702FD28E04FF47A70002144
:108D4000FEF7FCFC22E041F29470C2F20000002128
:108D500080F86B1090F86C10013180F86C1090F86E
:108D60006C00052808DBFFE741F29471C2F20001B4
:108D7000002081F86C00FFE741F29471C2F200011B
:108D8000002081F8740001E0FFE7FFE740F25401A2
:108D9000C2F200010920087002B080BD80B541F226
:108DA0009470C2F2000090F87200C007E8B3FFE7C9
:108DB00041F29471C2F20001C88E898E884208D0B7
:108DC000FFE741F29470C2F20000808EFDF7F0FBE5
:108DD000FFE740F20431C2F200010020086040F2D7
:108DE0001400C2F200000168013901600068002827
:108DF0001ADCFFE741F29470C2F2000090F86C00B8
:108E000090B9FFE740F21401C2F2000140F6B83019
:108E1000086041F29471C2F20001002081F87200F2
:108E20004FF6FF70C886FFE748E041F29470C2F247
:108E3000000090F8900040BBFFE740F20430C2F21F
:108E40000000016801390160006800281CDCFFE7B0
:108E500040F20431C2F20001C820086041F294706F
:108E6000C2F2000090F88E00012808D1FFE741F21D
:108E70009470C2F200008089FBF792FD03E00020AD
:108E8000FBF78EFDFFE7FFE717E041F29470C2F2B7
:108E9000000090F8900001280ED1FFE740F2043165
:108EA000C2F200010020086041F29470C2F200009A
:108EB000808EFDF77DFBFFE7FFE7FFE780BD000049
:108EC00084B08DF80F009DF80F0001380146029123
:108ED000092800F2FD800299DFE811F00A005A002B
:108EE000F600F700AA00C900F500CA00F800F90072
:108EF00041F29470C2F2000090F88C00002846D134
:108F0000FFE741F29470C2F2000090F86C00014655
:108F10000191042828D80199DFE801F0030A11180B
:108F20001F0040F25401C2F20001022008701CE050
:108F300040F25401C2F200010320087015E040F233
:108F40005401C2F20001022008700EE040F2540108
:108F5000C2F200010120087007E040F25401C2F2A1
:108F600000010020087000E0FFE741F29471C2F2B6
:108F70000001012081F8780081F8740081F8720006
:108F800040F22011C2F2000100204871FFE7A0E08A
:108F900041F29470C2F2000090F88C00002846D193
:108FA000FFE741F29470C2F2000090F86C000146B5
:108FB0000091042828D80099DFE801F0030A11186D
:108FC0001F0040F25401C2F20001062008701CE0AC
:108FD00040F25401C2F200010720087015E040F28F
:108FE0005401C2F20001062008700EE040F2540164
:108FF000C2F200010520087007E040F25401C2F2FD
:1090000000010420087000E0FFE741F29471C2F211
:109010000001012081F8780081F8740081F8720065
:1090200040F22011C2F2000100204871FFE750E039
:1090300041F29470C2F2000090F88C00B0B9FFE7E2
:1090400040F25401C2F200010820087041F294720B
:10905000C2F20002002082F87400012182F872102E
:1090600040F22011C2F200014871FFE731E030E028
:1090700041F29470C2F2000090F88C0001280CD1EB
:10908000FFE741F29471C2F2000191F88D00B0FA4D
:1090900080F0400981F88D000EE041F29471C2F237
:1090A0000001012081F8990040F64031C2F2000130
:1090B00040F6B8300860FFE740F22011C2F200012C
:1090C0000120487105E004E003E002E001E000E077
:1090D000FFE741F29470C2F2000090F89900C007D7
:1090E000A0B1FFE740F64030C2F20000016801394C
:1090F00001600068002808DCFFE741F29471C2F2C9
:109100000001002081F89900FFE7FFE741F2947029
:10911000C2F2000090F86C00C8B3FFE79DF80F00A2
:1091200060BBFFE741F29471C2F20001002081F8B8
:10913000740040F25000C2F2000001680139016081
:109140000068002819DCFFE740F25001C2F200017C
:1091500040F6B830086041F29471C2F2000100207C
:1091600081F86C0081F8720040F20432C2F2000211
:1091700010604FF6FF70C881FFE707E040F2500132
:10918000C2F2000140F6B8300860FFE7FFE704B024
:109190007047000082B00190ADF80210BDF80200E7
:1091A0000199086002B0704782B00190ADF80210DA
:1091B000BDF802000199086002B0704780B582B026
:1091C0008DF80700ADF80410ADF80220BDF80410CA
:1091D000BDF8022000209142A8BF01208DF80100B7
:1091E0009DF807009DF8011000F030F802B080BD36
:1091F00082B08DF807008DF806109DF80700014633
:109200000091012804D0FFE7009802280BD019E054
:109210009DF8062047F20041C4F20001086862F39D
:10922000000008600FE09DF8062047F20041C4F2FC
:109230000001086802F0010220F4803040EA024098
:10924000086000E0FFE702B07047000082B08DF8D0
:1092500007008DF806109DF80600B0FA80F040096E
:109260008DF806009DF8070001460091012804D002
:10927000FFE7009802280FD01DE09DF8062047F276
:109280000041C4F20001086802F0010220F002006F
:1092900040EA420008600FE09DF8062047F20041D6
:1092A000C4F20001086802F0010220F4003040EA34
:1092B0004240086000E0FFE702B070470000000095
:1092C00080B588B0ADF81E00ADF81C10069205936D
:1092D00040F6F830C2F20000006841F29471C2F228
:1092E0000001898E884200F09080FFE741F294707F
:1092F000C2F20000808E40F6F831C2F20001086030
:10930000BDF81C1002206422FFF758FFBDF81C00B6
:109310000599084404900498002803DCFFE7002026
:109320000490FFE70498FBF739F941EC100B9FED2F
:109330008E1B53EC112B51EC100BFBF74EF841EC4C
:10934000100B51EC100BFBF779F9014640F6883011
:10935000C2F20000016090ED000AB5EE400AF1EEA5
:1093600010FA19DBFFE740F68830C2F2000000680F
:10937000FBF751F941EC100B9FED7F1B53EC112BC8
:1093800051EC100BFAF782FF41EC100B51EC100B73
:10939000FBF722F9029018E040F68830C2F2000094
:1093A0000068FBF738F941EC100B9FED711B53EC93
:1093B000112B51EC100BFAF769FF41EC100B51EC3B
:1093C000100BFBF709F90290FFE7029940F68C3089
:1093D000C2F200000180008840F6FF71884208DB7D
:1093E000FFE740F68C31C2F2000140F6FF700880C2
:1093F000FFE740F68C30C2F20000018847F21440CB
:10940000C4F20000FFF7D0FEFFE740F6FC30C2F2E6
:109410000000006841F29471C2F20001098E884296
:1094200000F09F80FFE741F29470C2F20000008ECE
:1094300040F6FC31C2F200010860BDF81E100120A8
:109440000A22FFF7BBFEBDF81E00069908440390F0
:109450000398012803DCFFE701200390FFE703984E
:10946000FBF79CF841EC100B9FED451B53EC112BC7
:1094700051EC100BFAF7B1FF41EC100B51EC100B53
:10948000FBF7DCF8014640F69030C2F200000160C4
:1094900090ED000AB5EE400AF1EE10FA19DBFFE795
:1094A00040F69030C2F200000068FBF7B4F841ECDF
:1094B000100B9FED311B53EC112B51EC100BFAF7F5
:1094C000E5FE41EC100B51EC100BFBF785F8019019
:1094D00018E040F69030C2F200000068FBF79BF8FD
:1094E00041EC100B9FED221B53EC112B51EC100B98
:1094F000FAF7CCFE41EC100B51EC100BFBF76CF8BB
:109500000190FFE7019940F69430C2F2000001801B
:10951000008840F6FF71884208DBFFE740F694318F
:10952000C2F2000140F6FF700880FFE740F6943079
:10953000C2F200000088012807DCFFE740F6943102
:10954000C2F2000101200880FFE740F69430C2F229
:109550000000018847F20840C4F20000FFF71AFE3D
:10956000FFE708B080BD00BFD7A3703D0AD7E53F35
:10957000000000000000E0BF000000000000E03F2D
:10958000D7A3703D0AD7F53F82B08DF807008DF85C
:1095900006109DF8070001460091012804D0FFE75E
:1095A000009802280FD01DE09DF8062047F20041E8
:1095B000C4F20001086802F0010220F0040040EA51
:1095C000820008600FE09DF8062047F20041C4F2D7
:1095D0000001086802F0010220F4802040EA824085
:1095E000086000E0FFE702B07047000080B584B07B
:1095F00003908DF80B1000208DF80700FFE79DF811
:1096000007009DF80B10884217DAFFE703989DF8D2
:109610000710084401F04CF9ADF80800BDF8080047
:109620004FF6FF71884201D1FFE706E0FFE79DF8A2
:10963000070002308DF80700E1E7BDF8080004B02C
:1096400080BD000040F69630C2F20000007841F282
:109650009471C2F2000191F88E10884210D0FFE799
:1096600041F29471C2F2000191F88E0040F69632F8
:10967000C2F20002107000204866C8814881FFE7EE
:109680007047000080B586B00590059840F218112B
:10969000C2F200010968A0FB01010391029040F6AB
:1096A0000040C2F2000000685B2807DBFFE740F6DD
:1096B0000040C2F200000068009002E05A200090D2
:1096C000FFE700980190029B0399019AD017D21AE4
:1096D000884101DBFFE71DE0019A02990398891A8E
:1096E00060EBE2700291039002F084FA03460A46AE
:1096F00002990398C918504102910390FFE702F0C4
:1097000079FA0246029B0398D21A71EB000001DA43
:10971000FFE7F4E706B080BD80B586B005900598F8
:1097200040F21C11C2F200010968A0FB0101039183
:10973000029040F60040C2F2000000685B2807DBA0
:10974000FFE740F60040C2F200000068009002E02F
:109750005A200090FFE700980190029B0399019A1C
:10976000D017D21A884101DBFFE71DE0019A029968
:109770000398891A60EBE2700291039002F03AFAC2
:1097800003460A4602990398C91850410291039072
:10979000FFE702F02FFA0246029B0398D21A71EB00
:1097A000000001DAFFE7F4E706B080BD82B0019067
:1097B0008DF803109DF803200199086862F30000FA
:1097C000086002B07047000081B00090009900204E
:1097D00008600099486000990881009948810099C3
:1097E000087300994873009988730099C8730099A9
:1097F00008740099487401B07047000082B001906D
:109800008DF803108DF802200198D0F8A400000E06
:10981000C00740B9FFE70199D1F8A40040F080707B
:10982000C1F8A400FFE79DF8030001280BD1FFE772
:109830009DF802200199D1F8A00020F0FF0010440B
:10984000C1F8A0006AE09DF8030002280CD1FFE7F0
:109850009DF802200199D1F8A00020F47F4040EA51
:109860000220C1F8A00058E09DF8030003280CD1A5
:10987000FFE79DF802200199D1F8A00020F47F00B5
:1098800040EA0240C1F8A00046E09DF80300042829
:109890000CD1FFE79DF802200199D1F8A00020F03B
:1098A0007F4040EA0260C1F8A00034E09DF8030068
:1098B00005280BD1FFE79DF802200199D1F8A400FB
:1098C00020F0FF001044C1F8A40023E09DF803003D
:1098D00006280CD1FFE79DF802200199D1F8A400D9
:1098E00020F47F4040EA0220C1F8A40011E09DF876
:1098F000030007280CD1FFE79DF802200199D1F859
:10990000A40020F47F0040EA0240C1F8A400FFE771
:10991000FFE7FFE7FFE7FFE7FFE7FFE702B070477A
:1099200082B001900091019908684BF6EF721040E7
:10993000086000980289019908681043086000983F
:10994000427C0199086802F0030220F4405040EA8A
:10995000023008600098C27B0199086802F0030297
:1099600020F4406040EA822008600098827B0199E0
:10997000086802F0030220F4407040EA0220086008
:109980000098427B0199086802F0010220F08000F3
:1099900040EAC21008600098027B0199086802F052
:1099A000010220F0400040EA821008600098027C2A
:1099B0000199086802F0010220F0200040EA4210FC
:1099C00008600098408901994860009800680199F2
:1099D0008860009840680199C86002B07047000034
:1099E00082B0019000200090019A116821F00101DD
:1099F0001160019908600199486001998860019996
:109A0000C86001980090009800F49F60C00880280A
:109A100017D8FFE79DF8000008384CF6CD41CCF68A
:109A2000CC41A0FB01016FF0030000EA91010F207F
:109A300000FA01F20421C4F2020108681043086030
:109A40001FE0009800F49F60C008902818D8FFE736
:109A50009DF8000008384CF6CD41CCF6CC41A0FB77
:109A600001016FF0030000EA91010F2000FA01F2FA
:109A700040F20441C4F20201086810430860FFE7A5
:109A8000FFE702B07047000080B584B040F2581084
:109A9000C2F200000190FBF783FE014601988DF8A9
:109AA0000F109DF90F10FBF725FD014640F604400D
:109AB000C2F200000170007804F000FE04F0F4FC33
:109AC00040F21800C2F200000290FBF769FE014666
:109AD00002988DF80E109DF90E10FBF70BFD014654
