:020000040800F2
:100000004814002099010008FD010008F5010008CE
:10001000F9010008ED0100080D06000800000000CD
:10002000000000000000000000000000CD020008F9
:10003000F101000800000000C9020008D102000818
:10004000B3010008B3010008B3010008B3010008C0
:10005000B3010008B3010008B3010008B3010008B0
:10006000B3010008B3010008B3010008B3010008A0
:10007000B3010008B3010008B3010008B301000890
:10008000B3010008B3010008B3010008B301000880
:10009000B3010008B3010008B3010008B301000870
:1000A000B3010008B3010008B3010008B301000860
:1000B000B3010008B3010008B3010008B301000850
:1000C000B3010008B3010008B3010008B301000840
:1000D000B301000881030008B3010008B301000860
:1000E000B3010008B3010008B3010008B301000820
:1000F000B3010008B3010008B3010008B301000810
:10010000B3010008B3010008B3010008B3010008FF
:10011000B3010008B3010008B3010008B3010008EF
:10012000B3010008B3010008B3010008B3010008DF
:10013000B3010008B3010008B3010008B3010008CF
:1001400000000000000000000000000000000000AF
:10015000B3010008B3010008B3010008B3010008AF
:10016000B3010008B3010008B3010008B30100089F
:10017000B3010008B3010008B3010008B30100088F
:10018000B3010008DFF80CD000F018F80048004771
:100190004D180008481400200648804706480047CC
:1001A000FEE7FEE7FEE7FEE7FEE7FEE7FEE7FEE727
:1001B000FEE7FEE7D9020008850100081CB50948E2
:1001C0000090094801900546009C06E0E06840F078
:1001D000010394E8070098471034AC42F6D3FFF7C8
:1001E000D5FF00006024000880240008FFE7FEE738
:1001F00070470000FFE7FEE7FFE7FEE770470000FB
:1002000086B00590049100200390059800F0070047
:1002100002900298C0F10700052802D3FFE70420EE
:1002200003E00298C0F10700FFE701900298043054
:10023000062802D8FFE7002002E002980338FFE713
:10024000009004980199012202FA01F10139084055
:1002500000998840039B02FA01F1013919400843D3
:1002600006B0704786B0059004910392059800F09F
:10027000070002900298C0F10700052802D3FFE7AB
:10028000042003E00298C0F10700FFE70190029804
:100290000430062802D8FFE7002002E00298033865
:1002A000FFE7009004980199012202FA01F1013957
:1002B000084000998840039B02FA01F10139194076
:1002C000084306B070470000704700007047000008
:1002D00080B502F037F880BD4EF68850CEF20000AF
:1002E000016841F47001016041F20000C4F20200B3
:1002F000016841F001010160FFE741F20000C4F232
:1003000002000068C0F34000012801D0FFE7F4E7D5
:1003100041F20400C4F20200016821F0030101600F
:10032000FFE741F20400C4F2020000688008800781
:1003300008B1FFE7F5E741F20000C4F202000168EE
:100340004FF6FF72CFF6F2621140016041F20400F5
:10035000C4F202000021016041F23000C4F2020048
:10036000016041F20800C4F202004FF41F01016075
:100370004EF60850CEF200004FF000610160704769
:1003800010B582B001F01AFE002800F03D81FFE7B1
:1003900001F0CAFC40F20C01C2F2000108800878AA
:1003A00040F20801C2F200010A8840F62043C2F27E
:1003B00000039854088801300880088816286FD1F7
:1003C000FFE740F62044C2F200042046102100F06E
:1003D00077FA042000F020FB019000F043FB607CE2
:1003E0009DF8071088425AD1FFE740F62040C2F23C
:1003F0000000807C9DF80610884250D1FFE740F64F
:100400002040C2F20000C07C9DF80510884246D111
:10041000FFE740F62040C2F20000007D9DF8041086
:1004200088423CD1FFE740F62040C2F2000040780D
:10043000012812D1FFE740F62040C2F20000807888
:1004400001280AD1FFE740F62040C2F200000079FF
:1004500018B9FFE701F064FB1AE040F62040C2F251
:1004600000004078022812D1FFE740F62040C2F297
:100470000000807801280AD1FFE740F62040C2F250
:100480000000007918B9FFE701F0F8FBFFE7FFE78C
:1004900040F20800C2F2000000210180FFE7FFE700
:1004A00040F20800C2F20000008840F20C4188428D
:1004B00040F0A980FFE740F20800C2F200000021EE
:1004C000018040F62040C2F200000078D12840F0C0
:1004D0009680FFE740F62040C2F2000090F80B043F
:1004E000F02840F08C80FFE740F62044C2F2000480
:1004F000204640F2064100F0E3F94FF4817000F02D
:100500008BFA009000F0AEFA94F807049DF80310FF
:10051000884270D1FFE740F62040C2F2000090F818
:1005200008049DF80210884265D1FFE740F620409C
:10053000C2F2000090F809049DF8011088425AD1D7
:10054000FFE740F62040C2F2000090F80A049DF850
:10055000001088424FD1FFE740F20A00C2F20000CB
:10056000007858B9FFE7002000F01EFA40F20A00B8
:10057000C2F200000178013101701EE040F20A0071
:10058000C2F200000078012816D1FFE74FF4806026
:1005900000F00AFA40F20004C2F20004206800F001
:1005A000A3FD206800F50060206040F20A00C2F25E
:1005B000000000210170FFE7FFE701F05FFB40F65C
:1005C0002040C2F200008078042813D1FFE744F2F3
:1005D0000700C0F6000000784FF00061B1EB006F3B
:1005E00007D1FFE740F20E00C2F2000001210170C6
:1005F000FFE7FFE702E001F0EBFAFFE702E001F0BE
:10060000E7FAFFE7FFE7FFE702B010BDFFE7FEE70D
:1006100081B08DF803009DF9030000280FD4FFE797
:100620009DF9030000F01F01012202FA01F14009C7
:100630004EF28022CEF2000242F82010FFE701B015
:100640007047000081B08DF803009DF90300002879
:1006500013D4FFE79DF9030000F01F01012202FA05
:1006600001F140094EF28012CEF2000242F8201051
:10067000BFF34F8FBFF36F8FFFE701B070470000EC
:1006800081B08DF803009DF9030000280FD4FFE727
:100690009DF9030000F01F01012202FA01F1400957
:1006A0004EF20012CEF2000242F82010FFE701B035
:1006B000704700004EF60C50CEF200000068C0F308
:1006C000022070474EF60C50CEF200000068C0F3D6
:1006D0000220704782B08DF8070000919DF9070055
:1006E00000280AD4FFE7009800019DF907104EF298
:1006F0000042CEF2000288540BE0009800019DF801
:10070000071001F00F014EF61452CEF20002885489
:10071000FFE702B07047000082B08DF8070000913B
:100720009DF9070000280AD4FFE7009800019DF911
:1007300007104EF20042CEF2000288540BE00098FF
:1007400000019DF8071001F00F014EF61452CEF291
:1007500000028854FFE702B07047000083B00290A7
:10076000029800F0070000904EF60C50CEF2000008
:100770000168019101994FF6FF0211400191019921
:10078000009A41EA02210022C0F2FA52114301917B
:100790000199016003B0704770B582B044F2000067
:1007A000C0F6000000900098006800F16040B0F5CD
:1007B000004F00F28380FFE70124C0F21C042046B2
:1007C000002100F093FB0E25C0F2180528460021F9
:1007D00000F08CFB0226C0F218063046002100F023
:1007E00085FB0620C0F21400002100F07FFB4FF4CF
:1007F000A010002100F07AFB4FF4C010002100F09F
:1008000075FB3046002100F071FB0320C0F2180098
:10081000002100F06BFB0420C0F21800002100F062
:1008200065FB0520C0F21800002100F05FFB0920E5
:10083000C0F21800002100F059FB0C20C0F2180093
:10084000002100F053FB2846002100F04FFB4FF43D
:10085000E010002100F04AFB2046002100F046FB9A
:100860001120C0F21C00002100F040FB1220C0F259
:100870001C00002100F03AFB1320C0F21C000021F4
:1008800000F034FB252001F02FF8282001F02CF88F
:100890002820FFF7BDFE2520FFF7BAFE009840682C
:1008A00040F21001C2F20001086000980068019057
:1008B000019880F3088808688047FFE702B070BDA0
:1008C0008BB0099040F61800C2F200000890012099
:1008D00007900691099818B1FFE7089818B9FFE743
:1008E00000200A905EE007980699884203D9FFE746
:1008F00000200A9056E006980799401A01300590AA
:100900000998079908440490002002900390FFE79B
:1009100003980599B0EB910F11D2FFE70498006896
:1009200000BA0899029A531C029341F822000498D5
:1009300004300490FFE7039801300390E8E79DF846
:100940001400800758B3FFE700200190059901F0DB
:1009500003018DF803108DF80200FFE79DF80200F7
:100960009DF80310884212DAFFE704989DF8021000
:10097000405C1822A2EBC101884001990843019014
:10098000FFE79DF8020001308DF80200E6E70198CC
:100990000899029A531C029341F82200FFE702983B
:1009A0000A90FFE70BB0704787B040F62041C2F2D3
:1009B0000001069140F21401C2F2000105910721E5
:1009C000ADF81210ADF810004FF48060ADF80E00D5
:1009D0000698BDF81210084402900598BDF8101052
:1009E000084401900020ADF80200FFE7BDF80200C6
:1009F000BDF80E1088420DDAFFE70298BDF802102C
:100A0000405C019A5054FFE7BDF802000130ADF898
:100A10000200EBE707B0704783B040F61801C2F25E
:100A2000000102910190002000900090FFE70098E3
:100A3000019988420ED2FFE70298009950F82100F0
:100A400043F20001C4F202010860FFE700980130A0
:100A50000090ECE743F20000C4F20200006803B02B
:100A60007047000043F20800C4F20200016841F040
:100A7000010101607047000081B04FF0FF3000902D
:100A8000009843F21001C4F20201086001B07047FF
:100A900081B000208DF803009DF8030043F20801A7
:100AA000C4F202010A6800F0030022F0180242EAD0
:100AB000C000086001B0704781B041F6B750C0F285
:100AC000C1400090009843F21401C4F20201086092
:100AD00001B0704781B000208DF803009DF803003D
:100AE00043F20801C4F202010A6800F0030022F098
:100AF000600242EA4010086001B0704781B00020F7
:100B00008DF803009DF8030043F20801C4F20201CE
:100B10000A6800F0010022F0800242EAC01008607A
:100B200001B0704781B000208DF803009DF80300EC
:100B300041F20401C4F202010A6800F00F0022F041
:100B4000F00242EA0010086001B0704781B0042052
:100B50008DF803009DF8030041F20401C4F2020184
:100B60000A6800F0070022F4E06242EA0020086010
:100B700001B0704781B004208DF803009DF8030098
:100B800041F20401C4F202010A6800F0070022F4F5
:100B9000605242EAC020086001B0704781B08DF811
:100BA00003009DF80300012809D1FFE741F254003A
:100BB000C4F20200016841F03001016008E041F236
:100BC0005400C4F20200016821F030010160FFE727
:100BD00001B0704781B08DF8030001208DF802004C
:100BE0009DF80300042843D8DFE800F0030E1D2C15
:100BF00037009DF8020041F20001C4F202010A68C8
:100C000060F300020A6034E09DF8020041F2000146
:100C1000C4F202010A6800F0010022F4803242EAC4
:100C20000040086025E09DF8020041F20001C4F296
:100C300002010A6800F0010022F0807242EA0060BE
:100C4000086016E09DF8020041F22001C4F20201A2
:100C50000A6860F300020A600BE09DF8020041F2AE
:100C60002401C4F202010A6860F300020A6000E095
:100C7000FFE701B07047000080B588B00790002002
:100C800006900590049003900290019000F024FAE1
:100C90008DF803009DF8030030B1FFE7012824D050
:100CA000FFE7022828D07EE041F25400C4F202009F
:100CB0000068400AC00780B1FFE741F23000C4F28B
:100CC00002000068400EC00738B1FFE7079846F6FB
:100CD0000041C0F2DC21016006E0079841F20021EA
:100CE000C0F27A010160FFE764E0079841F2002159
:100CF000C0F27A0101605DE041F20400C4F202003A
:100D00000168C1F3004103910168C1F3834105917A
:100D10000068C0F341700490049820B9FFE705987B
:100D20000F2807D1FFE70498059901EB0010013067
:100D3000059003E0059802300590FFE7039848B955
:100D4000FFE7059840F60011C0F23D0148430799BE
:100D5000086027E041F20400C4F202000068400C81
:100D6000C007A8B1FFE741F25400C4F202000068D6
:100D7000C0F3013006900698023041F20021C0F223
:100D80007A01B1FBF0F0059948430799086008E043
:100D9000059841F20021C0F27A01484307990860A2
:100DA000FFE7FFE706E0079841F20021C0F27A0171
:100DB0000160FFE741F20400C4F202000168C1F3E0
:100DC00003110291029942F23E42C0F60002515CC8
:100DD000019107990A68019BDA404A600168C1F3F2
:100DE00002210291029942F24E4CC0F6000C1CF80E
:100DF0000110019107994B68019A23FA02F2CA6027
:100E00000168C1F3C221029102991CF801100191FD
:100E100007994A68019BDA408A600168C1F3007152
:100E2000029102990068C0F3813040EA810002908B
:100E3000029842F25641C0F60001085C0190079802
:100E40008168019AB1FBF2F1016108B080BD000038
:100E500082B0019000208DF80300BDF8060041F239
:100E60000001C4F202014058019901F01F01C8407D
:100E7000C00720B9FFE700208DF8030003E0012040
:100E80008DF80300FFE79DF8030002B070470000F3
:100E900080B582B0002001908DF80300FFE711209B
:100EA000FFF7D6FF0021012807D0FFE701980021B6
:100EB000B0F5405F38BF0121FFE7C80720B1FFE769
:100EC000019801300190EAE71120FFF7C1FF0128E6
:100ED00004D0FFE700208DF8030003E001208DF827
:100EE0000300FFE79DF8030002B080BD82B00190CF
:100EF0008DF803109DF8030001280FD1FFE701983A
:100F000000F01F01012202FA01F1000C41F200027F
:100F1000C4F202028358194381500FE0019800F097
:100F20001F01012202FA01F1000C41F20002C4F299
:100F30000202835823EA01018150FFE702B07047A3
:100F400081B000208DF803003B208DF802000120C5
:100F50008DF801009DF8030088B9FFE741F2040015
:100F6000C4F20200016821F48031016041F23000D6
:100F7000C4F20200016841F0007101601FE041F21B
:100F80000400C4F20200016841F4803101609DF860
:100F90000300012809D1FFE741F20400C4F2020076
:100FA000016821F40031016008E041F20400C4F25C
:100FB0000200016841F400310160FFE7FFE79DF89E
:100FC000020000F00F0041F20401C4F202010A68BD
:100FD00022F4701242EA804008609DF8020000F09E
:100FE00030000A6822F0C04242EA406008609DF882
:100FF00001000A6822F0004242EAC070086001B0B5
:101000007047000041F20000C4F20200016841F0A4
:1010100001010160FFE741F20000C4F20200006834
:10102000C0F34000012801D0FFE7F4E741F20400DB
:10103000C4F20200016821F003010160FFE741F200
:101040000400C4F2020000688008800708B1FFE7CE
:10105000F5E741F20000C4F2020001684FF6FF72AA
:10106000CFF6F2621140016041F20400C4F20200C6
:101070000021016041F23000C4F20200016041F23F
:101080000800C4F202004FF41F0101607047000025
:1010900081B002208DF803009DF8030041F20401A5
:1010A000C4F202010A6860F301020A6000BF00BFD7
:1010B00000BF00BF00BF00BF00BF00BF00BF00BF38
:1010C00000BF00BF00BF00BF00BF00BF00BF00BF28
:1010D00000BF00BF01B0704741F20400C4F202003B
:1010E0000068C0F38100704780B584B0039040F27F
:1010F0001400C2F20000029000F06CFA039800F0B5
:1011000079F94FF2E070C1F6FF700068FF2806D849
:10111000FFE7039800F5806000F06CF9FFE700201E
:10112000ADF80600FFE7BDF80600B0F5006F19DA6C
:10113000FFE70298BDF8061042185278405C40EA7A
:101140000220ADF804000398BDF8041000F0CEF8BA
:10115000039802300390FFE7BDF806000230ADF8B7
:101160000600E0E700F034F904B080BD81B0032050
:101170008DF8030042F20C00C4F202000068C007C0
:1011800020B1FFE700208DF803001FE042F20C00C1
:10119000C4F2020000688008C00720B1FFE7012008
:1011A0008DF8030011E042F20C00C4F20200006866
:1011B0000009C00720B1FFE702208DF8030003E01B
:1011C00003208DF80300FFE7FFE7FFE79DF803002A
:1011D00001B0704780B582B0019003208DF8030004
:1011E000FFF7C4FF8DF80300FFE79DF80310002010
:1011F00029B9FFE70198002818BF0120FFE7C007C1
:1012000040B1FFE7FFF7B2FF8DF803000198013806
:101210000190EAE7019820B9FFE704208DF8030068
:10122000FFE79DF8030002B080BD000081B00320FD
:101230008DF8030042F24C00C4F202000068C007BF
:1012400020B1FFE700208DF803001FE042F24C00C0
:10125000C4F2020000688008C00720B1FFE7012047
:101260008DF8030011E042F24C00C4F20200006865
:101270000009C00720B1FFE702208DF8030003E05A
:1012800003208DF80300FFE7FFE7FFE79DF8030069
:1012900001B0704780B582B0019003208DF8030043
:1012A000FFF7C4FF8DF80300FFE79DF8031000204F
:1012B00029B9FFE70198002818BF0120FFE7C00700
:1012C00040B1FFE7FFF7B2FF8DF803000198013846
:1012D0000190EAE7019820B9FFE704208DF80300A8
:1012E000FFE79DF8030002B080BD000010B582B09A
:1012F0000190ADF8021003208DF801000198B0F1C3
:10130000006F1FD3FFE701984FF6FF71C0F607018A
:10131000884217D8FFE742F21004C4F202042068A2
:1013200040F001002060BDF80200019908804FF4F0
:101330008010FFF74FFF8DF80100206820F00100BA
:10134000206042E001980021C0F6080188421CD3C9
:10135000FFE70198000D802817D8FFE742F25004FC
:10136000C4F20204206840F001002060BDF80200D1
:10137000019908804FF48010FFF78CFF8DF8010071
:10138000206820F0010020601EE00198B0F1046F99
:1013900019D3FFE742F29004C4F20204206840F03F
:1013A00001002060BDF80200019908804FF4801010
:1013B00000F0E4F88DF80100206820F001002060C2
:1013C00000F09AF8FFE7FFE7FFE702B010BD00006A
:1013D00042F21000C4F20200016841F08001016095
:1013E00042F25000C4F20200016841F08001016045
:1013F0007047000010B582B0019003208DF8030003
:101400000198B0F1006F25D3FFE701984FF6FF7107
:10141000C0F6070188421DD8FFE742F21004C4F26B
:101420000204206840F002002060019842F214019A
:10143000C4F202010860206840F0400020604FF0D4
:101440008040FFF7C7FE8DF80300206820F00200FF
:1014500020604EE001980021C0F60801884222D3A6
:10146000FFE70198000D80281DD8FFE742F25004E5
:10147000C4F20204206840F002002060019842F2A9
:101480005401C4F202010860206840F0400020606E
:101490004FF08040FFF7FEFE8DF80300206820F03B
:1014A0000200206024E00198B0F1046F1FD3FFE731
:1014B00042F29004C4F20204206840F0020020606E
:1014C000019842F29401C4F202010860206840F0E1
:1014D000400020604FF0FF3000F050F88DF803001E
:1014E000206820F00200206000F006F8FFE7FFE728
:1014F000FFE702B010BD00004FF00460006841F249
:101500000000C0F64000006842F20000C0F6400053
:101510000068704781B003208DF8030042F28C0010
:10152000C4F202000068C00720B1FFE700208DF878
:1015300003001FE042F28C00C4F202000068800841
:10154000C00720B1FFE701208DF8030011E042F24F
:101550008C00C4F2020000680009C00720B1FFE758
:1015600002208DF8030003E003208DF80300FFE75D
:10157000FFE7FFE79DF8030001B0704780B582B038
:10158000019003208DF80300FFF7C4FF8DF80300DE
:10159000FFE79DF80310002029B9FFE70198002814
:1015A00018BF0120FFE7C00740B1FFE7FFF7B2FF18
:1015B0008DF80300019801380190EAE7019820B9FD
:1015C000FFE704208DF80300FFE79DF8030002B059
:1015D00080BD000042F20400C4F2020040F2231178
:1015E000C4F26751016048F6AB12CCF6EF520260CC
:1015F00042F24400C4F20200016002607047000041
:1016000081B043F60000C0F60000006844F63831AF
:10161000C4F25411884204D1FFE701208DF8030081
:1016200003E000208DF80300FFE79DF8030001B000
:101630007047000081B0009000984FF6FF71016084
:101640000098002181710098017100980421417176
:1016500000980121C17101B07047000084B040F6CC
:101660000001C4F201010391029002980068ADF8F4
:10167000000002988079032804D1FFE70020ADF82C
:1016800002002FE002988079E0B9FFE702984079E4
:1016900000F00F00ADF8020002984079182805D13B
:1016A000FFE7BDF80000039908610AE0029840795D
:1016B000282805D1FFE7BDF8000003994861FFE73E
:1016C000FFE70EE0029801798279C07902F0080202
:1016D00001F00401114400F003000844ADF80200D9
:1016E000FFE7FFE79DF8000048B3FFE70020019007
:1016F000FFE70198072821D8FFE70198BDF80010FF
:1017000021FA00F0C007A0B1FFE7019880000F2187
:1017100001FA00F003990A6822EA00000860BDF8A7
:10172000020001998900884003990A681043086003
:10173000FFE7FFE7019801300190DAE7FFE7BDF826
:101740000000B0F5807F2DDBFFE79DF80100ADF8CC
:10175000000000200190FFE70198072821D8FFE74B
:101760000198BDF8001021FA00F0C007A0B1FFE712
:10177000019880000F2101FA00F003994A6822EADB
:1017800000004860BDF80200019989008840039973
:101790004A6810434860FFE7FFE701980130019075
:1017A000DAE7FFE704B0704785B040F20230C3F2D9
:1017B0001000049001208DF80F009DF81300002107
:1017C000C4F2010108430290BDF812008DF8030035
:1017D0000498000A8DF8020004988DF801009DF825
:1017E00002009DF803100844C0F120004FF0FF31C3
:1017F00001FA00F0019001989DF802109DF8032075
:101800001144C1F12001C840019001989DF80310D6
:10181000C840019001989DF80310884001900198FC
:1018200002990A6822EA000008609DF80F0050B192
:10183000FFE79DF801009DF80310884002990A68AF
:1018400010430860FFE705B07047000080B582B024
:101850000020019000F02CFD00F00AFD00F0B8FC23
:1018600000F0BAFC00F07AFD00F0A4FD00F0A2FC4C
:10187000FFF7C6FE78B9FFE744F20700C0F60000A4
:1018800000784FF00061B1EB006F03D1FFE7FEF786
:1018900083FFFFE7FFE7FFF7B3FE18B1FFE700F0B4
:1018A000EDF9FFE7FFE740F20E00C2F2000000781A
:1018B000012817D1FFE740F20E00C2F2000000211C
:1018C000017044F20700C0F6000000784FF000619C
:1018D000B1EB006F05D1FFE7FFF794FBFEF75CFF6C
:1018E000FFE7FFE7DFE7000080B582B08DF8070073
:1018F0009DF90700FEF7A6FE02B080BD80B584B05A
:1019000025208DF80F000020029001900090FEF736
:10191000D9FE0299019AFEF7A5FC00909DF90F00EF
:101920000099FEF7F9FE9DF90F00FEF7A9FE04B03D
:1019300080BD000080B582B003208DF807009DF8BF
:101940000700FEF70BFF02B080BD000080B588B035
:101950000020079006900590049003900290FFF7F6
:10196000BBFB8DF807009DF8070030B1FFE70128A9
:101970002AD0FFE7022831D090E041F25400C4F2AF
:1019800002000068400AC00798B1FFE741F230004A
:10199000C4F202000068400EC00750B1FFE740F2F9
:1019A0000400C2F2000046F60041C0F2DC210160F2
:1019B00009E040F20400C2F2000041F20021C0F24E
:1019C0007A010160FFE773E040F20400C2F2000018
:1019D00041F20021C0F27A01016069E041F20400A5
:1019E000C4F202000168C1F3004104910168C1F32F
:1019F000834106910068C0F341700590059820B9B5
:101A0000FFE706980F2807D1FFE70598069901EB35
:101A100000100130069003E0069802300690FFE7C0
:101A2000049860B9FFE7069840F60011C0F23D0146
:101A3000484340F20401C2F2000108602DE041F287
:101A40000400C4F202000068400CC007C0B1FFE708
:101A500041F25400C4F202000068C0F30130079064
:101A60000798023041F20021C0F27A01B1FBF0F098
:101A70000699484340F20401C2F2000108600BE0FD
:101A8000069841F20021C0F27A01484340F2040175
:101A9000C2F200010860FFE7FFE709E040F204003E
:101AA000C2F2000041F20021C0F27A010160FFE7BA
:101AB00041F20400C4F202000068C0F30310039076
:101AC000039842F23E41C0F60001085C029040F2E9
:101AD0000400C2F200000168029AD140016008B01F
:101AE00080BD000081B000208DF803009DF8030048
:101AF000042809D1FFE74EF21000CEF20000016881
:101B000041F00401016008E04EF21000CEF2000046
:101B1000016821F004010160FFE701B07047000097
:101B2000B0B582B00025019541F22C04C2F2000448
:101B3000D120207001206070A0700421E17002218A
:101B4000217165710A21A171E071052121720921BC
:101B50006172A072E57225736573A573E5732574D0
:101B600020461021FEF7ACFE0420FEF755FF019041
:101B7000FEF778FF9DF807006074BDF80600A074BA
:101B80000198000AE07401982075F02060758DF8C6
:101B90000350FFE79DF80300152816DCFFE79DF8CA
:101BA000030041F22C01C2F20001085C00F0C8F809
:101BB000FFE700F0EBF808B9FFE7FAE7FFE79DF869
:101BC000030001308DF80300E4E702B0B0BD00006F
:101BD000B0B582B00025019541F22C04C2F2000498
:101BE000D120207002206070A0700421E17020716B
:101BF00065710A20A0711820E07125726572A572C6
:101C0000E57225736573A573E5732574204610216D
:101C1000FEF756FE0420FEF7FFFE0190FEF722FFBE
:101C20009DF807006074BDF80600A0740198000AD2
:101C3000E07401982075F02060758DF80350FFE77F
:101C40009DF80300152816DCFFE79DF8030041F21C
:101C50002C01C2F20001085C00F072F8FFE700F00E
:101C600095F808B9FFE7FAE7FFE79DF803000130B0
:101C70008DF80300E4E702B0B0BD0000B0B582B05B
:101C80000025019541F22C04C2F20004D1202070FD
:101C900002206070A0700421E170207165710A203B
:101CA000A0711D20E07125726572A572E572257321
:101CB0006573A573E573257420461021FEF700FEB9
:101CC0000420FEF7A9FE0190FEF7CCFE9DF8070068
:101CD0006074BDF80600A0740198000AE0740198D1
:101CE0002075F02060758DF80350FFE79DF8030024
:101CF000152816DCFFE79DF8030041F22C01C2F223
:101D00000001085C00F01CF8FFE700F03FF808B99C
:101D1000FFE7FAE7FFE79DF8030001308DF80300C5
:101D2000E4E702B0B0BD000081B043F60000C4F2A9
:101D3000010000900098406880B201B07047000038
:101D400082B043F60001C4F201010191ADF8020036
:101D5000BDF802006FF35F200199486002B0704740
:101D600082B043F60000C4F20100019001208DF81A
:101D700003009DF803000199CA6800F0010022F4F5
:101D8000005242EA4030C86002B0704783B043F668
:101D90000000C4F20100019040200090019800680A
:101DA0000099084204D0FFE701208DF80B0003E002
:101DB00000208DF80B00FFE79DF80B0003B0704783
:101DC00082B043F60000C4F20100019000208DF8BB
:101DD00003009DF8030058B9FFE70198416921F419
:101DE000807141610198416921F40071416132E0E3
:101DF0009DF8030001280BD1FFE70198416941F4E8
:101E0000807141610198416921F40071416121E0D3
:101E10009DF8030002280BD1FFE70198416921F4E6
:101E2000807141610198416941F40071416110E0A4
:101E30009DF8030003280BD1FFE70198416941F4A5
:101E4000807141610198416941F400714161FFE78E
:101E5000FFE7FFE7FFE702B07047000010B58AB068
:101E600043F60004C4F2010409944FF4E1300890F1
:101E700000208DF81F008DF81E0002A8FEF7FCFE62
:101E80000998A04218D0FFE7099846F20001C4F271
:101E90000101884210D0FFE7099846F20041C4F2E0
:101EA0000101884208D0FFE7099846F60001C4F214
:101EB0000101884203D1FFE70498019002E00598F0
:101EC0000190FFE7019800EB800040000899B0FB0B
:101ED000F1F0009000984CF6CD41CCF6CC41A0FB3F
:101EE0000112D10801EB8101A0EB410004280AD8BE
:101EF000FFE700984CF6CD41CCF6CC41A0FB0101A8
:101F0000C80800900BE000984CF6CD41CCF6CC41CF
:101F1000A0FB0101012000EBD1000090FFE7BDF81C
:101F2000000009998A684FF6FF739A43104488604D
:101F30009DF81F000999CA6800F0010022F4805240
:101F400042EA0030C8609DF81E0009990A6900F055
:101F5000030022F4405242EA003008610AB010BD8A
:101F600083B043F60000C4F2010002900520C0F2E5
:101F70000C00019001208DF803009DF8030001285A
:101F80000CD1FFE7019800F01F01012202FA01F1D4
:101F9000029A000C1358194311500CE0019800F0FC
:101FA0001F01012202FA01F1029A000C135823EAE0
:101FB00001011150FFE703B07047000084B043F601
:101FC0000000C4F2010002902020019000208DF852
:101FD0000300019801285FD0FFE7022855D0FFE7F2
:101FE000042852D0FFE7082837D0FFE7102845D053
:101FF000FFE720282AD0FFE7402820D0FFE78028ED
:1020000016D0FFE7B0F5807F0BD0FFE7B0F5007F7B
:1020100049D1FFE702984069C0F380208DF80300A2
:1020200045E002980069C0F380108DF803003EE09F
:102030000298C068C0F3C0108DF8030037E0029822
:10204000C068C0F380108DF8030030E00298C068CB
:10205000C0F340108DF8030029E00298C0684109E0
:102060000120C90729B9FFE70298406900F0010083
:10207000FFE700F001008DF8030018E00298C06847
:10208000C0F300108DF8030011E00298406900F0E1
:1020900001008DF803000AE00298C068C0F3002038
:1020A0008DF8030003E000208DF80300FFE79DF8A2
:1020B0000300012804D0FFE700208DF80F000DE099
:1020C000029800680199084204D0FFE701208DF8CA
:1020D0000F0003E000208DF80F00FFE79DF80F00D0
:1020E00004B0704782B043F60000C4F201000190D2
:1020F00000208DF803009DF8030058B9FFE7019810
:10210000C16821F40071C1600198C16821F4806147
:10211000C16021E09DF8030001280BD1FFE7019881
:10212000C16821F40071C1600198C16841F4806107
:10213000C16010E09DF8030002280BD1FFE7019871
:10214000C16841F40071C1600198C16841F48061C7
:10215000C160FFE7FFE7FFE702B0704782B043F6D8
:102160000000C4F20100019001208DF803009DF8E9
:1021700003000199CA6800F0010022F0040242EA5B
:102180008000C86002B0704782B043F60000C4F21D
:102190000100019001208DF803009DF803000199D2
:1021A000CA6800F0010022F0080242EAC000C860DC
:1021B00002B0704780B5FEF75FFCFEF769FCFEF7E2
:1021C0007BFCFEF787FCFEF799FCFEF74BFC80BD1D
:1021D00080B5FFF7E9FA80BD80B5FFF7ABFBFEF7EE
:1021E00069FA0021FEF70CF801466FF00B00FEF7CC
:1021F00071FAFEF75FFA0021FEF702F801466FF070
:102200000A00FEF767FAFEF755FA0021FDF7F8FF1E
:1022100001466FF00900FEF75DFAFEF74BFA002168
:10222000FDF7EEFF01466FF00400FEF753FAFEF7EC
:1022300041FA0021FDF7E4FF01466FF00300FEF7CD
:1022400049FAFEF737FA0021FDF7DAFF01466FF091
:102250000100FEF73FFAFEF72DFA0F21FDF7D0FF40
:1022600001464FF0FF30FEF735FAFFF747FB80BD20
:1022700080B50620C0F214000121FEF737FE4FF4AE
:10228000C0100121FEF732FE0220C0F21800012129
:10229000FEF72CFE0520C0F218000121FEF726FEF5
:1022A0000E20C0F218000121FEF720FE80BD0000C4
:1022B00080B5FEF7A7FE0420FEF78CFCFFE70120A7
:1022C000C0F22400FEF7C4FD012801D0FFE7F6E7C5
:1022D0000120FEF77FFCFFE7FEF7DAFD08B9FFE714
:1022E000FAE70020FEF776FCFFE70120FEF7B0FDDD
:1022F000012801D0FFE7F8E7FEF722FE0220FEF7F3
:1023000069FCFFE71920FEF7A3FD012801D0FFE7D4
:10231000F8E7FEF707FCFEF72DFCFEF717FC01209F
:10232000FEF73CFCFEF7B4FEFFE7FEF7D5FE022801
:1023300001D0FFE7F9E70020FEF730FCFFF706FBCE
:1023400080BD000080B500F001F880BD40F61400AB
:10235000C2F20000016801310160704710B586B01B
:102360000024009401A8FEF787FC0298C0080090A2
:10237000FFF7B8FB009844F6D351C1F26201A0FB0D
:1023800001014FF0FF3000EB91104EF21401CEF23C
:10239000000108604EF21800CEF2000004604EF218
:1023A0001000CEF20000016841F00301016006B0A8
:1023B00010BD0000F0B583B001AC2046FFF73AF93C
:1023C00002258DF80B5000268DF8086008208DF846
:1023D0000A004FF40070019004278DF80970204620
:1023E000FFF73CF98DF80B508DF808608DF80A6006
:1023F0004FF4806001908DF809702046FFF72EF9A8
:10240000FFF72CFDFFF7C0FEFFF7A8FEFFF76AFEFF
:10241000FFF7D6FCFFF7A4FDFFF7A2FC03B0F0BD69
:1024200002E008C8121F08C1002AFAD1704770479D
:10243000002001E001C1121F002AFBD170470000FB
:102440000000000000000102030406070809000064
:1024500000000102030402040608020C0810000038
:10246000802400080000002008000000202400084C
:1024700088240008080000204014000030240008D0
:082480000040000800127A0080
:040000050800018569
:00000001FF
