:020000040800F2
:10000000401400209901000821020008190200088C
:100010001D020008110200086D0400080000000025
:10002000000000000000000000000000290200089D
:100030001502000800000000250200082D0200083B
:10004000B3010008B3010008B3010008B3010008C0
:10005000B3010008B3010008B3010008B3010008B0
:10006000B3010008B3010008B3010008B3010008A0
:10007000B3010008B3010008B3010008B301000890
:10008000B3010008B3010008B3010008B301000880
:10009000B3010008B3010008B3010008B301000870
:1000A000B3010008B3010008B3010008B301000860
:1000B000B3010008B3010008B3010008B301000850
:1000C000B3010008B3010008B3010008B301000840
:1000D000B30100088D020008B3010008B301000855
:1000E000B3010008B3010008B3010008B301000820
:1000F000B3010008B3010008B3010008B301000810
:10010000B3010008B3010008B3010008B3010008FF
:10011000B3010008B3010008B3010008B3010008EF
:10012000B3010008B3010008B3010008B3010008DF
:10013000B3010008B3010008B3010008B3010008CF
:1001400000000000000000000000000000000000AF
:10015000B3010008B3010008B3010008B3010008AF
:10016000B3010008B3010008B3010008B30100089F
:10017000B3010008B3010008B3010008B30100088F
:10018000B3010008DFF80CD000F02AF8004800475F
:10019000F50E000840140020064880470648004736
:1001A000FEE7FEE7FEE7FEE7FEE7FEE7FEE7FEE727
:1001B000FEE7FEE7310200088501000840EA01037E
:1001C0009B0703D009E008C9121F08C0042AFAD20D
:1001D00003E011F8013B00F8013B521EF9D27047D1
:1001E0001CB509480090094801900546009C06E0AE
:1001F000E06840F0010394E8070098471034AC42EF
:10020000F6D3FFF7C3FF0000A0170008C0170008CF
:10021000FEE7000070470000FEE70000FEE7000078
:1002200070470000704700007047000001F032BACC
:100230004EF68850CEF20000026841F2000142F40E
:100240007002C4F2020102600A6842F001020A6010
:100250000A689207FCD54A6822F003024A6000BF90
:100260004A6812F00C0FFBD10A684FF6FF73CFF605
:10027000F2631A400A6000224A600A634FF41F02C8
:100280008A604FF0006140F8801C7047F0B581B083
:1002900043F60004C4F201042046202101F0AEF828
:1002A000002800F0E180204601F006F840F2080640
:1002B000C2F20006318840F61C45C2F200056854BF
:1002C000481C81B21629308040D140F614016FF0ED
:1002D0000300C2F2000100BF2A18D2F805200B1853
:1002E000043012BA0C285A60F6D140F61400C2F25B
:1002F0000000042100F056F9044600F061F9687C22
:10030000B0EB146F22D1A87CC4F3074188421DD101
:10031000E87CC4F30721884218D1287DE1B28842E5
:1003200014D16A78A9782879012A08BF012907D051
:10033000022A08BF012907D130B900F073FF03E09A
:100340000028F5D100F0DAFE00203080308840F23D
:100350000C41884240F0888028780021D1283180E3
:100360005DD195F80B04F02859D140F61400C2F283
:10037000000040F2044200BF6B18D3F801301BBAF2
:10038000435004319142F7D129444A1E00211823D9
:10039000967801329E40083B3143082BF8D1C0F8D3
:1003A00004144FF4817100F0FDF8044600F008F9E0
:1003B00095F80704B0EB146F31D195F80804C4F335
:1003C000074188422BD195F80904C4F307218842DC
:1003D00025D195F80A04E1B2884220D140F20A06FC
:1003E000C2F200063478FCB1012C28D140F210048E
:1003F000C2F2000404F58060E91D4FF48062FFF74B
:10040000DDFE40F20007C2F200073868214600F026
:10041000BDFA386800F50060386000200EE001B0D9
:10042000BDE8F04000F0B4BE40F21000E91DC2F299
:1004300000004FF48062FFF7C1FE601C307000F0D6
:10044000F1FEA87804280FD144F20700C0F600009E
:1004500000784FF00061B1EB006F05D140F20B0066
:10046000C2F200000121017001B0F0BDFEE7000002
:1004700000F01F00012101FA00F04EF28421CEF2BB
:10048000000108607047000070B582B001900198CB
:10049000006800F16040B0F5004F00F28180FFE796
:1004A0000124C0F21C042046002100F0DBF90E25D7
:1004B000C0F218052846002100F0D4F90226C0F247
:1004C00018063046002100F0CDF90620C0F21400D5
:1004D000002100F0C7F94FF4A010002100F0C2F98C
:1004E0004FF4C010002100F0BDF93046002100F0AB
:1004F000B9F90320C0F21800002100F0B3F904207C
:10050000C0F21800002100F0ADF90520C0F218007B
:10051000002100F0A7F90920C0F21800002100F026
:10052000A1F90C20C0F21800002100F09BF9284628
:10053000002100F097F94FF4E010002100F092F94B
:100540002046002100F08EF91120C0F21C0000218D
:1005500000F088F91220C0F21C00002100F082F99E
:100560001320C0F21C00002100F07CF9252000F0CF
:10057000FBFC282000F0F8FC2820FFF779FF25205D
:10058000FFF776FF0198406840F20C01C2F20001CB
:1005900008600198006880F3088808688047FFE7D2
:1005A00002B070BD43F20002C4F2020229B1043865
:1005B00050F8043F01391360FAD110687047000009
:1005C00043F20800C4F20200016841F00101016039
:1005D0007047000043F21001C4F202010860704746
:1005E00043F20801C4F202010A6800F0030022F09D
:1005F000180242EAC00008607047000043F214018C
:10060000C4F202010860704743F20801C4F202011B
:100610000A6800F0030022F0600242EA401008601D
:100620007047000043F20801C4F202010A6800F0BA
:10063000010022F0800242EAC0100860704700000A
:1006400041F20401C4F202010A6800F00F0022F036
:10065000F00242EA001008607047000041F2040115
:10066000C4F202010A6800F0070022F4E06242EAE4
:10067000002008607047000041F20401C4F202014A
:100680000A6800F0070022F4605242EAC0200860C5
:100690007047000041F25401C4F202010A680128C7
:1006A00022F0300208BF30320A607047042888BF49
:1006B0007047DFE800F0032B15220C0041F2000028
:1006C000C4F20200026861F300020260704741F266
:1006D0000000C4F20200426A61F300024262704705
:1006E00041F20000C4F20200026801F0010122F0B0
:1006F000807242EA01610160704741F20000C4F279
:100700000200026A61F300020262704741F20000D7
:10071000C4F20200026801F0010122F4803242EAD0
:10072000014101607047000041F20401C4F202017E
:100730000B6841F2002CC0F27A0CC3F38103B0B510
:10074000DFE803F02C023702C0F800C00A682FA3CC
:10075000C2F303129A5C036841F2967523FA02F21F
:1007600042600B68C0F60005C3F30223EB5C22FA7B
:1007700003F3C3600B68C3F3C223EB5C0425DA40C8
:1007800082600B68096805EA9363C1F381311944FB
:1007900022A3595CB2FBF1F10161B0BD0A6D920573
:1007A000D2D5CA6A920144BF46F6004CC0F2DC2C96
:1007B000CAE7D1F800E00B680A689B0CC2F34172EB
:1007C000140103F00F0301340F2B254618BF022537
:1007D000002A18BF25465FEACE322B4406D440F6E5
:1007E0000012C0F23D0203FB02FCADE70A6892036F
:1007F00002D403FB0CFCA7E70A6DC2F301320232FC
:10080000BCFBF2F202FB03FC9EE700BF000000000D
:10081000000000000102030406070809020406089C
:10082000020C081041F20002010CC4F202028958C5
:1008300000F01F0021FA00F000F0010070470000F6
:1008400041F200000021C4F2020000BF02689203DE
:1008500004D4B1F5405F01F10101F7D30068C0F3A2
:100860004040704741F2000200F01F034FF0010CBE
:10087000C4F2020201290CFA03F14FEA1040835836
:1008800014BF23EA010119438150704780B541F23A
:10089000040EC4F2020EDEF800C070B14CF48033D6
:1008A000CEF80030DEF800C0012814BF4CF4003050
:1008B0002CF40030CEF8000009E02CF48030CEF8A3
:1008C0000000DEF82C0040F00070CEF82C00DEF8BE
:1008D000000061F39540CEF80000DEF80000090941
:1008E00061F35E70CEF80000DEF8000020F00040FA
:1008F00040EAC270CEF8000080BD000041F2000066
:10090000C4F20200016841F0010101600168890739
:10091000FCD5416821F00301416000BF416811F03E
:100920000C0FFBD101684FF6FF72CFF6F262114057
:1009300001600021416001634FF41F018160704735
:1009400041F20401C4F202010A6860F301020A6084
:1009500000BF00BF00BF00BF00BF00BF00BF00BF9F
:1009600000BF00BF00BF00BF00BF00BF00BF00BF8F
:1009700000BF00BF00BF00BF7047000041F204008D
:10098000C4F202000068C0F381007047F0B581B086
:100990000C46054600F004FA284600F00FF94FF225
:1009A000E070C1F6FF700068FF2803D805F580608D
:1009B00000F004F9002640F2FE7700BFA15BA81901
:1009C00000F00AF8BE4206F10206F7D301B0BDE816
:1009D000F04000F0E5B80000024600236FF3120279
:1009E000C0F608039A421AD0B2F1006F2FD142F23A
:1009F0000C02C4F20202536843F001035360018009
:100A00001068C00745D1106840074DD41068C00673
:100A10004FF0020058BF0320002863D146E042F2A5
:100A20000C02C4F20202536C43F0010353640180D0
:100A3000106CC00730D1106C400758D4106CC00641
:100A40004FF0020058BF032000286FD151E0B0F1F1
:100A5000046F3CBF0320704742F20C02C4F2020252
:100A6000D2F8843043F00103C2F884300180D2F818
:100A70008000C00714D1D2F8800040075BD4D2F8C0
:100A80008000C0064FF0020058BF0320002873D139
:100A900053E0002030BB09E00020002846D128E0C8
:100AA0000020002868D148E00120D8B94FF4801117
:100AB0001068C0070AD11068400709D41068C00642
:100AC0004FF0020058BF032003E000BF002000E009
:100AD0000120A1F1010310B901291946E8D1002B29
:100AE00008BF0420516821F00101516070470120C6
:100AF000E0B94FF4801100BF106CC0070AD1106C30
:100B0000400709D4106CC0064FF0020058BF032004
:100B100003E000BF002000E00120A1F1010310B9B3
:100B200001291946E8D1002B08BF0420516C21F09F
:100B30000101516470470120F0B94FF4801100BFEA
:100B4000D2F88000C0070BD1D2F88000400709D44A
:100B5000D2F88000C0064FF0020058BF032002E028
:100B6000002000E00120A1F1010310B9012919467C
:100B7000E6D1002B08BF0420D2F8841021F0010137
:100B8000C2F884104FF00461096841F20001C0F618
:100B90004001096842F20001C0F64001096870474F
:100BA00042F21000C4F20200016841F080010160CD
:100BB000016C41F080010164704700000146002291
:100BC0006FF31201C0F6080291421ED0B1F1006F1E
:100BD00037D142F20C01C4F202014A6842F002022B
:100BE0004A608860486840F0400048600868C00774
:100BF00050D10868400758D40868C0064FF002007A
:100C000058BF032000286FD151E042F20C01C4F21A
:100C100002014A6C42F002024A648864486C40F067
:100C200040004864086CC00737D1086C400760D4A6
:100C3000086CC0064FF0020058BF0320002877D18F
:100C400059E0B0F1046F3CBF0320704742F20C0141
:100C5000C4F20201D1F8842042F00202C1F88420DB
:100C6000C1F88800D1F8840040F04000C1F8840049
:100C7000D1F88000C00714D1D1F8800040075CD4BF
:100C8000D1F88000C0064FF0020058BF03200028B2
:100C900072D154E0002038BB09E00020002847D181
:100CA00029E00020002867D149E00120E0B94FF099
:100CB000804200BF0868C0070AD10868400709D40D
:100CC0000868C0064FF0020058BF032003E000BFD1
:100CD000002000E00120A2F1010310B9012A1A4608
:100CE000E8D1002B08BF04204A6822F002024A60C3
:100CF00070470120E0B94FF0804200BF086CC00788
:100D00000AD1086C400709D4086CC0064FF00200F5
:100D100058BF032003E000BF002000E00120A2F143
:100D2000010310B9012A1A46E8D1002B08BF04209C
:100D30004A6C22F002024A6470470120E0B90222A4
:100D4000D1F88000C0070BD1D1F88000400709D44A
:100D5000D1F88000C0064FF0020058BF032002E027
:100D6000002000E0012002F1010310B9002A1A4618
:100D7000E6D1012B08BF0420D1F8842022F0020222
:100D8000C1F884204FF00461096841F20001C0F607
:100D90004001096842F20001C0F64001096870474D
:100DA00042F2040040F2231148F6AB12C4F20200F2
:100DB000C4F26751CCF6EF52016002600164026434
:100DC0007047000043F60000C0F6000000684BF2D8
:100DD000C841CBF6AB610844B0FA80F040097047D7
:100DE00040F200424FF6FF71C0F20012C0E900125B
:100DF00070470000B0B58B790A88032B0BD07BB904
:100E00004979282901F00F0E18D0182908BF02616E
:100E1000110616D12EE04FF0000E110611D129E077
:100E200003F0080C0B79C97903F00403634401F063
:100E3000030103EB010E110603D11BE04261110611
:100E400018D000234FF00F0C002104E001310829D5
:100E500003F104030ED022FA01F4E407F6D004688B
:100E60000CFA03F5AC43046004680EFA03F52C4356
:100E70000460EBE7B2F5807F38BFB0BD120A0023F3
:100E80004FF00F0C002104E00131082903F10403A5
:100E90000ED022FA01F4E407F6D044680CFA03F508
:100EA000AC43446044680EFA03F52C434460EBE71E
:100EB000B0BD0000B0B5C0F3074353FA90F2C2F1E1
:100EC00020024FF0FF3E2EFA02F40EFA03F240F237
:100ED000000E4FEA106CC4F2010E5CF80E50224076
:100EE00025EA0202C0B29840002918BF02434CF81C
:100EF0000E20B0BD44F20004C0F6000400F080FBF8
:100F000000F060FB00F026FB00F02CFB00F0CCFBB7
:100F100000F0EAFB00F006FBFFF754FF40B9E07970
:100F20004FF00061B1EB006F02D12046FFF7ACFA41
:100F3000FFF748FF002818BF00F074F940F20B05D6
:100F4000C2F2000500264FF0006700BF2878012894
:100F5000FCD1E0792E70B7EB006FF7D1FFF7CEFC34
:100F60002046FFF791FAF1E7002848BF704700F0EC
:100F70001F01012202FA01F11C2202EAD0004EF206
:100F80008012CEF200028150BFF34F8FBFF36F8FFC
:100F900070470000B0B54EF60C5ECEF2000EDEF8E3
:100FA00000304FF0FF35C3F3022383F00704042C15
:100FB00028BF0424033B05FA04F438BF0023A143EF
:100FC000994005FA03F39A4300F00F03043B4EF2F5
:100FD000001C7344CEF2000C11430C33B0F1FF3F00
:100FE0004FEA011100EB0C02C8BF02F54073002864
:100FF000197048BFB0BD00F01F01012202FA01F1D3
:10100000C0F342104CF82010B0BD00004EF60C5159
:10101000CEF200010A684FF6FF031A4060F30A227D
:1010200042F0806040F0FD7008607047B0B541F25A
:10103000040441F20025C4F20204C0F27A05FFF76D
:101040009DFC02280BD0A8BB206D800532D5E06A3C
:10105000800144BF46F60045C0F2DC252AE0D4F802
:1010600000C021682268890CC2F34172130101F0AB
:101070000F01581C0F29034618BF0223002A18BF6E
:1010800003465FEACC3003EB010006D440F60011C2
:10109000C0F23D0100FB01F50CE02168890301D499
:1010A000454307E0216DC1F301310231B5FBF1F198
:1010B00001FB00F540F20400C2F200000560216867
:1010C00004A2C1F30311515C026822FA01F101602C
:1010D000B0BD00BF000000000000000001020304DA
:1010E000060708094EF21001CEF200010A68042832
:1010F00022F0040208BF04320A60704770B541F262
:10110000280640F2D1100221C2F20006C0F201000E
:10111000C1F60A01002286E8070040F614016FF0CC
:101120000300C2F20001F260327400BF3218D2F83C
:1011300005200B18043012BA0C285A60F6D140F67C
:10114000140043F60004C2F200000421C4F20104BA
:10115000FFF728FA0546FFF733FA280E7074280CBB
:10116000B074280AF0743575F0200025707500BF42
:10117000715D204600F0A4F82046402100F0AEF852
:101180000028F9D00135162D08BF70BDF0E700002A
:1011900070B541F2280640F2D1200221C2F20006C9
:1011A000C0F20200C1F60A01002286E8070040F6FC
:1011B00014016FF00300C2F20001F260327400BF4C
:1011C0003218D2F805200B18043012BA0C285A60D5
:1011D000F6D140F6140043F60004C2F200000421E8
:1011E000C4F20104FFF7DEF90546FFF7E9F9280E1E
:1011F0007074280CB074280AF0743575F02000253E
:10120000707500BF715D204600F05AF820464021FD
:1012100000F064F80028F9D00135162D08BF70BD24
:10122000F0E7000070B541F2280640F2D12002211B
:10123000C2F20006C0F20200C1F60A51002286E89E
:10124000070040F614016FF00300C2F20001F260E3
:10125000327400BF3218D2F805200B18043012BACD
:101260000C285A60F6D140F6140043F60004C2F28E
:1012700000000421C4F20104FFF794F90546FFF7CA
:101280009FF9280E7074280CB074280AF074357514
:10129000F0200025707500BF715D204600F010F849
:1012A0002046402100F01AF80028F9D00135162D0B
:1012B00008BF70BDF0E70000406880B270470000D2
:1012C0006FF35F2141607047C26801F0010122F4B1
:1012D000005242EA4131C160704700000068084096
:1012E00018BF012070470000032988BF7047DFE85E
:1012F00001F00213060A416921F480710FE041698F
:1013000021F4807102E0416941F4807141614169D9
:1013100041F4007141617047416941F4807141615C
:10132000416921F400714161704700002DE9F041ED
:1013300086B001AD04462846984616460F46FFF78C
:10134000F3F946F2FF30C4F20100844205F10800CF
:1013500008DC43F60001C4F201018C4210D046F2D1
:10136000000107E046F20041C4F201018C4207D0BF
:1013700046F60001C4F201018C4218BF05F10C00D1
:1013800000684CF6CD4100EB80004000B0FBF7F068
:10139000CCF6CC41A0FB0112D10801EB8103A0EBFC
:1013A00043000428A0684FF0010388BF03EBD2017B
:1013B000C1EA0000A060E06806F0010120F480505E
:1013C00040EA0130E060206908F0030120F4405059
:1013D00040EA0130206106B0BDE8F08101F01F0352
:1013E0004FF0010C012A0CFA03F24FEA11410B589D
:1013F00014BF23EA02021A430A5070477F294FF0B4
:10140000000C00F32A804B1E3F2B00F24E80DFE8D9
:1014100003F03C204C204C4C4C324C4C4C4C4C4C33
:101420004C404C4C4C4C4C4C4C4C4C4C4C4C4C4C08
:101430004C384C4C4C4C4C4C4C4C4C4C4C4C4C4C00
:101440004C4C4C4C4C4C4C4C4C4C4C4C4C4C4C4CDC
:101450004C30426902F0010C27E080291DD0B1F523
:10146000807F1FD0B1F5007F1FD14269C2F3802C6D
:101470001BE0C26817E0C2689206EAD54FF0010C83
:1014800013E0C268C2F3401C0FE0C268C2F3002C34
:101490000BE0C268C2F3001C07E0C268D2B24FEA98
:1014A000D21C02E00269C2F3801CBCF1000F04BF31
:1014B000002070470068084018BF012070470000F6
:1014C000022911D001290BD0002918BF7047C1682B
:1014D00021F40071C160C16821F48061C16070476E
:1014E000C16821F4007102E0C16841F40071C1607B
:1014F000C16841F48061C16070470000C26801F0BA
:10150000010122F0040242EA8101C160704700003B
:10151000C26801F0010122F0080242EAC101C16083
:101520007047000080B54FF0FF30FFF753F8002000
:10153000FFF756F841F6B750C0F2C140FFF75EF82A
:101540000020FFF761F80020FFF76CF8BDE880404D
:10155000FFF736B840F20230C3F210000121FFF766
:10156000A9BC000080B50320FFF750FD4EF60C53D8
:10157000CEF20003186800201873196858731968B0
:1015800098731968D8741968187519689875196866
:10159000C1F3022181F00702042A28BF0422033983
:1015A00038BF01464FF0FF309040C04388404FEABB
:1015B000001C25200021002283F817C0BDE88040D0
:1015C000FFF7E8BC10B50620C0F214000121FFF7B8
:1015D00049F94FF4C0100121FFF744F90224C0F289
:1015E000180420460121FFF73DF9E01C0121FFF717
:1015F00039F904F10C000121BDE81040FFF732B9C0
:1016000010B5FFF77BF904200121FFF74FF8012403
:10161000C0F224042046FFF705F90128FAD1012081
:101620000121FFF743F800BFFFF70AF90028FBD0BC
:1016300000200121FFF73AF80120FFF7F3F8012815
:10164000FAD1012018210122FFF720F902200121FF
:10165000FFF72CF81920FFF7E5F80128FAD1002050
:10166000FEF7EEFF0420FFF707F80420FEF7F6FF71
:101670000120FFF70FF80220FFF762F9FFF77EF96C
:101680000228FBD10020FFF705F8BDE81040FFF766
:10169000CDBC0000AFF3008040F61000C2F20000A5
:1016A0000168013101607047B0B586B001A8FFF74D
:1016B0003BF8029C00200025FFF714FD44F6D350B0
:1016C000C1F26200A4FB00014FF0FF3000EB51209B
:1016D0004EF21001CEF2000148608D60086840F0C3
:1016E0000300086006B0B0BD70B582B06D462846F4
:1016F000FFF776FB40F2004043F60004C0F20820FA
:10170000C4F2010401904FF40070A4F5405600901B
:1017100030462946FFF76EFB40F20040C0F2002041
:1017200001904FF48060009030462946FFF762FB3D
:1017300020464FF4E13100220023FFF7F7FD204659
:101740000121FFF7E5FE20460121FFF7D7FE2046E5
:101750000021FFF7B5FE20460021FFF7C5FD05215A
:10176000C0F20C0120460122FFF738FE204601217D
:10177000FFF7AAFD02B070BD02E008C8121F08C141
:10178000002AFAD170477047002001E001C1121F02
:10179000002AFBD170470000000001020304000092
:1017A000C01700080000002008000000781700089B
:1017B000C817000808000020381400008817000827
:0817C0000040000800127A004D
:040000050800018569
:00000001FF
