:020000040800F2
:10400000481D00209D4100089D610008E1600008F6
:1040100099610008594E000845740008000000002E
:10402000000000000000000000000000C967000858
:10403000C55500080000000015640008C1410008D3
:10404000B7410008B7410008B7410008B741000870
:10405000B7410008B7410008B7410008B741000860
:10406000B7410008B7410008B7410008B741000850
:10407000B7410008B7410008B7410008B741000840
:10408000B7410008B7410008B7410008B741000830
:10409000B7410008B7410008B7410008B741000820
:1040A000B741000865720008B7410008B741000831
:1040B000B7410008B7410008B7410008B741000800
:1040C000B7410008B7410008B7410008B7410008F0
:1040D000B7410008C9720008B7410008B74100089D
:1040E000B7410008B7410008B7410008B7410008D0
:1040F000B7410008B7410008B7410008B7410008C0
:10410000B7410008B7410008B7410008B7410008AF
:10411000B7410008B7410008B7410008B74100089F
:10412000B7410008B7410008B7410008B74100088F
:10413000B7410008B7410008B7410008B74100087F
:10414000000000000000000000000000000000006F
:10415000B7410008B7410008B7410008B74100085F
:10416000B7410008B7410008B7410008B74100084F
:10417000B7410008B7410008B7410008B74100083F
:10418000B7410008DFF810D000F06AFB00F06AF8D1
:1041900000480047A5C40008481D00200648804785
:1041A00006480047FEE7FEE7FEE7FEE7FEE7FEE71C
:1041B000FEE7FEE7FEE7FEE78170000885410008A4
:1041C00030B410B50348804730BCAE4630BC02481E
:1041D00000477047BDCB0008D96F00082DE9F041BA
:1041E0000024061B254671F1000605DA012400278C
:1041F000D0EB070067EB0101161E73F1000605DA2C
:104200000027D2EB0702012567EB030300F032FA27
:1042100086460E4617469C46AC4204D00025D0EB9D
:10422000050E65EB010624B10020D2EB000760EB20
:10423000030C704631463A466346BDE8F081D2B27F
:1042400001E000F8012B491EFBD270470022F6E77F
:1042500010B513460A4604461946FFF7F0FF2046FC
:1042600010BD00007CB50748009007480190054646
:10427000009C04E02046016808448047241DAC42AD
:10428000F8D17CBD64F1000868F100082DE9FE4F0B
:10429000804681EA0300C00F0C46009021F00041E7
:1042A00023F00045B8EB0200A94105D24046214663
:1042B00090461C460B46024623F00040104347D070
:1042C000270DC7F30A00C3F30A510290401A019068
:1042D00040286BDAC3F3130040F4801B0098924629
:1042E00020B10023D2EB030A63EB0B0B0198594674
:1042F000C0F14002504600F0EEF906460D46504629
:104300005946019A00F006FA10EB080061410024BA
:1043100087EA115284EAE7731A4340D0009A62B3E5
:10432000019A012A4FEA075215DC001B61EB0201DA
:104330004FF0004202EA0752CDE90042001C41F56D
:10434000801132462B4600F03DFA03B0BDE8F08FF5
:1043500040462146F9E7001B61EB0201001C41F5D4
:10436000801300185B412018A2F5001747EB0301EA
:1043700040EAD570B6196D4111E06D084FEA360676
:1043800045EAC0754FEA0752001B61EB0201001CB1
:1043900041F5801149084FEA300000195141324679
:1043A0002B4603B0BDE8F04F00F0FDB900980122A4
:1043B00040000023D0EB020263EBE073009821463B
:1043C0004FEAE074B8EB000061EB0401E9E783F029
:1043D00000435BE781F0004158E72DE9FE4F81EA99
:1043E000030404F0004421F0004100944FF0000B5E
:1043F00023F0004350EA01045ED052EA03045BD08C
:10440000C3F30A54C1F30A552C44A4F2F3340194C3
:10441000A0FB0254C1F3130141F48011C3F3130351
:1044200043F4801301FB024400FB034E840A970A05
:1044300044EA815447EA8357A4FB076802958D0A32
:1044400005FB07854FEA932C04FB0C542705029DBE
:104450004FEA065847EA1637B5EB08056EEB070C2E
:10446000870E920E47EA811742EA8312A7FB0201E8
:10447000B6EB0B0164EB00042B0D43EA0C335E1822
:1044800044EB1C50DA465146E7FB0201C5F3130426
:104490004FEA0B3343EA14534FEA0432019C43EAD8
:1044A0000603A4F10C040294009CCDE900B400F0D2
:1044B00089F903B0BDE8F08F00200146F9E72DE946
:1044C000F04D81EA030404F0004B21F0004514464E
:1044D0004FF0000A23F0004150EA050220D054EAD0
:1044E00001021DD0C5F30A570246C5F31303C1F3F9
:1044F0001300C1F30A5640F4801543F48013A7EB70
:104500000608101BD64608F2FD3873EB050002D3EF
:1045100008F1010801E092185B41B8F1000F03DADD
:1045200000200146BDE8F08D00204FF480110646C2
:1045300084460EE0171B73EB050705D3121B63EBD4
:10454000050306434CEA010C49084FEA3000921873
:104550005B4150EA0107EDD152EA030012D082EA32
:10456000040083EA0501084305D0101BAB4106D2C5
:104570000122002306E000224FF0004302E06FF02A
:10458000010253101AEB06004CEB085110EB0A0025
:1045900041EB0B01BDE8F04D00F005B90EB5C10FC0
:1045A00080EAE0700844CA07002140F233438DE8F6
:1045B0000E000A460B4600F005F903B000BD0EB52B
:1045C00040F2334102910021CDE900110A460B4629
:1045D00000F0F8F803B000BD70B5C1F30A5201F065
:1045E00000450024C1F3130140F2FF3341F4801170
:1045F0009A4201DA002070BD40F233439A42A2F29F
:10460000334203DC524200F075F800E090402C4346
:10461000F1D0404270BD00F0004230F000400AD0BE
:10462000C10D01F56071C0F3160042EA0151C208E4
:1046300040071143704700200146704701F00043D6
:1046400030B421F0004150EA010206D00A0DA2F573
:104650006072C1F31301002A02DC30BC00207047F5
:10466000440F44EAC104C100E01830BC00EBC25062
:1046700000F062B82DE9F05F0546002092469B46A7
:1046800088460646814640241BE028464146474668
:10469000224600F02FF853465A46C01A914110D3D3
:1046A00011461846224600F016F82D1A67EB01084D
:1046B0004F4622460120002100F00DF817EB0009BB
:1046C0004E41201EA4F10104DFDC484631462A4653
:1046D0004346BDE8F09F202A04DB203A00FA02F1AD
:1046E000002070479140C2F1200320FA03F31943E0
:1046F00090407047202A04DB203A21FA02F0002182
:10470000704721FA02F3D040C2F1200291400843E1
:1047100019467047202A06DBCB17203A41FA02F0EF
:1047200043EAE07306E041FA02F3D040C2F120020E
:1047300091400843194670470029A8BF7047401CA4
:10474000490008BF20F00100704710B4B0FA80FCA7
:1047500000FA0CF050EA010404BF10BC704749B1E4
:10476000CCF1200421FA04F411FA0CF118BF012154
:1047700021430843A3EB0C01CB1D4FEA00614FEA34
:10478000102042BF002010BC704700EBC350104403
:104790000029A4BF10BC7047401C490008BF20F08E
:1047A000010010BC704710B5141E73F1000408DA44
:1047B000401C41F1000192185B411A4301D120F0E5
:1047C000010010BD2DE9F04D92469B4611B1B1FAA2
:1047D00081F202E0B0FA80F220329046FFF77BFFD0
:1047E00004460F4640EA0A0041EA0B0153465A4686
:1047F000084313D0114653EA010019D0C8F1400212
:104800005046FFF777FF05460E465046594642464A
:10481000FFF761FF084305D0012004E02046394638
:10482000BDE8F08D0020054346EAE0762C4337438F
:104830000A986305E40AA0EB08000022FD0A44EA96
:1048400047540A3002D500200146E9E70105101956
:104850006941DDE9084500196941BDE8F04DA2E76D
:104860001CB509480090094801900546009C06E0E7
:10487000E06840F0010394E8070098471034AC4228
:10488000F6D3FFF783FC000044F1000864F1000850
:1048900070B58C1810F8015B15F0070301D110F802
:1048A000013B2A1106D110F8012B03E010F8016B2F
:1048B00001F8016B5B1EF9D12B0705D40023521EB2
:1048C0000DD401F8013BFAE710F8013BCB1A921C1A
:1048D00003E013F8015B01F8015B521EF9D5A14218
:1048E000D8D3002070BD000080B584B0FFE741F24E
:1048F0000401C4F20101086820F0030008600868A0
:104900000860FFE741F20000C4F2010000904FF49C
:104910000071019107F036F90120029005F024F8AA
:104920000098019907F038F9029805F01DF8002069
:104930008DF80F00FFE79DF80F00312815DCFFE729
:1049400041F20000C4F201004FF4807107F0E2F977
:1049500008B9FFE709E0052005F006F8FFE79DF834
:104960000F0001308DF80F00E5E741F20000C4F2BE
:1049700001004FF4007107F005F9012004F0F4FF85
:10498000FFE741F20401C4F20101086820F00300CE
:104990000860086840F003000860FFE704B080BDCD
:1049A00080B582B0ADF8060000208DF80500FFE765
:1049B0009DF8050003282DDCFFE7BDF806009DF8F3
:1049C000051006F013FB8DF804009DF8041040F26A
:1049D0003010C2F20000405C8DF804009DF8050024
:1049E00038B9FFE79DF8040040F002008DF804009C
:1049F000FFE79DF80510082000EB41009DF804102A
:104A0000C0B200F0F7FDFFE79DF8050001308DF81A
:104A10000500CDE702B080BD80B584B0ADF80E00D2
:104A200000208DF80D008DF80C008DF80B00BDF8FE
:104A30000E1045F62940C0F28F20A1FB00218DF811
:104A40000D10BDF80E20A2FB0010642100FB112008
:104A500049F69A11C1F69911A0FB01208DF80C00BE
:104A6000BDF80E00A0FB012101EB8101A0EB41008C
:104A70008DF80B009DF80D1040F23010C2F20000CE
:104A80000190405C40F00201222000F0B3FD01984B
:104A90009DF80C10415C242000F0ACFD01989DF8BD
:104AA0000B10415C262000F0A5FD04B080BD000085
:104AB00080B582B0ADF8060000208DF80500FFE754
:104AC0009DF80500022846DCFFE7BDF806009DF8CA
:104AD000051006F08BFA8DF804009DF8041040F2E2
:104AE0003010C2F20000405C8DF804009DF8050013
:104AF00068B9FFE7BDF80600632807DCFFE79DF80B
:104B0000040040F002008DF80400FFE712E09DF879
:104B1000050001280DD1FFE7BDF80600642807DB7A
:104B2000FFE79DF8040040F002008DF80400FFE765
:104B3000FFE7FFE79DF805101C2000EB41009DF802
:104B40000410C0B200F056FDFFE79DF805000130EB
:104B50008DF80500B4E702B080BD000080B584B0D8
:104B6000ADF80E0000208DF80D008DF80C008DF8CA
:104B70000B00BDF80E1045F62940C0F28F20A1FBB6
:104B800000218DF80D10BDF80E20A2FB001064214D
:104B900000FB112049F69A11C1F69911A0FB0120E2
:104BA0008DF80C00BDF80E00A0FB012101EB810186
:104BB000A0EB41008DF80B009DF80D1040F2301075
:104BC000C2F200000190405C40F00201162000F0AB
:104BD00011FD01989DF80C10415C182000F00AFDB1
:104BE00001989DF80B10415C1A2000F003FD04B001
:104BF00080BD000080B582B0ADF8060000208DF8C1
:104C00000500FFE79DF80500022846DCFFE7BDF838
:104C100006009DF8051006F0E9F98DF804009DF8EE
:104C2000041040F23010C2F20000405C8DF8040025
:104C30009DF8050068B9FFE7BDF80600632807DCAA
:104C4000FFE79DF8040040F002008DF80400FFE744
:104C500012E09DF8050001280DD1FFE7BDF8060020
:104C6000642807DBFFE79DF8040040F002008DF8A0
:104C70000400FFE7FFE7FFE79DF80510102000EBB9
:104C800041009DF80410C0B200F0B4FCFFE79DF8AD
:104C9000050001308DF80500B4E702B080BD0000CA
:104CA00080B582B0ADF8060000208DF80500FFE762
:104CB0009DF8050003282CDCFFE7BDF806009DF8F1
:104CC000051006F093F98DF804009DF8041040F2E9
:104CD0003010C2F20000405C8DF804009DF8050021
:104CE000012807D1FFE79DF8040040F002008DF88D
:104CF0000400FFE79DF8050040009DF80410C0B2D5
:104D000000F078FCFFE79DF8050001308DF8050004
:104D1000CEE702B080BD000080B582B041F67400DD
:104D2000C2F20000019040F2FA21C2F200014FF4F9
:104D30008062009208F002F8009A0198103040F268
:104D4000FA61C2F2000107F0F9FF019943F6000091
:104D5000C4F20100086202B080BD000080B582B0DC
:104D60000190019800790146009140B1FFE7009859
:104D7000012826D0FFE70098022851D06AE0019868
:104D8000C06880470198407950B9FFE70199012038
:104D9000087140F2D021C2F200010220087059E0EF
:104DA0000198407901280AD1FFE701990120087193
:104DB00040F2D021C2F200010F2008704AE0FFE764
:104DC00048E001988068804740F2D021C2F200019B
:104DD000087801380870000608BBFFE70199022037
:104DE00008710198407948B9FFE7019902200871DC
:104DF00040F2D021C2F2000108702BE00198407906
:104E000001280AD1FFE701990220087140F2D02160
:104E1000C2F200010F2008701CE0FFE7FFE719E075
:104E20000198C068804740F2D021C2F200010878A2
:104E300001380870000660B9FFE701990020087189
:104E4000019A0221517140F2D021C2F20001087092
:104E500000E0FFE702B080BDFFE7FEE780B582B06B
:104E600041F25470C2F2000090F8900001460191A6
:104E700040B1FFE70198012805D0FFE7019802281B
:104E800004D006E006E000F007F803E007F07AFC43
:104E900000E0FFE702B080BD80B541F20000C4F23F
:104EA0000100802106F036FF012819D1FFE740F20A
:104EB000D120C2F20000017801310170007806288B
:104EC0000DDBFFE740F2D121C2F2000100200870A3
:104ED00041F25471C2F2000181F89000FFE72AE02C
:104EE00040F2D121C2F200010020087041F254705A
:104EF000C2F2000090F88600A0B1FFE741F25470C2
:104F0000C2F20000022180F8901090F8860002287A
:104F100007D1FFE740F21001C2F20001FA20086059
:104F2000FFE707E041F25471C2F20001012081F86D
:104F30009000FFE7FFE780BD80B582B040F65430B7
:104F4000C2F2000000780146019148B1FFE70198E4
:104F500001283FD0FFE70198032800F0A780C3E0B5
:104F600041F20000C4F20100802106F0D3FE0146A8
:104F700040F2D420C2F2000001700078B8B9FFE717
:104F800040F65431C2F200010120087041F60010D1
:104F9000C2F20000006841F62801C2F20001086078
:104FA00041F24411C2F200010020087011E041F208
:104FB0005470C2F2000090F87600C00740B9FFE7D5
:104FC00041F25471C2F20001002081F89000FFE725
:104FD000FFE7A2E041F60010C2F20000006841F6CF
:104FE0002801C2F200010968401A14285DD3FFE7C6
:104FF000062005F0D3FD4FF47A71484342F60301D1
:10500000C0F28021A0FB0110C10840F2D220C2F200
:1050100000000180008841F25471C2F20001898EC3
:10502000323988422FDBFFE741F60010C2F2000060
:10503000006841F62801C2F20001086041F2547094
:10504000C2F2000090F88600A0B1FFE741F2547070
:10505000C2F20000022180F8901090F88600022829
:1050600007D1FFE740F21001C2F20001FA20086008
:10507000FFE707E041F25471C2F20001012081F81C
:105080009000FFE710E040F65431C2F20001032027
:10509000087041F60010C2F20000006841F62801D5
:1050A000C2F200010860FFE7FFE736E041F60010BA
:1050B000C2F20000006841F62801C2F2000109684E
:1050C000401A44F6206188420DD3FFE740F6543180
:1050D000C2F200010020087041F25471C2F20001D6
:1050E00081F89000FFE718E040F65431C2F2000169
:1050F0000020087041F60011C2F20001096841F673
:105100002802C2F20002116041F25471C2F20001A1
:1051100081F8900081F87600FFE702B080BD0000C2
:1051200080B586B041F25470C2F2000090F8690078
:10513000C00778B3FFE741F25470C2F2000090F864
:105140008E00012815D1FFE741F25470C2F2000031
:10515000012180F8951090F88F0048B9FFE740F6DC
:105160000040C4F201004FF4007106F015FDFFE7A6
:105170000FE041F25471C2F20001002081F8950065
:1051800040F60040C4F201004FF4007106F0FAFC52
:10519000FFE707E041F25471C2F20001002081F8FC
:1051A0009500FFE740F2D820C2F20000007820BB53
:1051B000FFE740F2D821C2F20001012004900870FC
:1051C00041F25471C2F20001002081F88F0040F6D4
:1051D0000040C4F201004FF4805106F0DDFC049958
:1051E00040F60000C4F20100059006F0D5FC0598D9
:1051F0004FF4006106F0C6FCF9E041F25470C2F2CF
:10520000000090F89500002840F0A580FFE740F6E8
:105210000040C4F20100042106F07CFD00284ED1BC
:10522000FFE740F2D520C2F20000017801310170A1
:1052300040F2D622C2F20002002111700078062846
:105240003CDBFFE740F2D521C2F2000100200870EC
:1052500041F25470C2F20000012180F8931090F8DE
:10526000931090F89400884227D0FFE741F25471E0
:10527000C2F200010120029081F89400002081F820
:105280008E0081F88F0040F60040C4F201004FF418
:10529000805106F081FC029940F60000C4F2010042
:1052A000039006F079FC4FF4FA7004F013FB0398B6
:1052B0004FF4006106F070FCFFE7FFE74AE040F2C0
:1052C000D620C2F2000001780131017040F2D522EF
:1052D000C2F20002002111700078062839DBFFE7D6
:1052E00040F2D620C2F200000021017041F2547059
:1052F000C2F2000080F8931090F8931090F8940098
:10530000884225D0FFE741F25471C2F2000100202B
:1053100081F8940081F88F0081F88E0040F60040FB
:10532000C4F201004FF4805106F036FC40F6000054
:10533000C4F201000190012106F02EFC4FF47A70B6
:1053400004F0C8FA01984FF4006106F01BFCFFE777
:10535000FFE7FFE74AE041F25470C2F2000090F824
:105360009500012841D1FFE741F25470C2F20000DC
:10537000808ED0B3FFE741F25470C2F20000008982
:1053800000282ADCFFE740F2D720C2F200000178B3
:1053900001310170007815281EDBFFE740F2D721AC
:1053A000C2F200010020087041F25471C2F2000103
:1053B00081F88F0081F88E0040F60040C4F20100B1
:1053C0004FF4805106F0E8FB40F60000C4F2010003
:1053D000012106F0E1FBFFE706E040F2D721C2F22F
:1053E000000100200870FFE7FFE7FFE7FFE706B0D6
:1053F00080BD000041F25470C2F2000090ED080A36
:105400009FED5D1AB4EE410AF1EE10FA30DAFFE7D3
:1054100041F25470C2F2000090ED040AB5EE400A69
:10542000F1EE10FA24D0FFE740F2DB20C2F20000D8
:1054300001780131017040F2DA22C2F2000200214B
:10544000117040F2D922C2F20002117000780628D1
:105450000DDBFFE741F25471C2F20001002081F838
:10546000960040F2DB21C2F200010870FFE781E004
:1054700041F25470C2F2000090ED080AB5EE400A05
:10548000F1EE10FA33D0FFE741F25470C2F200009F
:1054900090ED040A9FED391AB4EE410AF1EE10FACC
:1054A00025DAFFE740F2DA20C2F20000017801318C
:1054B000017040F2DB22C2F200020021117040F2C2
:1054C000D922C2F200021170007806280EDBFFE735
:1054D00040F2DA21C2F200010020087041F254715A
:1054E000C2F20001012081F89600FFE741E041F29D
:1054F0005470C2F2000090ED080A9FED211AB4EE3C
:10550000410AF1EE10FA33DBFFE741F25470C2F2C8
:10551000000090ED040A9FED1A1AB4EE410AF1EE74
:1055200010FA25DBFFE740F2D920C2F20000017833
:105530000131017040F2DB22C2F200020021117041
:1055400040F2DA22C2F200021170007806280EDB67
:10555000FFE740F2D921C2F200010020087041F2B9
:105560005471C2F20001022081F89600FFE7FFE7C4
:10557000FFE7FFE7704700BF000096430000FA43D3
:105580000000C84385B004908DED030ACDED020AFA
:105590008DED011ACDED001A039804990860029868
:1055A00004994860019804998860049900208861F2
:1055B0000499086200980499486300980499086364
:1055C00005B070477047000080B582B000200090A1
:1055D000082100F00FF802200190012100F00AF8E4
:1055E0000099042000F006F80199062000F002F866
:1055F00002B080BD80B582B08DF807008DF806102E
:105600009DF806008DF805009DF806008DF8040051
:105610009DF8050000F0F0008DF805009DF80400ED
:1056200000018DF804009DF807009DF805109DF815
:10563000042001F0F7FD02B080BD000080B586B007
:1056400004908DF80F1000208DF80E000498408E05
:105650004FF6FE71884205DCFFE70499488E013061
:105660004886FFE79DF90F000330014602910628A6
:1056700034D80299DFE801F02B32143204322400CE
:10568000049800F0F5F8049981F83400049890F833
:1056900034100120012908BF09208DF80E001EE0FA
:1056A000049800F0E5F8049981F83400049890F823
:1056B00034100220012908BF0A208DF80E000EE0E8
:1056C00003208DF80E00049800F0FCF807E0042099
:1056D0008DF80E00049800F0F5F800E0FFE704985C
:1056E00090F82700B0FA80F040098DF80D0004987A
:1056F00090F82D100020019049B9FFE7049890F828
:1057000027000138B0FA80F040090190FFE70198C6
:1057100000F001008DF80C00049991F8270081F841
:105720002D00049890F8300068B1FFE79DF80C0058
:1057300020B1FFE7049800F0C5F8FFE79DF80E00E0
:105740008DF817008FE00498408D012816DBFFE7E5
:105750000499488D013848850498408D68B9FFE761
:10576000049890F82C00012807D1FFE705208DF858
:105770000E00049800F0A6F8FFE7FFE79DF80D0083
:1057800000283FD0FFE70499088D0130088504996F
:10579000088D098B884219D1FFE70498408D0128B4
:1057A0000EDBFFE7049890F82C00012808D1FFE7F2
:1057B00006208DF80E000499012081F8300004E0E5
:1057C0000499012081F82C00FFE7FFE70499088D78
:1057D000498B884215DBFFE70499C88D0130C885E5
:1057E0000498C28DC18BB2FBF1F000FB112038B9D7
:1057F000FFE704990020C88508208DF80E00FFE718
:10580000FFE72BE09DF80C0038B3FFE70499088D03
:10581000098B88421DDBFFE70499088D498B88427C
:105820000FDAFFE7049890F82C00012808D1FFE771
:105830000498408D20B9FFE70499888B4885FFE7DD
:1058400006E007208DF80E00049800F03BF8FFE713
:10585000FFE7049900200885FFE7FFE79DF80E00A9
:105860008DF81700FFE79DF8170006B080BD000017
:1058700082B000900099488E098C884207DAFFE7D1
:1058800000990020488601208DF8070005E0009966
:10589000002048868DF80700FFE79DF8070002B05A
:1058A0007047000080B582B00190ADF802100198F9
:1058B000BDF8021006F02EFA0138B0FA80F0400967
:1058C00002B080BD81B00090009900200885009949
:1058D0004885009981F82C000099C885009981F8C5
:1058E000300001B07047000080B582B00190002008
:1058F0008DF80300019908688988FFF7D3FF40F20B
:10590000DC21C2F200010870019988688989FFF7DB
:10591000C9FF40F2DD21C2F2000108700199086957
:10592000898AFFF7BFFF014640F2DE20C2F2000085
:1059300001700178019A82F827100078019981F8A6
:1059400026000198807DA8BBFFE740F2DC20C2F270
:1059500000000078019991F82410884229D0FFE7CF
:1059600040F2DC20C2F20000007888B9FFE740F284
:10597000DD20C2F200000078012804D1FFE70120F9
:105980008DF8030003E0FF208DF80300FFE7FFE739
:1059900040F2DC20C2F200000078019981F8240076
:1059A00040F2DD20C2F200000078019981F8250064
:1059B000FFE7CBE040F2DC20C2F200000078019962
:1059C00091F82410884200F0C080FFE740F2DC200C
:1059D000C2F200000078012853D1FFE7019890F847
:1059E000250001280BD1FFE740F2DD20C2F20000C4
:1059F000007820B9FFE701208DF8030040E001980E
:105A000090F8250060B9FFE740F2DD20C2F2000007
:105A10000078012804D1FFE7FF208DF803002EE075
:105A2000019890F8250040F2DD21C2F200010978CA
:105A300088420BD1FFE740F2DD20C2F2000000787F
:105A400020B9FFE701208DF8030017E0019890F8D6
:105A5000250040F2DD21C2F20001097888420CD114
:105A6000FFE740F2DD20C2F200000078012804D1F7
:105A7000FFE7FF208DF80300FFE7FFE7FFE7FFE701
:105A800052E0019890F8250001280BD1FFE740F281
:105A9000DD20C2F20000007820B9FFE7FF208DF87A
:105AA000030040E0019890F8250060B9FFE740F25C
:105AB000DD20C2F200000078012804D1FFE70120B8
:105AC0008DF803002EE0019890F8250040F2DD21CA
:105AD000C2F20001097888420BD1FFE740F2DD20D5
:105AE000C2F20000007820B9FFE7FF208DF8030024
:105AF00017E0019890F8250040F2DD21C2F2000184
:105B0000097888420CD1FFE740F2DD20C2F20000A4
:105B10000078012804D1FFE701208DF80300FFE79A
:105B2000FFE7FFE7FFE7FFE740F2DC20C2F20000FB
:105B30000078019981F8240040F2DD20C2F20000D3
:105B40000078019981F82500FFE7FFE740F2DE20A9
:105B5000C2F200000078E8B9FFE79DF9030020B920
:105B6000FFE702208DF8030013E09DF903000128F0
:105B700004D1FFE703208DF8030009E09DF903003D
:105B8000013020B9FFE7FD208DF80300FFE7FFE7B4
:105B9000FFE7FFE79DF9030002B080BD80B586B046
:105BA00041F28000C2F2000080690390FFE700F03C
:105BB00007FA04900498039988422CD2FFE7EFF388
:105BC000108005900598029072B641F28000C2F2F2
:105BD0000000806901900198039988420ED1FFE787
:105BE000049841F28001C2F2000188610869013025
:105BF0000861BFF35F8F0120009002E00020009059
:105C0000FFE7029810B9FFE762B6FFE7009808B90E
:105C1000FFE701E00CE0FFE7049A41F28000C2F2E6
:105C20000000183003A901F029FF0028BFD0FFE7CA
:105C3000049806B080BD000080B58CB00A90099130
:105C40000892079307200590FFE70598002863D086
:105C5000FFE700F03BFA0490049800F03F0140F6A3
:105C60000040C2F2000000EB0110069004994FF4CE
:105C7000700000EA813001900A9801990843099A5E
:105C80004FF0805101EAD2010843089A4FF00051C9
:105C900001EA92010843079A4FF0804101EA52015C
:105CA000084340F00060039006980C30039900F020
:105CB0002DFA03909DF80F004007002827D5FFE735
:105CC000039880F000400390039800F00040029099
:105CD000099820F000400299084306990860089846
:105CE00020F000400299084306994860079820F088
:105CF0000040029908430699886006980C30039981
:105D000001F074FB00F0F8F901200B9009E0FFE7C7
:105D100005980138059098E700F0E4F900200B9011
:105D2000FFE70B980CB080BD87B0059004910392FB
:105D30000498FE2804D8FFE70398FF2803D3FFE761
:105D40000020069036E0002002900190FFE70198C5
:105D500003282CD8FFE705980199C840C007F0B187
:105D6000FFE704980090FFE700980399884215D850
:105D7000FFE7009901F00702012000FA02F3029800
:105D800000EBD10241F20001C2F20001885C18432D
:105D90008854FFE7009801300090E5E7FFE702989C
:105DA00020300290FFE7019801300190CFE70120F9
:105DB0000690FFE7069807B07047000080B58AB0EC
:105DC0000990089141F28001C2F200010191002086
:105DD000087041F20000C2F200008021FEF736FA9E
:105DE0004FF2EC00C0F60000182102F0CFFC014693
:105DF0000198ADF81A10006A42F26B71CEF2A5114B
:105E000088420FD0FFE741F28001C2F2000142F266
:105E10006B70CEF2A5100862BDF81A004880012010
:105E2000C8611CE041F28000C2F200004088BDF869
:105E30001A1088420AD0FFE7BDF81A0041F280012B
:105E4000C2F2000148800120C86107E041F28001F0
:105E5000C2F20001C8690130C861FFE7FFE741F203
:105E60008000C2F20000C069012812D1FFE741F2B0
:105E70008001C2F200010020487048608860C8605C
:105E800040F60040C2F200004FF48061FEF7DEF9F8
:105E900020E000200290FFE702983F2819D8FFE792
:105EA000029940F60040C2F2000000EB011007909A
:105EB0000798C07B4007002806D5FFE70799C86808
:105EC00020F04060C860FFE7FFE7029801300290D1
:105ED000E2E7FFE741F28000C2F20000C06901285A
:105EE00017D1FFE700F074F80490049820B1FFE7A1
:105EF00000F06AF8059002E000200590FFE70598A1
:105F000041F28001C2F2000148610020886108610D
:105F100003E000F05DF80490FFE7049838B3FFE772
:105F200009980021FE220092FFF7FEFE0F20EF22CB
:105F30001146FFF7F9FE009A04201146FFF7F4FE20
:105F4000FFF72CFE0390039941F28000C2F200009B
:105F50004369C2694FF60070C0F20030FFF76CFE73
:105F6000089818B1FFE700F005F8FFE7FFE704988D
:105F70000AB080BD80B584B041F28000C2F200005A
:105F8000007818B1FFE70120039015E041F280018D
:105F9000C2F20001012001900870FFF7FFFD02909E
:105FA00002994FF60170C0F2003000231A46FFF745
:105FB00043FE01980390FFE7039804B080BD000002
:105FC00080B505F07FFD80BD80B506F0B5FD80BDD4
:105FD0000120704780B540F2DF20C2F20000007857
:105FE000C00780B9FFE740F2DF21C2F200010120C3
:105FF000087040F60000C4F20000022140F6BF0223
:1060000007F012F9FFE740F20000C2F20000016859
:10601000013901600068002857DCFFE740F2000109
:10602000C2F2000140F6B83008600A21084604F0C8
:10603000DDFD014641F25470C2F20000A0F8581094
:10604000B0F85800B0F5147F0ADAFFE740F6000018
:10605000C4F20000022140F6BF0207F0E5F833E089
:1060600041F25470C2F20000B0F85800B0F5407F21
:106070000ADAFFE740F60000C4F20000022140F611
:106080001F5207F0D1F81EE041F25470C2F2000036
:10609000B0F85800B0F5547F0ADAFFE740F6000088
:1060A000C4F20000022141F27F1207F0BDF809E0BE
:1060B00040F60000C4F20000022141F2DF5207F076
:1060C000B3F8FFE7FFE7FFE7FFE780BD80B541F2E8
:1060D0008000C2F20000043001F000FD80BD00002D
:1060E000FFE7FEE780B541F28000C2F200000C300D
:1060F00001F0F4FC80BD000080B541F28000C2F2E6
:106100000000083001F0EAFC80BD000089B0079073
:106110000691079800680590FFE79DF81700400773
:10612000002803D5FFE70020089032E00698059983
:1061300001F00041084340F080600490FFE7079BB6
:10614000049803900599DDF80CC053E8000F08454A
:1061500003D143E800C2002AF7D10090401AB0FAF8
:1061600080F04009BFF35F8F0146019118B9FFE746
:1061700000980590FFE7019800F001008DF80B00F2
:106180009DF80B00C0070028C7D0FFE704980890CF
:10619000FFE7089809B07047FFE7FEE77047000087
:1061A00088B0079006910592079800F007000490C8
:1061B0000498C0F10700052803D3FFE704200190ED
:1061C00004E00498C0F107000190FFE701980390F4
:1061D00004980430062803D8FFE70020009003E06D
:1061E000049803380090FFE70098029006980399FE
:1061F000012202FA01F101390840029B98400599F9
:106200009A40013A1140084308B0704788B007909F
:1062100006910592079800F0070004900498C0F1D9
:106220000700052803D3FFE70420019004E0049849
:10623000C0F107000190FFE7019803900498043033
:10624000062803D8FFE70020009003E004980338F5
:106250000090FFE70098029006980399012202FA45
:1062600001F101390840029B984005999A40013A92
:106270001140084308B0704780B541F25470C2F233
:10628000000090F88E00012803D1FFE700F0C4F869
:10629000FFE780BD81B000900099002081F86B007D
:1062A000009981F86C00009981F86E00009981F8DE
:1062B0006D00009981F86F00009981F870000099D5
:1062C00081F87C00009981F87200009981F87100D2
:1062D000009981F87600009981F87700009981F89B
:1062E00078000099A1F87A000099C1F8800000991F
:1062F0004FF47A728A87009B40F2DC51A3F8441075
:10630000009B4FF4FA61A3F84C10009B40F6C411B7
:10631000A3F85410009B4FF4C8711987009B4FF4E9
:10632000FA71A3F84010DDF800C04FF41673ACF812
:106330004830DDF800C04FF42F73ACF85030DDF872
:1063400000C002238CF88830DDF800C08CF889305A
:10635000DDF800C08CF88A30DDF800C08CF88B3096
:10636000009B1986009B41F270715986009B9A86AA
:10637000009AD186009A9081009A1081009AD1816A
:10638000009A51810099886100990861009988629A
:1063900000990862009A48F20001C4F2BB51D16131
:1063A000009A5161009AD162009A51620099A1F855
:1063B0005800009908660099C865009948660099D8
:1063C00081F88C00009981F88D00009981F88E0089
:1063D000009981F89000009AFF2182F89110009AAC
:1063E00082F88600009A82F88710009981F892005E
:1063F000009981F89300009981F89500009981F83F
:106400009600009981F89800009981F8990001B0F0
:10641000704700007047000080B582B041F25470B0
:10642000C2F200000021C16590F87800C007002882
:106430003ED0FFE741F25470C2F2000090F89000A5
:10644000012835D1FFE740F6B630C2F200000188DE
:10645000013101800088962829DBFFE740F6B6303D
:10646000C2F200000021018041F25470C2F200002B
:1064700080F8781040F6C832C2F200021160808EB7
:106480001E280CDBFFE741F25471C2F200010191BA
:10649000888E898901F0E8FB0199086606E041F2DF
:1064A0005471C2F2000100200866FFE7FFE706E032
:1064B00041F25471C2F2000100200866FFE741F288
:1064C0005473C2F20003188E998EDA6D1B6E03F0BE
:1064D0001FF802B080BD000080B540F20400C2F297
:1064E00000000178013901700078002800F3E58090
:1064F000FFE740F20401C2F2000164200870FEF7D9
:1065000079FF41F25470C2F2000090F89600F8B999
:10651000FFE740F2E021C2F200010020086040F2F3
:10652000E421C2F200010020C4F2FA30086041F216
:106530005470C2F20000816940F2E822C2F2000207
:106540001160006940F2EC21C2F2000108604BE0EA
:1065500041F25470C2F2000090F8960001281FD159
:10656000FFE741F25470C2F20000816A40F2E0227B
:10657000C2F200021160006A40F2E421C2F200019E
:10658000086040F2E821C2F200010020086040F2F9
:10659000EC21C2F200010020C4F2FA30086022E0CF
:1065A00041F25470C2F20000016A40F2E422C2F2E9
:1065B00000021160016940F2EC22C2F20002116097
:1065C000816A40F2E022C2F20002116090ED060AF8
:1065D00090ED0A1A30EE410A40F2E820C2F20000C3
:1065E00080ED000AFFE7FFE740F2E820C2F200007A
:1065F00090ED000AB5EE400AF1EE10FA07DAFFE777
:1066000040F2E821C2F2000100200860FFE740F2FA
:10661000EC20C2F2000090ED000AB5EE400AF1EE67
:1066200010FA07DAFFE740F2EC21C2F20001002085
:106630000860FFE740F2E020C2F2000090ED000A9F
:10664000B5EE400AF1EE10FA07DAFFE740F2E0217A
:10665000C2F2000100200860FFE740F2E420C2F22D
:10666000000090ED000AB5EE400AF1EE10FA07DAEC
:10667000FFE740F2E421C2F2000100200860FFE7DA
:1066800040F2E820C2F2000090ED000A40F2EC2057
:10669000C2F20000D0ED000A07F0A8FD40F2E020B1
:1066A000C2F2000090ED000A40F2E420C2F20000C5
:1066B000D0ED000A07F076FAFFE780BD80B582B022
:1066C00001900198411C002007F070FC019981F8AD
:1066D0000101019890F80101162872D1FFE7019895
:1066E0004078D12808D1FFE70198807DF02803D1B8
:1066F000FFE7012020B95FE0012000285CD1FFE71F
:106700000199481C01F501710122102301F0CCFF11
:10671000019800F50170042102F07AF8009002F06F
:1067200099F80198807C9DF80310884243D1FFE7D7
:106730000198C07C9DF8021088423CD1FFE7019887
:10674000007D9DF80110884235D1FFE70198407D1A
:106750009DF8001088422ED1FFE70198807801282B
:1067600010D1FFE70198C07801280BD1FFE701980D
:10677000407938B9FFE741F24C71C2F200010020C4
:10678000087017E001988078022810D1FFE701987F
:10679000C07801280BD1FFE70198407938B9FFE7AD
:1067A00041F24C71C2F200010120087001E000BF0B
:1067B000FFE7FFE7FFE7FFE70199002081F801010C
:1067C000FFE702B080BD00007047000080B584B0D4
:1067D000ADF80E0000208DF80B0041F25470C2F2AB
:1067E000000090F86C00002800F0B881FFE741F24B
:1067F0005470C2F2000090F86C000138014601911B
:10680000032800F2A9810199DFE811F004006E006D
:10681000D6003E0141F25470C2F2000090F87000C0
:1068200000F00100012809D0FFE741F25470C2F2E4
:10683000000090F87400C007B8B3FFE700208DF89F
:106840000D00FFE79DF80D0003282DDCFFE7BDF8E4
:106850000E009DF80D1004F0C9FB8DF80C009DF89A
:106860000C1040F23010C2F20000405C8DF80C00B9
:106870009DF80D0038B9FFE79DF80C0040F00200CC
:106880008DF80C00FFE79DF80D10082000EB41008B
:106890009DF80C10C0B2FEF7ADFEFFE79DF80D00AD
:1068A00001308DF80D00CDE71DE041F25470C2F2C9
:1068B000000090F87000C007A0B9FFE741F25470E3
:1068C000C2F2000090F87400C00758B9FFE700203A
:1068D0008DF80C009DF80C0040F002010820FEF736
:1068E00089FEFFE7FFE738E141F25470C2F2000091
:1068F00090F8700000F00100012809D0FFE741F294
:106900005470C2F2000090F87400C007B8B3FFE7FB
:1069100000208DF80D00FFE79DF80D0003282DDC09
:10692000FFE7BDF80E009DF80D1004F05FFB8DF839
:106930000C009DF80C1040F23010C2F20000405CD8
:106940008DF80C009DF80D0038B9FFE79DF80C009C
:1069500040F002008DF80C00FFE79DF80D100820B4
:1069600000EB41009DF80C10C0B2FEF743FEFFE7BC
:106970009DF80D0001308DF80D00CDE71BE041F2D0
:106980005470C2F2000090F87000C00790B9FFE7A1
:1069900041F25470C2F2000090F87400C00748B988
:1069A000FFE700208DF80C009DF80C100A20FEF780
:1069B00021FEFFE7FFE7D0E041F25470C2F2000091
:1069C00090F8700000F00100012809D0FFE741F2C3
:1069D0005470C2F2000090F87400C007B8B3FFE72B
:1069E00000208DF80D00FFE79DF80D0003282DDC39
:1069F000FFE7BDF80E009DF80D1004F0F7FA8DF8D2
:106A00000C009DF80C1040F23010C2F20000405C07
:106A10008DF80C009DF80D0038B9FFE79DF80C00CB
:106A200040F002008DF80C00FFE79DF80D100820E3
:106A300000EB41009DF80C10C0B2FEF7DBFDFFE754
:106A40009DF80D0001308DF80D00CDE71BE041F2FF
:106A50005470C2F2000090F87000C00790B9FFE7D0
:106A600041F25470C2F2000090F87400C00748B9B7
:106A7000FFE700208DF80C009DF80C100C20FEF7AD
:106A8000B9FDFFE7FFE768E041F25470C2F2000091
:106A900090F8700000F00100012809D0FFE741F2F2
:106AA0005470C2F2000090F87400C007B8B3FFE75A
:106AB00000208DF80D00FFE79DF80D0003282DDC68
:106AC000FFE7BDF80E009DF80D1004F08FFA8DF869
:106AD0000C009DF80C1040F23010C2F20000405C37
:106AE0008DF80C009DF80D0038B9FFE79DF80C00FB
:106AF00040F002008DF80C00FFE79DF80D10082013
:106B000000EB41009DF80C10C0B2FEF773FDFFE7EB
:106B10009DF80D0001308DF80D00CDE71BE041F22E
:106B20005470C2F2000090F87000C00790B9FFE7FF
:106B300041F25470C2F2000090F87400C00748B9E6
:106B4000FFE700208DF80C009DF80C100E20FEF7DA
:106B500051FDFFE7FFE700E0FFE73BE040F2F021F7
:106B6000C2F20001002008708DF80D00FFE79DF8CB
:106B70000D0003282DDCFFE7BDF80E009DF80D1079
:106B800004F034FA8DF80C009DF80C1040F230102F
:106B9000C2F20000405C8DF80C009DF80D0038B981
:106BA000FFE79DF80C0040F002008DF80C00FFE7B5
:106BB0009DF80D10082000EB41009DF80C10C0B2AC
:106BC000FEF718FDFFE79DF80D0001308DF80D0070
:106BD000CDE7FFE704B080BD80B584B0ADF80E000E
:106BE00000208DF80A0041F25470C2F2000090F8C3
:106BF0006B00002800F0B281FFE741F25470C2F24E
:106C0000000090F86B00013801460191032800F262
:106C1000A3810199DFE811F004006900D200390175
:106C200041F25470C2F2000090F86F0000F00100D1
:106C3000012809D0FFE741F25470C2F2000090F839
:106C40007300C007B0B3FFE700208DF80C00FFE72A
:106C50009DF80C0003282CDCFFE7BDF80E009DF822
:106C60000C1004F0C3F98DF80B009DF80B1040F2E6
:106C70003010C2F20000405C8DF80B009DF80C0053
:106C8000012807D1FFE79DF80B0040F002008DF8C6
:106C90000B00FFE79DF80C0040009DF80B10C0B200
:106CA000FEF7A8FCFFE79DF80C0001308DF80C0002
:106CB000CEE7FFE741F25470C2F2000090F86F0097
:106CC000C00788B9FFE741F25470C2F2000090F8A3
:106CD0007300C00740B9FFE700208DF80B009DF856
:106CE0000B10FEF787FCFFE737E141F25470C2F268
:106CF000000090F86F0000F00100012809D0FFE7C4
:106D000041F25470C2F2000090F87300C007B0B3B3
:106D1000FFE700208DF80C00FFE79DF80C0003282A
:106D20002CDCFFE7BDF80E009DF80C1004F05EF9B6
:106D30008DF80B009DF80B1040F23010C2F20000ED
:106D4000405C8DF80B009DF80C00012807D1FFE78F
:106D50009DF80B0040F002008DF80B00FFE79DF856
:106D60000C0040009DF80B10C0B2FEF743FCFFE79B
:106D70009DF80C0001308DF80C00CEE71DE041F2CB
:106D80005470C2F2000090F86F00C007A0B9FFE78E
:106D900041F25470C2F2000090F87300C00758B975
:106DA000FFE700208DF80B009DF80B0040F002017A
:106DB0000220FEF71FFCFFE7FFE7CEE041F2547030
:106DC000C2F2000090F86F0000F00100012809D025
:106DD000FFE741F25470C2F2000090F87300C00760
:106DE000B0B3FFE700208DF80C00FFE79DF80C0022
:106DF00003282CDCFFE7BDF80E009DF80C1004F012
:106E0000F5F88DF80B009DF80B1040F23010C2F22F
:106E10000000405C8DF80B009DF80C00012807D1A4
:106E2000FFE79DF80B0040F002008DF80B00FFE734
:106E30009DF80C0040009DF80B10C0B2FEF7DAFB85
:106E4000FFE79DF80C0001308DF80C00CEE71BE049
:106E500041F25470C2F2000090F86F00C00790B980
:106E6000FFE741F25470C2F2000090F87300C007CF
:106E700048B9FFE700208DF80B009DF80B100420A7
:106E8000FEF7B8FBFFE7FFE767E041F25470C2F29C
:106E9000000090F86F0000F00100012809D0FFE722
:106EA00041F25470C2F2000090F87300C007B0B312
:106EB000FFE700208DF80C00FFE79DF80C00032889
:106EC0002CDCFFE7BDF80E009DF80C1004F08EF8E6
:106ED0008DF80B009DF80B1040F23010C2F200004C
:106EE000405C8DF80B009DF80C00012807D1FFE7EE
:106EF0009DF80B0040F002008DF80B00FFE79DF8B5
:106F00000C0040009DF80B10C0B2FEF773FBFFE7CA
:106F10009DF80C0001308DF80C00CEE71BE041F22B
:106F20005470C2F2000090F86F00C00790B9FFE7FC
:106F300041F25470C2F2000090F87300C00748B9E3
:106F4000FFE700208DF80B009DF80B100620FEF7E0
:106F500051FBFFE7FFE700E0FFE73AE040F2F121F5
:106F6000C2F20001002008708DF80D00FFE79DF8C7
:106F70000D0003282CDCFFE7BDF80E009DF80D1076
:106F800004F034F88DF80B009DF80B1040F230102F
:106F9000C2F20000405C8DF80B009DF80D00012846
:106FA00007D1FFE79DF80B0040F002008DF80B00C1
:106FB000FFE79DF80D0040009DF80B10C0B2FEF7F2
:106FC00019FBFFE79DF80D0001308DF80D00CEE7AD
:106FD000FFE704B080BD000080B582B002F00EFD76
:106FE00041F25470C2F2000090F86B0088B9FFE7DC
:106FF00041F25470C2F2000090F86C0048B9FFE70B
:1070000041F25470C2F2000090F87600C00780B3DD
:10701000FFE740F20600C2F200000188013901805A
:107020000088002824DCFFE740F20601C2F20001DC
:107030006420088041F25471C2F20001019191F87C
:107040006F20012020EA020281F86F2091F8702061
:1070500020EA020281F8702091F8752020EA0202ED
:1070600081F8752091F87C20904381F87C00FFE73F
:10707000FFE700F08BF907F0D5FE02B080BD0000FD
:107080004EF68851CEF20001086840F470000860A6
:1070900041F20001C4F20201086840F001000860FA
:1070A000FFE741F20000C4F202000068C0F34000B4
:1070B000012801D0FFE7F4E741F20401C4F2020124
:1070C000086820F003000860FFE741F20400C4F202
:1070D000020000688008800708B1FFE7F5E741F289
:1070E0000001C4F2020108684FF6FF72CFF6F262A7
:1070F0001040086041F20401C4F20201002008605F
:1071000041F23001C4F20201086041F20801C4F208
:1071100002014FF41F0008604EF60851CEF2000144
:107120004FF000600860704780B582B0002000908A
:107130008DF8070006F018F8E42005F07BFF8020AA
:1071400005F078FFA02005F075FF9A2005F072FF8A
:10715000812005F06FFF832005F06CFFBF2005F054
:1071600069FF882005F066FF06F024F80A2002F087
:10717000B1FB009A30231046114600F003F802B02C
:1071800080BD000080B584B08DF80F008DF80E1022
:107190008DF80D208DF80C30002001908DF80B003B
:1071A00005F0E2FFE42005F045FF9DF80F0005F033
:1071B00041FF01988DF80B00FFE79DF80B009DF84B
:1071C0000C1088420FDAFFE79DF80E0005F032FF41
:1071D0009DF80D0005F02EFFFFE79DF80B00013034
:1071E0008DF80B00E9E705F0E5FF04B080BD000075
:1071F00080B582B08DF807008DF8061005F0B4FF59
:10720000E42005F017FF9DF8070005F013FF9DF837
:10721000060005F05FFFFDF767FB05F0CBFF02B04E
:1072200080BD000080B582B08DF807008DF8061093
:107230008DF8052005F098FFE42005F0FBFE9DF891
:10724000070005F0F7FE9DF8060005F043FF9DF8E6
:10725000050005F03FFFFDF747FB05F0ABFF02B06F
:1072600080BD000080B542F60040C4F2010001215B
:1072700006F05EF838B3FFE742F60040C4F20100C2
:10728000012106F02DF841F60011C2F20001086854
:107290000130086041F6FC00C2F2000001680131D3
:1072A0000160006864280DD3FFE741F6E400C2F2F4
:1072B00000000068804741F6FC01C2F20001002096
:1072C0000860FFE7FFE780BD80B582B043F60C00A1
:1072D000C4F2010000684009C007F0B1FFE743F6BF
:1072E0000000C4F20100202106F026FDA0B1FFE756
:1072F00043F60000C4F2010006F0E4FCC1B241F61E
:107300007400C2F20000009005F082FD0099042094
:10731000087301204873FFE7FFE743F60C00C4F24F
:10732000010000688009C00768B3FFE743F600006A
:10733000C4F20100402106F0FFFC18B3FFE743F65A
:107340000000C4F20100402106F0E2FC41F67400A6
:10735000C2F2000010300DF1070105F035FD48B90B
:10736000FFE79DF8071043F60000C4F2010006F0A5
:10737000B1FC06E041F67401C2F20001002048773A
:10738000FFE7FFE7FFE702B080BD000041F67400B1
:10739000C2F20000407B012817D1FFE741F67400DC
:1073A000C2F20000007B40B1FFE741F67401C2F277
:1073B0000001087B0138087306E041F67401C2F24F
:1073C000000102204873FFE7FFE741F67400C2F2B4
:1073D0000000007F40B1FFE741F67401C2F20001F6
:1073E000087F01380877FFE77047000089B00890F0
:1073F0000791079820F08060069008980190069900
:10740000059105990291BFF35F8F00680390FFE734
:107410000399019BDDF808C053E8000F084503D12C
:1074200043E800C2002AF7D10090411AB1FA81F175
:10743000490901290390EBD1FFE70098049009B0B6
:1074400070470000FFE7FEE781B08DF803009DF96B
:10745000030000280ED4FFE79DF9031001F01F027E
:10746000012090404A094EF20011CEF2000141F88D
:107470002200FFE701B070474EF60C50CEF200003C
:107480000068C0F3022070474EF60C50CEF20000A8
:107490000068C0F30220704782B08DF807000091A9
:1074A0009DF9070000280AD4FFE7009800019DF924
:1074B00007104EF20042CEF2000288540BE0009812
:1074C00000019DF8071001F00F014EF61452CEF2A4
:1074D00000028854FFE702B07047000082B08DF8C8
:1074E000070000919DF9070000280AD4FFE70098E3
:1074F00000019DF907104EF20042CEF200028854BE
:107500000BE0009800019DF8071001F00F014EF606
:107510001452CEF200028854FFE702B07047000018
:1075200083B00290029800F0070000904EF60C51D4
:10753000CEF200010868019001984FF6FF0210405A
:1075400001900198009A40EA02200022C0F2FA520B
:10755000104301900198086003B07047BFF34F8F4C
:107560004EF60C51CEF20001086800F4E0600422EF
:10757000C0F2FA5210430860BFF34F8FFFE700BF1D
:10758000FDE7000080B5012004F06CFC80BD000028
:107590007047000082B00190009100980278019934
:1075A000486802F0010220F4807040EA022048603E
:1075B000009842780199886802F0010220F00200E8
:1075C00040EA42008860009882780199886802F059
:1075D000010220F4006040EAC22088600098C07870
:1075E000421E0199C86A02F00F0220F4700040EABE
:1075F0000250C86202B0704781B00090009900202C
:107600000870009948700099887000990120C8702E
:1076100001B0704781B000900099886840F0080080
:10762000886001B07047000082B0009000988068C8
:10763000C008C00720B1FFE701208DF8070003E074
:1076400000208DF80700FFE79DF8070002B07047A3
:1076500081B000900099886840F00400886001B013
:107660007047000082B00090009880688008C007D2
:1076700020B1FFE701208DF8070003E000208DF81E
:107680000700FFE79DF8070002B0704781B08DF852
:1076900003009DF8032042F20441C4F2010108688E
:1076A00002F00F0220F4702040EA0240086001B0AE
:1076B0007047000082B001908DF803109DF8032000
:1076C0000199886862F30000886002B0704700008A
:1076D00082B001908DF8031000208DF8020001980F
:1076E00000689DF80310084204D1FFE700208DF8E0
:1076F000020003E001208DF80200FFE79DF8020080
:1077000002B0704783B002908DF807108DF8062004
:107710008DF805309DF8070009281CDCFFE702986A
:10772000006900909DF8070000EB4001072000FA77
:1077300001F10098884300909DF805009DF807101E
:1077400001EB410100FA01F1009808430090009814
:10775000029908611EE00298C06800909DF8070039
:1077600000EB4000A0F11E01072000FA01F1009893
:10777000884300909DF805009DF8071001EB41013A
:107780001E3900FA01F10098084300900098029910
:10779000C860FFE79DF806000D281FDBFFE7029891
:1077A000C06A00909DF8060000EB8000A0F1410146
:1077B0001F2000FA01F10098884300909DF807000F
:1077C0009DF8061001EB8101413900FA01F10098A2
:1077D0000843009000980299C86242E09DF80600B4
:1077E00007281FDBFFE70298006B00909DF806005A
:1077F00000EB8000A0F123011F2000FA01F10098A6
:10780000884300909DF807009DF8061001EB810168
:10781000233900FA01F1009808430090009802997A
:1078200008631DE00298406B00909DF8060000EB95
:107830008000411F1F2000FA01F10098884300904A
:107840009DF807009DF8061001EB8101053900FA4B
:1078500001F1009808430090009802994863FFE7FF
:10786000FFE703B07047000081B000900098C06C43
:1078700080B201B07047000082B001908DF8031013
:107880008DF802209DF80300082811DBFFE701991D
:10789000886840F0007088609DF8030000F00702DF
:1078A0000199886820F4602040EA4240886010E036
:1078B0000199886820F0007088609DF8030000F04E
:1078C00007020199886820F4602040EA42408860FD
:1078D000FFE79DF802200199886802F0010220F478
:1078E000801040EA0250886002B0704782B0019078
:1078F0008DF803109DF803200199486802F00102F9
:1079000020F4006040EAC220486002B070470000E6
:1079100082B001908DF803109DF8032001998868CA
:1079200002F0010220F4800040EA8250886002B038
:107930007047000084B003908DF80B1041F288303E
:10794000ADF808000120ADF8060041F25470C2F213
:107950000000808E00909DF80B00C007B0B1FFE7DB
:1079600003990098084400900098BDF808108842D8
:107970000BD9FFE7BDF80800009041F25471C2F244
:10798000000141F27070C886FFE718E00098BDF86A
:107990000610039A114488420BD8FFE7BDF8060091
:1079A000009041F25471C2F2000141F27070C88639
:1079B00004E003990098401A0090FFE7FFE7009861
:1079C00041F25471C2F20001888604B07047000091
:1079D00084B003908DF80B1041F25470C2F2000095
:1079E00090F8681001F0010240F6B831012A08BF92
:1079F0004FF45271ADF808100121ADF80610008E59
:107A000000909DF80B00C007B0B1FFE70399009804
:107A1000084400900098BDF8081088420BD9FFE791
:107A2000BDF80800009041F25471C2F2000141F229
:107A300070704886FFE718E00098BDF80610039ABA
:107A4000114488420BD8FFE7BDF80600009041F2D0
:107A50005471C2F2000141F27070488604E003994B
:107A60000098401A0090FFE7FFE7009841F2547138
:107A7000C2F20001088604B07047000088B0079089
:107A800006910592079B069800900599049101685C
:107A9000DDF810C0BFF35F8F53E8000F084503D136
:107AA00043E800C2002AF7D10190401AB0FA80F0F2
:107AB0004009BFF35F8F0146029120B9FFE70198AB
:107AC00000990860FFE7029800F001008DF80F00B0
:107AD0009DF80F0000F0010008B0704787B00690D5
:107AE0000698019001210591059902910068039083
:107AF000FFE70399019B029801EB000C53E8000F8C
:107B0000084503D143E800C2002AF7D10090411A8A
:107B1000B1FA81F1490901290390EAD1FFE7009800
:107B20000490049807B0704780B541F25470C2F2D7
:107B3000000090F88D0038B9FFE740F22010C2F243
:107B40000000FDF70BF910E041F25470C2F20000A2
:107B500090F88D00012807D1FFE740F22010C2F213
:107B60000000C0688047FFE7FFE741F25470C2F2AF
:107B7000000090F87600C00780B3FFE740F2F920DC
:107B8000C2F200000178013101700078102824DB76
:107B9000FFE740F2F921C2F200010020087040F234
:107BA000F820C2F20000007805280EDCFFE740F262
:107BB000F821C2F2000108780130087040F220116B
:107BC000C2F200010120487106E040F22011C2F229
:107BD000000102204871FFE7FFE70BE040F2F921C6
:107BE000C2F200010020087040F2F821C2F2000148
:107BF0000870FFE741F25470C2F2000090F898005C
:107C0000C0B1FFE740F20C00C2F200000178013978
:107C10000170007868B9FFE740F20C01C2F2000180
:107C20002820087040F22011C2F2000101204871A2
:107C3000FFE7FFE780BD000080B540F60000C4F21A
:107C400001004FF4805103F09DFF80BD80B540F6E8
:107C50000000C4F201004FF4805103F09DFF80BD8D
:107C600080B5FFF761FF80BD82B0ADF80600ADF8CA
:107C70000410BDF80600BDF80410401A00900098EA
:107C800002B0704741F25470C2F20000008E40F61C
:107C9000B831884208DCFFE741F25470C2F20000BC
:107CA000008E002808DCFFE741F25471C2F20001A7
:107CB0004FF4FA700886FFE741F25470C2F20000F8
:107CC000808E41F28831884208DCFFE741F254702F
:107CD000C2F20000808E002808DCFFE741F25471F8
:107CE000C2F200014FF47A708886FFE741F25470C7
:107CF000C2F20000008F40F6B831884208DCFFE78E
:107D000041F25470C2F20000008F002808DCFFE747
:107D100041F25471C2F200014FF4C8700887FFE7C6
:107D200041F25470C2F20000808F41F288318842E3
:107D300008DCFFE741F25470C2F20000808F002897
:107D400008DCFFE741F25471C2F200014FF47A708F
:107D50008887FFE741F25470C2F2000090F8880073
:107D6000D0B1FFE741F25470C2F2000090F88800F1
:107D7000022811D0FFE741F25470C2F2000090F8DF
:107D80008800012808D0FFE741F25471C2F20001D7
:107D9000022081F88800FFE741F25470C2F200002F
:107DA000B0F8400040F6B831884209DCFFE741F204
:107DB0005470C2F20000B0F84000002809DCFFE770
:107DC00041F25471C2F200014FF4C870A1F84000B2
:107DD000FFE741F25470C2F20000B0F8440041F2F3
:107DE0008831884209DCFFE741F25470C2F200009A
:107DF000B0F84400002809DCFFE741F25471C2F2F8
:107E000000014FF47A70A1F84400FFE741F254708A
:107E1000C2F2000090F88900D0B1FFE741F254703F
:107E2000C2F2000090F88900022811D0FFE741F269
:107E30005470C2F2000090F88900012808D0FFE7D2
:107E400041F25471C2F20001022081F88900FFE77B
:107E500041F25470C2F20000B0F8480040F6B83168
:107E6000884209DCFFE741F25470C2F20000B0F82A
:107E70004800002809DCFFE741F25471C2F200011A
:107E80004FF4C870A1F84800FFE741F25470C2F205
:107E90000000B0F84C0041F28831884209DCFFE76D
:107EA00041F25470C2F20000B0F84C00002809DC26
:107EB000FFE741F25471C2F200014FF47A70A1F869
:107EC0004C00FFE741F25470C2F2000090F88A00C3
:107ED000D0B1FFE741F25470C2F2000090F88A007E
:107EE000022811D0FFE741F25470C2F2000090F86E
:107EF0008A00012808D0FFE741F25471C2F2000164
:107F0000022081F88A00FFE741F25470C2F20000BB
:107F1000B0F8500040F6B831884209DCFFE741F282
:107F20005470C2F20000B0F85000002809DCFFE7EE
:107F300041F25471C2F200014FF4C870A1F8500030
:107F4000FFE741F25470C2F20000B0F8540041F271
:107F50008831884209DCFFE741F25470C2F2000028
:107F6000B0F85400002809DCFFE741F25471C2F276
:107F700000014FF47A70A1F85400FFE741F2547009
:107F8000C2F2000090F88B00D0B1FFE741F25470CC
:107F9000C2F2000090F88B00022811D0FFE741F2F6
:107FA0005470C2F2000090F88B00012808D0FFE75F
:107FB00041F25471C2F20001022081F88B00FFE708
:107FC00041F25470C2F2000090F88600D0B1FFE791
:107FD00041F25470C2F2000090F88600022811D0DD
:107FE000FFE741F25470C2F2000090F886000128C9
:107FF00008D0FFE741F25471C2F20001002081F87D
:108000008600FFE741F25470C2F2000090F8680069
:10801000C00798B1FFE741F25470C2F2000090F837
:10802000680000F00100012808D0FFE741F2547118
:10803000C2F20001002081F86800FFE741F25470AD
:10804000C2F2000090F86900C00798B1FFE741F262
:108050005470C2F2000090F8690000F0010001289D
:1080600008D0FFE741F25471C2F20001002081F80C
:108070006900FFE741F25470C2F2000090F88C00F2
:1080800088B1FFE741F25470C2F2000090F88C0012
:10809000012808D0FFE741F25471C2F2000100202C
:1080A00081F88C00FFE741F25470C2F2000090F8B2
:1080B0008D00012810D0FFE741F25470C2F2000099
:1080C00090F88D0040B1FFE741F25471C2F2000117
:1080D000002081F88D00FFE77047000080B541F275
:1080E0005470C2F2000090F88E0001280CD1FFE716
:1080F00041F25470C2F2000090F8900018B9FFE706
:10810000FCF71AFFFFE7FFE780BD000080B584B0F1
:1081100004F002FD0391029004F0F4FD98B1FFE732
:1081200004F0FAFC0391029004F00CFD0190084663
:108130000199029B039AC9185041013140F1000096
:1081400002910390FFE70298039904B080BD0000FC
:1081500080B584B003A8019000200390ADF80A0018
:1081600040F2C010C2F2000004F080FAFCF727FAD7
:1081700041EC100B9FED381B53EC112B51EC100B05
:10818000FCF79DF941EC100B51EC100B9FED340BFB
:1081900053EC102BFCF77AF841EC100B51EC100B60
:1081A000FCF74CFA01460198039190ED000AB5EEF8
:1081B000400AF1EE10FA03DCFFE700200390FFE72E
:1081C000019890ED000A9FED2C1AB4EE410AF1EEF1
:1081D00010FA06DDFFE744F20000C4F29C50039061
:1081E000FFE7019890ED000AB5EE400AF1EE10FAB3
:1081F00015DBFFE70398FCF70EFA41EC100B9FED3F
:108200001C1B53EC112B51EC100BFCF73FF841EC0D
:10821000100B51EC100BFCF7DFF9009014E0039801
:10822000FCF7F9F941EC100B9FED0F1B53EC112BF0
:1082300051EC100BFCF72AF841EC100B51EC100B31
:10824000FCF7CAF90090FFE70098ADF80A00BDF806
:108250000A0004B080BD00BF6891ED7C3F35EA3F65
:10826000000000000000F0BF000000000000E0BFC0
:10827000000000000000E03F00409C4580B582B057
:1082800000F096F941F25471C2F2000101910881A7
:10829000FFF75EFF0199888100F006F802B080BD0B
:1082A00080B5FFF7EBFF80BD80B584B040F6FC20C1
:1082B000C2F200000168013901600068002800F383
:1082C0006881FFE740F6FC21C2F20001322008601D
:1082D0000F200A2102F08AFC00EE100AB8EE400AD4
:1082E00040F60430C2F2000080ED000A90ED000A72
:1082F000B5EE400AF1EE10FA19DBFFE740F6043064
:10830000C2F200000068FCF786F941EC100B9FED0B
:10831000A41B53EC112B51EC100BFBF7B7FF41ECF6
:10832000100B51EC100BFCF757F9039018E040F6D6
:108330000430C2F200000068FCF76DF941EC100B4C
:108340009FED951B53EC112B51EC100BFBF79EFF8F
:1083500041EC100B51EC100BFCF73EF90390FFE7DA
:10836000039800EE100AB8EEC00A41F25470C2F24F
:10837000000080ED080A40F20420C2F2000004F080
:1083800075F9073800EE100AB8EE400A40F60030E2
:10839000C2F2000080ED000A90ED000AB5EE400A3E
:1083A000F1EE10FA19DBFFE740F60030C2F20000F0
:1083B0000068FCF730F941EC100B9FED791B53EC92
:1083C000112B51EC100BFBF761FF41EC100B51EC42
:1083D000100BFCF701F9029018E040F60030C2F2F1
:1083E00000000068FCF717F941EC100B9FED6A1BC9
:1083F00053EC112B51EC100BFBF748FF41EC100B29
:1084000051EC100BFCF7E8F80290FFE7029800EE41
:10841000100AB8EEC00A41F25470C2F2000080EDBA
:108420000A0A40F24820C2F2000004F01FF90138A5
:1084300000EE100AB8EE400A40F60830C2F2000022
:1084400080ED000A90ED000AB5EE400AF1EE10FA58
:1084500019DBFFE740F60830C2F200000068FCF7C5
:10846000DAF841EC100B9FED4E1B53EC112B51EC45
:10847000100BFBF70BFF41EC100B51EC100BFCF752
:10848000ABF8019018E040F60830C2F20000006836
:10849000FCF7C1F841EC100B9FED3F1B53EC112B87
:1084A00051EC100BFBF7F2FE41EC100B51EC100BF2
:1084B000FCF792F80190FFE7019800EE100AB8EE81
:1084C000C00A41F25470C2F2000080ED060A092091
:1084D0000A2102F08BFBFCF761F841EC100B51EC28
:1084E000100B9FED310B53EC102BFBF776FF41EC9B
:1084F000100B51EC100BFCF7A1F8014640F60C30C4
:10850000C2F20000016090ED000AB5EE400AF1EE03
:1085100010FA19DBFFE740F60C30C2F200000068E9
:10852000FCF779F841EC100B9FED1D1B53EC112B60
:1085300051EC100BFBF7AAFE41EC100B51EC100BA9
:10854000FCF74AF8009018E040F60C30C2F2000048
:108550000068FCF760F841EC100B9FED0F1B53EC2B
:10856000112B51EC100BFBF791FE41EC100B51EC71
:10857000100BFCF731F80090FFE7009800EE100AAE
:10858000B8EEC00A41F25470C2F2000080ED040A55
:10859000FFE704B080BD00BF000000000000E0BFA6
:1085A000000000000000E03F8FC2F5285C8FEE3F26
:1085B00080B584B000200390ADF80A0040F28C2012
:1085C000C2F2000004F052F8FBF7F9FF41EC100B87
:1085D0009FED2F1B53EC112B51EC100BFBF76FFF92
:1085E00041EC100B51EC100BFCF728F803909DEDBB
:1085F000030AB5EE400AF1EE10FA15DBFFE7039827
:10860000FCF709F841EC100B9FED251B53EC112BE7
:1086100051EC100BFBF73AFE41EC100B51EC100B38
:10862000FBF7DAFF019014E00398FBF7F4FF41EC4D
:10863000100B9FED191B53EC112B51EC100BFBF79A
:1086400025FE41EC100B51EC100BFBF7C5FF019020
:10865000FFE70198ADF80A00BDF80A0040F6B9310D
:10866000884205DBFFE740F6B830ADF80A00FFE7C7
:10867000BDF80A00002804DCFFE70020ADF80A007E
:10868000FFE7BDF80A0004B080BD00BF00BF00BF17
:10869000D7A3703D0AD7F53F000000000000E0BFFF
:1086A000000000000000E03F8BB0099008910792A5
:1086B0000693099818B1FFE7089818B9FFE700205A
:1086C0000A905FE007980699884203D9FFE70020E7
:1086D0000A9057E006980799401A013005900998CA
:1086E000079908440490002002900390FFE7039844
:1086F0000599B0EB910F11D2FFE70498006800BA1A
:108700000899029A531C029341F8220004980430FD
:108710000490FFE7039801300390E8E79DF8140008
:10872000800760B3FFE700200190059901F0030185
:108730008DF803108DF80200FFE79DF802009DF808
:108740000310884213DAFFE704989DF80220805C4A
:108750001821A1EBC20100FA01F101980843019030
:10876000FFE79DF8020001308DF80200E5E701986F
:108770000899029A531C029341F82200FFE70298DD
:108780000A90FFE70A980BB07047000084B003908E
:1087900002914FF6FF70ADF80600FFE7029890B324
:1087A000FFE70398411C03910178BDF8060080EAB9
:1087B0000120ADF8060008200090FFE70098F0B116
:1087C000FFE7BDF80600000400280DD5FFE7BDF85F
:1087D00006004000ADF80600BDF8060041F2210198
:1087E0004840ADF8060005E0BDF806004000ADF8D1
:1087F0000600FFE7FFE7009801380090DEE70298E7
:1088000001380290CAE7BDF8060004B070470000C6
:1088100083B002900191002000900090FFE7009843
:10882000019988420ED2FFE70298009950F8210082
:1088300043F20001C4F202010860FFE70098013032
:108840000090ECE743F20000C4F20200006803B0BD
:108850007047000043F20801C4F20201086840F0CA
:10886000010008607047000081B00090009843F25A
:108870001001C4F20201086001B0704781B08DF8A8
:1088800003009DF8032043F20801C4F202010868C6
:1088900002F0030220F0180040EAC200086001B0B4
:1088A0007047000081B00090009843F21401C4F2B8
:1088B0000201086001B0704781B08DF803009DF897
:1088C000032043F20801C4F20201086802F0030227
:1088D00020F0600040EA4210086001B070470000DC
:1088E00081B08DF803009DF8032043F20801C4F223
:1088F0000201086802F0010220F0800040EAC21084
:10890000086001B07047000081B08DF803009DF849
:10891000030000F0030241F20401C4F202010868FE
:1089200020F4404040EA823008609DF80320086847
:10893000920862F31C70086001B0704781B08DF836
:1089400003009DF8032041F20401C4F2020108680B
:1089500002F00F0220F0F00040EA0210086001B0BF
:108960007047000081B08DF803009DF8032041F2AC
:108970000401C4F20201086802F0070220F4E0607A
:1089800040EA0220086001B07047000081B08DF815
:1089900003009DF8032041F20401C4F202010868BB
:1089A00002F0070220F4605040EAC220086001B0E3
:1089B0007047000081B08DF803009DF80300012886
:1089C00009D1FFE741F25401C4F20201086840F006
:1089D0003000086008E041F25401C4F20201086866
:1089E00020F030000860FFE701B0704782B08DF8DA
:1089F00007008DF806109DF8070001460091042835
:108A000044D80099DFE801F0030E1D2C37009DF8D3
:108A1000062041F20001C4F20201086862F300007E
:108A2000086034E09DF8062041F20001C4F2020122
:108A3000086802F0010220F4803040EA0240086039
:108A400025E09DF8062041F20001C4F20201086809
:108A500002F0010220F0807040EA0260086016E037
:108A60009DF8062041F22001C4F20201086862F379
:108A7000000008600BE09DF8062041F22401C4F2DA
:108A80000201086862F30000086000E0FFE702B03E
:108A90007047000080B58AB00990002008900790C8
:108AA000069005900490039000F028FA8DF80B00D2
:108AB0009DF80B000146019140B1FFE701980128A4
:108AC00025D0FFE70198022828D07EE041F254002B
:108AD000C4F202000068400AC00780B1FFE741F21B
:108AE0003000C4F202000068400EC00738B1FFE752
:108AF000099946F60040C0F2DC20086006E00999BA
:108B000041F20020C0F27A000860FFE764E00999B2
:108B100041F20020C0F27A0008605DE041F20400FA
:108B2000C4F202000168C1F3004105910168C1F37C
:108B3000834107910068C0F341700690069820B900
:108B4000FFE707980F2807D1FFE70699079800EB82
:108B500001100130079003E0079802300790FFE70B
:108B6000059848B9FFE7079840F60011C0F23D01AB
:108B700048430999086027E041F20400C4F202006A
:108B80000068400CC007A8B1FFE741F25400C4F2EE
:108B900002000068C0F3013008900898811C41F27F
:108BA0000020C0F27A00B0FBF1F007994843099920
:108BB000086008E0079841F20021C0F27A014843BA
:108BC00009990860FFE7FFE706E0099941F20020F4
:108BD000C0F27A000860FFE741F20400C4F202002C
:108BE0000168C1F303110491049A4FF21C11C0F6FD
:108BF0000001895C0391099A1168039BD940516077
:108C00000168C1F302210491049A4FF20C11C0F6DD
:108C10000001895C0391099A5168039BD940D16096
:108C20000168C1F3C2210491049A4FF21411C0F6F5
:108C30000001895C0391099A5168039BD9409160B6
:108C40000168C1F30071049104990068C0F3813098
:108C500040EA8100049004994FF20410C0F600002D
:108C6000405C039009998868039AB0FBF2F00861B0
:108C70000AB080BD82B0019000208DF80300BDF8DD
:108C8000060041F20001C4F202014058019901F0CE
:108C90001F01C840C00720B9FFE700208DF803007E
:108CA00003E001208DF80300FFE79DF8030002B008
:108CB0007047000080B584B0002003908DF80B0051
:108CC000FFE71120FFF7D6FF0146002001290190A0
:108CD00008D0FFE703990020B1F5405F38BF0120BD
:108CE0000190FFE70198C00720B1FFE7039801302A
:108CF0000390E6E71120FFF7BDFF012804D0FFE74E
:108D000000208DF80B0003E001208DF80B00FFE739
:108D10009DF80B0004B080BD82B001908DF8031067
:108D20009DF8030001280FD1FFE7019800F01F0212
:108D3000012101FA02F3010C41F20002C4F2020225
:108D40008858184388500EE0019800F01F02012156
:108D500001FA02F3010C41F20002C4F20202885847
:108D600098438850FFE702B07047000081B08DF84B
:108D700003008DF802108DF801209DF8030088B9DA
:108D8000FFE741F20401C4F20201086820F48030D8
:108D9000086041F23001C4F20201086840F000703E
:108DA00008601FE041F20401C4F20201086840F4C7
:108DB000803008609DF80300012809D1FFE741F2E7
:108DC0000401C4F20201086820F40030086008E0E1
:108DD00041F20401C4F20201086840F40030086066
:108DE000FFE7FFE79DF8020000F00F0241F20401E7
:108DF000C4F20201086820F4701040EA8240086062
:108E00009DF8020000F03002086820F0C04040EAFF
:108E1000426008609DF80120086820F0004040EAA8
:108E2000C270086001B0704741F20001C4F2020153
:108E3000086840F001000860FFE741F20000C4F25A
:108E400002000068C0F34000012801D0FFE7F4E70A
:108E500041F20401C4F20201086820F00300086036
:108E6000FFE741F20400C4F20200006880088007B6
:108E700008B1FFE7F5E741F20001C4F2020108681A
:108E80004FF6FF72CFF6F2621040086041F2040123
:108E9000C4F202010020086041F23001C4F2020174
:108EA000086041F20801C4F202014FF41F0008609B
:108EB0007047000081B08DF803009DF8032041F257
:108EC0000401C4F20201086862F30100086000BFF7
:108ED00000BF00BF00BF00BF00BF00BF00BF00BF9A
:108EE00000BF00BF00BF00BF00BF00BF00BF00BF8A
:108EF00000BF00BF00BF01B07047000041F2040096
:108F0000C4F202000068C0F38100704780B582B0EF
:108F100040F25400C2F20000007801460191092895
:108F200053D80199DFE801F0050A0F141A1F24290C
:108F30002F5001210846FEF7FDFC47E00A200121E1
:108F4000FEF7F8FC42E064200121FEF7F3FC3DE06F
:108F50004FF47A700121FEF7EDFC37E0012000218B
:108F6000FEF7E8FC32E00A200021FEF7E3FC2DE0EA
:108F700064200021FEF7DEFC28E04FF47A70002127
:108F8000FEF7D8FC22E041F25470C2F2000000214A
:108F900080F86B1090F86C10013180F86C1090F82C
:108FA0006C00052808DBFFE741F25471C2F20001B2
:108FB000002081F86C00FFE741F25471C2F2000119
:108FC000002081F8740001E0FFE7FFE740F2540160
:108FD000C2F200010920087002B080BD80B541F2E4
:108FE0005470C2F2000090F87200C007E8B3FFE7C7
:108FF00041F25471C2F20001C88E898E884208D0B5
:10900000FFE741F25470C2F20000808EFDF7DEFBF4
:10901000FFE740F2F421C2F200010020086040F2B4
:109020001400C2F2000001680139016000680028E4
:109030001ADCFFE741F25470C2F2000090F86C00B5
:1090400090B9FFE740F21401C2F2000140F6B830D7
:10905000086041F25471C2F20001002081F87200F0
:109060004FF6FF70C886FFE752E041F25470C2F23B
:10907000000090F8900040BBFFE740F2F420C2F2FD
:109080000000016801390160006800281CDCFFE76E
:1090900040F2F421C2F20001FA20086041F254705B
:1090A000C2F2000090F88E00012808D1FFE741F2DB
:1090B0005470C2F200008089FBF772FC03E00020CC
:1090C000FBF76EFCFFE7FFE721E041F25470C2F2CC
:1090D000000090F89000012818D1FFE740F2F42139
:1090E000C2F200010020086041F25471C2F2000196
:1090F000C88E898E884208D0FFE741F25470C2F2D0
:109100000000808EFDF762FBFFE7FFE7FFE7FFE768
:1091100080BD000084B08DF80F009DF80F0001386D
:1091200001460291092800F2FD800299DFE811F062
:109130000A005A00F600F700AA00C900F500CA00AC
:10914000F800F90041F25470C2F2000090F88C006F
:10915000002846D1FFE741F25470C2F2000090F8B7
:109160006C0001460191042828D80199DFE801F03C
:10917000030A11181F0040F25401C2F2000102203C
:1091800008701CE040F25401C2F200010320087094
:1091900015E040F25401C2F20001022008700EE016
:1091A00040F25401C2F200010120087007E040F2D1
:1091B0005401C2F200010020087000E0FFE741F214
:1091C0005471C2F20001012081F8780081F8740026
:1091D00081F8720040F22011C2F2000100204871B3
:1091E000FFE7A0E041F25470C2F2000090F88C005A
:1091F000002846D1FFE741F25470C2F2000090F817
:109200006C0001460091042828D80099DFE801F09D
:10921000030A11181F0040F25401C2F20001062097
:1092200008701CE040F25401C2F2000107200870EF
:1092300015E040F25401C2F20001062008700EE071
:1092400040F25401C2F200010520087007E040F22C
:109250005401C2F200010420087000E0FFE741F26F
:109260005471C2F20001012081F8780081F8740085
:1092700081F8720040F22011C2F200010020487112
:10928000FFE750E041F25470C2F2000090F88C0009
:10929000B0B9FFE740F25401C2F2000108200870A3
:1092A00041F25472C2F20002002082F874000121DF
:1092B00082F8721040F22011C2F200014871FFE7FB
:1092C00031E030E041F25470C2F2000090F88C00BE
:1092D00001280CD1FFE741F25471C2F2000191F86C
:1092E0008D00B0FA80F0400981F88D000EE041F267
:1092F0005471C2F20001012081F8990040F610314A
:10930000C2F2000140F6B8300860FFE740F22011D9
:10931000C2F200010120487105E004E003E002E030
:1093200001E000E0FFE741F25470C2F2000090F863
:109330009900C007A0B1FFE740F61030C2F200006C
:109340000168013901600068002808DCFFE741F28C
:109350005471C2F20001002081F89900FFE7FFE795
:1093600041F25470C2F2000090F86C00C8B3FFE7FD
:109370009DF80F0060BBFFE741F25471C2F200019B
:10938000002081F8740040F25000C2F20000016831
:10939000013901600068002819DCFFE740F2500144
:1093A000C2F2000140F6B830086041F25471C2F2D6
:1093B0000001002081F86C0081F8720040F2F42274
:1093C000C2F2000210604FF6FF70C881FFE707E0AD
:1093D00040F25001C2F2000140F6B8300860FFE7E9
:1093E000FFE704B07047000082B00190ADF80210B2
:1093F000BDF802000199086002B0704782B0019088
:10940000ADF80210BDF802000199086002B0704783
:1094100080B582B08DF80700ADF80410ADF80220D9
:10942000BDF80410BDF8022000209142A8BF012021
:109430008DF801009DF807009DF8011000F030F84C
:1094400002B080BD82B08DF807008DF806109DF83F
:10945000070001460091012804D0FFE70098022888
:109460000BD019E09DF8062047F20041C4F200013C
:10947000086862F3000008600FE09DF8062047F2DC
:109480000041C4F20001086802F0010220F48030BB
:1094900040EA0240086000E0FFE702B070470000C9
:1094A00082B08DF807008DF806109DF80600B0FA1E
:1094B00080F040098DF806009DF8070001460091F4
:1094C000012804D0FFE7009802280FD01DE09DF886
:1094D000062047F20041C4F20001086802F00102D0
:1094E00020F0020040EA420008600FE09DF80620EC
:1094F00047F20041C4F20001086802F0010220F4C2
:10950000003040EA4240086000E0FFE702B07047E8
:1095100080B588B0ADF81E00ADF81C10069205931A
:1095200040F6C830C2F20000006841F25471C2F245
:109530000001898E884200F09080FFE741F254706C
:10954000C2F20000808E40F6C831C2F2000108600D
:10955000BDF81C1002206422FFF75AFFBDF81C0062
:109560000599084404900498002803DCFFE70020D4
:109570000490FFE70498FBF711F841EC100B9FED06
:109580008E1B53EC112B51EC100BFAF726FF41EC1C
:10959000100B51EC100BFBF751F8014640F6583018
:1095A000C2F20000016090ED000AB5EE400AF1EE53
:1095B00010FA19DBFFE740F65830C2F200000068ED
:1095C000FBF729F841EC100B9FED7F1B53EC112B9F
:1095D00051EC100BFAF75AFE41EC100B51EC100B4A
:1095E000FAF7FAFF029018E040F65830C2F2000095
:1095F0000068FBF710F841EC100B9FED711B53EC6A
:10960000112B51EC100BFAF741FE41EC100B51EC11
:10961000100BFAF7E1FF0290FFE7029940F65C3089
:10962000C2F200000180008840F6FF71884208DB2A
:10963000FFE740F65C31C2F2000140F6FF7008809F
:10964000FFE740F65C30C2F20000018847F21440A8
:10965000C4F20000FFF7D2FEFFE740F6CC30C2F2C2
:109660000000006841F25471C2F20001098E884284
:1096700000F09F80FFE741F25470C2F20000008EBC
:1096800040F6CC31C2F200010860BDF81E10012086
:109690000A22FFF7BDFEBDF81E000699084403909C
:1096A0000398012803DCFFE701200390FFE70398FC
:1096B000FAF774FF41EC100B9FED451B53EC112B97
:1096C00051EC100BFAF789FE41EC100B51EC100B2A
:1096D000FAF7B4FF014640F66030C2F200000160C4
:1096E00090ED000AB5EE400AF1EE10FA19DBFFE743
:1096F00040F66030C2F200000068FAF78CFF41ECDF
:10970000100B9FED311B53EC112B51EC100BFAF7A2
:10971000BDFD41EC100B51EC100BFAF75DFF019011
:1097200018E040F66030C2F200000068FAF773FFFC
:1097300041EC100B9FED221B53EC112B51EC100B45
:10974000FAF7A4FD41EC100B51EC100BFAF744FFB3
:109750000190FFE7019940F66430C2F200000180F9
:10976000008840F6FF71884208DBFFE740F664316D
:10977000C2F2000140F6FF700880FFE740F6643057
:10978000C2F200000088012807DCFFE740F66431E0
:10979000C2F2000101200880FFE740F66430C2F207
:1097A0000000018847F20840C4F20000FFF71CFEE9
:1097B000FFE708B080BD00BF6891ED7C3F35EA3F10
:1097C000000000000000E0BF000000000000E03FDB
:1097D000D7A3703D0AD7F53F82B08DF807008DF80A
:1097E00006109DF8070001460091012804D0FFE70C
:1097F000009802280FD01DE09DF8062047F2004196
:10980000C4F20001086802F0010220F0040040EAFE
:10981000820008600FE09DF8062047F20041C4F284
:109820000001086802F0010220F4802040EA824032
:10983000086000E0FFE702B07047000080B584B028
:1098400003908DF80B1000208DF80700FFE79DF8BE
:1098500007009DF80B10884217DAFFE703989DF880
:109860000710084400F0DEFFADF80800BDF808005E
:109870004FF6FF71884201D1FFE706E0FFE79DF850
:10988000070002308DF80700E1E7BDF8080004B0DA
:1098900080BD000040F66630C2F20000007841F260
:1098A0005471C2F2000191F88E10884210D0FFE787
:1098B00041F25471C2F2000191F88E0040F6663216
:1098C000C2F20002107000204866C8814881FFE79C
:1098D0007047000080B586B00590059840F21811D9
:1098E000C2F200010968A0FB01010391029040F659
:1098F000D030C2F2000000685B2807DBFFE740F6CB
:10990000D030C2F200000068009002E05A200090BF
:10991000FFE700980190029B0399019AD017D21A91
:10992000884101DBFFE71DE0019A02990398891A3B
:1099300060EBE2700291039002F0C4F803460A461D
:1099400002990398C918504102910390FFE702F071
:10995000B9F80246029B0398D21A71EB000001DAB3
:10996000FFE7F4E706B080BD80B586B005900598A6
:1099700040F21C11C2F200010968A0FB0101039131
:10998000029040F6D030C2F2000000685B2807DB8E
:10999000FFE740F6D030C2F200000068009002E01D
:1099A0005A200090FFE700980190029B0399019ACA
:1099B000D017D21A884101DBFFE71DE0019A029916
:1099C0000398891A60EBE2700291039002F07AF832
:1099D00003460A4602990398C91850410291039020
:1099E000FFE702F06FF80246029B0398D21A71EB70
:1099F000000001DAFFE7F4E706B080BD80B584B06F
:109A000040F25810C2F200000190FBF76DFF0146D2
:109A100001988DF80F109DF90F10FBF70FFE01460E
:109A200040F6D430C2F200000170007804F02AFD44
:109A300004F01EFC40F21800C2F200000290FBF796
:109A400053FF014602988DF80E109DF90E10FBF79A
:109A5000F5FD014640F6B830C2F200000170007812
:109A6000FFF758FBFFF752FA04B080BD80B540F60F
:109A70006830C2F200000078C00738B9FFE740F64E
:109A80006831C2F2000101200870FFE704F0BCFE5B
:109A900080BD000083B001908DF80310019820B9BB
:109AA000FFE701208DF80B0024E000208DF8020074
:109AB0008DF80200FFE79DF802000E280DDCFFE79D
:109AC00001999DF80220002041F82200FFE79DF84F
:109AD000020001308DF80200EDE79DF803000199C6
