:020000040800F2
:10400000001D00209D410008955F0008D55E000856
:10401000915F0008354E00082D7100080000000077
:10402000000000000000000000000000956500088E
:104030004D5400080000000089610008C1410008DB
:10404000B7410008B7410008B7410008B741000870
:10405000B7410008B7410008B7410008B741000860
:10406000B7410008B7410008B7410008B741000850
:10407000B7410008B7410008B7410008B741000840
:10408000B7410008B7410008B7410008B741000830
:10409000B7410008B7410008B7410008B741000820
:1040A000B7410008B7410008B7410008B741000810
:1040B000B7410008B7410008B7410008B741000800
:1040C000B7410008B7410008B7410008B7410008F0
:1040D000B7410008FD6F0008B7410008B74100086C
:1040E000B7410008B7410008B7410008B7410008D0
:1040F000B7410008B7410008B7410008B7410008C0
:10410000B7410008B7410008B7410008B7410008AF
:10411000B7410008B7410008B7410008B74100089F
:10412000B7410008B7410008B7410008B74100088F
:10413000B7410008B7410008B7410008B74100087F
:10414000000000000000000000000000000000006F
:10415000B7410008B7410008B7410008B74100085F
:10416000B7410008B7410008B7410008B74100084F
:10417000B7410008B7410008B7410008B74100083F
:10418000B7410008DFF810D000F0F2F900F02CFB86
:10419000004800471DBE0008001D0020064880475B
:1041A00006480047FEE7FEE7FEE7FEE7FEE7FEE71C
:1041B000FEE7FEE7FEE7FEE7296E000885410008FE
:1041C00030B410B50348804730BCAE4630BC02481E
:1041D00000477047D9C30008856D00082DE9F05FDE
:1041E0000546002092469B46884606468146402466
:1041F0001BE0284641464746224600F0E0F9534678
:104200005A46C01A914110D311461846224600F072
:10421000C7F92D1A67EB01084F46224601200021FD
:1042200000F0BEF917EB00094E41201EA4F1010475
:10423000DFDC484631462A464346BDE8F09F2DE97B
:10424000FE4F804681EA0300C00F0C46009021F02B
:10425000004123F00045B8EB0200A94105D24046D9
:10426000214690461C460B46024623F00040104370
:1042700047D0270DC7F30A00C3F30A510290401A32
:10428000019040286BDAC3F3130040F4801B0098C0
:10429000924620B10023D2EB030A63EB0B0B01988B
:1042A0005946C0F14002504600F07AF906460D46E4
:1042B00050465946019A00F092F910EB080061410E
:1042C000002487EA115284EAE7731A4340D0009A27
:1042D00062B3019A012A4FEA075215DC001B61EB19
:1042E00002014FF0004202EA0752CDE90042001CF1
:1042F00041F5801132462B4600F092F903B0BDE83B
:10430000F08F40462146F9E7001B61EB0201001CDB
:1043100041F5801300185B412018A2F5001747EB08
:10432000030140EAD570B6196D4111E06D084FEAFE
:10433000360645EAC0754FEA0752001B61EB0201E1
:10434000001C41F5801149084FEA30000019514125
:1043500032462B4603B0BDE8F04F00F052B900984A
:10436000012240000023D0EB020263EBE0730098CF
:1043700021464FEAE074B8EB000061EB0401E9E785
:1043800083F000435BE781F0004158E72DE9FE4FE1
:1043900081EA030404F0004421F0004100944FF04E
:1043A000000B23F0004350EA01045ED052EA0304FC
:1043B0005BD0C3F30A54C1F30A552C44A4F2F3347E
:1043C0000194A0FB0254C1F3130141F48011C3F323
:1043D000130343F4801301FB024400FB034E840AE1
:1043E000970A44EA815447EA8357A4FB0768029579
:1043F0008D0A05FB07854FEA932C04FB0C54270517
:10440000029D4FEA065847EA1637B5EB08056EEBF2
:10441000070C870E920E47EA811742EA8312A7FB28
:104420000201B6EB0B0164EB00042B0D43EA0C33E5
:104430005E1844EB1C50DA465146E7FB0201C5F317
:1044400013044FEA0B3343EA14534FEA0432019C3E
:1044500043EA0603A4F10C040294009CCDE900B4E5
:1044600000F0DEF803B0BDE8F08F00200146F9E768
:104470002DE9F04D81EA030404F0004B21F00045E2
:1044800014464FF0000A23F0004150EA050220D004
:1044900054EA01021DD0C5F30A570246C5F31303BF
:1044A000C1F31300C1F30A5640F4801543F480139E
:1044B000A7EB0608101BD64608F2FD3873EB050083
:1044C00002D308F1010801E092185B41B8F1000F36
:1044D00003DA00200146BDE8F08D00204FF4801182
:1044E000064684460EE0171B73EB050705D3121B27
:1044F00063EB050306434CEA010C49084FEA300020
:1045000092185B4150EA0107EDD152EA030012D044
:1045100082EA040083EA0501084305D0101BAB4181
:1045200006D20122002306E000224FF0004302E001
:104530006FF0010253101AEB06004CEB085110EB20
:104540000A0041EB0B01BDE8F04D00F05AB80EB582
:10455000C10F80EAE0700844CA07002140F23343EB
:104560008DE80E000A460B4600F05AF803B000BD75
:104570001CB509480090094801900546009C06E0DA
:10458000E06840F0010394E8070098471034AC421B
:10459000F6D3FFF7FBFD0000C4E60008E4E60008E0
:1045A000202A04DB203A00FA02F1002070479140F3
:1045B000C2F1200320FA03F3194390407047202AE8
:1045C00004DB203A21FA02F00021704721FA02F3BD
:1045D000D040C2F120029140084319467047202A7A
:1045E00006DBCB17203A41FA02F043EAE07306E01B
:1045F00041FA02F3D040C2F120029140084319462B
:10460000704710B5141E73F1000408DA401C41F124
:10461000000192185B411A4301D120F0010010BD46
:104620002DE9F04D92469B4611B1B1FA81F202E0BC
:10463000B0FA80F220329046FFF7B2FF04460F46F0
:1046400040EA0A0041EA0B0153465A46084313D098
:10465000114653EA010019D0C8F140025046FFF755
:10466000AEFF05460E46504659464246FFF798FFB4
:10467000084305D0012004E020463946BDE8F08D0E
:104680000020054346EAE0762C4337430A98630549
:10469000E40AA0EB08000022FD0A44EA47540A306D
:1046A00002D500200146E9E7010510196941DDE95D
:1046B000084500196941BDE8F04DA2E701F000434B
:1046C00030B421F0004150EA010206D00A0DA2F5F3
:1046D0006072C1F31301002A02DC30BC0020704775
:1046E000440F44EAC104C100E01830BC00EBC250E2
:1046F000AFF300800029A8BF7047401C490008BFE5
:1047000020F00100704710B4B0FA80FC00FA0CF001
:1047100050EA010404BF10BC704749B1CCF1200439
:1047200021FA04F411FA0CF118BF012121430843C6
:10473000A3EB0C01CB1D4FEA00614FEA102042BFF2
:10474000002010BC704700EBC35010440029A4BFE8
:1047500010BC7047401C490008BF20F0010010BC8D
:1047600070472DE9F0410024061B254671F1000633
:1047700005DA01240027D0EB070067EB0101161EC4
:1047800073F1000605DA0027D2EB0702012567EB7B
:104790000303FFF723FD86460E4617469C46AC42B0
:1047A00004D00025D0EB050E65EB010624B10020F6
:1047B000D2EB000760EB030C704631463A46634685
:1047C000BDE8F081D2B201E000F8012B491EFBD216
:1047D00070470022F6E710B513460A46044619460C
:1047E000FFF7F0FF204610BD7CB507480090074852
:1047F00001900546009C04E020460168084480477B
:10480000241DAC42F8D17CBDE4E60008E8E60008CF
:104810000EB540F2334102910021CDE900110A4664
:104820000B46FFF7FDFE03B000BD70B5C1F30A52A1
:1048300001F000450024C1F3130140F2FF3341F4BD
:1048400080119A4201DA002070BD40F233439A424F
:10485000A2F2334203DC5242FFF7B1FE00E0904087
:104860002C43F1D0404270BD00F0004230F00040D7
:104870000AD0C10D01F56071C0F3160042EA015182
:10488000C20840071143704700200146704770B5C9
:104890008C1810F8015B15F0070301D110F8013BEB
:1048A0002A1106D110F8012B03E010F8016B01F872
:1048B000016B5B1EF9D12B0705D40023521E0DD4CA
:1048C00001F8013BFAE710F8013BCB1A921C03E018
:1048D00013F8015B01F8015B521EF9D5A142D8D350
:1048E000002070BD10B582B0FFE741F20400C4F2B1
:1048F0000100016821F00301016001680160FFE728
:1049000041F20004C4F2010420464FF4007106F0A5
:1049100053FE012004F0FCFD20464FF4007106F028
:1049200055FE012004F0F4FD00208DF80700FFE79C
:104930009DF80700312815DCFFE741F20000C4F2C2
:1049400001004FF4807106F001FF08B9FFE70AE0AB
:10495000052004F0DDFDFFE79DF8070001308DF82C
:104960000700E5E7FFE741F20000C4F201004FF461
:10497000007106F021FE012004F0CAFDFFE741F2BC
:104980000400C4F20100016821F003010160016824
:1049900041F003010160FFE702B010BD80B582B0B5
:1049A000ADF8060000208DF80500FFE79DF8050032
:1049B00003282DDCFFE7BDF806009DF8051006F082
:1049C0004BF88DF804009DF804004EF2B161C0F67A
:1049D0000001085C8DF804009DF8050038B9FFE778
:1049E0009DF8040040F002008DF80400FFE79DF8F8
:1049F0000500082101EB40009DF80410C0B200F052
:104A000027FDFFE79DF8050001308DF80500CDE793
:104A100002B080BD10B582B0ADF8060000208DF860
:104A200005008DF804008DF80300BDF8060045F67A
:104A30002941C0F28F21A0FB01028DF80520BDF8AD
:104A40000600A0FB0112642102FB110049F69A1135
:104A5000C1F69911A0FB01028DF80420BDF80600F3
:104A6000A0FB011202EB8201A0EB41008DF80300D4
:104A70009DF805004EF2B164C0F60004205C40F0E1
:104A80000201222000F0E4FC9DF80400215C2420B7
:104A900000F0DEFC9DF80300215C262000F0D8FC2D
:104AA00002B010BD80B582B0ADF8060000208DF8D0
:104AB0000500FFE79DF80500022846DCFFE7BDF88A
:104AC00006009DF8051005F0C7FF8DF804009DF85D
:104AD00004004EF2B161C0F60001085C8DF80400DC
:104AE0009DF8050068B9FFE7BDF80600632807DCFC
:104AF000FFE79DF8040040F002008DF80400FFE796
:104B000012E09DF8050001280DD1FFE7BDF8060071
:104B1000642807DBFFE79DF8040040F002008DF8F1
:104B20000400FFE7FFE7FFE79DF805001C2101EB0C
:104B300040009DF80410C0B200F08AFCFFE79DF829
:104B4000050001308DF80500B4E702B080BD00001B
:104B500010B582B0ADF8060000208DF805008DF884
:104B600004008DF80300BDF8060045F62941C0F2A7
:104B70008F21A0FB01028DF80520BDF80600A0FBE7
:104B80000112642102FB110049F69A11C1F6991134
:104B9000A0FB01028DF80420BDF80600A0FB011265
:104BA00002EB8201A0EB41008DF803009DF80500A7
:104BB0004EF2B164C0F60004205C40F00201162001
:104BC00000F046FC9DF80400215C182000F040FC39
:104BD0009DF80300215C1A2000F03AFC02B010BDE1
:104BE00080B582B0ADF8060000208DF80500FFE723
:104BF0009DF80500022846DCFFE7BDF806009DF899
:104C0000051005F029FF8DF804009DF804004EF210
:104C1000B161C0F60001085C8DF804009DF8050044
:104C200068B9FFE7BDF80600632807DCFFE79DF8D9
:104C3000040040F002008DF80400FFE712E09DF848
:104C4000050001280DD1FFE7BDF80600642807DB49
:104C5000FFE79DF8040040F002008DF80400FFE734
:104C6000FFE7FFE79DF80500102101EB40009DF8EC
:104C70000410C0B200F0ECFBFFE79DF80500013026
:104C80008DF80500B4E702B080BD000080B582B0A9
:104C9000ADF8060000208DF80500FFE79DF805003F
:104CA00003282CDCFFE7BDF806009DF8051005F091
:104CB000D3FE8DF804009DF804004EF2B161C0F6F9
:104CC0000001085C8DF804009DF80500012807D15B
:104CD000FFE79DF8040040F002008DF80400FFE7B4
:104CE0009DF8050040009DF80410C0B200F0B0FB34
:104CF000FFE79DF8050001308DF80500CEE702B012
:104D000080BD000010B541F63004C2F2000440F24C
:104D1000B621C2F20001204607F00AFC04F110009F
:104D200040F2B661C2F2000107F002FC43F6000057
:104D3000C4F20100206210BD80B582B040F22010A4
:104D4000C2F2000001900198007930B1FFE701281C
:104D500025D0FFE7022851D06AE00198C06880475B
:104D60000198407950B9FFE701980121017140F2A3
:104D70009020C2F200000221017059E001984079B0
:104D800001280AD1FFE701980121017140F290202A
:104D9000C2F200000F2101704AE0FFE748E00198ED
:104DA0008068804740F29020C2F20000017801390B
:104DB0000170080608BBFFE7019802210171019804
:104DC000407948B9FFE701980221017140F2902033
:104DD000C2F2000001702BE00198407901280AD14D
:104DE000FFE701980221017140F29020C2F2000019
:104DF0000F2101701CE0FFE7FFE719E00198C06890
:104E0000804740F29020C2F2000001780139017021
:104E1000080660B9FFE7019800210171019802229C
:104E2000427140F29020C2F20000017000E0FFE702
:104E300002B080BDFFE7FEE780B541F21470C2F218
:104E4000000090F88C0030B1FFE7012806D0FFE7A2
:104E5000022806D008E000F05BF806E000F006F853
:104E600003E007F0FDF800E0FFE780BD80B541F208
:104E70000000C4F20100802106F068FC012819D16D
:104E8000FFE740F29120C2F2000001780131017089
:104E9000007806280DDBFFE740F29120C2F2000007
:104EA0000021017041F21470C2F2000080F88C10F1
:104EB000FFE72BE040F29120C2F2000000210170D8
:104EC00041F21470C2F2000090F88200A8B1FFE72E
:104ED00041F21470C2F20000022180F88C1090F8A8
:104EE0008200022808D1FFE740F21000C2F2000061
:104EF0004FF4FA710160FFE707E041F21470C2F26B
:104F00000000012180F88C10FFE7FFE780BD000062
:104F100080B541F20000C4F20100802106F016FCC9
:104F2000C0BBFFE740F29220C2F2000001780131DD
:104F30000170007806282CDBFFE740F29220C2F2D5
:104F400000000021017041F21470C2F2000090F8DC
:104F50008200A8B1FFE741F21470C2F20000022102
:104F600080F88C1090F88200022808D1FFE740F208
:104F70001000C2F200004FF4FA710160FFE707E091
:104F800041F21470C2F20000012180F88C10FFE79A
:104F9000FFE70CE040F29220C2F200000021017015
:104FA00041F21470C2F2000080F88C10FFE780BD5F
:104FB00010B541F21470C2F2000090F86900C00709
:104FC00078B3FFE741F21470C2F2000090F88A0053
:104FD000012815D1FFE741F21470C2F2000001214F
:104FE00080F8911090F88B0048B9FFE740F6004038
:104FF000C4F201004FF4007106F0E8FAFFE70FE099
:1050000041F21470C2F20000002180F8911040F6C5
:105010000040C4F201004FF4007106F0CDFAFFE742
:1050200007E041F21470C2F20000002180F89110F4
:10503000FFE740F29620C2F20000007818BBFFE7BD
:1050400040F29620C2F200000121017041F214707A
:10505000C2F20000002180F88B1040F60040C4F23C
:1050600001004FF4805106F0B1FA40F60004C4F29A
:1050700001042046012106F0A9FA20464FF4006100
:1050800006F09AFAF8E041F21470C2F2000090F8CB
:105090009100002840F0A480FFE740F60040C4F2F1
:1050A0000100042106F052FB00284DD1FFE740F239
:1050B0009320C2F2000001780131017040F2942186
:1050C000C2F2000100220A70007806283BDBFFE7ED
:1050D00040F29320C2F200000021017041F21470EE
:1050E000C2F20000012180F88F1090F88F1090F824
:1050F0009000884226D0FFE741F21470C2F200000F
:10510000012180F89010002180F88A1080F88B101F
:1051100040F60040C4F201004FF4805106F056FA08
:1051200040F60004C4F201042046012106F04EFAC4
:105130004FF4FA7004F0A6F920464FF4006106F02F
:1051400045FAFFE7FFE74AE040F29420C2F2000090
:1051500001780131017040F29321C2F20001002276
:105160000A700078062839DBFFE740F29420C2F28B
:1051700000000021017041F21470C2F2000080F8BA
:105180008F1090F88F1090F89000884225D0FFE79C
:1051900041F21470C2F20000002180F8901080F8F3
:1051A0008B1080F88A1040F60040C4F201004FF4E2
:1051B000805106F00BFA40F60004C4F201042046C8
:1051C000012106F003FA4FF47A7004F05BF92046EF
:1051D0004FF4006106F0F0F9FFE7FFE7FFE74AE070
:1051E00041F21470C2F2000090F89100012841D100
:1051F000FFE741F21470C2F20000808ED0B3FFE7E7
:1052000041F21470C2F20000008900282ADCFFE796
:1052100040F29520C2F2000001780131017000785F
:1052200015281EDBFFE740F29520C2F200000021A6
:10523000017041F21470C2F2000080F88B1080F807
:105240008A1040F60040C4F201004FF4805106F08D
:10525000BDF940F60000C4F20100012106F0B6F9E4
:10526000FFE706E040F29520C2F200000021017045
:10527000FFE7FFE7FFE7FFE710BD000041F2147012
:10528000C2F2000090ED080A9FED5D1AB4EE410AEB
:10529000F1EE10FA30DAFFE741F21470C2F20000CA
:1052A00090ED040AB5EE400AF1EE10FA24D0FFE7C3
:1052B00040F29920C2F2000001780131017040F201
:1052C0009821C2F2000100220A7040F29721C2F236
:1052D00000010A70007806280DDBFFE741F2147028
:1052E000C2F20000002180F8921040F29920C2F230
:1052F00000000170FFE781E041F21470C2F200008B
:1053000090ED080AB5EE400AF1EE10FA33D0FFE74F
:1053100041F21470C2F2000090ED040A9FED381AB9
:10532000B4EE410AF1EE10FA25DAFFE740F29820D8
:10533000C2F2000001780131017040F29921C2F2FD
:10534000000100220A7040F29721C2F200010A70A7
:10535000007806280EDBFFE740F29820C2F200003A
:105360000021017041F21470C2F20000012180F8A6
:105370009210FFE741E041F21470C2F2000090ED9C
:10538000080A9FED201AB4EE410AF1EE10FA33DB61
:10539000FFE741F21470C2F2000090ED040A9FEDA5
:1053A000191AB4EE410AF1EE10FA25DBFFE740F2DC
:1053B0009720C2F2000001780131017040F299217A
:1053C000C2F2000100220A7040F29821C2F20001EC
:1053D0000A70007806280EDBFFE740F29720C2F241
:1053E00000000021017041F21470C2F2000002219D
:1053F00080F89210FFE7FFE7FFE7FFE7704700BF85
:105400000000FA430000C84385B004904FF07E507E
:1054100003900020029001900021C4F270210091BD
:105420000399049A11600299049A51600199049AAF
:10543000916004998861049908620098049948630E
:1054400000980499086305B0704700007047000099
:1054500080B582B08DF807008DF806109DF8060023
:105460008DF805009DF806008DF804009DF80500F4
:1054700000F0F0008DF805009DF8040000018DF8A3
:1054800004009DF807009DF805109DF8042001F028
:1054900095FD02B080BD000080B584B002908DF80B
:1054A000071000208DF806000298408E4FF6FE711E
:1054B000884205DCFFE70298418E01314186FFE713
:1054C0009DF907000330062833D8DFE800F02B32BF
:1054D000143204322400029800F0F2F8029981F8A4
:1054E0003400029890F834000121012808BF0921F6
:1054F0008DF806101EE0029800F0E2F8029981F89B
:105500003400029890F834000221012808BF0A21D3
:105510008DF806100EE003208DF80600029800F0CA
:10552000F9F807E004208DF80600029800F0F2F880
:1055300000E0FFE7029890F82700B0FA80F04009F9
:105540008DF80500029890F82D10002041B9FFE772
:10555000029890F827000138B0FA80F04009FFE780
:1055600000F001008DF80400029890F8271080F8F0
:105570002D10029890F8300068B1FFE79DF8040004
:1055800020B1FFE7029800F0C5F8FFE79DF806009C
:105590008DF80F008FE00298408D012816DBFFE7A1
:1055A0000298418D013941850298408D68B9FFE725
:1055B000029890F82C00012807D1FFE705208DF80C
:1055C0000600029800F0A6F8FFE7FFE79DF8050047
:1055D00000283FD0FFE70298018D01310185029834
:1055E000018D008B814219D1FFE70298408D01287F
:1055F0000EDBFFE7029890F82C00012808D1FFE7A6
:1056000006208DF806000298012180F8301004E091
:105610000298012180F82C10FFE7FFE70298018D26
:10562000408B814215DBFFE70298C18D0131C185B6
:105630000298C18DC08BB1FBF0F202FB101038B99B
:10564000FFE702980021C18508208DF80600FFE7DA
:10565000FFE72BE09DF8040038B3FFE70298018DC7
:10566000008B81421DDBFFE70298018D408B814258
:105670000FDAFFE7029890F82C00012808D1FFE725
:105680000298408D20B9FFE70298818B4185FFE7A2
:1056900006E007208DF80600029800F03BF8FFE7CF
:1056A000FFE7029800210185FFE7FFE79DF806006C
:1056B0008DF80F00FFE79DF80F0004B080BD0000DB
:1056C00082B000900098418E008C814207DAFFE79B
:1056D00000980021418601208DF8070005E0009820
:1056E000002141868DF80710FFE79DF8070002B002
:1056F0007047000080B582B00190ADF802100198AB
:10570000BDF8021006F022F80138B0FA80F0400926
:1057100002B080BD81B00090009800210185009802
:105720004185009880F82C100098C185009880F879
:10573000301001B07047000080B582B001900020A9
:105740008DF80300019908688988FFF7D3FF40F2BC
:105750009A21C2F200010870019988688989FFF7CF
:10576000C9FF40F29B21C2F200010870019908694B
:10577000898AFFF7BFFF40F29C21C2F20001087046
:105780000878019A82F827000878019981F82600A4
:105790000198807DA8BBFFE740F29A20C2F200008A
:1057A0000078019991F82410884229D0FFE740F24F
:1057B0009A20C2F20000007888B9FFE740F29B20EF
:1057C000C2F200000078012804D1FFE701208DF823
:1057D000030003E0FF208DF80300FFE7FFE740F23E
:1057E0009A20C2F200000078019981F8240040F26A
:1057F0009B20C2F200000078019981F82500FFE7A4
:10580000CBE040F29A20C2F200000078019991F8B2
:105810002410884200F0C080FFE740F29A20C2F2D4
:1058200000000078012853D1FFE7019890F8250087
:1058300001280BD1FFE740F29B20C2F20000007864
:1058400020B9FFE701208DF8030040E0019890F8AF
:10585000250060B9FFE740F29B20C2F2000000780B
:10586000012804D1FFE7FF208DF803002EE0019806
:1058700090F8250040F29B21C2F20001097888428D
:105880000BD1FFE740F29B20C2F20000007820B964
:10589000FFE701208DF8030017E0019890F825003C
:1058A00040F29B21C2F20001097888420CD1FFE747
:1058B00040F29B20C2F200000078012804D1FFE7EB
:1058C000FF208DF80300FFE7FFE7FFE7FFE752E067
:1058D000019890F8250001280BD1FFE740F29B20AA
:1058E000C2F20000007820B9FFE7FF208DF8030026
:1058F00040E0019890F8250060B9FFE740F29B2056
:10590000C2F200000078012804D1FFE701208DF8E1
:1059100003002EE0019890F8250040F29B21C2F28E
:105920000001097888420BD1FFE740F29B20C2F2C8
:105930000000007820B9FFE7FF208DF8030017E092
:10594000019890F8250040F29B21C2F200010978ED
:1059500088420CD1FFE740F29B20C2F200000078A1
:10596000012804D1FFE701208DF80300FFE7FFE7DE
:10597000FFE7FFE7FFE740F29A20C2F2000000785D
:10598000019981F8240040F29B20C2F200000078C7
:10599000019981F82500FFE7FFE740F29C20C2F261
:1059A00000000078E8B9FFE79DF9030020B9FFE7A0
:1059B00002208DF8030013E09DF90300012804D1B3
:1059C000FFE703208DF8030009E09DF90300013093
:1059D00020B9FFE7FD208DF80300FFE7FFE7FFE7B1
:1059E000FFE79DF9030002B080BD000080B586B0DE
:1059F00041F24000C2F2000080690390FFE700F02E
:105A0000F7F904900498039988422CD2FFE7EFF34A
:105A1000108005900598029072B641F24000C2F2E3
:105A20000000806901900198039988420ED1FFE738
:105A3000049841F24001C2F2000188610869013016
:105A40000861BFF35F8F0120009002E0002000900A
:105A5000FFE7029810B9FFE762B6FFE7009808B9C0
:105A6000FFE701E008E0FFE7049903A801F066FE04
:105A70000028C4D0FFE7FFE7049806B080BD00000F
:105A800080B58CB00A900991089207930720059081
:105A9000FFE70598002863D0FFE700F011FA0490B3
:105AA000049800F03F0040F6C031C2F2000101EB63
:105AB0000010069004984FF4700101EA80300190C4
:105AC0000A980199084309994FF0805202EAD101DE
:105AD000084308994FF0005202EA910108430799E0
:105AE0004FF0804202EA5101084340F00060039009
:105AF00006980C30039900F003FA03909DF80F000C
:105B00004007002827D5FFE7039880F00040039066
:105B1000039800F000400290099820F0004002999C
:105B2000084306990860089820F00040029908434D
:105B300006994860079820F00040029908430699AA
:105B4000886006980C30039901F0D8FA00F0CEF97D
:105B500001200B9009E0FFE705980138059098E7D0
:105B600000F0BAF900200B90FFE70CB080BD0000F8
:105B700087B00590049103920498FE2804D8FFE7AB
:105B80000398FF2803D3FFE70020069036E00020AB
:105B900002900190FFE7019803282CD8FFE70598B1
:105BA0000199C840C007F0B1FFE704980090FFE7F3
:105BB00000980399884215D8FFE7009800F0070184
:105BC000012202FA01F1029A02EBD00040F6C07203
:105BD000C2F20002135C19431154FFE70098013030
:105BE0000090E5E7FFE7029820300290FFE7019878
:105BF00001300190CFE701200690FFE707B0704722
:105C000010B588B0002007900121069141F24004B0
:105C1000C2F20004207040F6C070C2F20000802181
:105C2000FEF7D7FD02F0CAFBADF81200206A42F27F
:105C30006B71CEF2A51188420FD0FFE741F2400010
:105C4000C2F2000042F26B71CEF2A5110162BDF802
:105C5000121041800121C1611CE041F24000C2F2FA
:105C600000004088BDF8121088420AD0FFE7BDF856
:105C7000120041F24001C2F2000148800120C861D7
:105C800007E041F24000C2F20000C1690131C16188
:105C9000FFE7FFE741F24000C2F20000C0690128BF
:105CA00012D1FFE741F24000C2F200000021417032
:105CB00041608160C16040F6C030C2F200004FF424
:105CC0008061FEF786FD20E000200090FFE700984D
:105CD0003F2819D8FFE7009840F6C031C2F2000112
:105CE00001EB001005900598C07B4007002806D501
:105CF000FFE70598C16821F04061C160FFE7FFE759
:105D0000009801300090E2E7FFE741F24000C2F264
:105D10000000C069012818D1FFE7AFF3008001201F
:105D20000290029820B1FFE700F066F8039002E0CD
:105D300000200390FFE7039841F24001C2F2000106
:105D4000486100208861086104E0AFF30080012011
:105D50000290FFE7029830B3FFE707980021FE2288
:105D6000FFF706FF0F20EF21EF22FFF701FF0420CE
:105D7000FE21FE22FFF7FCFEFFF738FE019001999D
:105D800041F24000C2F200004369C2694FF6007060
:105D9000C0F20030FFF774FE069818B1FFE700F07C
:105DA00005F8FFE7FFE708B010BD000010B582B0AE
:105DB00041F24000C2F20000007818B1FFE7012074
:105DC000019013E041F24000C2F20000012404708F
:105DD000FFF70CFE009000994FF60170C0F2003002
:105DE00000220023FFF74CFE0194FFE702B010BD34
:105DF00080B505F085FB80BD80B506F0ADFA80BDAD
:105E000080B540F29D20C2F20000007858B9FFE74B
:105E100040F29D20C2F200000121017040F6BF0057
:105E200006F0FCFDFFE740F20000C2F2000001684E
:105E3000013901600068002841DCFFE740F2000002
:105E4000C2F2000040F6B83101600A2004F038FCCC
:105E500041F21471C2F20001A1F85800B1F85800E3
:105E6000B0F5147F05DAFFE740F6BF0006F0D6FD77
:105E700024E041F21470C2F20000B0F85800B0F50E
:105E8000407F05DAFFE740F61F5006F0C7FD14E03B
:105E900041F21470C2F20000B0F85800B0F5547F1F
:105EA00005DAFFE741F27F1006F0B8FD04E041F2A9
:105EB000DF5006F0B3FDFFE7FFE7FFE7FFE780BD38
:105EC00080B541F24000C2F20000043001F06EFCE7
:105ED00080BD0000FFE7FEE780B541F24000C2F25E
:105EE00000000C3001F062FC80BD000080B541F282
:105EF0004000C2F20000083001F058FC80BD0000F4
:105F000087B005900491059800680390FFE79DF81D
:105F10000F004007002803D5FFE70020069033E07C
:105F20000498039901F00041084340F0806002901A
:105F3000FFE7059902980190039B019AFFE751E85A
:105F4000000F984209D1FFE7FFE741E8002303B1C2
:105F500006E0BFF35F8F012104E0BFF32F8FFFE75F
:105F60000021FFE7CA0712B9FFE70390FFE701F03E
:105F700001008DF803009DF80300C0070028C6D07B
:105F8000FFE702980690FFE7069807B07047000009
:105F9000FFE7FEE77047000086B0059004910020FF
:105FA0000390059800F0070002900298C0F10700E6
:105FB000052802D3FFE7042003E00298C0F10700A0
:105FC000FFE7019002980430062802D8FFE700207E
:105FD00002E002980338FFE700900498019901223B
:105FE00002FA01F10139084000998840039B02FA46
:105FF00001F101391940084306B0704780B541F2FC
:106000001470C2F2000090F88A00012803D1FFE763
:1060100000F0BCF8FFE780BD81B041F21470C2F21D
:10602000000000900099002081F86B00009981F831
:106030006C00009981F86E00009981F86D0000995C
:1060400081F86F00009981F87000009981F8720062
:10605000009981F87100009981F87600009981F823
:106060007700009981F878000099A1F87A000099EA
:10607000C867009A4FF47A7CA2F83CC0009A40F2BC
:10608000DC53A2F84430009A4FF4FA63A2F84C3083
:10609000009A40F6C413A2F85430009A4FF4C87323
:1060A0001387009A4FF4FA73A2F84030009A4FF425
:1060B0001671A2F8481000994FF42F72A1F85020E1
:1060C0000099022281F88420009981F885200099A6
:1060D00081F88620009981F8872000990B86009925
:1060E00041F270724A860099A1F834C00099CA86BC
:1060F00000998881009908810099CA8100994A8194
:106100000099886100990861009988620099086285
:10611000009948F20002C4F2BB52CA6100994A6178
:106120000099CA6200994A620099A1F85800009942
:1061300008660099C86500994866009981F888004A
:10614000009981F88900009981F88A00009981F806
:106150008C000099FF2281F88D20009981F882003F
:10616000009981F88320009981F88E00009981F8C8
:106170008F00009981F89100009981F892000099B0
:1061800081F8940001B070477047000010B541F2EB
:106190001470C2F2000090F87700C00720B3FFE748
:1061A00040F68230C2F2000001880131018000888F
:1061B000B0F5FA7F17DBFFE741F21474C2F2000476
:1061C000002084F8770040F68231C2F20001088096
:1061D00040F67A31C2F200010880208E218901F058
:1061E00097FBE065FFE70BE040F68230C2F200006B
:1061F0000021018041F21470C2F20000C165FFE786
:1062000041F21470C2F2000090F87800C007E8B3C1
:10621000FFE741F21470C2F2000090F88C000128F0
:1062200034D1FFE740F66A30C2F200000188013144
:1062300001800088B0F5FA7F27DBFFE740F66A307F
:10624000C2F200000021018041F21470C2F200008D
:1062500080F8781040F67832C2F200021180808E09
:106260001E280ADBFFE741F21474C2F20004A08E7C
:10627000A18901F04DFB206606E041F21470C2F2E4
:10628000000000210166FFE7FFE706E041F214701D
:10629000C2F2000000210166FFE741F21473C2F26E
:1062A0000003188E998EDA6D1B6E02F019FF10BD77
:1062B00080B540F20400C2F200000178013901709B
:1062C0000078002800F3E580FFE740F20400C2F206
:1062D000000064210170FEF7D1FF41F21470C2F298
:1062E000000090F89200F8B9FFE740F2A020C2F257
:1062F00000000021016040F2A420C2F20000002151
:10630000C4F2FA31016041F21470C2F200008169F6
:1063100040F2A822C2F200021160006940F2AC21F2
:10632000C2F2000108604BE041F21470C2F20000BA
:1063300090F8920001281FD1FFE741F21470C2F2D9
:106340000000816A40F2A022C2F200021160006ADD
:1063500040F2A421C2F20001086040F2A820C2F27B
:1063600000000021016040F2AC20C2F200000021D8
:10637000C4F2FA31016022E041F21470C2F200006E
:10638000016A40F2A422C2F200021160016940F2E7
:10639000AC22C2F200021160816A40F2A022C2F275
:1063A0000002116090ED060A90ED0A1A30EE410AE3
:1063B00040F2A820C2F2000080ED000AFFE7FFE7EC
:1063C00040F2A820C2F2000090ED000AB5EE400AAB
:1063D000F1EE10FA07DAFFE740F2A820C2F200005F
:1063E00000210160FFE740F2AC20C2F2000090ED16
:1063F000000AB5EE400AF1EE10FA07DAFFE740F2C4
:10640000AC20C2F2000000210160FFE740F2A020B2
:10641000C2F2000090ED000AB5EE400AF1EE10FA6B
:1064200007DAFFE740F2A020C2F20000002101607D
:10643000FFE740F2A420C2F2000090ED000AB5EEA2
:10644000400AF1EE10FA07DAFFE740F2A420C2F2A8
:10645000000000210160FFE740F2A820C2F2000026
:1064600090ED000A40F2AC20C2F20000D0ED000A2C
:1064700007F08EFA40F2A020C2F2000090ED000A70
:1064800040F2A420C2F20000D0ED000A06F056FF50
:10649000FFE780BD80B582B041F20810C2F2000073
:1064A00001900198013007F047F9019981F8010145
:1064B000019890F8010116286AD1FFE70198407809
:1064C000D12806D1FFE70198807DF02801D1FFE7B0
:1064D00000E058E00199481C01F5017101F0FCFE53
:1064E000019800F5017001F0AFFF009001F0CEFFC0
:1064F0000198807C9DF80310884243D1FFE7019802
:10650000C07C9DF8021088423CD1FFE70198007DD5
:106510009DF80110884235D1FFE70198407D9DF834
:10652000001088422ED1FFE701988078012810D111
:10653000FFE70198C07801280BD1FFE70198407967
:1065400038B9FFE741F20C70C2F20000002101707F
:1065500017E001988078022810D1FFE70198C078F1
:1065600001280BD1FFE70198407938B9FFE741F2E4
:106570000C70C2F200000121017001E000BFFFE7D2
:10658000FFE7FFE7FFE70198002180F80111FFE72F
:1065900002B080BD7047000080B582B0ADF8060043
:1065A00000208DF8030041F21470C2F2000090F850
:1065B0006C00002800F0B581FFE741F21470C2F2D0
:1065C000000090F86C000138032800F2A881DFE891
:1065D00010F004006E00D6003E0141F21470C2F2C9
:1065E000000090F8700000F00100012809D0FFE7DA
:1065F00041F21470C2F2000090F87400C007B8B302
:10660000FFE700208DF80500FFE79DF8050003284F
:106610002DDCFFE7BDF806009DF8051004F01CFA1C
:106620008DF804009DF804004EF2B161C0F600013F
:10663000085C8DF804009DF8050038B9FFE79DF867
:10664000040040F002008DF80400FFE79DF805000B
:10665000082101EB40009DF80410C0B2FEF7F8FEDF
:10666000FFE79DF8050001308DF80500CDE71DE03E
:1066700041F21470C2F2000090F87000C007A0B997
:10668000FFE741F21470C2F2000090F87400C007F6
:1066900058B9FFE700208DF804009DF8040040F091
:1066A00002010820FEF7D4FEFFE7FFE738E141F2E0
:1066B0001470C2F2000090F8700000F00100012890
:1066C00009D0FFE741F21470C2F2000090F87400A4
:1066D000C007B8B3FFE700208DF80500FFE79DF87D
:1066E000050003282DDCFFE7BDF806009DF8051026
:1066F00004F0B2F98DF804009DF804004EF2B16187
:10670000C0F60001085C8DF804009DF8050038B95A
:10671000FFE79DF8040040F002008DF80400FFE759
:106720009DF80500082101EB40009DF80410C0B25F
:10673000FEF78EFEFFE79DF8050001308DF805009D
:10674000CDE71BE041F21470C2F2000090F8700037
:10675000C00790B9FFE741F21470C2F2000090F850
:106760007400C00748B9FFE700208DF804009DF8C9
:1067700004100A20FEF76CFEFFE7FFE7D0E041F2CD
:106780001470C2F2000090F8700000F001000128BF
:1067900009D0FFE741F21470C2F2000090F87400D3
:1067A000C007B8B3FFE700208DF80500FFE79DF8AC
:1067B000050003282DDCFFE7BDF806009DF8051055
:1067C00004F04AF98DF804009DF804004EF2B1611E
:1067D000C0F60001085C8DF804009DF8050038B98A
:1067E000FFE79DF8040040F002008DF80400FFE789
:1067F0009DF80500082101EB40009DF80410C0B28F
:10680000FEF726FEFFE79DF8050001308DF8050034
:10681000CDE71BE041F21470C2F2000090F8700066
:10682000C00790B9FFE741F21470C2F2000090F87F
:106830007400C00748B9FFE700208DF804009DF8F8
:1068400004100C20FEF704FEFFE7FFE768E041F2CA
:106850001470C2F2000090F8700000F001000128EE
:1068600009D0FFE741F21470C2F2000090F8740002
:10687000C007B8B3FFE700208DF80500FFE79DF8DB
:10688000050003282DDCFFE7BDF806009DF8051084
:1068900004F0E2F88DF804009DF804004EF2B161B6
:1068A000C0F60001085C8DF804009DF8050038B9B9
:1068B000FFE79DF8040040F002008DF80400FFE7B8
:1068C0009DF80500082101EB40009DF80410C0B2BE
:1068D000FEF7BEFDFFE79DF8050001308DF80500CD
:1068E000CDE71BE041F21470C2F2000090F8700096
:1068F000C00790B9FFE741F21470C2F2000090F8AF
:106900007400C00748B9FFE700208DF804009DF827
:1069100004100E20FEF79CFDFFE7FFE700E0FFE715
:1069200036E000208DF80500FFE79DF805000328FC
:106930002DDCFFE7BDF806009DF8051004F08CF88B
:106940008DF804009DF804004EF2B161C0F600011C
:10695000085C8DF804009DF8050038B9FFE79DF844
:10696000040040F002008DF80400FFE79DF80500E8
:10697000082101EB40009DF80410C0B2FEF768FD4D
:10698000FFE79DF8050001308DF80500CDE7FFE732
:1069900002B080BD80B582B0ADF8060000208DF851
:1069A000020041F21470C2F2000090F86B0000285F
:1069B00000F0B081FFE741F21470C2F2000090F8DD
:1069C0006B000138032800F2A381DFE810F0040017
:1069D0006A00D3003A0141F21470C2F2000090F84C
:1069E0006F0000F00100012809D0FFE741F21470A8
:1069F000C2F2000090F87300C007B0B3FFE70020B8
:106A00008DF80400FFE79DF8040003282CDCFFE765
:106A1000BDF806009DF8041004F01EF88DF8030080
:106A20009DF803004EF2B161C0F60001085C8DF8DC
:106A300003009DF80400012807D1FFE79DF803003B
:106A400040F002008DF80300FFE79DF804004000CD
:106A50009DF80310C0B2FEF7FBFCFFE79DF80400B1
:106A600001308DF80400CEE7FFE741F21470C2F266
:106A7000000090F86F00C00790B9FFE741F2147072
:106A8000C2F2000090F87300C00748B9FFE7002089
:106A90008DF803009DF803100020FEF7D9FCFFE7F6
:106AA00037E141F21470C2F2000090F86F0000F07C
:106AB0000100012809D0FFE741F21470C2F2000082
:106AC00090F87300C007B0B3FFE700208DF8040012
:106AD000FFE79DF8040003282CDCFFE7BDF8060063
:106AE0009DF8041003F0B8FF8DF803009DF8030033
:106AF0004EF2B161C0F60001085C8DF803009DF80C
:106B00000400012807D1FFE79DF8030040F00200D0
:106B10008DF80300FFE79DF8040040009DF8031086
:106B2000C0B2FEF795FCFFE79DF8040001308DF838
:106B30000400CEE71DE041F21470C2F2000090F8AC
:106B40006F00C007A0B9FFE741F21470C2F2000065
:106B500090F87300C00758B9FFE700208DF80300D4
:106B60009DF8030040F002010220FEF771FCFFE7F0
:106B7000FFE7CEE041F21470C2F2000090F86F001F
:106B800000F00100012809D0FFE741F21470C2F2C1
:106B9000000090F87300C007B0B3FFE700208DF845
:106BA0000400FFE79DF8040003282CDCFFE7BDF894
:106BB00006009DF8041003F04FFF8DF803009DF8C8
:106BC00003004EF2B161C0F60001085C8DF80300CD
:106BD0009DF80400012807D1FFE79DF8030040F06D
:106BE00002008DF80300FFE79DF8040040009DF8C7
:106BF0000310C0B2FEF72CFCFFE79DF80400013043
:106C00008DF80400CEE71BE041F21470C2F20000E0
:106C100090F86F00C00790B9FFE741F21470C2F21C
:106C2000000090F87300C00748B9FFE700208DF816
:106C300003009DF803100420FEF70AFCFFE7FFE7BE
:106C400067E041F21470C2F2000090F86F0000F0AB
:106C50000100012809D0FFE741F21470C2F20000E0
:106C600090F87300C007B0B3FFE700208DF8040070
:106C7000FFE79DF8040003282CDCFFE7BDF80600C1
:106C80009DF8041003F0E8FE8DF803009DF8030062
:106C90004EF2B161C0F60001085C8DF803009DF86A
:106CA0000400012807D1FFE79DF8030040F002002F
:106CB0008DF80300FFE79DF8040040009DF80310E5
:106CC000C0B2FEF7C5FBFFE79DF8040001308DF868
:106CD0000400CEE71BE041F21470C2F2000090F80D
:106CE0006F00C00790B9FFE741F21470C2F20000D4
:106CF00090F87300C00748B9FFE700208DF8030043
:106D00009DF803100620FEF7A3FBFFE7FFE700E076
:106D1000FFE735E000208DF80500FFE79DF805004E
:106D200003282CDCFFE7BDF806009DF8051003F0F2
:106D300093FE8DF803009DF803004EF2B161C0F69A
:106D40000001085C8DF803009DF80500012807D1BB
:106D5000FFE79DF8030040F002008DF80300FFE715
:106D60009DF8050040009DF80310C0B2FEF770FBCF
:106D7000FFE79DF8050001308DF80500CEE7FFE73D
:106D800002B080BD80B502F009FC41F21470C2F27D
:106D9000000090F86B0088B9FFE741F21470C2F26E
:106DA000000090F86C0048B9FFE741F21470C2F29D
:106DB000000090F87600C00750B3FFE740F20600ED
:106DC000C2F20000018801390180008800281EDC21
:106DD000FFE740F20600C2F200006421018041F2A8
:106DE0001470C2F2000090F86F10012222EA010133
:106DF00080F86F1090F8701022EA010180F870108E
:106E000090F8751022EA010180F87510FFE7FFE79E
:106E100041F6A000C2F200000068804700F03EF991
:106E200007F02EFB80BD00004EF68850CEF2000029
:106E3000016841F47001016041F20000C4F20200F7
:106E4000016841F001010160FFE741F20000C4F276
:106E500002000068C0F34000012801D0FFE7F4E71A
:106E600041F20400C4F20200016821F00301016054
:106E7000FFE741F20400C4F20200006880088007C6
:106E800008B1FFE7F5E741F20000C4F20200016833
:106E90004FF6FF72CFF6F2621140016041F204003A
:106EA000C4F202000021016041F23000C4F202008D
:106EB000016041F20800C4F202004FF41F010160BA
:106EC0004EF60850CEF200004FF0006101607047AE
:106ED00080B582B000208DF8070005F03BFDE4206E
:106EE00005F0A0FC802005F09DFCA02005F09AFC98
:106EF0009A2005F097FC812005F094FC832005F092
:106F000091FCBF2005F08EFC882005F08BFC05F07D
:106F100047FD0A2002F0B6FA00F002F802B080BD88
:106F200010B582B000248DF807408DF806408DF82A
:106F3000054030208DF804008DF8034005F00AFD6F
:106F4000E42005F06FFC9DF8070005F06BFC8DF860
:106F50000340FFE79DF803009DF8041088420FDA14
:106F6000FFE79DF8060005F05DFC9DF8050005F0C3
:106F700059FCFFE79DF8030001308DF80300E9E7B5
:106F800005F00EFD02B010BD80B582B08DF807008F
:106F90008DF8061005F0DEFCE42005F043FC9DF8BA
:106FA000070005F03FFC9DF8060005F089FCFDF7A1
:106FB00099FC05F0F5FC02B080BD000080B582B000
:106FC0008DF807008DF806108DF8052005F0C2FC3D
:106FD000E42005F027FC9DF8070005F023FC9DF850
:106FE000060005F06DFC9DF8050005F069FCFDF755
:106FF00079FC05F0D5FC02B080BD000010B582B070
:1070000043F60C00C4F2010000684009C007A8B1B3
:10701000FFE7202006F06AFA78B1FFE706F01EFAD3
:10702000C1B241F63004C2F20004204605F0EAFA8B
:107030000420207301206073FFE7FFE743F60C0094
:10704000C4F2010000688009C00720B3FFE74020B8
:1070500006F04CFAF0B1FFE706F02EFA41F63000E8
:10706000C2F2000010300DF1070105F0A7FA48B98F
:10707000FFE79DF8071043F60000C4F2010006F098
:10708000F9F906E041F63000C2F200000021417734
:10709000FFE7FFE7FFE702B010BD000041F6300058
:1070A000C2F20000407B012817D1FFE741F6300013
:1070B000C2F20000007B40B1FFE741F63000C2F2AF
:1070C0000000017B0139017306E041F63000C2F295
:1070D000000002214173FFE7FFE741F63000C2F2F2
:1070E0000000007F40B1FFE741F63000C2F200002F
:1070F000017F01390177FFE77047000085B00490F8
:107100000391039820F08060029004980299019105
:107110000199BFF35F8FFFE750E8002F40E80013AD
:10712000002BF9D1FFE7009205B07047FFE7FEE7BB
:107130004EF60C50CEF200000068C0F302207047FB
:1071400082B08DF8070000919DF9070000280AD44D
:10715000FFE7009800019DF907104EF20042CEF2C1
:10716000000288540BE0009800019DF8071001F020
:107170000F014EF61452CEF200028854FFE702B01F
:107180007047000083B00290029800F00700009062
:107190004EF60C50CEF200000168019101994FF6B5
:1071A000FF02114001910199009A41EA0221002257
:1071B000C0F2FA52114301910199016003B0704786
:1071C000BFF34F8F4EF60C50CEF20000016801F471
:1071D000E0610422C0F2FA5211430160BFF34F8F05
:1071E000FFE700BFFDE7000080B504F057FB80BD5E
:1071F00082B042F20041C4F2010101910090009876
:10720000007801994A6800F0010022F4807242EA95
:10721000002048600098407801998A6800F00100D9
:1072200022F0020242EA40008860009880780199CA
:107230008A6800F0010022F4006242EAC0208860FF
:107240000098C07801380199CA6A00F00F0022F452
:10725000700242EA0050C86202B0704781B00090EC
:10726000009800210170009841700098817000988A
:107270000121C17001B0704781B042F20040C4F2F8
:10728000010000900098816841F00801816001B020
:107290007047000082B042F20040C4F2010000904A
:1072A00000988068C008C00720B1FFE701208DF872
:1072B000070003E000208DF80700FFE79DF80700B6
:1072C00002B0704781B042F20040C4F20100009069
:1072D0000098816841F00401816001B070470000AE
:1072E00082B042F20040C4F2010000900098806831
:1072F0008008C00720B1FFE701208DF8070003E0F8
:1073000000208DF80700FFE79DF8070002B07047E6
:1073100081B000208DF803009DF8030042F2044183
:10732000C4F201010A6800F00F0022F4702242EA60
:107330000040086001B0704782B042F20040C4F2E1
:107340000100019001208DF803009DF803000199D0
:107350008A6860F300028A6002B0704782B042F22D
:107360000040C4F20100019002208DF803000020CB
:107370008DF80200019800689DF80310084204D1BE
:10738000FFE700208DF8020003E001208DF80200E5
:10739000FFE79DF8020002B07047000083B042F2A0
:1073A0000041C4F2010102918DF8070001208DF81F
:1073B000060007208DF805009DF8070009281CDC51
:1073C000FFE70298006900909DF8070000EB40007D
:1073D000072101FA00F0009921EA000000909DF8D1
:1073E00005009DF8071001EB410188400099084312
:1073F00000900098029908611DE00298C068009012
:107400009DF8070000EB40001E38072101FA00F04C
:10741000009921EA000000909DF805009DF80710F2
:1074200001EB41011E398840009908430090009803
:107430000299C860FFE79DF806000D281EDBFFE7F4
:107440000298C06A00909DF8060000EB8000413869
:107450001F2101FA00F0009921EA000000909DF838
:1074600007009DF8061001EB810141398840009921
:107470000843009000980299C86241E09DF8060018
:1074800007281EDBFFE70298006B00909DF80600BE
:1074900000EB800023381F2101FA00F0009921EA57
:1074A000000000909DF807009DF8061001EB810197
:1074B0002339884000990843009000980299086396
:1074C0001DE00298406B00909DF8060000EB8000E4
:1074D00005381F2101FA00F0009921EA0000009010
:1074E0009DF807009DF8061001EB810105398840E1
:1074F000009908430090009802994863FFE7FFE76E
:1075000003B0704781B042F20040C4F20100009025
:107510000098C06C80B201B07047000082B042F2A7
:107520000040C4F20100019007208DF80300012003
:107530008DF802009DF80300082811DBFFE7019891
:10754000816841F0007181609DF8030000F0070040
:1075500001998A6822F4602242EA4040886010E083
:107560000198816821F0007181609DF8030000F0AE
:10757000070001998A6822F4602242EA404088604C
:10758000FFE79DF8020001998A6800F0010022F4EB
:10759000801242EA0050886002B0704782B042F226
:1075A0000040C4F20100019000208DF803009DF816
:1075B000030001994A6800F0010022F4006242EAE7
:1075C000C020486002B0704782B042F20040C4F26E
:1075D0000100019001208DF803009DF8030001993E
:1075E0008A6800F0010022F4800242EA805088603C
:1075F00002B0704784B003908DF80B1041F28830D0
:10760000ADF808000120ADF8060041F21470C2F296
:107610000000808E00909DF80B00C007B0B1FFE71E
:1076200003980099084400900098BDF8081088421B
:107630000BD9FFE7BDF80800009041F21470C2F2C8
:10764000000041F27071C186FFE718E00098BDF8B4
:107650000610039A114488420BD8FFE7BDF80600D4
:10766000009041F21470C2F2000041F27071C186C4
:1076700004E003980099081A0090FFE7FFE70098DC
:1076800041F21471C2F20001888604B07047000014
:1076900084B003908DF80B1041F21470C2F2000018
:1076A00090F8681001F0010140F6B832012908BFD6
:1076B0004FF45272ADF808200121ADF80610008E8B
:1076C00000909DF80B00C007B0B1FFE70398009948
:1076D000084400900098BDF8081088420BD9FFE7D5
:1076E000BDF80800009041F21470C2F2000041F2AF
:1076F00070714186FFE718E00098BDF80610039A04
:10770000114488420BD8FFE7BDF80600009041F213
:107710001470C2F2000041F27071418604E00398D7
:107720000099081A0090FFE7FFE7009841F21471F2
:10773000C2F20001088604B07047000085B041F233
:107740004002C2F200021832049203900291049A9D
:10775000DDF80CC002980190DCF80000019BFFE707
:1077600052E8001F81420BD1FFE7BFF35F8FFFE7B5
:1077700042E8003000B106E0BFF35F8F012204E071
:10778000BFF32F8FFFE70022FFE7D00718B9FFE70D
:10779000CCF80010FFE702F001008DF803009DF81F
:1077A000030000F0010005B07047000083B00290B4
:1077B000029801210191DDF804C0FFE750E8002F95
:1077C00002EB0C0340E800310029F7D1FFE70092FB
:1077D000009803B07047000080B541F21470C2F207
:1077E000000090F8890018B9FFE7FDF7A5FA10E04E
:1077F00041F21470C2F2000090F88900012807D10C
:10780000FFE740F22010C2F20000C0688047FFE7A7
:10781000FFE741F21470C2F2000090F87600C00752
:1078200080B3FFE740F2B520C2F2000001780131D9
:1078300001700078102824DBFFE740F2B520C2F287
:1078400000000021017040F2B420C2F20000007874
:1078500005280EDCFFE740F2B420C2F200000178F8
:107860000131017040F22010C2F20000012141718B
:1078700006E040F22010C2F2000002214171FFE751
:10788000FFE70BE040F2B520C2F2000000210170DA
:1078900040F2B420C2F200000170FFE741F2147020
:1078A000C2F2000090F89400C0B1FFE740F20C0073
:1078B000C2F20000017801390170007868B9FFE771
:1078C00040F20C00C2F200002821017040F22010AA
:1078D000C2F2000001214171FFE7FFE780BD000017
:1078E00080B540F60000C4F201004FF4805103F06F
:1078F00063FE80BD80B540F60000C4F201004FF485
:10790000805103F063FE80BD80B5FFF765FF80BD49
:1079100082B0ADF80600ADF80410BDF80600BDF861
:107920000410401A0090009802B0704741F21470A1
:10793000C2F20000008E40F6B831884208DCFFE752
:1079400041F21470C2F20000008E002808DCFFE74C
:1079500041F21470C2F200004FF4FA710186FFE7A1
:1079600041F21470C2F20000808E41F288318842E8
:1079700008DCFFE741F21470C2F20000808E00289C
:1079800008DCFFE741F21470C2F200004FF47A7194
:107990008186FFE741F21470C2F20000008F40F6CA
:1079A000B831884208DCFFE741F21470C2F20000EF
:1079B000008F002808DCFFE741F21470C2F20000DB
:1079C0004FF4C8710187FFE741F21470C2F2000062
:1079D000808F41F28831884208DCFFE741F2147061
:1079E000C2F20000808F002808DCFFE741F214702B
:1079F000C2F200004FF47A718187FFE741F2147000
:107A0000C2F2000090F88400D0B1FFE741F2147098
:107A1000C2F2000090F88400022811D0FFE741F282
:107A20001470C2F2000090F88400012808D0FFE72B
:107A300041F21470C2F20000022180F88410FFE7C6
:107A400041F21470C2F20000B0F8400040F6B831C4
:107A5000884209DCFFE741F21470C2F20000B0F87E
:107A60004000002809DCFFE741F21470C2F2000078
:107A70004FF4C871A0F84010FFE741F21470C2F251
:107A80000000B0F8440041F28831884209DCFFE789
:107A900041F21470C2F20000B0F84400002809DC82
:107AA000FFE741F21470C2F200004FF47A71A0F8BF
:107AB0004410FFE741F21470C2F2000090F8850014
:107AC000D0B1FFE741F21470C2F2000090F88500D7
:107AD000022811D0FFE741F21470C2F2000090F8C2
:107AE0008500012808D0FFE741F21470C2F20000BF
:107AF000022180F88510FFE741F21470C2F2000005
:107B0000B0F8480040F6B831884209DCFFE741F29E
:107B10001470C2F20000B0F84800002809DCFFE74A
:107B200041F21470C2F200004FF4C871A0F848107E
:107B3000FFE741F21470C2F20000B0F84C0041F2CD
:107B40008831884209DCFFE741F21470C2F200007C
:107B5000B0F84C00002809DCFFE741F21470C2F2D3
:107B600000004FF47A71A0F84C10FFE741F2147056
:107B7000C2F2000090F88600D0B1FFE741F2147025
:107B8000C2F2000090F88600022811D0FFE741F20F
:107B90001470C2F2000090F88600012808D0FFE7B8
:107BA00041F21470C2F20000022180F88610FFE753
:107BB00041F21470C2F20000B0F8500040F6B83143
:107BC000884209DCFFE741F21470C2F20000B0F80D
:107BD0005000002809DCFFE741F21470C2F20000F7
:107BE0004FF4C871A0F85010FFE741F21470C2F2D0
:107BF0000000B0F8540041F28831884209DCFFE708
:107C000041F21470C2F20000B0F85400002809DC00
:107C1000FFE741F21470C2F200004FF47A71A0F84D
:107C20005410FFE741F21470C2F2000090F8870090
:107C3000D0B1FFE741F21470C2F2000090F8870063
:107C4000022811D0FFE741F21470C2F2000090F850
:107C50008700012808D0FFE741F21470C2F200004B
:107C6000022180F88710FFE741F21470C2F2000091
:107C700090F88200D0B1FFE741F21470C2F2000028
:107C800090F88200022811D0FFE741F21470C2F28E
:107C9000000090F88200012808D0FFE741F214703C
:107CA000C2F20000002180F88210FFE741F2147058
:107CB000C2F2000090F86800C00798B1FFE741F2F7
:107CC0001470C2F2000090F8680000F00100012872
:107CD00008D0FFE741F21470C2F20000002180F8E2
:107CE0006810FFE741F21470C2F2000090F86900DA
:107CF000C00798B1FFE741F21470C2F2000090F89B
:107D0000690000F00100012808D0FFE741F214707B
:107D1000C2F20000002180F86910FFE741F2147000
:107D2000C2F2000090F8880088B1FFE741F21470B9
:107D3000C2F2000090F88800012808D0FFE741F265
:107D40001470C2F20000002180F88810FFE741F2B1
:107D50001470C2F2000090F88900012810D0FFE7EB
:107D600041F21470C2F2000090F8890040B1FFE7C0
:107D700041F21470C2F20000002180F88910FFE780
:107D80007047000080B582B004F0D6FA01910090EF
:107D900004F0B2FB80B1FFE704F0CEFA019100904D
:107DA00004F0E0FA009A019B80185941013041F13A
:107DB000000100900191FFE70098019902B080BD99
:107DC00010B582B001AC00200190ADF8020040F285
:107DD0008010C2F2000004F0CFF8FCF719FD41EC6E
:107DE000100B9FED351B53EC112B51EC100BFCF7D6
:107DF0003FFB41EC100B51EC100B9FED310B53ECA2
:107E0000102BFCF71CFA41EC100B51EC100BFCF79B
:107E100055FC019094ED000AB5EE400AF1EE10FA1F
:107E200003DCFFE700200190FFE794ED000A9FEDDF
:107E30002A1AB4EE410AF1EE10FA06DDFFE744F229
:107E40000000C4F29C500190FFE794ED000AB5EEEB
:107E5000400AF1EE10FA14DBFFE70198FCF704FD8D
:107E600041EC100B9FED1A1B53EC112B51EC100B36
:107E7000FCF7E5F941EC100B51EC100BFCF7D5FCCD
:107E800013E00198FCF7F0FC41EC100B9FED0E1B8A
:107E900053EC112B51EC100BFCF7D1F941EC100B0A
:107EA00051EC100BFCF7C1FCFFE7ADF80200BDF888
:107EB000020002B010BD00BF6891ED7C3F35EA3F83
:107EC000000000000000F0BF000000000000E0BF64
:107ED000000000000000E03F00409C4510B500F0AD
:107EE00083F941F21474C2F200042081FFF768FFA5
:107EF000A08100F005F810BD80B5FFF7EFFF80BD51
:107F000080B540F6B820C2F2000001680139016076
:107F10000068002800F35981FFE740F6B820C2F25C
:107F20000000322101600F2002F0CAFB00EE100AAF
:107F3000B8EE400A40F6C020C2F2000080ED000A10
:107F400090ED000AB5EE400AF1EE10FA18DBFFE7FB
:107F500040F6C020C2F200000068FCF785FC41EC4E
:107F6000100B9FED9D1B53EC112B51EC100BFCF7EC
:107F700066F941EC100B51EC100BFCF756FC17E0C6
:107F800040F6C020C2F200000068FCF76DFC41EC36
:107F9000100B9FED8F1B53EC112B51EC100BFCF7CA
:107FA0004EF941EC100B51EC100BFCF73EFCFFE7D7
:107FB00000EE100AB8EEC00A41F21470C2F20000DE
:107FC00080ED080A40F2C410C2F2000003F0D4FFB2
:107FD000073800EE100AB8EE400A40F6BC20C2F2A4
:107FE000000080ED000A90ED000AB5EE400AF1EEC7
:107FF00010FA18DBFFE740F6BC20C2F20000006870
:10800000FCF732FC41EC100B9FED731B53EC112B72
:1080100051EC100BFCF713F941EC100B51EC100B69
:10802000FCF703FC17E040F6BC20C2F20000006839
:10803000FCF71AFC41EC100B9FED651B53EC112B68
:1080400051EC100BFCF7FBF841EC100B51EC100B52
:10805000FCF7EBFBFFE700EE100AB8EEC00A41F2B6
:108060001470C2F2000080ED0A0A40F20820C2F249
:10807000000003F081FF013800EE100AB8EE400A5C
:1080800040F6C420C2F2000080ED000A90ED000A24
:10809000B5EE400AF1EE10FA18DBFFE740F6C42017
:1080A000C2F200000068FCF7DFFB41EC100B9FED13
:1080B0004A1B53EC112B51EC100BFCF7C0F841ECB0
:1080C000100B51EC100BFCF7B0FB17E040F6C4208E
:1080D000C2F200000068FCF7C7FB41EC100B9FEDFB
:1080E0003C1B53EC112B51EC100BFCF7A8F841ECA6
:1080F000100B51EC100BFCF798FBFFE700EE100A99
:10810000B8EEC00A41F21470C2F2000080ED060A17
:10811000092002F0D5FAFCF77BFB41EC100B9FED38
:10812000301B53EC112B51EC100BFCF72FF941ECE9
:10813000100B51EC100BFCF7C1FA40F6C821C2F24B
:108140000001086091ED000AB5EE400AF1EE10FA68
:1081500018DBFFE740F6C820C2F200000068FCF719
:1081600083FB41EC100B9FED1C1B53EC112B51ECCE
:10817000100BFCF764F841EC100B51EC100BFCF702
:1081800054FB17E040F6C820C2F200000068FCF77C
:108190006BFB41EC100B9FED0E1B53EC112B51ECC4
:1081A000100BFCF74CF841EC100B51EC100BFCF7EA
:1081B0003CFBFFE700EE100AB8EEC00A41F2147073
:1081C000C2F2000080ED040AFFE780BD00BF00BFDF
:1081D000000000000000E0BF000000000000E03FE1
:1081E0008FC2F5285C8FEE3F80B582B000200190F1
:1081F000ADF8020040F24C20C2F2000003F0BCFED9
:10820000FCF706FB41EC100B9FED2D1B53EC112BE3
:1082100051EC100BFCF72CF941EC100B51EC100B4E
:10822000FCF74CFA01909DED010AB5EE400AF1EE23
:1082300010FA14DBFFE70198FCF716FB41EC100B7A
:108240009FED231B53EC112B51EC100BFBF7F7FFA9
:1082500041EC100B51EC100BFCF7E7FA13E001981E
:10826000FCF702FB41EC100B9FED171B53EC112B9D
:1082700051EC100BFBF7E3FF41EC100B51EC100B32
:10828000FCF7D3FAFFE7ADF80200BDF8020040F6B4
:10829000B931884205DBFFE740F6B830ADF802009F
:1082A000FFE7BDF80200002804DCFFE70020ADF87E
:1082B0000200FFE7BDF8020002B080BD00BF00BFB2
:1082C000D7A3703D0AD7F53F000000000000E0BFD3
:1082D000000000000000E03F8BB0099008910120F1
:1082E000079010200690099818B1FFE7089818B970
:1082F000FFE700200A905EE007980699884203D9BC
:10830000FFE700200A9056E006980799401A0130CE
:108310000590099807990844049000200290039062
:10832000FFE703980599B0EB910F11D2FFE704988E
:10833000006800BA0899029A531C029341F822007F
:10834000049804300490FFE7039801300390E8E7B5
:108350009DF81400800758B3FFE7002001900599AD
:1083600001F003018DF803108DF80200FFE79DF87E
:1083700002009DF80310884212DAFFE704989DF886
:108380000210405C1822A2EBC10188400199084309
:108390000190FFE79DF8020001308DF80200E6E74A
:1083A00001980899029A531C029341F82200FFE7B2
:1083B00002980A90FFE70BB07047000084B04EF2BD
:1083C0006C60C0F600000390182002904FF6FF701A
:1083D000ADF80600FFE7029890B3FFE70398411C51
:1083E00003910078BDF8061081EA0020ADF8060080
:1083F00008200090FFE70098F0B1FFE7BDF8060005
:10840000000400280DD5FFE7BDF806004000ADF8D8
:108410000600BDF8060041F221014840ADF8060013
:1084200005E0BDF806004000ADF80600FFE7FFE7F5
:10843000009801380090DEE7029801380290CAE700
:10844000BDF8060004B0704783B00290042001908C
:10845000002000900090FFE70098019988420ED21A
:10846000FFE70298009950F8210043F20001C4F29E
:1084700002010860FFE7009801300090ECE743F24A
:108480000000C4F20200006803B0704743F2080025
:10849000C4F20200016841F0010101607047000070
:1084A00081B04FF0FF300090009843F21001C4F209
:1084B0000201086001B0704781B000208DF8030010
:1084C0009DF8030043F20801C4F202010A6800F0BB
:1084D000030022F0180242EAC000086001B07047B1
:1084E00081B041F6B750C0F2C1400090009843F20D
:1084F0001401C4F20201086001B0704781B000208D
:108500008DF803009DF8030043F20801C4F2020154
:108510000A6800F0030022F0600242EA401008609E
:1085200001B0704781B000208DF803009DF8030072
:1085300043F20801C4F202010A6800F0010022F0CF
:10854000800242EAC010086001B0704781B001208B
:108550008DF803009DF8030000F0030041F20401D0
:10856000C4F202010A6822F4404242EA8030086004
:108570009DF803000A68800860F31C720A6001B06D
:108580007047000081B000208DF803009DF80300C3
:1085900041F20401C4F202010A6800F00F0022F067
:1085A000F00242EA0010086001B0704781B0042078
:1085B0008DF803009DF8030041F20401C4F20201AA
:1085C0000A6800F0070022F4E06242EA0020086036
:1085D00001B0704781B004208DF803009DF80300BE
:1085E00041F20401C4F202010A6800F0070022F41B
:1085F000605242EAC020086001B0704781B08DF837
:1086000003009DF80300012809D1FFE741F254005F
:10861000C4F20200016841F03001016008E041F25B
:108620005400C4F20200016821F030010160FFE74C
:1086300001B0704781B08DF8030001208DF8020071
:108640009DF80300042843D8DFE800F0030E1D2C3A
:1086500037009DF8020041F20001C4F202010A68ED
:1086600060F300020A6034E09DF8020041F200016C
:10867000C4F202010A6800F0010022F4803242EAEA
:108680000040086025E09DF8020041F20001C4F2BC
:1086900002010A6800F0010022F0807242EA0060E4
:1086A000086016E09DF8020041F22001C4F20201C8
:1086B0000A6860F300020A600BE09DF8020041F2D4
:1086C0002401C4F202010A6860F300020A6000E0BB
:1086D000FFE701B07047000080B588B00790002028
:1086E00006900590049003900290019000F024FA07
:1086F0008DF803009DF8030030B1FFE7012824D076
:10870000FFE7022828D07EE041F25400C4F20200C4
:108710000068400AC00780B1FFE741F23000C4F2B0
:1087200002000068400EC00738B1FFE7079846F620
:108730000041C0F2DC21016006E0079841F200210F
:10874000C0F27A010160FFE764E0079841F200217E
:10875000C0F27A0101605DE041F20400C4F202005F
:108760000168C1F3004103910168C1F383410591A0
:108770000068C0F341700490049820B9FFE70598A1
:108780000F2807D1FFE70498059901EB001001308D
:10879000059003E0059802300590FFE7039848B97B
:1087A000FFE7059840F60011C0F23D0148430799E4
:1087B000086027E041F20400C4F202000068400CA7
:1087C000C007A8B1FFE741F25400C4F202000068FC
:1087D000C0F3013006900698023041F20021C0F249
:1087E0007A01B1FBF0F0059948430799086008E069
:1087F000059841F20021C0F27A01484307990860C8
:10880000FFE7FFE706E0079841F20021C0F27A0196
:108810000160FFE741F20400C4F202000168C1F305
:108820000311029102994EF28462C0F60002515C7B
:10883000019107990A68019BDA404A600168C1F317
:108840000221029102994EF2946CC0F6000C1CF8C1
:108850000110019107994B68019A23FA02F2CA604C
:108860000168C1F3C221029102991CF80110019123
:1088700007994A68019BDA408A600168C1F3007178
:10888000029102990068C0F3813040EA81000290B1
:1088900002984EF29C61C0F60001085C01900798B6
:1088A0008168019AB1FBF2F1016108B080BD00005E
:1088B00082B0019000208DF80300BDF8060041F25F
:1088C0000001C4F202014058019901F01F01C840A3
:1088D000C00720B9FFE700208DF8030003E0012066
:1088E0008DF80300FFE79DF8030002B07047000019
:1088F00080B582B0002001908DF80300FFE71120C1
:10890000FFF7D6FF0021012807D0FFE701980021DB
:10891000B0F5405F38BF0121FFE7C80720B1FFE78E
:10892000019801300190EAE71120FFF7C1FF01280B
:1089300004D0FFE700208DF8030003E001208DF84C
:108940000300FFE79DF8030002B080BD82B00190F4
:1089500001208DF803009DF8030001280FD1FFE7E7
:10896000019800F01F01012202FA01F1000C41F20E
:108970000002C4F202028358194381500FE00198AB
:1089800000F01F01012202FA01F1000C41F2000285
:10899000C4F20202835823EA01018150FFE702B0CA
:1089A0007047000081B001208DF8030018218DF878
:1089B00002108DF801009DF8030088B9FFE741F22D
:1089C0000400C4F20200016821F48031016041F228
:1089D0003000C4F20200016841F0007101601FE044
:1089E00041F20400C4F20200016841F480310160E8
:1089F0009DF80300012809D1FFE741F20400C4F209
:108A00000200016821F40031016008E041F2040035
:108A1000C4F20200016841F400310160FFE7FFE7A2
:108A20009DF8020000F00F0041F20401C4F20201BF
:108A30000A6822F4701242EA804008609DF8020041
:108A400000F030000A6822F0C04242EA406008604C
:108A50009DF801000A6822F0004242EAC0700860F6
:108A600001B0704741F20000C4F20200016841F019
:108A700001010160FFE741F20000C4F2020000685A
:108A8000C0F34000012801D0FFE7F4E741F2040001
:108A9000C4F20200016821F003010160FFE741F226
:108AA0000400C4F2020000688008800708B1FFE7F4
:108AB000F5E741F20000C4F2020001684FF6FF72D0
:108AC000CFF6F2621140016041F20400C4F20200EC
:108AD0000021016041F23000C4F20200016041F265
:108AE0000800C4F202004FF41F010160704700004B
:108AF00081B002208DF803009DF8030041F20401CB
:108B0000C4F202010A6860F301020A6000BF00BFFC
:108B100000BF00BF00BF00BF00BF00BF00BF00BF5D
:108B200000BF00BF00BF00BF00BF00BF00BF00BF4D
:108B300000BF00BF01B0704741F20400C4F2020060
:108B40000068C0F38100704780B540F25400C2F263
:108B500000000078DFE800F0050A0F141A1F24292E
:108B60002F5001200121FEF745FD47E00A20012199
:108B7000FEF740FD42E064200121FEF73BFD3DE0B1
:108B80004FF47A700121FEF735FD37E00120002116
:108B9000FEF730FD32E00A200021FEF72BFD2DE02C
:108BA00064200021FEF726FD28E04FF47A700021B2
:108BB000FEF720FD22E041F21470C2F20000002115
:108BC00080F86B1090F86C10013180F86C1090F800
:108BD0006C00052808DBFFE741F21470C2F20000C8
:108BE000002180F86C10FFE741F21470C2F200001F
:108BF000002180F8741001E0FFE7FFE740F2540025
:108C0000C2F200000921017080BD000080B541F270
:108C10001470C2F2000090F87200C007E8B3FFE7DA
:108C200041F21470C2F20000C18E808E814208D0E1
:108C3000FFE741F21470C2F20000808EFDF7ACFC39
:108C4000FFE740F2B020C2F200000021016040F2D4
:108C50001400C2F2000001680139016000680028B8
:108C60001ADCFFE741F21470C2F2000090F86C00C9
:108C700090B9FFE740F21400C2F2000040F6B831AC
:108C8000016041F21470C2F20000002180F87210FD
:108C90004FF6FF71C186FFE752E041F21470C2F255
:108CA000000090F88C0040BBFFE740F2B020C2F219
:108CB0000000016801390160006800281CDCFFE742
:108CC00040F2B020C2F20000FA21016041F21470BB
:108CD000C2F2000090F88A00012808D1FFE741F2B3
:108CE0001470C2F200008089FBF758FE03E00020F8
:108CF000FBF754FEFFE7FFE721E041F21470C2F2F8
:108D0000000090F88C00012818D1FFE740F2B02055
:108D1000C2F200000021016041F21470C2F20000B2
:108D2000C18E808E814208D0FFE741F21470C2F2FA
:108D30000000808EFDF730FCFFE7FFE7FFE7FFE76D
:108D400080BD000081B08DF803009DF8030001385C
:108D5000092800F2E780DFE810F00A005700E10080
:108D6000E200A400C300E000C400E300E40041F21C
:108D70001470C2F2000090F88800002843D1FFE789
:108D800041F21470C2F2000090F86C00042827D859
:108D9000DFE800F0030A11181F0040F25400C2F28D
:108DA0000000022101701CE040F25400C2F20000F9
:108DB0000321017015E040F25400C2F200000221CC
:108DC00001700EE040F25400C2F200000121017077
:108DD00007E040F25400C2F200000021017000E000
:108DE000FFE741F21470C2F20000012180F8781010
:108DF00080F8741080F8721040F22010C2F2000067
:108E000000214171FFE78EE041F21470C2F20000D0
:108E100090F88800002843D1FFE741F21470C2F2B5
:108E2000000090F86C00042827D8DFE800F0030A5F
:108E300011181F0040F25400C2F200000621017018
:108E40001CE040F25400C2F200000721017015E05E
:108E500040F25400C2F20000062101700EE040F220
:108E60005400C2F200000521017007E040F25400F6
:108E7000C2F200000421017000E0FFE741F214702B
:108E8000C2F20000012180F8781080F8741080F898
:108E9000721040F22010C2F2000000214171FFE781
:108EA00041E041F21470C2F2000090F88800B0B9BD
:108EB000FFE740F25400C2F200000821017041F2C5
:108EC0001470C2F20000002180F87410012280F8B2
:108ED000722040F22010C2F200004171FFE722E050
:108EE00021E041F21470C2F2000090F888000128DD
:108EF0000CD1FFE741F21470C2F2000090F8891023
:108F0000B1FA81F1490980F88910FFE740F2201099
:108F1000C2F200000121417105E004E003E002E03B
:108F200001E000E0FFE741F21470C2F2000090F8A7
:108F30006C00C8B3FFE79DF8030060BBFFE741F298
:108F40001470C2F20000002180F8741040F250004A
:108F5000C2F200000168013901600068002819DCD4
:108F6000FFE740F25000C2F2000040F6B831016065
:108F700041F21470C2F20000002180F86C1080F8F9
:108F8000721040F2B022C2F2000211604FF6FF717F
:108F9000C181FFE707E040F25000C2F2000040F656
:108FA000B8310160FFE7FFE701B0704782B047F2D8
:108FB0000841C4F200010191ADF80200BDF80200C1
:108FC0000199086002B0704782B047F21441C4F2C0
:108FD00000010191ADF80200BDF80200019908609E
:108FE00002B0704780B582B08DF80700ADF804106C
:108FF000ADF80220BDF80400BDF80210002288423E
:10900000A8BF01228DF801209DF807009DF80110EE
:1090100000F02EF802B080BD81B08DF80300012071
:109020008DF802009DF80300012803D0FFE7022815
:109030000BD019E09DF8020047F20041C4F2000194
:109040000A6860F300020A600FE09DF8020047F230
:109050000041C4F200010A6800F0010022F48032ED
:1090600042EA0040086000E0FFE701B070470000FE
:1090700081B08DF803008DF802109DF80200B0FA5F
:1090800080F040098DF802009DF80300012803D00C
:10909000FFE702280FD01DE09DF8020047F20041D3
:1090A000C4F200010A6800F0010022F0020242EA64
:1090B000400008600FE09DF8020047F20041C4F252
:1090C00000010A6800F0010022F4003242EA404048
:1090D000086000E0FFE701B07047000000000000FA
:1090E00080B586B0ADF81600ADF814100492039365
:1090F00040F67830C2F20000008841F21471C2F2EA
:109100000001898E884200F08880FFE741F21470E8
:10911000C2F20000808E40F67831C2F20001088071
:10912000BDF8141002206422FFF75CFFBDF81400A4
:109130000399084402900298002803DCFFE700200E
:109140000290FFE70298FBF702FA41EC100B9FED4B
:10915000861B53EC112B51EC100BFBF717F941EC6C
:10916000100B51EC100BFBF7A9FA40F60C31C2F2D0
:109170000001086091ED000AB5EE400AF1EE10FA28
:1091800018DBFFE740F60C30C2F200000068FBF786
:109190006BFB41EC100B9FED781B53EC112B51EC4A
:1091A000100BFBF74CF841EC100B51EC100BFBF7DC
:1091B0003CFB17E040F60C30C2F200000068FBF701
:1091C00053FB41EC100B9FED6A1B53EC112B51EC40
:1091D000100BFBF734F841EC100B51EC100BFBF7C4
:1091E00024FBFFE740F61031C2F200010880088836
:1091F00040F6FF71884208DBFFE740F61030C2F20C
:10920000000040F6FF710180FFE740F61030C2F227
:1092100000000088FFF7D8FEFFE740F67A30C2F280
:109220000000008841F21471C2F20001098E8842E8
:1092300000F09780FFE741F21470C2F20000008E48
:1092400040F67A31C2F200010880BDF81610012004
:109250000A22FFF7C7FEBDF81600049908440190E2
:109260000198012803DCFFE701200190FFE7019846
:10927000FBF76DF941EC100B9FED411B53EC112BEB
:1092800051EC100BFBF782F841EC100B51EC100B7A
:10929000FBF714FA40F61431C2F20001086091EDB8
:1092A000000AB5EE400AF1EE10FA18DBFFE740F6CF
:1092B0001430C2F200000068FBF7D6FA41EC100B44
:1092C0009FED2D1B53EC112B51EC100BFAF7B7FF50
:1092D00041EC100B51EC100BFBF7A7FA17E040F62E
:1092E0001430C2F200000068FBF7BEFA41EC100B2C
:1092F0009FED1F1B53EC112B51EC100BFAF79FFF46
:1093000041EC100B51EC100BFBF78FFAFFE740F626
:109310001831C2F200010880088840F6FF718842C7
:1093200008DBFFE740F61830C2F2000040F6FF719C
:109330000180FFE740F61830C2F2000000880128E3
:1093400007DCFFE740F61830C2F20000012101807F
:10935000FFE740F61830C2F200000088FFF726FE53
:10936000FFE706B080BD00BF6891ED7C3F35EA3F66
:10937000000000000000E0BF000000000000E03F2F
:10938000D7A3703D0AD7F53F81B08DF803000020C8
:109390008DF802009DF80300012803D0FFE70228A2
:1093A0000FD01DE09DF8020047F20041C4F2000119
:1093B0000A6800F0010022F0040242EA800008601E
:1093C0000FE09DF8020047F20041C4F200010A6874
:1093D00000F0010022F4802242EA8040086000E0B0
:1093E000FFE701B07047000080B584B003901420FF
:1093F0008DF80B0000208DF80700FFE79DF80700AF
:109400009DF80B10884217DAFFE703989DF80710C4
:10941000084400F08FFFADF80800BDF808004FF6D3
:10942000FF71884201D1FFE707E0FFE79DF80700E1
:1094300002308DF80700E1E7FFE7BDF8080004B04F
:1094400080BD000040F61A30C2F20000007841F200
:109450001471C2F2000191F88A10884210D0FFE71F
:1094600041F21470C2F2000090F88A1040F61A32ED
:10947000C2F20002117000214166C1814181FFE703
:109480007047000080B586B00590059840F218112D
:10949000C2F200010968A0FB01010391029040F6AD
:1094A0007C30C2F2000000685B2806DBFFE740F674
:1094B0007C30C2F20000006801E05A20FFE7019012
:1094C00002980399019AD317101A73EB010001DB7C
:1094D000FFE71BE001980299039A091A62EBE0701A
:1094E0000291039002F00CF8029A039B80185941F4
:1094F00002900391FFE702F003F8029A039B801A9F
:1095000071EB030001DAFFE7F5E7FFE706B080BD86
:1095100080B586B00590059840F21C11C2F200019A
:109520000968A0FB01010391029040F67C30C2F271
:10953000000000685B2806DBFFE740F67C30C2F2E3
:109540000000006801E05A20FFE7019002980399AB
:10955000019AD317101A73EB010001DBFFE71BE040
:1095600001980299039A091A62EBE0700291039044
:1095700001F0C6FF029A039B8018594102900391A3
:10958000FFE701F0BDFF029A039B801A71EB030015
:1095900001DAFFE7F5E7FFE706B080BD10B582B05E
:1095A00040F24414C2F200042046FCF7C5F88DF8DE
:1095B00007009DF907102046FBF76EFF40F680314B
:1095C000C2F200010870087804F028FB04F022FAC7
:1095D00040F21804C2F200042046FCF7ADF88DF802
:1095E00006009DF906102046FBF756FF40F66C3149
:1095F000C2F2000108700878FFF7A4FBFFF7A4FA95
:1096000002B010BD7047000080B540F61C30C2F2B9
:109610000000007838B9FFE740F61C30C2F20000C5
:1096200001210170FFE704F0A7FC80BD83B0019029
:109630008DF80310019820B9FFE701208DF80B0089
:1096400024E000208DF802008DF80200FFE79DF86D
:1096500002000E280DDCFFE701989DF802100022A1
:1096600040F82120FFE79DF8020001308DF802004C
:10967000EDE79DF80300019981F840000198002171
:10968000C187019881878DF80B10FFE703B0704701
:1096900081B003208DF8030042F20C00C4F20200F6
:1096A0000068C00720B1FFE700208DF803001FE02D
:1096B00042F20C00C4F2020000688008C00720B12A
:1096C000FFE701208DF8030011E042F20C00C4F224
:1096D000020000680009C00720B1FFE702208DF8F2
:1096E000030003E003208DF80300FFE7FFE7FFE737
:1096F0009DF8030001B0704780B582B0019003204F
:109700008DF80300FFF7C4FF8DF80300FFE79DF815
:109710000310002029B9FFE70198002818BF012095
:10972000FFE7C00740B1FFE7FFF7B2FF8DF8030086
:10973000019801380190EAE7019820B9FFE7042079
:109740008DF80300FFE79DF8030002B080BD000024
:1097500081B003208DF8030042F24C00C4F20200F5
:109760000068C00720B1FFE700208DF803001FE06C
:1097700042F24C00C4F2020000688008C00720B129
:10978000FFE701208DF8030011E042F24C00C4F223
:10979000020000680009C00720B1FFE702208DF831
:1097A000030003E003208DF80300FFE7FFE7FFE776
:1097B0009DF8030001B0704780B582B0019003208E
:1097C0008DF80300FFF7C4FF8DF80300FFE79DF855
:1097D0000310002029B9FFE70198002818BF0120D5
:1097E000FFE7C00740B1FFE7FFF7B2FF8DF80300C6
:1097F000019801380190EAE7019820B9FFE70420B9
:109800008DF80300FFE79DF8030002B080BD000063
:1098100010B582B00190ADF8021003208DF8010060
:109820000198B0F1006F1FD3FFE701984FF6FF7169
:10983000C0F60701884217D8FFE742F21004C4F2CD
:109840000204206840F001002060BDF80200019988
:1098500008804FF48010FFF74FFF8DF8010020685B
:1098600020F00100206042E001980021C0F60801CC
:1098700088421CD3FFE70198000D802817D8FFE726
:1098800042F25004C4F20204206840F0010020605B
:10989000BDF80200019908804FF48010FFF78CFF9B
:1098A0008DF80100206820F0010020601EE0019882
:1098B000B0F1046F19D3FFE742F29004C4F202043E
:1098C000206840F001002060BDF802000199088086
:1098D0004FF4801000F00CFE8DF80100206820F09D
:1098E0000100206000F0C2FDFFE7FFE7FFE702B0E4
:1098F00010BD0000B0B540F66830C2F2000000783C
:10990000032800F20485DFE810F0040032012E0481
:10991000CB0440F62230C2F200000078002840F06C
:109920001E81FFE74FF60000C0F60300FFF75CFD65
:109930004FF6FF7188422DD0FFE74FF60040C0F68A
:109940000300FFF751FD4FF6FF71884222D0FFE779
:109950004FF62600C0F6030000F0ECFC40F61E3483
:10996000C2F2000420804FF62640C0F6030000F04B
:10997000E1FC40F62031C2F200010880208809880D
:10998000884203DDFFE700F027FF02E000F0C4FF9C
:10999000FFE720E04FF60000C0F60300FFF724FDCC
:1099A0004FF6FF71884203D0FFE700F015FF11E08A
:1099B0004FF60040C0F60300FFF716FD4FF6FF71AB
:1099C000884203D0FFE700F0A7FF02E001F05EFD50
:1099D000FFE7FFE7FFE7FDF7A9FF41F21470C2F2CE
:1099E0000000018E00EE101AB8EE400A40F6643115
:1099F000C2F2000181ED000A818E00EE101AB8EE6D
:109A0000400A40F62831C2F2000181ED000A018FC0
:109A100000EE101AB8EE400A40F63831C2F20001EA
:109A200081ED000A818F00EE101AB8EE400A40F670
:109A30003031C2F2000181ED000A90F8841040F646
:109A40003432C2F200021170B0F8401000EE101A69
:109A5000B8EE400A40F64431C2F2000181ED000A3E
:109A6000B0F8441000EE101AB8EE400A40F63C314F
:109A7000C2F2000181ED000A90F8851040F64032F4
:109A8000C2F200021170B0F8481000EE101AB8EEE1
:109A9000400A40F65031C2F2000181ED000AB0F8F0
:109AA0004C1000EE101AB8EE400A40F64831C2F2EF
:109AB000000181ED000A90F8861040F64C32C2F2A7
:109AC00000021170B0F8501000EE101AB8EE400A03
:109AD00040F65C31C2F2000181ED000AB0F854108A
