:020000040800F2
:10400000401800209D410008C95E00080D5E0008B0
:10401000C55E0008814E0008E56E00080000000043
:10402000000000000000000000000000D562000851
:104030001D53000800000000B9600008C1410008DD
:10404000B7410008B7410008B7410008B741000870
:10405000B7410008B7410008B7410008B741000860
:10406000B7410008B7410008B7410008B741000850
:10407000B7410008B7410008B7410008B741000840
:10408000B7410008B7410008B7410008B741000830
:10409000B7410008B7410008B7410008B741000820
:1040A000B7410008B7410008B7410008B741000810
:1040B000B7410008B7410008B7410008B741000800
:1040C000B7410008B7410008B7410008B7410008F0
:1040D000B7410008696D0008B7410008B741000802
:1040E000B7410008B7410008B7410008B7410008D0
:1040F000B7410008B7410008B7410008B7410008C0
:10410000B7410008B7410008B7410008B7410008AF
:10411000B7410008B7410008B7410008B74100089F
:10412000B7410008B7410008B7410008B74100088F
:10413000B7410008B7410008B7410008B74100087F
:10414000000000000000000000000000000000006F
:10415000B7410008B7410008B7410008B74100085F
:10416000B7410008B7410008B7410008B74100084F
:10417000B7410008B7410008B7410008B74100083F
:10418000B7410008DFF810D000F06AFB00F06AF8D1
:104190000048004769BF00084018002006488047D3
:1041A00006480047FEE7FEE7FEE7FEE7FEE7FEE71C
:1041B000FEE7FEE7FEE7FEE7856B000885410008A5
:1041C00030B410B50348804730BCAE4630BC02481E
:1041D0000047704729C50008E56A00082DE9F0414D
:1041E0000024061B254671F1000605DA012400278C
:1041F000D0EB070067EB0101161E73F1000605DA2C
:104200000027D2EB0702012567EB030300F032FA27
:1042100086460E4617469C46AC4204D00025D0EB9D
:10422000050E65EB010624B10020D2EB000760EB20
:10423000030C704631463A466346BDE8F081D2B27F
:1042400001E000F8012B491EFBD270470022F6E77F
:1042500010B513460A4604461946FFF7F0FF2046FC
:1042600010BD00007CB50748009007480190054646
:10427000009C04E02046016808448047241DAC42AD
:10428000F8D17CBDB8EC0008BCEC00082DE9FE4F6D
:10429000804681EA0300C00F0C46009021F00041E7
:1042A00023F00045B8EB0200A94105D24046214663
:1042B00090461C460B46024623F00040104347D070
:1042C000270DC7F30A00C3F30A510290401A019068
:1042D00040286BDAC3F3130040F4801B0098924629
:1042E00020B10023D2EB030A63EB0B0B0198594674
:1042F000C0F14002504600F0EEF906460D46504629
:104300005946019A00F006FA10EB080061410024BA
:1043100087EA115284EAE7731A4340D0009A62B3E5
:10432000019A012A4FEA075215DC001B61EB0201DA
:104330004FF0004202EA0752CDE90042001C41F56D
:10434000801132462B4600F03DFA03B0BDE8F08FF5
:1043500040462146F9E7001B61EB0201001C41F5D4
:10436000801300185B412018A2F5001747EB0301EA
:1043700040EAD570B6196D4111E06D084FEA360676
:1043800045EAC0754FEA0752001B61EB0201001CB1
:1043900041F5801149084FEA300000195141324679
:1043A0002B4603B0BDE8F04F00F0FDB900980122A4
:1043B00040000023D0EB020263EBE073009821463B
:1043C0004FEAE074B8EB000061EB0401E9E783F029
:1043D00000435BE781F0004158E72DE9FE4F81EA99
:1043E000030404F0004421F0004100944FF0000B5E
:1043F00023F0004350EA01045ED052EA03045BD08C
:10440000C3F30A54C1F30A552C44A4F2F3340194C3
:10441000A0FB0254C1F3130141F48011C3F3130351
:1044200043F4801301FB024400FB034E840A970A05
:1044300044EA815447EA8357A4FB076802958D0A32
:1044400005FB07854FEA932C04FB0C542705029DBE
:104450004FEA065847EA1637B5EB08056EEB070C2E
:10446000870E920E47EA811742EA8312A7FB0201E8
:10447000B6EB0B0164EB00042B0D43EA0C335E1822
:1044800044EB1C50DA465146E7FB0201C5F3130426
:104490004FEA0B3343EA14534FEA0432019C43EAD8
:1044A0000603A4F10C040294009CCDE900B400F0D2
:1044B00089F903B0BDE8F08F00200146F9E72DE946
:1044C000F04D81EA030404F0004B21F0004514464E
:1044D0004FF0000A23F0004150EA050220D054EAD0
:1044E00001021DD0C5F30A570246C5F31303C1F3F9
:1044F0001300C1F30A5640F4801543F48013A7EB70
:104500000608101BD64608F2FD3873EB050002D3EF
:1045100008F1010801E092185B41B8F1000F03DADD
:1045200000200146BDE8F08D00204FF480110646C2
:1045300084460EE0171B73EB050705D3121B63EBD4
:10454000050306434CEA010C49084FEA3000921873
:104550005B4150EA0107EDD152EA030012D082EA32
:10456000040083EA0501084305D0101BAB4106D2C5
:104570000122002306E000224FF0004302E06FF02A
:10458000010253101AEB06004CEB085110EB0A0025
:1045900041EB0B01BDE8F04D00F005B90EB5C10FC0
:1045A00080EAE0700844CA07002140F233438DE8F6
:1045B0000E000A460B4600F005F903B000BD0EB52B
:1045C00040F2334102910021CDE900110A460B4629
:1045D00000F0F8F803B000BD70B5C1F30A5201F065
:1045E00000450024C1F3130140F2FF3341F4801170
:1045F0009A4201DA002070BD40F233439A42A2F29F
:10460000334203DC524200F075F800E090402C4346
:10461000F1D0404270BD00F0004230F000400AD0BE
:10462000C10D01F56071C0F3160042EA0151C208E4
:1046300040071143704700200146704701F00043D6
:1046400030B421F0004150EA010206D00A0DA2F573
:104650006072C1F31301002A02DC30BC00207047F5
:10466000440F44EAC104C100E01830BC00EBC25062
:1046700000F062B82DE9F05F0546002092469B46A7
:1046800088460646814640241BE028464146474668
:10469000224600F02FF853465A46C01A914110D3D3
:1046A00011461846224600F016F82D1A67EB01084D
:1046B0004F4622460120002100F00DF817EB0009BB
:1046C0004E41201EA4F10104DFDC484631462A4653
:1046D0004346BDE8F09F202A04DB203A00FA02F1AD
:1046E000002070479140C2F1200320FA03F31943E0
:1046F00090407047202A04DB203A21FA02F0002182
:10470000704721FA02F3D040C2F1200291400843E1
:1047100019467047202A06DBCB17203A41FA02F0EF
:1047200043EAE07306E041FA02F3D040C2F120020E
:1047300091400843194670470029A8BF7047401CA4
:10474000490008BF20F00100704710B4B0FA80FCA7
:1047500000FA0CF050EA010404BF10BC704749B1E4
:10476000CCF1200421FA04F411FA0CF118BF012154
:1047700021430843A3EB0C01CB1D4FEA00614FEA34
:10478000102042BF002010BC704700EBC350104403
:104790000029A4BF10BC7047401C490008BF20F08E
:1047A000010010BC704710B5141E73F1000408DA44
:1047B000401C41F1000192185B411A4301D120F0E5
:1047C000010010BD2DE9F04D92469B4611B1B1FAA2
:1047D00081F202E0B0FA80F220329046FFF77BFFD0
:1047E00004460F4640EA0A0041EA0B0153465A4686
:1047F000084313D0114653EA010019D0C8F1400212
:104800005046FFF777FF05460E465046594642464A
:10481000FFF761FF084305D0012004E02046394638
:10482000BDE8F08D0020054346EAE0762C4337438F
:104830000A986305E40AA0EB08000022FD0A44EA96
:1048400047540A3002D500200146E9E70105101956
:104850006941DDE9084500196941BDE8F04DA2E76D
:104860001CB509480090094801900546009C06E0E7
:10487000E06840F0010394E8070098471034AC4228
:10488000F6D3FFF783FC000098EC0008B8EC0008B2
:1048900070B58C1810F8015B15F0070301D110F802
:1048A000013B2A1106D110F8012B03E010F8016B2F
:1048B00001F8016B5B1EF9D12B0705D40023521EB2
:1048C0000DD401F8013BFAE710F8013BCB1A921C1A
:1048D00003E013F8015B01F8015B521EF9D5A14218
:1048E000D8D3002070BD000080B584B0FFE741F24E
:1048F0000401C4F20101086820F0030008600868A0
:104900000860FFE741F20000C4F2010000904FF49C
:104910000071019106F0EAFE0120029004F0E8FD2A
:104920000098019906F0ECFE029804F0E1FD0020E9
:104930008DF80F00FFE79DF80F00312815DCFFE729
:1049400041F20000C4F201004FF4807106F096FFBE
:1049500008B9FFE709E0052004F0CAFDFFE79DF86C
:104960000F0001308DF80F00E5E741F20000C4F2BE
:1049700001004FF4007106F0B9FE012004F0B8FD0B
:10498000FFE741F20401C4F20101086820F00300CE
:104990000860086840F003000860FFE704B080BDCD
:1049A00080B582B0ADF8060000208DF80500FFE765
:1049B0009DF8050003282DDCFFE7BDF806009DF8F3
:1049C000051006F0D9F88DF804009DF8041040F2A7
:1049D0002C10C2F20000405C8DF804009DF8050028
:1049E00038B9FFE79DF8040040F002008DF804009C
:1049F000FFE79DF80510082000EB41009DF804102A
:104A0000C0B200F08DFCFFE79DF8050001308DF885
:104A10000500CDE702B080BD80B582B0ADF80600DC
:104A200000208DF80500FFE79DF80500022846DC10
:104A3000FFE7BDF806009DF8051006F09DF88DF81B
:104A400004009DF8041040F22C10C2F20000405CFB
:104A50008DF804009DF8050068B9FFE7BDF8060071
:104A6000632807DCFFE79DF8040040F002008DF8A2
:104A70000400FFE712E09DF8050001280DD1FFE7D3
:104A8000BDF80600642807DBFFE79DF8040040F04E
:104A900002008DF80400FFE7FFE7FFE79DF805102F
:104AA000222000EB41009DF80410C0B200F038FC59
:104AB000FFE79DF8050001308DF80500B4E702B06E
:104AC00080BD000080B582B0ADF8060000208DF8F2
:104AD0000500FFE79DF80500022846DCFFE7BDF86A
:104AE00006009DF8051006F047F88DF804009DF8C3
:104AF000041040F22C10C2F20000405C8DF804005B
:104B00009DF8050068B9FFE7BDF80600632807DCDB
:104B1000FFE79DF8040040F002008DF80400FFE775
:104B200012E09DF8050001280DD1FFE7BDF8060051
:104B3000642807DBFFE79DF8040040F002008DF8D1
:104B40000400FFE7FFE7FFE79DF805101C2000EBDE
:104B500041009DF80410C0B200F0E2FBFFE79DF8B1
:104B6000050001308DF80500B4E702B080BD0000FB
:104B700080B582B0ADF8060000208DF80500FFE793
:104B80009DF80500022846DCFFE7BDF806009DF809
:104B9000051005F0F1FF8DF804009DF8041040F2B7
:104BA0002C10C2F20000405C8DF804009DF8050056
:104BB00068B9FFE7BDF80600632807DCFFE79DF84A
:104BC000040040F002008DF80400FFE712E09DF8B9
:104BD000050001280DD1FFE7BDF80600642807DBBA
:104BE000FFE79DF8040040F002008DF80400FFE7A5
:104BF000FFE7FFE79DF80510162000EB41009DF848
:104C00000410C0B200F08CFBFFE79DF805000130F6
:104C10008DF80500B4E702B080BD000080B582B019
:104C2000ADF8060000208DF80500FFE79DF80500AF
:104C3000022846DCFFE7BDF806009DF8051005F0E8
:104C40009BFF8DF804009DF8041040F22C10C2F276
:104C50000000405C8DF804009DF8050068B9FFE78E
:104C6000BDF80600632807DCFFE79DF8040040F06C
:104C700002008DF80400FFE712E09DF8050001280E
:104C80000DD1FFE7BDF80600642807DBFFE79DF8BC
:104C9000040040F002008DF80400FFE7FFE7FFE7A3
:104CA0009DF80510102000EB41009DF80410C0B2E3
:104CB00000F036FBFFE79DF8050001308DF8050098
:104CC000B4E702B080BD000080B582B0ADF8060048
:104CD00000208DF80500FFE79DF8050003282CDC77
:104CE000FFE7BDF806009DF8051005F045FF8DF8BB
:104CF00004009DF8041040F22C10C2F20000405C49
:104D00008DF804009DF80500012807D1FFE79DF804
:104D1000040040F002008DF80400FFE79DF8050054
:104D200040009DF80410C0B200F0FAFAFFE79DF8C9
:104D3000050001308DF80500CEE702B080BD00000F
:104D400080B582B041F27030C2F20000019040F2B2
:104D50001F21C2F200014FF48062009207F0A4FC10
:104D6000009A0198103040F21F61C2F2000107F072
:104D70009BFC019943F60000C4F20100086202B0F6
:104D800080BD000080B582B0019001980079014695
:104D9000009140B1FFE70098012826D0FFE7009876
:104DA000022851D06AE00198C06880470198407994
:104DB00050B9FFE701990120087140F20821C2F2C1
:104DC00000010220087059E00198407901280AD1B9
:104DD000FFE701990120087140F20821C2F20001A9
:104DE0000F2008704AE0FFE748E00198806880479C
:104DF00040F20821C2F2000108780138087000066C
:104E000008BBFFE70199022008710198407948B971
:104E1000FFE701990220087140F20821C2F2000167
:104E200008702BE00198407901280AD1FFE7019929
:104E30000220087140F20821C2F200010F20087020
:104E40001CE0FFE7FFE719E00198C068804740F2E7
:104E50000821C2F20001087801380870000660B924
:104E6000FFE7019900200871019A0221517140F277
:104E70000821C2F20001087000E0FFE702B080BD27
:104E8000FFE7FEE780B582B041F26020C2F2000089
:104E900090F88A000146019140B1FFE7019801288E
:104EA00007D0FFE70198022806D008E000F05CF880
:104EB00006E000F007F803E007F09CF900E0FFE7E8
:104EC00002B080BD80B541F20000C4F20100802133
:104ED00006F0D4FC012819D1FFE740F20920C2F204
:104EE000000001780131017000780B280DDBFFE72D
:104EF00040F20921C2F200010020087041F2602155
:104F0000C2F2000181F88A00FFE72BE040F209219C
:104F1000C2F200010020087041F26020C2F20000DD
:104F200090F88000A8B1FFE741F26020C2F20000D3
:104F3000022180F88A1090F88000022808D1FFE74B
:104F400040F20C01C2F200014FF416700860FFE756
:104F500007E041F26021C2F20001012081F88A00DD
:104F6000FFE7FFE780BD000080B541F20000C4F21A
:104F70000100802106F082FCC0BBFFE740F20A205E
:104F8000C2F20000017801310170007804282CDBA6
:104F9000FFE740F20A21C2F200010020087041F24E
:104FA0006020C2F2000090F88000A8B1FFE741F253
:104FB0006020C2F20000022180F88A1090F8800080
:104FC000022808D1FFE740F20C01C2F200014FF4C1
:104FD00016700860FFE707E041F26021C2F20001AD
:104FE000012081F88A00FFE7FFE70CE040F20A2188
:104FF000C2F200010020087041F26021C2F20001FB
:1050000081F88A00FFE780BD80B586B041F260205C
:10501000C2F2000090F86900C00778B3FFE741F2E0
:105020006020C2F2000090F88800012815D1FFE747
:1050300041F26020C2F20000012180F88F1090F848
:10504000890048B9FFE740F60040C4F201004FF480
:10505000007106F055FBFFE70FE040F60040C4F298
:1050600001004FF4007106F041FB41F26021C2F2F1
:105070000001002081F88F00FFE707E041F2602186
:10508000C2F20001002081F88F00FFE740F20E20FD
:10509000C2F20000007820BBFFE740F20E21C2F20E
:1050A000000101200490087041F26021C2F2000169
:1050B000002081F8890040F60040C4F201004FF45E
:1050C000805106F01DFB049940F60000C4F2010077
:1050D000059006F015FB05984FF4006106F006FBFD
:1050E000F9E041F26020C2F2000090F88F00002841
:1050F00040F0A580FFE740F60040C4F20100042123
:1051000006F0BCFB00284ED1FFE740F20B20C2F2B4
:10511000000001780131017040F20C22C2F200025D
:1051200000211170007806283CDBFFE740F20B21DC
:10513000C2F200010020087041F26020C2F20000BB
:10514000012180F88D1090F88D1090F88E00884223
:1051500027D0FFE741F26021C2F200010120029056
:1051600081F88E00002081F8880081F8890040F6DF
:105170000040C4F201004FF4805106F0C1FA0299D8
:1051800040F60000C4F20100039006F0B9FA4FF4B3
:10519000FA7004F063F903984FF4006106F0B0FA76
:1051A000FFE7FFE74AE040F20C20C2F2000001787E
:1051B0000131017040F20B22C2F200020021117095
:1051C0000078062839DBFFE740F20C20C2F200002D
:1051D0000021017041F26020C2F2000080F88D10C1
:1051E00090F88D1090F88E00884225D0FFE741F2AC
:1051F0006021C2F20001002081F88E0081F8890050
:1052000081F8880040F60040C4F201004FF480515C
:1052100006F076FA40F60000C4F201000190012188
:1052200006F06EFA4FF47A7004F018F901984FF412
:10523000006106F05BFAFFE7FFE7FFE74AE041F2B3
:105240006020C2F2000090F88F00012841D1FFE7F2
:1052500041F26020C2F20000808ED0B3FFE741F23D
:105260006020C2F20000008900282ADCFFE740F23B
:105270000D20C2F20000017801310170007815287C
:105280001EDBFFE740F20D21C2F200010020087092
:1052900041F26021C2F2000181F8890081F88800A2
:1052A00040F60040C4F201004FF4805106F028FAA5
:1052B00040F60000C4F20100012106F021FAFFE7E8
:1052C00006E040F20D21C2F2000100200870FFE765
:1052D000FFE7FFE7FFE706B080BD000085B0049060
:1052E0008DED030ACDED020A8DED011ACDED001A08
:1052F00003980499086002980499486001980499F9
:1053000088600499002088610499086200980499D3
:10531000486300980499086305B07047704700001F
:1053200080B582B08DF807008DF806109DF8060054
:105330008DF805009DF806008DF804009DF8050025
:1053400000F0F0008DF805009DF8040000018DF8D4
:1053500004009DF807009DF805109DF8042001F059
:10536000E3FC02B080BD000080B586B004908DF8EB
:105370000F1000208DF80E000498408E4FF6FE713D
:10538000884205DCFFE70499488E01304886FFE734
:105390009DF90F00033001460291062834D8029986
:1053A000DFE801F02B32143204322400049800F0BC
:1053B000F5F8049981F83400049890F8341001202D
:1053C000012908BF09208DF80E001EE0049800F0A6
:1053D000E5F8049981F83400049890F8341002201C
:1053E000012908BF0A208DF80E000EE003208DF879
:1053F0000E00049800F0FCF807E004208DF80E0081
:10540000049800F0F5F800E0FFE7049890F8270012
:10541000B0FA80F040098DF80D00049890F82D1036
:105420000020019049B9FFE7049890F8270001385F
:10543000B0FA80F040090190FFE7019800F0010008
:105440008DF80C00049991F8270081F82D0004983C
:1054500090F8300068B1FFE79DF80C0020B1FFE73D
:10546000049800F0C5F8FFE79DF80E008DF81700CE
:105470008FE00498408D012816DBFFE70499488DE2
:10548000013848850498408D68B9FFE7049890F882
:105490002C00012807D1FFE705208DF80E000498A5
:1054A00000F0A6F8FFE7FFE79DF80D0000283FD0C9
:1054B000FFE70499088D013008850499088D098B50
:1054C000884219D1FFE70498408D01280EDBFFE7E1
:1054D000049890F82C00012808D1FFE706208DF8E9
:1054E0000E000499012081F8300004E004990120A5
:1054F00081F82C00FFE7FFE70499088D498B88426B
:1055000015DBFFE70499C88D0130C8850498C28D6A
:10551000C18BB2FBF1F000FB112038B9FFE7049911
:105520000020C88508208DF80E00FFE7FFE72BE07C
:105530009DF80C0038B3FFE70499088D098B884269
:105540001DDBFFE70499088D498B88420FDAFFE7DE
:10555000049890F82C00012808D1FFE70498408DAA
:1055600020B9FFE70499888B4885FFE706E007200C
:105570008DF80E00049800F03BF8FFE7FFE7049970
:1055800000200885FFE7FFE79DF80E008DF8170063
:10559000FFE79DF8170006B080BD000082B00090C4
:1055A0000099488E098C884207DAFFE700990020AD
:1055B000488601208DF8070005E000990020488604
:1055C0008DF80700FFE79DF8070002B07047000064
:1055D00080B582B00190ADF802100198BDF80210BC
:1055E00006F04CF90138B0FA80F0400902B080BDF5
:1055F00081B00090009900200885009948850099A5
:1056000081F82C000099C885009981F8300001B01C
:105610007047000080B582B0019000208DF8030033
:10562000019908688988FFF7D3FF40F20F21C2F281
:1056300000010870019988688989FFF7C9FF40F265
:105640001021C2F20001087001990869898AFFF7E8
:10565000BFFF014640F21120C2F200000170017844
:10566000019A82F827100078019981F826000198A4
:10567000807DA8BBFFE740F20F20C2F20000007857
:10568000019991F82410884229D0FFE740F20F20B9
:10569000C2F20000007888B9FFE740F21020C2F2A1
:1056A00000000078012804D1FFE701208DF80300F5
:1056B00003E0FF208DF80300FFE7FFE740F20F2033
:1056C000C2F200000078019981F8240040F2102015
:1056D000C2F200000078019981F82500FFE7CBE0D5
:1056E00040F20F20C2F200000078019991F82410D6
:1056F000884200F0C080FFE740F20F20C2F20000B5
:105700000078012853D1FFE7019890F8250001287F
:105710000BD1FFE740F21020C2F20000007820B960
:10572000FFE701208DF8030040E0019890F8250084
:1057300060B9FFE740F21020C2F2000000780128B3
:1057400004D1FFE7FF208DF803002EE0019890F8C8
:10575000250040F21021C2F20001097888420BD1E5
:10576000FFE740F21020C2F20000007820B9FFE706
:1057700001208DF8030017E0019890F8250040F211
:105780001021C2F20001097888420CD1FFE740F2F3
:105790001020C2F200000078012804D1FFE7FF20AA
:1057A0008DF80300FFE7FFE7FFE7FFE752E001980E
:1057B00090F8250001280BD1FFE740F21020C2F23B
:1057C0000000007820B9FFE7FF208DF8030040E0DB
:1057D000019890F8250060B9FFE740F21020C2F26E
:1057E00000000078012804D1FFE701208DF80300B4
:1057F0002EE0019890F8250040F21021C2F200013D
:10580000097888420BD1FFE740F21020C2F2000075
:10581000007820B9FFE7FF208DF8030017E001981A
:1058200090F8250040F21021C2F200010978884268
:105830000CD1FFE740F21020C2F2000000780128EE
:1058400004D1FFE701208DF80300FFE7FFE7FFE742
:10585000FFE7FFE740F20F20C2F200000078019955
:1058600081F8240040F21020C2F200000078019973
:1058700081F82500FFE7FFE740F21120C2F20000A7
:105880000078E8B9FFE79DF9030020B9FFE702209F
:105890008DF8030013E09DF90300012804D1FFE710
:1058A00003208DF8030009E09DF90300013020B9C1
:1058B000FFE7FD208DF80300FFE7FFE7FFE7FFE7C5
:1058C0009DF9030002B080BD80B586B040F68070BF
:1058D000C2F2000080690390FFE700F007FA04902D
:1058E0000498039988422CD2FFE7EFF310800590CB
:1058F0000598029072B640F68070C2F2000080698E
:1059000001900198039988420ED1FFE7049840F670
:105910008071C2F200018861086901300861BFF33B
:105920005F8F0120009002E000200090FFE70298C6
:1059300010B9FFE762B6FFE7009808B9FFE701E09A
:105940000CE0FFE7049A40F68070C2F200001830C5
:1059500003A901F0ABFD0028BFD0FFE7049806B013
:1059600080BD000080B58CB00A9009910892079321
:1059700007200590FFE70598002863D0FFE700F0B7
:105980003BFA0490049800F03F0140F60030C2F268
:10599000000000EB0110069004994FF4700000EA3B
:1059A000813001900A9801990843099A4FF080517B
:1059B00001EAD2010843089A4FF0005101EA92012E
:1059C0000843079A4FF0804101EA5201084340F032
:1059D0000060039006980C30039900F02DFA0390B4
:1059E0009DF80F004007002827D5FFE7039880F0B7
:1059F00000400390039800F000400290099820F0C6
:105A000000400299084306990860089820F0004079
:105A10000299084306994860079820F000400299CF
:105A200008430699886006980C30039901F02EFA15
:105A300000F0F8F901200B9009E0FFE70598013824
:105A4000059098E700F0E4F900200B90FFE70B9831
:105A50000CB080BD87B00590049103920498FE2895
:105A600004D8FFE70398FF2803D3FFE70020069040
:105A700036E0002002900190FFE7019803282CD81F
:105A8000FFE705980199C840C007F0B1FFE7049807
:105A90000090FFE700980399884215D8FFE7009926
:105AA00001F00702012000FA02F3029800EBD10294
:105AB00040F60071C2F20001885C18438854FFE789
:105AC000009801300090E5E7FFE70298203002904F
:105AD000FFE7019801300190CFE701200690FFE732
:105AE000069807B07047000080B58AB00990089109
:105AF00040F68071C2F2000101910020087040F66A
:105B00000070C2F200008021FEF7A0FB4EF640407C
:105B1000C0F60000182102F0D1FA01460198ADF854
:105B20001A10006A42F26B71CEF2A51188420FD0B2
:105B3000FFE740F68071C2F2000142F26B70CEF2D4
:105B4000A5100862BDF81A0048800120C8611CE059
:105B500040F68070C2F200004088BDF81A108842FA
:105B60000AD0FFE7BDF81A0040F68071C2F20001CA
:105B700048800120C86107E040F68071C2F2000150
:105B8000C8690130C861FFE7FFE740F68070C2F2E4
:105B90000000C069012812D1FFE740F68071C2F20F
:105BA00000010020487048608860C86040F60030FE
:105BB000C2F200004FF48061FEF748FB20E00020B5
:105BC0000290FFE702983F2819D8FFE7029940F6B4
:105BD0000030C2F2000000EB011007900798C07B74
:105BE0004007002806D5FFE70799C86820F0406005
:105BF000C860FFE7FFE7029801300290E2E7FFE7A5
:105C000040F68070C2F20000C069012817D1FFE79A
:105C100000F074F80490049820B1FFE700F06AF8EF
:105C2000059002E000200590FFE7059840F680719E
:105C3000C2F20001486100208861086103E000F0C1
:105C40005DF80490FFE7049838B3FFE70998002156
:105C5000FE220092FFF7FEFE0F20EF221146FFF713
:105C6000F9FE009A04201146FFF7F4FEFFF72CFE20
:105C70000390039940F68070C2F200004369C26944
:105C80004FF60070C0F20030FFF76CFE089818B1B4
:105C9000FFE700F005F8FFE7FFE704980AB080BDD2
:105CA00080B584B040F68070C2F20000007818B170
:105CB000FFE70120039015E040F68071C2F2000179
:105CC000012001900870FFF7FFFD029002994FF646
:105CD0000170C0F2003000231A46FFF743FE01981E
:105CE0000390FFE7039804B080BD000080B505F085
:105CF0009DFC80BD80B506F0D5FB80BD01207047BE
:105D000080B540F21220C2F200000078C00780B9CE
:105D1000FFE740F21221C2F200010120087040F6B4
:105D20000000C4F20000022140F6BF0206F032FF7C
:105D3000FFE740F20000C2F2000001680139016093
:105D40000068002857DCFFE740F20001C2F20001C2
:105D500040F6B83008600A21084604F00DFD0146FF
:105D600041F26020C2F20000A0F85810B0F85800CC
:105D7000B0F5147F0ADAFFE740F60000C4F2000035
:105D8000022140F6BF0206F005FF33E041F2602039
:105D9000C2F20000B0F85800B0F5407F0ADAFFE721
:105DA00040F60000C4F20000022140F61F5206F047
:105DB000F1FE1EE041F26020C2F20000B0F858008F
:105DC000B0F5547F0ADAFFE740F60000C4F20000A5
:105DD000022141F27F1206F0DDFE09E040F60000EC
:105DE000C4F20000022141F2DF5206F0D3FEFFE7C9
:105DF000FFE7FFE7FFE780BD80B540F68070C2F2A5
:105E00000000043001F082FB80BD0000FFE7FEE7E8
:105E100080B540F68070C2F200000C3001F076FBD5
:105E200080BD000080B540F68070C2F200000830EE
:105E300001F06CFB80BD000089B0079006910798C7
:105E400000680590FFE79DF817004007002803D57C
:105E5000FFE70020089032E00698059901F0004124
:105E6000084340F080600490FFE7079B049803908C
:105E70000599DDF80CC053E8000F084503D143E84D
:105E800000C2002AF7D10090401AB0FA80F0400911
:105E9000BFF35F8F0146019118B9FFE700980590A5
:105EA000FFE7019800F001008DF80B009DF80B0052
:105EB000C0070028C7D0FFE704980890FFE70898BC
:105EC00009B07047FFE7FEE77047000088B0079011
:105ED00006910592079800F0070004900498C0F11D
:105EE0000700052803D3FFE70420019004E004988D
:105EF000C0F107000190FFE7019803900498043077
:105F0000062803D8FFE70020009003E00498033838
:105F10000090FFE70098029006980399012202FA88
:105F200001F101390840029B984005999A40013AD5
:105F30001140084308B0704780B541F26020C2F2BA
:105F4000000090F88800012803D1FFE700F0B6F8C0
:105F5000FFE780BD81B000900099002081F86B00C0
:105F6000009981F86C00009981F86E00009981F821
:105F70006D00009981F86F00009981F87000009918
:105F800081F87200009981F87100009981F876001B
:105F9000009981F87700009981F878000099A1F8BC
:105FA0007A000099C86700994FF47A728A87009B3B
:105FB00040F2DC51A3F84410009B4FF4FA61A3F8BF
:105FC0004C10009B40F6C411A3F85410009B4FF4F2
:105FD000C8711987009B4FF4FA71A3F84010DDF8DF
:105FE00000C04FF41673ACF84830DDF800C04FF431
:105FF0002F73ACF85030DDF800C002238CF88230EB
:10600000DDF800C08CF88330DDF800C08CF88430F7
:10601000DDF800C08CF88530009B1986009B41F2AA
:1060200070715986009B9A86009AD186009A908159
:10603000009A1081009AD181009A5181009988615B
:10604000009908610099886200990862009A48F2F4
:106050000001C4F2BB51D161009A5161009AD16232
:10606000009A51620099A1F85800009908660099B9
:10607000C86500994866009981F88600009981F802
:106080008700009981F88800009981F88A00009AB9
:10609000FF2182F88B10009A82F88000009A82F823
:1060A0008110009981F88C00009981F88D00009989
:1060B00081F88F0001B070477047000080B582B052
:1060C00041F26020C2F2000090F87700C00730B3C0
:1060D000FFE741F26020C2F20000B0F87A1001310F
:1060E000A0F87A10B0F87A00B0F5FA7F16DBFFE777
:1060F00041F26021C2F200010191002081F8770095
:10610000A1F87A0040F6F222C2F200021080088E56
:10611000098901F09DFA0199C865FFE708E041F29D
:106120006021C2F200010020A1F87A00C865FFE7F3
:1061300041F26020C2F2000090F87800C00778B306
:10614000FFE741F26020C2F2000090F88A000128C7
:1061500026D1FFE740F21420C2F20000018801318D
:1061600001800088B0F5FA7F19DBFFE740F21421C7
:10617000C2F200010020088041F26021C2F2000159
:10618000009181F8780040F6F022C2F200021080FF
:10619000888E898901F05CFA00990866FFE706E0BD
:1061A00041F26021C2F2000100200866FFE741F2DF
:1061B0006023C2F20003188E998EDA6D1B6E02F016
:1061C00043FF02B080BD000080B582B0019001980D
:1061D000411C002007F022FB019981F80101019880
:1061E00090F80101162872D1FFE701984078D12874
:1061F00008D1FFE70198807DF02803D1FFE7012057
:1062000020B95FE0012000285CD1FFE70199481C1C
:1062100001F501710122102301F0DEFE019800F565
:106220000170042101F08CFF009001F0ABFF019898
:10623000807C9DF80310884243D1FFE70198C07C21
:106240009DF8021088423CD1FFE70198007D9DF83F
:106250000110884235D1FFE70198407D9DF800107C
:1062600088422ED1FFE701988078012810D1FFE7FE
:106270000198C07801280BD1FFE70198407938B91F
:10628000FFE741F25C21C2F200010020087017E034
:1062900001988078022810D1FFE70198C078012882
:1062A0000BD1FFE70198407938B9FFE741F25C2153
:1062B000C2F200010120087001E000BFFFE7FFE724
:1062C000FFE7FFE70199002081F80101FFE702B035
:1062D00080BD00007047000080B584B0ADF80E00AE
:1062E00000208DF80B0041F26020C2F2000090F80F
:1062F0006C00002800F0B881FFE741F26020C2F294
:10630000000090F86C00013801460191032800F26A
:10631000A9810199DFE811F004006E00D6003E016A
:1063200041F26020C2F2000090F8700000F001001D
:10633000012809D0FFE741F26020C2F2000090F886
:106340007400C007B8B3FFE700208DF80D00FFE729
:106350009DF80D0003282DDCFFE7BDF80E009DF829
:106360000D1004F009FC8DF80C009DF80C1040F2A3
:106370002C10C2F20000405C8DF80C009DF80D005E
:1063800038B9FFE79DF80C0040F002008DF80C00D2
:10639000FFE79DF80D10082000EB41009DF80C1060
:1063A000C0B2FEF7BDFFFFE79DF80D0001308DF88C
:1063B0000D00CDE71DE041F26020C2F2000090F830
:1063C0007000C007A0B9FFE741F26020C2F20000F0
:1063D00090F87400C00758B9FFE700208DF80C0052
:1063E0009DF80C0040F002010820FEF799FFFFE73E
:1063F000FFE738E141F26020C2F2000090F870003F
:1064000000F00100012809D0FFE741F26020C2F24C
:10641000000090F87400C007B8B3FFE700208DF8C3
:106420000D00FFE79DF80D0003282DDCFFE7BDF808
:106430000E009DF80D1004F09FFB8DF80C009DF8E8
:106440000C1040F22C10C2F20000405C8DF80C00E1
:106450009DF80D0038B9FFE79DF80C0040F00200F0
:106460008DF80C00FFE79DF80D10082000EB4100AF
:106470009DF80C10C0B2FEF753FFFFE79DF80D002A
:1064800001308DF80D00CDE71BE041F26020C2F233
:10649000000090F87000C00790B9FFE741F260205B
:1064A000C2F2000090F87400C00748B9FFE700206E
:1064B0008DF80C009DF80C100A20FEF731FFFFE765
:1064C000FFE7D0E041F26020C2F2000090F87000D7
:1064D00000F00100012809D0FFE741F26020C2F27C
:1064E000000090F87400C007B8B3FFE700208DF8F3
:1064F0000D00FFE79DF80D0003282DDCFFE7BDF838
:106500000E009DF80D1004F037FB8DF80C009DF87F
:106510000C1040F22C10C2F20000405C8DF80C0010
:106520009DF80D0038B9FFE79DF80C0040F002001F
:106530008DF80C00FFE79DF80D10082000EB4100DE
:106540009DF80C10C0B2FEF7EBFEFFE79DF80D00C2
:1065500001308DF80D00CDE71BE041F26020C2F262
:10656000000090F87000C00790B9FFE741F260208A
:10657000C2F2000090F87400C00748B9FFE700209D
:106580008DF80C009DF80C100C20FEF7C9FEFFE7FB
:10659000FFE768E041F26020C2F2000090F870006E
:1065A00000F00100012809D0FFE741F26020C2F2AB
:1065B000000090F87400C007B8B3FFE700208DF822
:1065C0000D00FFE79DF80D0003282DDCFFE7BDF867
:1065D0000E009DF80D1004F0CFFA8DF80C009DF818
:1065E0000C1040F22C10C2F20000405C8DF80C0040
:1065F0009DF80D0038B9FFE79DF80C0040F002004F
:106600008DF80C00FFE79DF80D10082000EB41000D
:106610009DF80C10C0B2FEF783FEFFE79DF80D0059
:1066200001308DF80D00CDE71BE041F26020C2F291
:10663000000090F87000C00790B9FFE741F26020B9
:10664000C2F2000090F87400C00748B9FFE70020CC
:106650008DF80C009DF80C100E20FEF761FEFFE790
:10666000FFE700E0FFE73BE040F21621C2F2000145
:10667000002008708DF80D00FFE79DF80D0003283D
:106680002DDCFFE7BDF80E009DF80D1004F074FA44
:106690008DF80C009DF80C1040F22C10C2F2000096
:1066A000405C8DF80C009DF80D0038B9FFE79DF8AF
:1066B0000C0040F002008DF80C00FFE79DF80D1073
:1066C000082000EB41009DF80C10C0B2FEF728FE38
:1066D000FFE79DF80D0001308DF80D00CDE7FFE7D5
:1066E00004B080BD80B584B0ADF80E0000208DF8F8
:1066F0000A0041F26020C2F2000090F86B0000280E
:1067000000F0B281FFE741F26020C2F2000090F891
:106710006B00013801460191032800F2A381019921
:10672000DFE811F004006900D200390141F2602075
:10673000C2F2000090F86F0000F00100012809D0BB
:10674000FFE741F26020C2F2000090F87300C0073A
:10675000B0B3FFE700208DF80C00FFE79DF80C00B8
:1067600003282CDCFFE7BDF80E009DF80C1004F0A8
:1067700003FA8DF80B009DF80B1040F22C10C2F2BA
:106780000000405C8DF80B009DF80C00012807D13B
:10679000FFE79DF80B0040F002008DF80B00FFE7CB
:1067A0009DF80C0040009DF80B10C0B2FEF7B8FD3C
:1067B000FFE79DF80C0001308DF80C00CEE7FFE7F5
:1067C00041F26020C2F2000090F86F00C00788B963
:1067D000FFE741F26020C2F2000090F87300C007AA
:1067E00040B9FFE700208DF80B009DF80B10FEF775
:1067F00097FDFFE737E141F26020C2F2000090F818
:106800006F0000F00100012809D0FFE741F260208D
:10681000C2F2000090F87300C007B0B3FFE7002099
:106820008DF80C00FFE79DF80C0003282CDCFFE737
:10683000BDF80E009DF80C1004F09EF98DF80B00C9
:106840009DF80B1040F22C10C2F20000405C8DF855
:106850000B009DF80C00012807D1FFE79DF80B0005
:1068600040F002008DF80B00FFE79DF80C0040009F
:106870009DF80B10C0B2FEF753FDFFE79DF80C002A
:1068800001308DF80C00CEE71DE041F26020C2F22D
:10689000000090F86F00C007A0B9FFE741F2602048
:1068A000C2F2000090F87300C00758B9FFE700205B
:1068B0008DF80B009DF80B0040F002010220FEF75E
:1068C0002FFDFFE7FFE7CEE041F26020C2F20000BB
:1068D00090F86F0000F00100012809D0FFE741F2B5
:1068E0006020C2F2000090F87300C007B0B3FFE769
:1068F00000208DF80C00FFE79DF80C0003282CDC2D
:10690000FFE7BDF80E009DF80C1004F035F98DF886
:106910000B009DF80B1040F22C10C2F20000405CFE
:106920008DF80B009DF80C00012807D1FFE79DF8BA
:106930000B0040F002008DF80B00FFE79DF80C0003
:1069400040009DF80B10C0B2FEF7EAFCFFE79DF88F
:106950000C0001308DF80C00CEE71BE041F2602006
:10696000C2F2000090F86F00C00790B9FFE741F253
:106970006020C2F2000090F87300C00748B9FFE73A
:1069800000208DF80B009DF80B100420FEF7C8FCCA
:10699000FFE7FFE767E041F26020C2F2000090F8F5
:1069A0006F0000F00100012809D0FFE741F26020EC
:1069B000C2F2000090F87300C007B0B3FFE70020F8
:1069C0008DF80C00FFE79DF80C0003282CDCFFE796
:1069D000BDF80E009DF80C1004F0CEF88DF80B00F9
:1069E0009DF80B1040F22C10C2F20000405C8DF8B4
:1069F0000B009DF80C00012807D1FFE79DF80B0064
:106A000040F002008DF80B00FFE79DF80C004000FD
:106A10009DF80B10C0B2FEF783FCFFE79DF80C0059
:106A200001308DF80C00CEE71BE041F26020C2F28D
:106A3000000090F86F00C00790B9FFE741F26020B6
:106A4000C2F2000090F87300C00748B9FFE70020C9
:106A50008DF80B009DF80B100620FEF761FCFFE798
:106A6000FFE700E0FFE73AE040F21721C2F2000141
:106A7000002008708DF80D00FFE79DF80D00032839
:106A80002CDCFFE7BDF80E009DF80D1004F074F843
:106A90008DF80B009DF80B1040F22C10C2F2000094
:106AA000405C8DF80B009DF80D00012807D1FFE731
:106AB0009DF80B0040F002008DF80B00FFE79DF8F9
:106AC0000D0040009DF80B10C0B2FEF729FCFFE757
:106AD0009DF80D0001308DF80D00CEE7FFE704B002
:106AE00080BD000080B502F04DFD41F26020C2F291
:106AF000000090F86B0088B9FFE741F26020C2F215
:106B0000000090F86C0048B9FFE741F26020C2F243
:106B1000000090F87600C00748B3FFE740F2040099
:106B2000C2F20000018801390180008800281DDCC4
:106B3000FFE740F20401C2F200016420088041F244
:106B40006021C2F2000191F86F20012020EA0202C8
:106B500081F86F2091F8702020EA020281F87020FD
:106B600091F87520904381F87500FFE7FFE741F247
:106B7000E430C2F200000068804700F057F907F0E7
:106B800027FF80BD4EF68851CEF20001086840F420
:106B90007000086041F20001C4F20201086840F090
:106BA00001000860FFE741F20000C4F20200006843
:106BB000C0F34000012801D0FFE7F4E741F20401EF
:106BC000C4F20201086820F003000860FFE741F208
:106BD0000400C4F2020000688008800708B1FFE7E3
:106BE000F5E741F20001C4F2020108684FF6FF72B6
:106BF000CFF6F2621040086041F20401C4F20201D3
:106C00000020086041F23001C4F20201086041F244
:106C10000801C4F202014FF41F0008604EF608514B
:106C2000CEF200014FF000600860704780B582B07E
:106C3000002000908DF8070005F04CFFE42005F0DF
:106C4000AFFE802005F0ACFEA02005F0A9FE9A2042
:106C500005F0A6FE812005F0A3FE832005F0A0FE2E
:106C6000BF2005F09DFE882005F09AFE05F058FF34
:106C70000A2002F0F3FB009A30231046114600F080
:106C800003F802B080BD000080B584B08DF80F001D
:106C90008DF80E108DF80D208DF80C30002001902D
:106CA0008DF80B0005F016FFE42005F079FE9DF845
:106CB0000F0005F075FE01988DF80B00FFE79DF8B9
:106CC0000B009DF80C1088420FDAFFE79DF80E00CC
:106CD00005F066FE9DF80D0005F062FEFFE79DF8E9
:106CE0000B0001308DF80B00E9E705F019FF04B047
:106CF00080BD000080B582B08DF807008DF80610C9
:106D000005F0E8FEE42005F04BFE9DF8070005F0D5
:106D100047FE9DF8060005F093FEFDF7E5FD05F042
:106D2000FFFE02B080BD000080B582B08DF8070084
:106D30008DF806108DF8052005F0CCFEE42005F056
:106D40002FFE9DF8070005F02BFE9DF8060005F0CC
:106D500077FE9DF8050005F073FEFDF7C5FD05F013
:106D6000DFFE02B080BD000080B582B043F60C00AB
:106D7000C4F2010000684009C007F0B1FFE743F624
:106D80000000C4F20100202106F032FCA0B1FFE7B0
:106D900043F60000C4F2010006F0F0FBC1B241F27C
:106DA0007030C2F20000009005F0E8FC0099042069
:106DB000087301204873FFE7FFE743F60C00C4F2B5
:106DC000010000688009C00768B3FFE743F60000D0
:106DD000C4F20100402106F00BFC18B3FFE743F6B4
:106DE0000000C4F20100402106F0EEFB41F27030D9
:106DF000C2F2000010300DF1070105F09BFC48B90C
:106E0000FFE79DF8071043F60000C4F2010006F00A
:106E1000BDFB06E041F27031C2F20001002048776C
:106E2000FFE7FFE7FFE702B080BD000041F27030EE
:106E3000C2F20000407B012817D1FFE741F2703019
:106E4000C2F20000007B40B1FFE741F27031C2F2B4
:106E50000001087B0138087306E041F27031C2F28C
:106E6000000102204873FFE7FFE741F27030C2F2F1
:106E70000000007F40B1FFE741F27031C2F2000133
:106E8000087F01380877FFE77047000089B0089055
:106E90000791079820F08060069008980190069965
:106EA000059105990291BFF35F8F00680390FFE79A
:106EB0000399019BDDF808C053E8000F084503D192
:106EC00043E800C2002AF7D10090411AB1FA81F1DB
:106ED000490901290390EBD1FFE70098049009B01C
:106EE00070470000FFE7FEE72DE9F04188B01C463F
:106EF00015460E46074613981299119A109BDDF815
:106F00003CC0DDF838E00797ADF81A60ADF81850CE
:106F1000ADF81640ADF814E0ADF812C0ADF8103081
:106F2000ADF80E20ADF80C10ADF80A000799D1208D
:106F300081F802019DF81A00079981F803019DF874
:106F40001800079981F804019DF81700079981F846
:106F50000501BDF81600079981F806019DF8150096
:106F6000079981F80701BDF81400079981F8080115
:106F70009DF81300079981F80901BDF812000799DF
:106F800081F80A019DF81100079981F80B01BDF8FD
:106F90001000079981F80C019DF80F00079981F8FE
:106FA0000D01BDF80E00079981F80E019DF80D0046
:106FB000079981F80F01BDF80C00079981F81001BD
:106FC0009DF80B00079981F81101BDF80A00079997
:106FD00081F81201079901F5817001F50171012213
:106FE000102300F0F9FF079800F50170042101F06B
:106FF000A7F840F21821C2F200010191086001F0E7
:10700000C1F80198C178079A82F813114188079A4C
:1070100082F814110168090A079A82F815110068AC
:10702000079981F816010799F02081F81701079850
:1070300000F581710020162206F074FC08B0BDE84E
:10704000F08100004EF60C50CEF200000068C0F354
:107050000220704782B08DF8070000919DF907006B
:1070600000280AD4FFE7009800019DF907104EF2AE
:107070000042CEF2000288540BE0009800019DF817
:10708000071001F00F014EF61452CEF200028854A0
:10709000FFE702B07047000083B00290029800F052
:1070A000070000904EF60C51CEF2000108680190E6
:1070B00001984FF6FF02104001900198009A40EAB3
:1070C00002200022C0F2FA52104301900198086099
:1070D00003B07047BFF34F8F4EF60C51CEF2000154
:1070E000086800F4E0600422C0F2FA52104308601D
:1070F000BFF34F8FFFE700BFFDE7000080B5012021
:1071000004F064FC80BD00007047000082B0019074
:107110000091009802780199486802F0010220F479
:10712000807040EA0220486000984278019988689F
:1071300002F0010220F0020040EA4200886000985C
:1071400082780199886802F0010220F4006040EA28
:10715000C22088600098C078421E0199C86A02F077
:107160000F0220F4700040EA0250C86202B070477B
:1071700081B0009000990020087000994870009933
:10718000887000990120C87001B0704781B00090EC
:107190000099886840F00800886001B070470000DE
:1071A00082B0009000988068C008C00720B1FFE757
:1071B00001208DF8070003E000208DF80700FFE7AD
:1071C0009DF8070002B0704781B000900099886870
:1071D00040F00400886001B07047000082B0009069
:1071E000009880688008C00720B1FFE701208DF873
:1071F000070003E000208DF80700FFE79DF8070077
:1072000002B0704781B08DF803009DF8032042F270
:107210000441C4F20101086802F00F0220F470205A
:1072200040EA0240086001B07047000082B001905F
:107230008DF803109DF803200199886862F300001F
:10724000886002B07047000082B001908DF8031092
:1072500000208DF80200019800689DF80310084294
:1072600004D1FFE700208DF8020003E001208DF833
:107270000200FFE79DF8020002B0704783B0029061
:107280008DF807108DF806208DF805309DF8070061
:1072900009281CDCFFE70298006900909DF80700B0
:1072A00000EB4001072000FA01F1009888430090AC
:1072B0009DF805009DF8071001EB410100FA01F16E
:1072C0000098084300900098029908611EE0029817
:1072D000C06800909DF8070000EB4000A0F11E017F
:1072E000072000FA01F10098884300909DF80500FE
:1072F0009DF8071001EB41011E3900FA01F10098D9
:107300000843009000980299C860FFE79DF80600C6
:107310000D281FDBFFE70298C06A00909DF8060069
:1073200000EB8000A0F141011F2000FA01F100985C
:10733000884300909DF807009DF8061001EB81013D
:10734000413900FA01F10098084300900098029931
:10735000C86242E09DF8060007281FDBFFE702989D
:10736000006B00909DF8060000EB8000A0F1230167
:107370001F2000FA01F10098884300909DF8070053
:107380009DF8061001EB8101233900FA01F1009804
:10739000084300900098029908631DE00298406B32
:1073A00000909DF8060000EB8000411F1F2000FAAE
:1073B00001F10098884300909DF807009DF80610A1
:1073C00001EB8101053900FA01F1009808430090B2
:1073D000009802994863FFE7FFE703B07047000099
:1073E00081B000900098C06C80B201B0704700007E
:1073F00082B001908DF803108DF802209DF80300F3
:10740000082811DBFFE70199886840F00070886068
:107410009DF8030000F007020199886820F46020BD
:1074200040EA4240886010E00199886820F00070CE
:1074300088609DF8030000F007020199886820F435
:10744000602040EA42408860FFE79DF802200199F1
:10745000886802F0010220F4801040EA025088603F
:1074600002B0704782B001908DF803109DF80320A0
:107470000199486802F0010220F4006040EAC2204D
:10748000486002B07047000082B001908DF8031090
:107490009DF803200199886802F0010220F4800021
:1074A00040EA8250886002B07047000088B00790C0
:1074B00006910592079B0698009005990491016832
:1074C000DDF810C0BFF35F8F53E8000F084503D10C
:1074D00043E800C2002AF7D10190401AB0FA80F0C8
:1074E0004009BFF35F8F0146029120B9FFE7019881
:1074F00000990860FFE7029800F001008DF80F0086
:107500009DF80F0000F0010008B0704787B00690AA
:107510000698019001210591059902910068039058
:10752000FFE70399019B029801EB000C53E8000F61
:10753000084503D143E800C2002AF7D10090411A60
:10754000B1FA81F1490901290390EAD1FFE70098D6
:107550000490049807B0704780B540F60000C4F26C
:1075600001004FF4805104F0C1F880BD80B540F6B1
:107570000000C4F201004FF4805104F0C1F880BD56
:1075800080B541F26020C2F2000090F8870038B95F
:10759000FFE740F21C10C2F20000FDF7F3FB10E021
:1075A00041F26020C2F2000090F88700012807D164
:1075B000FFE740F21C10C2F20000C0688047FFE7FE
:1075C000FFE741F26020C2F2000090F87600C007A9
:1075D00080B3FFE740F21E20C2F2000001780131C3
:1075E000017000781A2824DBFFE740F21E21C2F266
:1075F00000010020087040F21D20C2F20000007857
:1076000006280EDCFFE740F21D21C2F200010878D7
:107610000130087040F21C11C2F2000101204871D3
:1076200006E040F21C11C2F2000102204871FFE79F
:10763000FFE70BE040F21E21C2F2000100200870BB
:1076400040F21D21C2F200010870FFE780BD00007A
:1076500082B0ADF80600ADF8041000200090BDF82F
:107660000600BDF80410401A0090009802B0704760
:1076700041F26020C2F20000008E40F6B83188422C
:1076800008DCFFE741F26020C2F20000008E002813
:1076900008DCFFE741F26021C2F200014FF4FA700A
:1076A0000886FFE741F26020C2F20000808E41F2BE
:1076B0008831884208DCFFE741F26020C2F2000016
:1076C000808E002808DCFFE741F26021C2F2000151
:1076D0004FF47A708886FFE741F26020C2F2000022
:1076E000008F40F6B831884208DCFFE741F26020A5
:1076F000C2F20000008F002808DCFFE741F26021A1
:10770000C2F200014FF4C8700887FFE741F2602021
:10771000C2F20000808F41F28831884208DCFFE726
:1077200041F26020C2F20000808F002808DCFFE7F1
:1077300041F26021C2F200014FF47A708887FFE7BE
:1077400041F26020C2F2000090F88200D0B1FFE761
:1077500041F26020C2F2000090F88200022811D0AD
:10776000FFE741F26020C2F2000090F88200012899
:1077700008D0FFE741F26021C2F20001022081F847
:107780008200FFE741F26020C2F20000B0F8400042
:1077900040F6B831884209DCFFE741F26020C2F2CE
:1077A0000000B0F84000002809DCFFE741F260214A
:1077B000C2F200014FF4C870A1F84000FFE741F2A7
:1077C0006020C2F20000B0F8440041F288318842E3
:1077D00009DCFFE741F26020C2F20000B0F844008B
:1077E000002809DCFFE741F26021C2F200014FF4FA
:1077F0007A70A1F84400FFE741F26020C2F2000075
:1078000090F88300D0B1FFE741F26020C2F200009F
:1078100090F88300022811D0FFE741F26020C2F205
:10782000000090F88300012808D0FFE741F26021B2
:10783000C2F20001022081F88300FFE741F26020DC
:10784000C2F20000B0F8480040F6B831884209DCC6
:10785000FFE741F26020C2F20000B0F848000028C3
:1078600009DCFFE741F26021C2F200014FF4C87069
:10787000A1F84800FFE741F26020C2F20000B0F832
:107880004C0041F28831884209DCFFE741F2602078
:10789000C2F20000B0F84C00002809DCFFE741F21A
:1078A0006021C2F200014FF47A70A1F84C00FFE7AA
:1078B00041F26020C2F2000090F88400D0B1FFE7EE
:1078C00041F26020C2F2000090F88400022811D03A
:1078D000FFE741F26020C2F2000090F88400012826
:1078E00008D0FFE741F26021C2F20001022081F8D6
:1078F0008400FFE741F26020C2F20000B0F85000BF
:1079000040F6B831884209DCFFE741F26020C2F25C
:107910000000B0F85000002809DCFFE741F26021C8
:10792000C2F200014FF4C870A1F85000FFE741F225
:107930006020C2F20000B0F8540041F28831884261
:1079400009DCFFE741F26020C2F20000B0F8540009
:10795000002809DCFFE741F26021C2F200014FF488
:107960007A70A1F85400FFE741F26020C2F20000F3
:1079700090F88500D0B1FFE741F26020C2F200002C
:1079800090F88500022811D0FFE741F26020C2F292
:10799000000090F88500012808D0FFE741F260213F
:1079A000C2F20001022081F88500FFE741F2602069
:1079B000C2F2000090F88000D0B1FFE741F26020F1
:1079C000C2F2000090F88000022811D0FFE741F2D7
:1079D0006020C2F2000090F88000012808D0FFE784
:1079E00041F26021C2F20001002081F88000FFE72F
:1079F00041F26020C2F2000090F86800C00798B120
:107A0000FFE741F26020C2F2000090F8680000F049
:107A10000100012808D0FFE741F26021C2F2000115
:107A2000002081F86800FFE741F26020C2F2000008
:107A300090F86900C00798B1FFE741F26020C2F2F8
:107A4000000090F8690000F00100012808D0FFE76D
:107A500041F26021C2F20001002081F86900FFE7D5
:107A600041F26020C2F2000090F8860088B1FFE782
:107A700041F26020C2F2000090F88600012808D090
:107A8000FFE741F26021C2F20001002081F8860088
:107A9000FFE741F26020C2F2000090F88700012861
:107AA00010D0FFE741F26020C2F2000090F887009A
:107AB00040B1FFE741F26021C2F20001002081F8ED
:107AC0008700FFE77047000080B584B004F0DAFC5F
:107AD0000391029004F0CCFD98B1FFE704F0D2FCD2
:107AE0000391029004F0E4FC019008460199029B86
:107AF000039AC9185041013140F1000002910390EE
:107B0000FFE70298039904B080BD00000000000068
:107B100080B584B000200390ADF80A0040F28010D8
:107B2000C2F2000004F0F4FAFCF749FD41EC100B3E
:107B30009FED291B53EC112B51EC100BFCF7BFFCF4
:107B400041EC100B51EC100BFCF778FD03909DED10
:107B5000030AB5EE400AF1EE10FA15DBFFE70398D1
:107B6000FCF759FD41EC100B9FED1F1B53EC112B43
:107B700051EC100BFCF78AFB41EC100B51EC100B95
:107B8000FCF72AFD019014E00398FCF744FD41EC5A
:107B9000100B9FED131B53EC112B51EC100BFCF74A
:107BA00075FB41EC100B51EC100BFCF715FD01902F
:107BB000FFE70198ADF80A00BDF80A0041F28931EB
:107BC000884205DBFFE741F28830ADF80A00FFE7A5
:107BD000BDF80A0004B080BD6891ED7C3F35EA3FF6
:107BE000000000000000E0BF000000000000E03FD7
:107BF00080B582B000F080F941F26021C2F200014C
:107C000001910881FFF784FF0199888100F008F84D
:107C100002B080BD80B5FFF7EBFF80BD0000000023
:107C200080B584B040F62020C2F20000016801391E
:107C300001600068002800F35481FFE740F620212E
:107C4000C2F20001322008600F200A2102F094FDE8
:107C500000EE100AB8EE400A40F62820C2F20000FA
:107C600080ED000A90ED000AB5EE400AF1EE10FA40
:107C700019DBFFE740F62820C2F200000068FCF79D
:107C8000CAFC41EC100B9FED9A1B53EC112B51ECED
:107C9000100BFCF7FBFA41EC100B51EC100BFCF74E
:107CA0009BFC039018E040F62820C2F20000006818
:107CB000FCF7B1FC41EC100B9FED8B1B53EC112B2F
:107CC00051EC100BFCF7E2FA41EC100B51EC100BED
:107CD000FCF782FC0390FFE7039800EE100AB8EE71
:107CE000C00A41F26020C2F2000080ED080A0E20B6
:107CF0000A2102F041FD00EE100AB8EE400A40F6FB
:107D00002420C2F2000080ED000A90ED000AB5EEDA
:107D1000400AF1EE10FA19DBFFE740F62420C2F228
:107D200000000068FCF777FC41EC100B9FED701B26
:107D300053EC112B51EC100BFCF7A8FA41EC100B93
:107D400051EC100BFCF748FC029018E040F62420A0
:107D5000C2F200000068FCF75EFC41EC100B9FEDE6
:107D6000621B53EC112B51EC100BFCF78FFA41EC1A
:107D7000100B51EC100BFCF72FFC0290FFE7029860
:107D800000EE100AB8EEC00A41F26020C2F2000014
:107D900080ED0A0A08200A2102F0EEFC00EE100A2B
:107DA000B8EE400A40F62C20C2F2000080ED000A36
:107DB00090ED000AB5EE400AF1EE10FA19DBFFE78C
:107DC00040F62C20C2F200000068FCF724FC41ECD5
:107DD000100B9FED471B53EC112B51EC100BFCF7D4
:107DE00055FA41EC100B51EC100BFCF7F5FB019030
:107DF00018E040F62C20C2F200000068FCF70BFCF3
:107E000041EC100B9FED381B53EC112B51EC100B78
:107E1000FCF73CFA41EC100B51EC100BFCF7DCFBCF
:107E20000190FFE7019800EE100AB8EEC00A41F297
:107E30006020C2F2000080ED060A09200A2102F04B
:107E40009BFC00EE100AB8EE400A40F63020C2F269
:107E5000000080ED000A90ED000AB5EE400AF1EE58
:107E600010FA19DBFFE740F63020C2F2000000688C
:107E7000FCF7D1FB41EC100B9FED1D1B53EC112BBC
:107E800051EC100BFCF702FA41EC100B51EC100B0B
:107E9000FCF7A2FB009018E040F63020C2F2000090
:107EA0000068FCF7B8FB41EC100B9FED0F1B53EC87
:107EB000112B51EC100BFCF7E9F941EC100B51ECD4
:107EC000100BFCF789FB0090FFE7009800EE100A0A
:107ED000B8EEC00A41F26020C2F2000080ED040A50
:107EE000FFE704B080BD00BF000000000000E0BF5D
:107EF000000000000000E03F80B584B00020039047
:107F0000ADF80A0040F2C410C2F2000004F000F91B
:107F1000FCF755FB41EC100B9FED291B53EC112B8B
:107F200051EC100BFCF7CBFA41EC100B51EC100BA1
:107F3000FCF784FB03909DED030AB5EE400AF1EED9
:107F400010FA15DBFFE70398FCF765FB41EC100B1B
:107F50009FED1F1B53EC112B51EC100BFCF796F906
:107F600041EC100B51EC100BFCF736FB019014E0C8
:107F70000398FCF750FB41EC100B9FED131B53ECE7
:107F8000112B51EC100BFCF781F941EC100B51EC6B
:107F9000100BFCF721FB0190FFE70198ADF80A00F8
:107FA000BDF80A0040F6B931884205DBFFE740F62C
:107FB000B830ADF80A00FFE7BDF80A0004B080BD94
:107FC000D7A3703D0AD7F53F000000000000E0BFD6
:107FD000000000000000E03F8BB00990089107927C
:107FE0000693099818B1FFE7089818B9FFE7002031
:107FF0000A905FE007980699884203D9FFE70020BE
:108000000A9057E006980799401A013005900998A0
:10801000079908440490002002900390FFE703981A
:108020000599B0EB910F11D2FFE70498006800BAF0
:108030000899029A531C029341F8220004980430D4
:108040000490FFE7039801300390E8E79DF81400DF
:10805000800760B3FFE700200190059901F003015C
:108060008DF803108DF80200FFE79DF802009DF8DF
:108070000310884213DAFFE704989DF80220805C21
:108080001821A1EBC20100FA01F101980843019007
:10809000FFE79DF8020001308DF80200E5E7019846
:1080A0000899029A531C029341F82200FFE70298B4
:1080B0000A90FFE70A980BB07047000084B0039065
:1080C00002914FF6FF70ADF80600FFE7029890B3FB
:1080D000FFE70398411C03910178BDF8060080EA90
:1080E0000120ADF8060008200090FFE70098F0B1ED
:1080F000FFE7BDF80600000400280DD5FFE7BDF836
:1081000006004000ADF80600BDF8060041F221016E
:108110004840ADF8060005E0BDF806004000ADF8A7
:108120000600FFE7FFE7009801380090DEE70298BD
:1081300001380290CAE7BDF8060004B0704700009D
:1081400083B002900191002000900090FFE700981A
:10815000019988420ED2FFE70298009950F8210059
:1081600043F20001C4F202010860FFE70098013009
:108170000090ECE743F20000C4F20200006803B094
:108180007047000043F20801C4F20201086840F0A1
:10819000010008607047000081B00090009843F231
:1081A0001001C4F20201086001B0704781B08DF87F
:1081B00003009DF8032043F20801C4F2020108689D
:1081C00002F0030220F0180040EAC200086001B08B
:1081D0007047000081B00090009843F21401C4F28F
:1081E0000201086001B0704781B08DF803009DF86E
:1081F000032043F20801C4F20201086802F00302FE
:1082000020F0600040EA4210086001B070470000B2
:1082100081B08DF803009DF8032043F20801C4F2F9
:108220000201086802F0010220F0800040EAC2105A
:10823000086001B07047000081B08DF803009DF820
:10824000030000F0030241F20401C4F202010868D5
:1082500020F4404040EA823008609DF8032008681E
:10826000920862F31C70086001B0704781B08DF80D
:1082700003009DF8032041F20401C4F202010868E2
:1082800002F00F0220F0F00040EA0210086001B096
:108290007047000081B08DF803009DF8032041F283
:1082A0000401C4F20201086802F0070220F4E06051
:1082B00040EA0220086001B07047000081B08DF8EC
:1082C00003009DF8032041F20401C4F20201086892
:1082D00002F0070220F4605040EAC220086001B0BA
:1082E0007047000081B08DF803009DF8030001285D
:1082F00009D1FFE741F25401C4F20201086840F0DD
:108300003000086008E041F25401C4F2020108683C
:1083100020F030000860FFE701B0704782B08DF8B0
:1083200007008DF806109DF807000146009104280B
:1083300044D80099DFE801F0030E1D2C37009DF8AA
:10834000062041F20001C4F20201086862F3000055
:10835000086034E09DF8062041F20001C4F20201F9
:10836000086802F0010220F4803040EA0240086010
:1083700025E09DF8062041F20001C4F202010868E0
:1083800002F0010220F0807040EA0260086016E00E
:108390009DF8062041F22001C4F20201086862F350
:1083A000000008600BE09DF8062041F22401C4F2B1
:1083B0000201086862F30000086000E0FFE702B015
:1083C0007047000080B58AB009900020089007909F
:1083D000069005900490039000F028FA8DF80B00A9
:1083E0009DF80B000146019140B1FFE7019801287B
:1083F00025D0FFE70198022828D07EE041F2540002
:10840000C4F202000068400AC00780B1FFE741F2F1
:108410003000C4F202000068400EC00738B1FFE728
:10842000099946F60040C0F2DC20086006E0099990
:1084300041F20020C0F27A000860FFE764E0099989
:1084400041F20020C0F27A0008605DE041F20400D1
:10845000C4F202000168C1F3004105910168C1F353
:10846000834107910068C0F341700690069820B9D7
:10847000FFE707980F2807D1FFE70699079800EB59
:1084800001100130079003E0079802300790FFE7E2
:10849000059848B9FFE7079840F60011C0F23D0182
:1084A00048430999086027E041F20400C4F2020041
:1084B0000068400CC007A8B1FFE741F25400C4F2C5
:1084C00002000068C0F3013008900898811C41F256
:1084D0000020C0F27A00B0FBF1F0079948430999F7
:1084E000086008E0079841F20021C0F27A01484391
:1084F00009990860FFE7FFE706E0099941F20020CB
:10850000C0F27A000860FFE741F20400C4F2020002
:108510000168C1F303110491049A4EF67041C0F64C
:108520000001895C0391099A1168039BD94051604D
:108530000168C1F302210491049A4EF66041C0F62D
:108540000001895C0391099A5168039BD940D1606D
:108550000168C1F3C2210491049A4EF66841C0F645
:108560000001895C0391099A5168039BD94091608D
:108570000168C1F30071049104990068C0F381306F
:1085800040EA8100049004994EF65840C0F600007D
:10859000405C039009998868039AB0FBF2F0086187
:1085A0000AB080BD82B0019000208DF80300BDF8B4
:1085B000060041F20001C4F202014058019901F0A5
:1085C0001F01C840C00720B9FFE700208DF8030055
:1085D00003E001208DF80300FFE79DF8030002B0DF
:1085E0007047000080B584B0002003908DF80B0028
:1085F000FFE71120FFF7D6FF014600200129019077
:1086000008D0FFE703990020B1F5405F38BF012093
:108610000190FFE70198C00720B1FFE70398013000
:108620000390E6E71120FFF7BDFF012804D0FFE724
:1086300000208DF80B0003E001208DF80B00FFE710
:108640009DF80B0004B080BD82B001908DF803103E
:108650009DF8030001280FD1FFE7019800F01F02E9
:10866000012101FA02F3010C41F20002C4F20202FC
:108670008858184388500EE0019800F01F0201212D
:1086800001FA02F3010C41F20002C4F2020288581E
:1086900098438850FFE702B07047000081B08DF822
:1086A00003008DF802108DF801209DF8030088B9B1
:1086B000FFE741F20401C4F20201086820F48030AF
:1086C000086041F23001C4F20201086840F0007015
:1086D00008601FE041F20401C4F20201086840F49E
:1086E000803008609DF80300012809D1FFE741F2BE
:1086F0000401C4F20201086820F40030086008E0B8
:1087000041F20401C4F20201086840F4003008603C
:10871000FFE7FFE79DF8020000F00F0241F20401BD
:10872000C4F20201086820F4701040EA8240086038
:108730009DF8020000F03002086820F0C04040EAD6
:10874000426008609DF80120086820F0004040EA7F
:10875000C270086001B0704741F20001C4F202012A
:10876000086840F001000860FFE741F20000C4F231
:1087700002000068C0F34000012801D0FFE7F4E7E1
:1087800041F20401C4F20201086820F0030008600D
:10879000FFE741F20400C4F202000068800880078D
:1087A00008B1FFE7F5E741F20001C4F202010868F1
:1087B0004FF6FF72CFF6F2621040086041F20401FA
:1087C000C4F202010020086041F23001C4F202014B
:1087D000086041F20801C4F202014FF41F00086072
:1087E0007047000081B08DF803009DF8032041F22E
:1087F0000401C4F20201086862F30100086000BFCE
:1088000000BF00BF00BF00BF00BF00BF00BF00BF70
:1088100000BF00BF00BF00BF00BF00BF00BF00BF60
:1088200000BF00BF00BF01B07047000041F204006C
:10883000C4F202000068C0F38100704781B040F2CA
:108840001000C2F20000007801460091092800F2F1
:1088500055810099DFE811F00A002F0054007900DB
:10886000A000C200E40006012A01510141F260208B
:10887000C2F20000808E013041F2893188420BDB68
:10888000FFE741F26021C2F2000141F288308886A0
:1088900041F27070C88607E041F26021C2F2000127
:1088A000888E01308886FFE740F21001C2F2000195
:1088B0000920087022E141F26020C2F20000808E9F
:1088C0000A3041F2893188420BDBFFE741F2602137
:1088D000C2F2000141F28830888641F27070C88689
:1088E00007E041F26021C2F20001888E0A308886DA
:1088F000FFE740F21001C2F2000109200870FDE01C
:1089000041F26020C2F20000808E643041F2893171
:1089100088420BDBFFE741F26021C2F2000141F225
:108920008830888641F27070C88607E041F2602185
:10893000C2F20001888E64308886FFE740F21001A1
:10894000C2F2000109200870D8E041F26020C2F2B2
:108950000000808E00F57A7041F2893188420BDB8D
:10896000FFE741F26021C2F2000141F288308886BF
:1089700041F27070C88608E041F26021C2F2000145
:10898000888E00F57A708886FFE740F21001C2F207
:10899000000109200870B1E041F26020C2F200003D
:1089A000808E013801280ADCFFE741F26021C2F223
:1089B00000010120888641F27070C88607E041F20C
:1089C0006021C2F20001888E01388886FFE740F2FC
:1089D0001001C2F20001092008708FE041F260200E
:1089E000C2F20000808E0A3801280ADCFFE741F25B
:1089F0006021C2F200010120888641F27070C886B1
:108A000007E041F26021C2F20001888E0A388886B0
:108A1000FFE740F21001C2F20001092008706DE08A
:108A200041F26020C2F20000808E643801280ADC26
:108A3000FFE741F26021C2F200010120888641F285
:108A40007070C88607E041F26021C2F20001888E92
:108A500064388886FFE740F21001C2F20001092065
:108A600008704BE041F26020C2F20000808EA0F559
:108A70007A7001280ADCFFE741F26021C2F20001AE
:108A80000120888641F27070C88608E041F26021BA
:108A9000C2F20001888EA0F57A708886FFE740F266
:108AA0001001C2F200010920087027E041F26020A5
:108AB000C2F20000002180F86B1090F86C100131B8
:108AC00080F86C1090F86C00052808DBFFE741F295
:108AD0006021C2F20001002081F86C00FFE741F242
:108AE0006021C2F20001002081F8740040F2100100
:108AF000C2F200010920087000E0FFE701B07047F2
:108B000080B541F26020C2F2000090F87200C00708
:108B1000E8B3FFE741F26021C2F20001C88E898EFE
:108B2000884208D0FFE741F26020C2F20000808E48
:108B3000FDF7D2FBFFE740F63421C2F2000100202E
:108B4000086040F21400C2F20000016801390160BF
:108B5000006800281ADCFFE741F26020C2F2000042
:108B600090F86C0090B9FFE740F21401C2F20001E6
:108B700040F6B830086041F26021C2F200010020E6
:108B800081F872004FF6FF70C886FFE75FE041F2A0
:108B90006020C2F2000090F88A00A8BBFFE740F610
:108BA0003420C2F200000168013901600068002829
:108BB00029DCFFE740F63421C2F200014FF4C8700F
:108BC000086041F26021C2F20001C88989898842A7
:108BD00018D0FFE741F26020C2F200008189C18114
:108BE00090F88800012808D1FFE741F26020C2F226
:108BF00000008089FBF7D4FE03E00020FBF7D0FEE5
:108C0000FFE7FFE7FFE721E041F26020C2F200004A
:108C100090F88A00012818D1FFE740F63421C2F20B
:108C200000010020086041F26021C2F20001C88EFC
:108C3000898E884208D0FFE741F26020C2F200002E
:108C4000808EFDF749FBFFE7FFE7FFE7FFE780BD09
:108C500084B08DF80F009DF80F0001380146029195
:108C6000092800F205810299DFE811F00A005A0094
:108C700000010101AC00CB00FF00CC00AA00AB005A
:108C800041F26020C2F2000090F88600002846D130
:108C9000FFE741F26020C2F2000090F86C0001464C
:108CA0000191042828D80199DFE801F0030A11187E
:108CB0001F0040F21001C2F20001022008701CE007
:108CC00040F21001C2F200010320087015E040F2EA
:108CD0001001C2F20001022008700EE040F2100103
:108CE000C2F200010120087007E040F21001C2F258
:108CF00000010020087000E0FFE741F26021C2F2AD
:108D00000001012081F8780081F8740081F8720078
:108D100040F21C11C2F2000100204871FFE7A8E0F8
:108D200041F26020C2F2000090F88600002846D18F
:108D3000FFE741F26020C2F2000090F86C000146AB
:108D40000091042828D80099DFE801F0030A1118DF
:108D50001F0040F21001C2F20001062008701CE062
:108D600040F21001C2F200010720087015E040F245
:108D70001001C2F20001062008700EE040F210015E
:108D8000C2F200010520087007E040F21001C2F2B3
:108D900000010420087000E0FFE741F26021C2F208
:108DA0000001012081F8780081F8740081F87200D8
:108DB00040F21C11C2F2000100204871FFE758E0A8
:108DC00057E056E041F26020C2F2000090F88600C1
:108DD000B0B9FFE740F21001C2F2000108200870AC
:108DE00041F26022C2F20002002082F874000121E8
:108DF00082F8721040F21C11C2F200014871FFE7C4
:108E000037E036E041F26020C2F2000090F88600C0
:108E1000012823D1FFE741F26020C2F2000090F860
:108E2000870040B9FFE741F26021C2F20001012052
:108E300081F8870011E041F26020C2F2000090F852
:108E40008700012808D1FFE741F26021C2F200014A
:108E5000002081F88700FFE7FFE7FFE740F21C11E1
:108E6000C2F200010120487103E002E001E000E0ED
:108E7000FFE741F26020C2F2000090F86C0098B366
:108E8000FFE79DF80F0078BBFFE740F25000C2F209
:108E90000000016801390160006840F21451884205
:108EA00008DCFFE741F26021C2F20001002081F8F6
:108EB0007400FFE740F25000C2F200000068002892
:108EC00011DCFFE740F25001C2F2000140F6B83079
:108ED000086041F26021C2F20001002081F86C00BC
:108EE00081F87200FFE714E041F26020C2F2000056
:108EF00090F86C0060B1FFE79DF80F0040B1FFE70C
:108F000040F25001C2F2000140F6B8300860FFE7BD
:108F1000FFE704B07047000082B00190ADF8021086
:108F2000BDF802000199086002B0704782B001905C
:108F3000ADF80210BDF802000199086002B0704758
:108F400080B582B08DF80700ADF80410ADF80220AE
:108F5000BDF80400BDF80210884206DAFFE79DF86C
:108F60000700002100F038F805E09DF80700012116
:108F700000F032F8FFE702B080BD000082B08DF84B
:108F800007008DF806109DF80700014600910128A2
:108F900004D0FFE7009802280BD019E09DF80620C6
:108FA00047F20041C4F20001086862F30000086063
:108FB0000FE09DF8062047F20041C4F20001086866
:108FC00002F0010220F4803040EA0240086000E034
:108FD000FFE702B07047000082B08DF807008DF8FF
:108FE00006109DF80600B0FA80F040098DF80600E2
:108FF0009DF8070001460091012804D0FFE7009882
:1090000002280FD01DE09DF8062047F20041C4F26F
:109010000001086802F0010220F0020040EA42006C
:1090200008600FE09DF8062047F20041C4F20001FD
:10903000086802F0010220F4003040EA4240086073
:1090400000E0FFE702B0704780B586B0ADF81600CB
:10905000ADF814100492039340F6F020C2F2000021
:10906000008841F26021C2F20001898E884200F03E
:10907000AB80FFE741F26020C2F20000808E40F634
:10908000F021C2F200010880BDF814100220642211
:10909000FFF756FFBDF814000399014440F6842001
:1090A000C2F2000001600068002807DCFFE740F61C
:1090B0008821C2F2000100200860FFE740F684200A
:1090C000C2F200000068FBF769FA41EC100B9FED5B
:1090D0009C1B53EC112B51EC100BFBF77EF941EC70
:1090E000100B51EC100BFBF7A9FA014640F6782063
:1090F000C2F20000016090ED000AB5EE400AF1EE08
:1091000010FA19DBFFE740F67820C2F20000006891
:10911000FBF781FA41EC100B9FED8D1B53EC112BEB
:1091200051EC100BFBF7B2F841EC100B51EC100BAB
:10913000FBF752FA029018E040F67820C2F20000E5
:109140000068FBF768FA41EC100B9FED7F1B53ECB6
:10915000112B51EC100BFBF799F841EC100B51EC73
:10916000100BFBF739FA0290FFE7029940F67E20D8
:10917000C2F200000180008840F6FF71884208DBDF
:10918000FFE740F67E21C2F2000140F6FF70088042
:10919000FFE740F67E20C2F200000088002807DCCE
:1091A000FFE740F67E21C2F2000100200880FFE7C1
:1091B00040F67E20C2F20000018847F21440C4F25B
:1091C0000000FFF7B3FEFFE740F6F220C2F2000016
:1091D000008841F26021C2F20001098E884200F04D
:1091E000AB80FFE741F26020C2F20000008E40F643
:1091F000F221C2F200010880BDF8161001200A22F7
:10920000FFF79EFEBDF816000499014440F6882041
:10921000C2F2000001600068012807DCFFE740F6A9
:109220008821C2F2000101200860FFE740F6882093
:10923000C2F200000068FBF7B1F941EC100B9FEDA2
:10924000461B53EC112B51EC100BFBF7C6F841EC0D
:10925000100B51EC100BFBF7F1F9014640F68020A2
:10926000C2F20000016090ED000AB5EE400AF1EE96
:1092700010FA19DBFFE740F68020C2F20000006818
:10928000FBF7C9F941EC100B9FED311B53EC112B8F
:1092900051EC100BFAF7FAFF41EC100B51EC100BEC
:1092A000FBF79AF9019018E040F68020C2F2000026
:1092B0000068FBF7B0F941EC100B9FED231B53EC5A
:1092C000112B51EC100BFAF7E1FF41EC100B51ECB4
:1092D000100BFBF781F90190FFE7019940F67C2024
:1092E000C2F200000180008840F6FF71884208DB6E
:1092F000FFE740F67C21C2F2000140F6FF700880D3
:10930000FFE740F67C20C2F200000088012807DC5D
:10931000FFE740F67C21C2F2000101200880FFE750
:1093200040F67C20C2F20000018847F20840C4F2F7
:109330000000FFF7F1FDFFE706B080BD00BF00BFF2
:109340006891ED7C3F35EA3F000000000000E0BF7F
:10935000000000000000E03FD7A3703D0AD7F53FB2
:1093600082B08DF807008DF806109DF807000146C1
:109370000091012804D0FFE7009802280FD01DE0DB
:109380009DF8062047F20041C4F20001086802F08F
:10939000010220F0040040EA820008600FE09DF81E
:1093A000062047F20041C4F20001086802F0010201
:1093B00020F4802040EA8240086000E0FFE702B02D
:1093C0007047000080B584B003908DF80B1000202A
:1093D0008DF80700FFE79DF807009DF80B10884205
:1093E00017DAFFE703989DF80710084400F0E0FF44
:1093F000ADF80800BDF808004FF6FF71884201D1B2
:10940000FFE706E0FFE79DF8070002308DF8070050
:10941000E1E7BDF8080004B080BD000040F68C20F4
:10942000C2F20000007841F26021C2F2000191F81E
:109430008810884210D0FFE741F26021C2F200019B
:1094400091F8880040F68C22C2F2000210700020D1
:109450004866C8814881FFE77047000080B586B044
:109460000590059840F21411C2F200010968A0FBB2
:1094700001010391029040F6E820C2F2000000686A
:109480005B2807DBFFE740F6E820C2F20000006837
:10949000009002E05A200090FFE700980190029BA4
:1094A0000399019AD017D21A884101DBFFE71DE02A
:1094B000019A02990398891A60EBE2700291039075
:1094C00002F0B4F803460A4602990398C9185041BD
:1094D00002910390FFE702F0A9F80246029B03986D
:1094E000D21A71EB000001DAFFE7F4E706B080BDA5
:1094F00080B586B00590059840F21811C2F20001BF
:109500000968A0FB01010391029040F6E820C2F235
:10951000000000685B2807DBFFE740F6E820C2F2A6
:1095200000000068009002E05A200090FFE70098D9
:109530000190029B0399019AD017D21A884101DB4E
:10954000FFE71DE0019A02990398891A60EBE27027
:109550000291039002F06AF803460A4602990398C2
:10956000C918504102910390FFE702F05FF80246EC
:10957000029B0398D21A71EB000001DAFFE7F4E7CF
:1095800006B080BD80B584B040F24410C2F2000045
:109590000190FCF73FF8014601988DF80F109DF9F6
:1095A0000F10FBF7E1FE014641F2DC30C2F2000091
:1095B0000170007804F024FD04F08CFA40F21800E9
:1095C000C2F200000290FCF725F8014602988DF8DF
:1095D0000E109DF90E10FBF7C7FE014640F21C204D
:1095E000C2F2000001700078FFF732FBFFF726F9A6
:1095F00004B080BD7047000080B540F68E20C2F2F6
:1096000000000078C00738B9FFE740F68E21C2F2AB
:10961000000101200870FFE704F0C4FE80BD0000D7
:1096200083B001908DF80310019820B9FFE7012065
:109630008DF80B0024E000208DF802008DF8020068
:10964000FFE79DF802000E280DDCFFE701999DF869
:109650000220002041F82200FFE79DF802000130BF
:109660008DF80200EDE79DF80300019981F84000B4
:1096700001990020C887019988878DF80B00FFE7C2
:109680009DF80B0003B0704781B003208DF80300F4
:1096900042F20C00C4F202000068C00720B1FFE7EC
:1096A00000208DF803001FE042F20C00C4F202001B
:1096B00000688008C00720B1FFE701208DF8030093
:1096C00011E042F20C00C4F2020000680009C00779
:1096D00020B1FFE702208DF8030003E003208DF89E
:1096E0000300FFE7FFE7FFE79DF8030001B07047C5
:1096F00080B584B0039003208DF80B00FFF7C4FF02
:109700008DF80B00FFE79DF80B100020019031B998
:10971000FFE70398002818BF01200190FFE7019898
:10972000C00740B1FFE7FFF7AFFF8DF80B000398CC
:1097300001380390E7E7039820B9FFE704208DF88C
:109740000B00FFE79DF80B0004B080BD81B0032043
:109750008DF8030042F24C00C4F202000068C0071A
:1097600020B1FFE700208DF803001FE042F24C001B
:10977000C4F2020000688008C00720B1FFE70120A2
:109780008DF8030011E042F24C00C4F202000068C0
:109790000009C00720B1FFE702208DF8030003E0B5
:1097A00003208DF80300FFE7FFE7FFE79DF80300C4
:1097B00001B0704780B584B0039003208DF80B0092
:1097C000FFF7C4FF8DF80B00FFE79DF80B1000209A
:1097D000019031B9FFE70398002818BF01200190DC
:1097E000FFE70198C00740B1FFE7FFF7AFFF8DF833
:1097F0000B00039801380390E7E7039820B9FFE7CF
:1098000004208DF80B00FFE79DF80B0004B080BD2D
:1098100080B586B00590ADF8121003208DF81100C8
:109820000598B0F1006F21D3FFE705984FF6FF715F
:10983000C0F60701884219D8FFE742F21001C4F2CE
:1098400002010391086840F001000860BDF81200B1
:10985000059908804FF48010FFF74AFF03998DF8AF
:109860001100086820F00100086046E0059800211A
:10987000C0F6080188421ED3FFE70598000D802836
:1098800019D8FFE742F25001C4F2020102910868C0
:1098900040F001000860BDF81200059908804FF4FF
:1098A0008010FFF787FF02998DF81100086820F0FB
:1098B0000100086020E00598B0F1046F1BD3FFE7BA
:1098C00042F29001C4F202010191086840F00100E7
:1098D0000860BDF81200059908804FF4801000F070
:1098E0004DFE01998DF81100086820F00100086014
:1098F00000F002FEFFE7FFE7FFE79DF8110006B06A
:1099000080BD000080B58AB040F6DC20C2F20000C5
:10991000007801460991032800F236850999DFE8AD
:1099200011F004003B015504FC0440F69420C2F2FF
:1099300000000078C007002840F02681FFE74FF6BE
:109940000000C0F603001421FFF73CFD4FF6FF7145
:10995000884231D0FFE74FF60040C0F603001421E3
:10996000FFF730FD4FF6FF71884225D0FFE74FF635
:109970002600C0F6030000F01BFD40F69021C2F265
:109980000001089108804FF62640C0F6030000F061
:109990000FFD0246089840F69221C2F200010A80AB
:1099A00000880988884203DDFFE700F079FF02E0C4
:1099B00001F02CF8FFE722E04FF60000C0F60300AC
:1099C0001421FFF7FFFC4FF6FF71884203D0FFE739
:1099D00000F066FF12E04FF60040C0F603001421CD
:1099E000FFF7F0FC4FF6FF71884203D0FFE701F06C
:1099F0000DF802E001F0E0FDFFE7FFE7FFE7FDF70C
:109A000037FE41F26020C2F200000790018E00EEA6
:109A1000101AB8EE400A40F6D821C2F2000181EDDA
:109A2000000A818E00EE101AB8EE400A40F69C2122
:109A3000C2F2000181ED000A018F00EE101AB8EEAB
:109A4000400A40F6AC21C2F2000181ED000A818F8C
:109A500000EE101AB8EE400A40F6A421C2F200014E
:109A600081ED000A90F8821040F6A822C2F20002AE
:109A70001170B0F8401000EE101AB8EE400A40F62F
:109A8000B821C2F2000181ED000AB0F8441000EEE6
:109A9000101AB8EE400A40F6B021C2F2000181ED82
:109AA000000A90F8831040F6B422C2F2000211704E
:109AB000B0F8481000EE101AB8EE400A40F6C42183
:109AC000C2F2000181ED000AB0F84C1000EE101A4D
:109AD000B8EE400A40F6BC21C2F2000181ED000A56
